{
  "contractName": "Election",
  "abi": [
    {
      "constant": true,
      "inputs": [],
      "name": "votrSize",
      "outputs": [
        {
          "name": "",
          "type": "uint256"
        }
      ],
      "payable": false,
      "stateMutability": "view",
      "type": "function"
    },
    {
      "constant": true,
      "inputs": [],
      "name": "candSize",
      "outputs": [
        {
          "name": "",
          "type": "uint256"
        }
      ],
      "payable": false,
      "stateMutability": "view",
      "type": "function"
    },
    {
      "constant": true,
      "inputs": [
        {
          "name": "",
          "type": "bytes32"
        }
      ],
      "name": "ownerId",
      "outputs": [
        {
          "name": "",
          "type": "uint256"
        }
      ],
      "payable": false,
      "stateMutability": "view",
      "type": "function"
    },
    {
      "inputs": [
        {
          "name": "_owner",
          "type": "bytes32"
        },
        {
          "name": "_title",
          "type": "bytes"
        },
        {
          "name": "_candidates",
          "type": "bytes32[]"
        },
        {
          "name": "_voters",
          "type": "bytes32[]"
        },
        {
          "name": "_manual",
          "type": "bool"
        },
        {
          "name": "_startNow",
          "type": "bool"
        },
        {
          "name": "_start",
          "type": "uint256"
        },
        {
          "name": "_end",
          "type": "uint256"
        }
      ],
      "payable": false,
      "stateMutability": "nonpayable",
      "type": "constructor"
    },
    {
      "constant": true,
      "inputs": [
        {
          "name": "_email",
          "type": "bytes32"
        }
      ],
      "name": "isVoter",
      "outputs": [
        {
          "name": "",
          "type": "bool"
        }
      ],
      "payable": false,
      "stateMutability": "view",
      "type": "function"
    },
    {
      "constant": true,
      "inputs": [
        {
          "name": "_email",
          "type": "bytes32"
        }
      ],
      "name": "isOwner",
      "outputs": [
        {
          "name": "",
          "type": "bool"
        }
      ],
      "payable": false,
      "stateMutability": "view",
      "type": "function"
    },
    {
      "constant": true,
      "inputs": [
        {
          "name": "_email",
          "type": "bytes32"
        }
      ],
      "name": "isVoted",
      "outputs": [
        {
          "name": "",
          "type": "bool"
        }
      ],
      "payable": false,
      "stateMutability": "view",
      "type": "function"
    },
    {
      "constant": true,
      "inputs": [
        {
          "name": "_email",
          "type": "bytes32"
        }
      ],
      "name": "getVotedTo",
      "outputs": [
        {
          "name": "",
          "type": "string"
        }
      ],
      "payable": false,
      "stateMutability": "view",
      "type": "function"
    },
    {
      "constant": false,
      "inputs": [
        {
          "name": "_email",
          "type": "bytes32"
        },
        {
          "name": "_candidateId",
          "type": "uint256"
        }
      ],
      "name": "vote",
      "outputs": [],
      "payable": false,
      "stateMutability": "nonpayable",
      "type": "function"
    },
    {
      "constant": true,
      "inputs": [],
      "name": "getTitle",
      "outputs": [
        {
          "name": "",
          "type": "string"
        }
      ],
      "payable": false,
      "stateMutability": "view",
      "type": "function"
    },
    {
      "constant": true,
      "inputs": [],
      "name": "getOwner",
      "outputs": [
        {
          "name": "",
          "type": "string"
        }
      ],
      "payable": false,
      "stateMutability": "view",
      "type": "function"
    },
    {
      "constant": true,
      "inputs": [
        {
          "name": "i",
          "type": "uint256"
        }
      ],
      "name": "getCandidateName",
      "outputs": [
        {
          "name": "",
          "type": "string"
        }
      ],
      "payable": false,
      "stateMutability": "view",
      "type": "function"
    },
    {
      "constant": true,
      "inputs": [
        {
          "name": "i",
          "type": "uint256"
        }
      ],
      "name": "getCandidateVoteCount",
      "outputs": [
        {
          "name": "",
          "type": "uint256"
        }
      ],
      "payable": false,
      "stateMutability": "view",
      "type": "function"
    },
    {
      "constant": false,
      "inputs": [
        {
          "name": "_email",
          "type": "bytes32"
        }
      ],
      "name": "close",
      "outputs": [],
      "payable": false,
      "stateMutability": "nonpayable",
      "type": "function"
    },
    {
      "constant": false,
      "inputs": [
        {
          "name": "_email",
          "type": "bytes32"
        }
      ],
      "name": "start",
      "outputs": [],
      "payable": false,
      "stateMutability": "nonpayable",
      "type": "function"
    },
    {
      "constant": true,
      "inputs": [],
      "name": "getStartDate",
      "outputs": [
        {
          "name": "",
          "type": "uint256"
        }
      ],
      "payable": false,
      "stateMutability": "view",
      "type": "function"
    },
    {
      "constant": true,
      "inputs": [],
      "name": "getEndDate",
      "outputs": [
        {
          "name": "",
          "type": "uint256"
        }
      ],
      "payable": false,
      "stateMutability": "view",
      "type": "function"
    },
    {
      "constant": true,
      "inputs": [],
      "name": "getStatus",
      "outputs": [
        {
          "name": "",
          "type": "uint256"
        }
      ],
      "payable": false,
      "stateMutability": "view",
      "type": "function"
    },
    {
      "constant": true,
      "inputs": [],
      "name": "isManual",
      "outputs": [
        {
          "name": "",
          "type": "bool"
        }
      ],
      "payable": false,
      "stateMutability": "view",
      "type": "function"
    }
  ],
  "bytecode": "0x60806040523480156200001157600080fd5b506040516200148338038062001483833981018060405281019080805190602001909291908051820192919060200180518201929190602001805182019291906020018051906020019092919080519060200190929190805190602001909291908051906020019092919050505060016000808a600019166000191681526020019081526020016000208190555087600181600019169055508660029080519060200190620000c29291906200058e565b5083600360006101000a81548160ff021916908315150217905550600360009054906101000a900460ff161515620001035781600481905550806005819055505b6200011d86620001b5640100000000026401000000009004565b620001378562000368640100000000026401000000009004565b6002600860006101000a81548160ff021916908360028111156200015757fe5b02179055508215620001a757600360009054906101000a900460ff16156200019f576000600860006101000a81548160ff021916908360028111156200019957fe5b02179055505b426004819055505b5050505050505050620006c4565b60008151600681905550600090505b600654811015620003645760606040519081016040528082815260200173__Type__________________________________63ef0b236885858151811015156200020a57fe5b906020019060200201516040518263ffffffff167c010000000000000000000000000000000000000000000000000000000002815260040180826000191660001916815260200191505060006040518083038186803b1580156200026d57600080fd5b505af415801562000282573d6000803e3d6000fd5b505050506040513d6000823e3d601f19601f820116820180604052506020811015620002ad57600080fd5b810190808051640100000000811115620002c657600080fd5b82810190506020810184811115620002dd57600080fd5b8151856001820283011164010000000082111715620002fb57600080fd5b505092919050505081526020016000815250600960008381526020019081526020016000206000820151816000015560208201518160010190805190602001906200034892919062000615565b50604082015181600201559050508080600101915050620001c4565b5050565b60008151600781905550600090505b6007548110156200058a5760018101600b600084848151811015156200039957fe5b90602001906020020151600019166000191681526020019081526020016000208190555060606040519081016040528082815260200173__Type__________________________________63ef0b23688585815181101515620003f857fe5b906020019060200201516040518263ffffffff167c010000000000000000000000000000000000000000000000000000000002815260040180826000191660001916815260200191505060006040518083038186803b1580156200045b57600080fd5b505af415801562000470573d6000803e3d6000fd5b505050506040513d6000823e3d601f19601f8201168201806040525060208110156200049b57600080fd5b810190808051640100000000811115620004b457600080fd5b82810190506020810184811115620004cb57600080fd5b8151856001820283011164010000000082111715620004e957600080fd5b5050929190505050815260200160001515815250600a600084848151811015156200051057fe5b90602001906020020151600019166000191681526020019081526020016000206000820151816000015560208201518160010190805190602001906200055892919062000615565b5060408201518160020160006101000a81548160ff021916908315150217905550905050808060010191505062000377565b5050565b828054600181600116156101000203166002900490600052602060002090601f016020900481019282601f10620005d157805160ff191683800117855562000602565b8280016001018555821562000602579182015b8281111562000601578251825591602001919060010190620005e4565b5b5090506200061191906200069c565b5090565b828054600181600116156101000203166002900490600052602060002090601f016020900481019282601f106200065857805160ff191683800117855562000689565b8280016001018555821562000689579182015b82811115620006885782518255916020019190600101906200066b565b5b5090506200069891906200069c565b5090565b620006c191905b80821115620006bd576000816000905550600101620006a3565b5090565b90565b610daf80620006d46000396000f3006080604052600436106100fc576000357c0100000000000000000000000000000000000000000000000000000000900463ffffffff168063015a18ed146101015780631163fd2d1461013257806339c79e0c1461017b5780634e69d560146101ac57806357eadb04146101d75780636813aaf01461028157806369d0968b146102ac57806378f305c6146102f5578063864444ae14610320578063893d20e81461034b5780639ef1204c146103db578063b135648814610416578063b315c59714610441578063e13804a714610482578063eb4d69d514610528578063eeac39d81461056d578063f2e83ddf146105b6578063ff3c1a8f146105e5575b600080fd5b34801561010d57600080fd5b506101306004803603810190808035600019169060200190929190505050610675565b005b34801561013e57600080fd5b506101616004803603810190808035600019169060200190929190505050610716565b604051808215151515815260200191505060405180910390f35b34801561018757600080fd5b506101aa600480360381019080803560001916906020019092919050505061074b565b005b3480156101b857600080fd5b506101c16107ed565b6040518082815260200191505060405180910390f35b3480156101e357600080fd5b50610206600480360381019080803560001916906020019092919050505061082a565b6040518080602001828103825283818151815260200191508051906020019080838360005b8381101561024657808201518184015260208101905061022b565b50505050905090810190601f1680156102735780820380516001836020036101000a031916815260200191505b509250505060405180910390f35b34801561028d57600080fd5b506102966108fd565b6040518082815260200191505060405180910390f35b3480156102b857600080fd5b506102db6004803603810190808035600019169060200190929190505050610903565b604051808215151515815260200191505060405180910390f35b34801561030157600080fd5b5061030a61092b565b6040518082815260200191505060405180910390f35b34801561032c57600080fd5b50610335610935565b6040518082815260200191505060405180910390f35b34801561035757600080fd5b5061036061093b565b6040518080602001828103825283818151815260200191508051906020019080838360005b838110156103a0578082015181840152602081019050610385565b50505050905090810190601f1680156103cd5780820380516001836020036101000a031916815260200191505b509250505060405180910390f35b3480156103e757600080fd5b50610414600480360381019080803560001916906020019092919080359060200190929190505050610a48565b005b34801561042257600080fd5b5061042b610ba9565b6040518082815260200191505060405180910390f35b34801561044d57600080fd5b5061046c60048036038101908080359060200190929190505050610bb3565b6040518082815260200191505060405180910390f35b34801561048e57600080fd5b506104ad60048036038101908080359060200190929190505050610bd3565b6040518080602001828103825283818151815260200191508051906020019080838360005b838110156104ed5780820151818401526020810190506104d2565b50505050905090810190601f16801561051a5780820380516001836020036101000a031916815260200191505b509250505060405180910390f35b34801561053457600080fd5b506105576004803603810190808035600019169060200190929190505050610c8b565b6040518082815260200191505060405180910390f35b34801561057957600080fd5b5061059c6004803603810190808035600019169060200190929190505050610ca3565b604051808215151515815260200191505060405180910390f35b3480156105c257600080fd5b506105cb610cca565b604051808215151515815260200191505060405180910390f35b3480156105f157600080fd5b506105fa610ce1565b6040518080602001828103825283818151815260200191508051906020019080838360005b8381101561063a57808201518184015260208101905061061f565b50505050905090810190601f1680156106675780820380516001836020036101000a031916815260200191505b509250505060405180910390f35b60008060008360001916600019168152602001908152602001600020541415151561069f57600080fd5b600360009054906101000a900460ff161561070c576002808111156106c057fe5b600860009054906101000a900460ff1660028111156106db57fe5b1415156106e757600080fd5b6000600860006101000a81548160ff0219169083600281111561070657fe5b02179055505b4260048190555050565b6000600a6000836000191660001916815260200190815260200160002060020160009054906101000a900460ff169050919050565b60008060008360001916600019168152602001908152602001600020541415151561077557600080fd5b600360009054906101000a900460ff16156107e3576000600281111561079757fe5b600860009054906101000a900460ff1660028111156107b257fe5b1415156107be57600080fd5b6001600860006101000a81548160ff021916908360028111156107dd57fe5b02179055505b4260058190555050565b6000600360009054906101000a900460ff16151561080a57600080fd5b600860009054906101000a900460ff16600281111561082557fe5b905090565b606060096000600c600085600019166000191681526020019081526020016000205481526020019081526020016000206001018054600181600116156101000203166002900480601f0160208091040260200160405190810160405280929190818152602001828054600181600116156101000203166002900480156108f15780601f106108c6576101008083540402835291602001916108f1565b820191906000526020600020905b8154815290600101906020018083116108d457829003601f168201915b50505050509050919050565b60075481565b600080600b600084600019166000191681526020019081526020016000205414159050919050565b6000600454905090565b60065481565b606073__Type__________________________________63ef0b23686001546040518263ffffffff167c010000000000000000000000000000000000000000000000000000000002815260040180826000191660001916815260200191505060006040518083038186803b1580156109b257600080fd5b505af41580156109c6573d6000803e3d6000fd5b505050506040513d6000823e3d601f19601f8201168201806040525060208110156109f057600080fd5b810190808051640100000000811115610a0857600080fd5b82810190506020810184811115610a1e57600080fd5b8151856001820283011164010000000082111715610a3b57600080fd5b5050929190505050905090565b6000600b600084600019166000191681526020019081526020016000205414151515610a7357600080fd5b600360009054906101000a900460ff161515610a9e5760055442101515610a9957600080fd5b610ad3565b60006002811115610aab57fe5b600860009054906101000a900460ff166002811115610ac657fe5b141515610ad257600080fd5b5b600a6000836000191660001916815260200190815260200160002060020160009054906101000a900460ff16151515610b0b57600080fd5b60008110158015610b1d575060065481105b1515610b2857600080fd5b6001600a6000846000191660001916815260200190815260200160002060020160006101000a81548160ff02191690831515021790555080600c600084600019166000191681526020019081526020016000208190555060096000828152602001908152602001600020600201600081548092919060010191905055505050565b6000600554905090565b600060096000838152602001908152602001600020600201549050919050565b6060600960008381526020019081526020016000206001018054600181600116156101000203166002900480601f016020809104026020016040519081016040528092919081815260200182805460018160011615610100020316600290048015610c7f5780601f10610c5457610100808354040283529160200191610c7f565b820191906000526020600020905b815481529060010190602001808311610c6257829003601f168201915b50505050509050919050565b60006020528060005260406000206000915090505481565b60008060008084600019166000191681526020019081526020016000205414159050919050565b6000600360009054906101000a900460ff16905090565b606060028054600181600116156101000203166002900480601f016020809104026020016040519081016040528092919081815260200182805460018160011615610100020316600290048015610d795780601f10610d4e57610100808354040283529160200191610d79565b820191906000526020600020905b815481529060010190602001808311610d5c57829003601f168201915b50505050509050905600a165627a7a723058207447af52fb867787e62f0a980174c8d0ea7402e94de934b1734b108313d124090029",
  "source": "pragma solidity ^0.4.24;\n\nimport \"./Type.sol\";\n\ncontract Election {\n  mapping(bytes32 => uint) public ownerId;\n  bytes32 private owner;\n  bytes private title;\n  bool private manual;\n  uint private startDate;\n  uint private endDate;\n  uint public candSize;\n  uint public votrSize;\n  Status private status;\n\n  enum Status { Start, Closed, Pending }\n  enum Mode { Public, Private }\n\n  mapping(uint => Candidate) private candidates;\n  mapping(bytes32 => Voter) private voters;\n  mapping(bytes32 => uint) private voterId;\n  mapping(bytes32 => uint) private votedTo;\n  mapping(bytes32 => uint) private pubVoterId;\n\n  struct Candidate {\n    uint id;\n    string name;\n    uint voteCount;\n  }\n\n  struct Voter {\n    uint id;\n    string email;\n    bool voted;\n  }\n\n  constructor (\n    bytes32 _owner, bytes _title,\n    bytes32[] _candidates, bytes32[] _voters,\n    bool _manual, bool _startNow, uint _start, uint _end\n  ) public {\n    ownerId[_owner] = 1;\n    owner = _owner;\n    title = _title;\n    manual = _manual;\n    if (!manual) {\n      startDate = _start;\n      endDate = _end;\n    }\n    addCandidates(_candidates);\n    addVoters(_voters);\n\n    status = Status.Pending;\n    if (_startNow) {\n      if (manual) {\n        status = Status.Start;\n      }\n      startDate = now;\n    }\n  }\n\n  function addCandidates(bytes32[] _names) private {\n    candSize = _names.length;\n\n    for (uint i = 0; i < candSize; i++) {\n      candidates[i] = Candidate(i, Type.bytes32ToStr(_names[i]), 0);\n    }\n  }\n\n  function addVoters(bytes32[] _emails) private {\n    votrSize = _emails.length;\n\n    for (uint i = 0; i < votrSize; i++) {\n      voterId[_emails[i]] = i + 1;\n      voters[_emails[i]] = Voter(i, Type.bytes32ToStr(_emails[i]), false);\n    }\n  }\n  function isVoter(bytes32 _email) public view returns (bool) {\n    return (voterId[_email] != 0);\n  }\n  function isOwner(bytes32 _email) public view returns (bool) {\n    return (ownerId[_email] != 0);\n  }\n  function isVoted(bytes32 _email) public view returns (bool) {\n    return (voters[_email].voted);\n  }\n  function getVotedTo(bytes32 _email) public view returns (string) {\n    return (candidates[votedTo[_email]].name);\n  }\n\n  function vote (bytes32 _email, uint _candidateId) public {\n    require(voterId[_email] != 0);\n\n    if (!manual) {\n      // Due date\n      require(now < endDate);\n    } else {\n      // Event manually closed\n      require(status == Status.Start);\n    }\n\n    // require that they haven't voted before\n    require(!voters[_email].voted);\n\n    // require a valid candidate\n    require(_candidateId >= 0 && _candidateId < candSize);\n\n    // record the voter has voted\n    voters[_email].voted = true;\n\n    // update the voter vote to\n    votedTo[_email] = _candidateId;\n\n    // update candidate vote Count\n    candidates[_candidateId].voteCount ++;\n  }\n\n  function getTitle() public view returns (string) {\n    return string(title);\n  }\n  function getOwner() public view returns (string) {\n    return Type.bytes32ToStr(owner);\n  }\n  // Candidate\n  function getCandidateName(uint i) public view returns (string) {\n    return candidates[i].name;\n  }\n  function getCandidateVoteCount(uint i) public view returns (uint) {\n    return candidates[i].voteCount;\n  }\n  function close(bytes32 _email) public {\n    require(ownerId[_email] != 0);\n\n    // Is manual mode and not closed\n    if (manual) {\n      require(status == Status.Start);\n      status = Status.Closed;\n    }\n\n    endDate = now;\n  }\n\n  function start(bytes32 _email) public {\n    require(ownerId[_email] != 0);\n\n    if (manual) {\n      require(status == Status.Pending);\n      status = Status.Start;\n    }\n\n    startDate = now;\n  }\n  function getStartDate() public view returns (uint) {\n    return startDate;\n  }\n  function getEndDate() public view returns (uint) {\n    return endDate;\n  }\n\n  function getStatus() public view returns (uint) {\n    require (manual);\n    return uint(status);\n  }\n  function isManual() public view returns (bool) {\n    return manual;\n  }\n}\n",
  "sourcePath": "/Users/kangyi/Projects/react_bc_vote/contracts/Election.sol",
  "compiler": {
    "name": "solc",
    "version": "0.4.24+commit.e67f0147.Emscripten.clang"
  },
  "schemaVersion": "2.0.1",
  "updatedAt": "2018-10-22T16:46:42.654Z"
}