{
  "contractName": "ElectionFactory",
  "abi": [
    {
      "constant": true,
      "inputs": [
        {
          "name": "",
          "type": "uint256"
        }
      ],
      "name": "elections",
      "outputs": [
        {
          "name": "",
          "type": "address"
        }
      ],
      "payable": false,
      "stateMutability": "view",
      "type": "function"
    },
    {
      "inputs": [],
      "payable": false,
      "stateMutability": "nonpayable",
      "type": "constructor"
    },
    {
      "anonymous": false,
      "inputs": [
        {
          "indexed": false,
          "name": "addr",
          "type": "address"
        },
        {
          "indexed": false,
          "name": "owner",
          "type": "string"
        }
      ],
      "name": "electionCreated",
      "type": "event"
    },
    {
      "anonymous": false,
      "inputs": [
        {
          "indexed": false,
          "name": "addr",
          "type": "address"
        },
        {
          "indexed": false,
          "name": "owner",
          "type": "string"
        }
      ],
      "name": "closedElection",
      "type": "event"
    },
    {
      "anonymous": false,
      "inputs": [
        {
          "indexed": false,
          "name": "addr",
          "type": "address"
        }
      ],
      "name": "votedEvent",
      "type": "event"
    },
    {
      "constant": false,
      "inputs": [
        {
          "name": "owner",
          "type": "bytes32"
        },
        {
          "name": "title",
          "type": "bytes"
        },
        {
          "name": "_public",
          "type": "bool"
        },
        {
          "name": "candidates",
          "type": "bytes32[]"
        },
        {
          "name": "voters",
          "type": "bytes32[]"
        },
        {
          "name": "manual",
          "type": "bool"
        },
        {
          "name": "start",
          "type": "uint256"
        },
        {
          "name": "end",
          "type": "uint256"
        }
      ],
      "name": "createElection",
      "outputs": [],
      "payable": false,
      "stateMutability": "nonpayable",
      "type": "function"
    },
    {
      "constant": true,
      "inputs": [],
      "name": "getSize",
      "outputs": [
        {
          "name": "",
          "type": "uint256"
        }
      ],
      "payable": false,
      "stateMutability": "view",
      "type": "function"
    },
    {
      "constant": true,
      "inputs": [
        {
          "name": "addr",
          "type": "address"
        }
      ],
      "name": "getTitle",
      "outputs": [
        {
          "name": "",
          "type": "string"
        }
      ],
      "payable": false,
      "stateMutability": "view",
      "type": "function"
    },
    {
      "constant": true,
      "inputs": [
        {
          "name": "addr",
          "type": "address"
        }
      ],
      "name": "getOwner",
      "outputs": [
        {
          "name": "",
          "type": "string"
        }
      ],
      "payable": false,
      "stateMutability": "view",
      "type": "function"
    },
    {
      "constant": true,
      "inputs": [
        {
          "name": "addr",
          "type": "address"
        }
      ],
      "name": "getCandidateSize",
      "outputs": [
        {
          "name": "",
          "type": "uint256"
        }
      ],
      "payable": false,
      "stateMutability": "view",
      "type": "function"
    },
    {
      "constant": true,
      "inputs": [
        {
          "name": "addr",
          "type": "address"
        }
      ],
      "name": "getVoterSize",
      "outputs": [
        {
          "name": "",
          "type": "uint256"
        }
      ],
      "payable": false,
      "stateMutability": "view",
      "type": "function"
    },
    {
      "constant": true,
      "inputs": [
        {
          "name": "_email",
          "type": "bytes32"
        },
        {
          "name": "i",
          "type": "uint256"
        }
      ],
      "name": "getVoterElectionAddress",
      "outputs": [
        {
          "name": "",
          "type": "address"
        },
        {
          "name": "",
          "type": "bool"
        }
      ],
      "payable": false,
      "stateMutability": "view",
      "type": "function"
    },
    {
      "constant": true,
      "inputs": [
        {
          "name": "_email",
          "type": "bytes32"
        },
        {
          "name": "i",
          "type": "uint256"
        }
      ],
      "name": "getOwnerElectionAddress",
      "outputs": [
        {
          "name": "",
          "type": "address"
        },
        {
          "name": "",
          "type": "bool"
        }
      ],
      "payable": false,
      "stateMutability": "view",
      "type": "function"
    },
    {
      "constant": true,
      "inputs": [
        {
          "name": "addr",
          "type": "address"
        },
        {
          "name": "_email",
          "type": "bytes32"
        }
      ],
      "name": "isVoted",
      "outputs": [
        {
          "name": "",
          "type": "bool"
        }
      ],
      "payable": false,
      "stateMutability": "view",
      "type": "function"
    },
    {
      "constant": true,
      "inputs": [
        {
          "name": "addr",
          "type": "address"
        },
        {
          "name": "_email",
          "type": "bytes32"
        }
      ],
      "name": "getVotedTo",
      "outputs": [
        {
          "name": "",
          "type": "string"
        }
      ],
      "payable": false,
      "stateMutability": "view",
      "type": "function"
    },
    {
      "constant": true,
      "inputs": [
        {
          "name": "addr",
          "type": "address"
        },
        {
          "name": "i",
          "type": "uint256"
        }
      ],
      "name": "getCandidate",
      "outputs": [
        {
          "name": "",
          "type": "uint256"
        },
        {
          "name": "",
          "type": "string"
        },
        {
          "name": "",
          "type": "uint256"
        }
      ],
      "payable": false,
      "stateMutability": "view",
      "type": "function"
    },
    {
      "constant": false,
      "inputs": [
        {
          "name": "addr",
          "type": "address"
        },
        {
          "name": "_email",
          "type": "bytes32"
        },
        {
          "name": "_candidateId",
          "type": "uint256"
        }
      ],
      "name": "vote",
      "outputs": [],
      "payable": false,
      "stateMutability": "nonpayable",
      "type": "function"
    },
    {
      "constant": false,
      "inputs": [
        {
          "name": "addr",
          "type": "address"
        },
        {
          "name": "_email",
          "type": "bytes32"
        }
      ],
      "name": "close",
      "outputs": [],
      "payable": false,
      "stateMutability": "nonpayable",
      "type": "function"
    },
    {
      "constant": true,
      "inputs": [
        {
          "name": "addr",
          "type": "address"
        }
      ],
      "name": "getStartDate",
      "outputs": [
        {
          "name": "",
          "type": "uint256"
        }
      ],
      "payable": false,
      "stateMutability": "view",
      "type": "function"
    },
    {
      "constant": true,
      "inputs": [
        {
          "name": "addr",
          "type": "address"
        }
      ],
      "name": "getEndDate",
      "outputs": [
        {
          "name": "",
          "type": "uint256"
        }
      ],
      "payable": false,
      "stateMutability": "view",
      "type": "function"
    },
    {
      "constant": true,
      "inputs": [
        {
          "name": "addr",
          "type": "address"
        }
      ],
      "name": "getMode",
      "outputs": [
        {
          "name": "",
          "type": "uint256"
        }
      ],
      "payable": false,
      "stateMutability": "view",
      "type": "function"
    }
  ],
  "bytecode": "0x608060405234801561001057600080fd5b50613375806100206000396000f30060806040526004361062000103576000357c0100000000000000000000000000000000000000000000000000000000900463ffffffff168063194ee2391462000108578063240035e214620001e25780632d70ad5c146200023c5780633b34e2cd14620002a857806353e30d2914620002fc5780635e6fef0114620003855780636b272c9014620003f55780639a5bb111146200044f5780639fc86239146200057b578063a7a199ee14620005d5578063d5372e60146200062f578063de8fa43114620006ff578063ec4408d6146200072d578063f51d7d5f146200078b578063f636e5a2146200084d578063fa54416114620008a7578063fad2e3511462000969575b600080fd5b3480156200011557600080fd5b5062000156600480360381019080803573ffffffffffffffffffffffffffffffffffffffff16906020019092919080359060200190929190505050620009f2565b6040518084815260200180602001838152602001828103825284818151815260200191508051906020019080838360005b83811015620001a457808201518184015260208101905062000187565b50505050905090810190601f168015620001d25780820380516001836020036101000a031916815260200191505b5094505050505060405180910390f35b348015620001ef57600080fd5b5062000226600480360381019080803573ffffffffffffffffffffffffffffffffffffffff16906020019092919050505062000bbe565b6040518082815260200191505060405180910390f35b3480156200024957600080fd5b506200028e600480360381019080803573ffffffffffffffffffffffffffffffffffffffff169060200190929190803560001916906020019092919050505062000c6e565b604051808215151515815260200191505060405180910390f35b348015620002b557600080fd5b50620002fa600480360381019080803573ffffffffffffffffffffffffffffffffffffffff169060200190929190803560001916906020019092919050505062000d32565b005b3480156200030957600080fd5b506200033860048036038101908080356000191690602001909291908035906020019092919050505062000fa9565b604051808373ffffffffffffffffffffffffffffffffffffffff1673ffffffffffffffffffffffffffffffffffffffff168152602001821515151581526020019250505060405180910390f35b3480156200039257600080fd5b50620003b360048036038101908080359060200190929190505050620011f1565b604051808273ffffffffffffffffffffffffffffffffffffffff1673ffffffffffffffffffffffffffffffffffffffff16815260200191505060405180910390f35b3480156200040257600080fd5b5062000439600480360381019080803573ffffffffffffffffffffffffffffffffffffffff16906020019092919050505062001230565b6040518082815260200191505060405180910390f35b3480156200045c57600080fd5b50620005796004803603810190808035600019169060200190929190803590602001908201803590602001908080601f016020809104026020016040519081016040528093929190818152602001838380828437820191505050505050919291929080351515906020019092919080359060200190820180359060200190808060200260200160405190810160405280939291908181526020018383602002808284378201915050505050509192919290803590602001908201803590602001908080602002602001604051908101604052809392919081815260200183836020028082843782019150505050505091929192908035151590602001909291908035906020019092919080359060200190929190505050620012e0565b005b3480156200058857600080fd5b50620005bf600480360381019080803573ffffffffffffffffffffffffffffffffffffffff1690602001909291905050506200169a565b6040518082815260200191505060405180910390f35b348015620005e257600080fd5b5062000619600480360381019080803573ffffffffffffffffffffffffffffffffffffffff1690602001909291905050506200174a565b6040518082815260200191505060405180910390f35b3480156200063c57600080fd5b5062000681600480360381019080803573ffffffffffffffffffffffffffffffffffffffff1690602001909291908035600019169060200190929190505050620017fa565b6040518080602001828103825283818151815260200191508051906020019080838360005b83811015620006c3578082015181840152602081019050620006a6565b50505050905090810190601f168015620006f15780820380516001836020036101000a031916815260200191505b509250505060405180910390f35b3480156200070c57600080fd5b506200071762001918565b6040518082815260200191505060405180910390f35b3480156200073a57600080fd5b5062000789600480360381019080803573ffffffffffffffffffffffffffffffffffffffff16906020019092919080356000191690602001909291908035906020019092919050505062001924565b005b3480156200079857600080fd5b50620007cf600480360381019080803573ffffffffffffffffffffffffffffffffffffffff16906020019092919050505062001a2b565b6040518080602001828103825283818151815260200191508051906020019080838360005b8381101562000811578082015181840152602081019050620007f4565b50505050905090810190601f1680156200083f5780820380516001836020036101000a031916815260200191505b509250505060405180910390f35b3480156200085a57600080fd5b5062000891600480360381019080803573ffffffffffffffffffffffffffffffffffffffff16906020019092919050505062001b35565b6040518082815260200191505060405180910390f35b348015620008b457600080fd5b50620008eb600480360381019080803573ffffffffffffffffffffffffffffffffffffffff16906020019092919050505062001be5565b6040518080602001828103825283818151815260200191508051906020019080838360005b838110156200092d57808201518184015260208101905062000910565b50505050905090810190601f1680156200095b5780820380516001836020036101000a031916815260200191505b509250505060405180910390f35b3480156200097657600080fd5b50620009a560048036038101908080356000191690602001909291908035906020019092919050505062001cef565b604051808373ffffffffffffffffffffffffffffffffffffffff1673ffffffffffffffffffffffffffffffffffffffff168152602001821515151581526020019250505060405180910390f35b60006060600080859050848173ffffffffffffffffffffffffffffffffffffffff1663e13804a7876040518263ffffffff167c010000000000000000000000000000000000000000000000000000000002815260040180828152602001915050600060405180830381600087803b15801562000a6d57600080fd5b505af115801562000a82573d6000803e3d6000fd5b505050506040513d6000823e3d601f19601f82011682018060405250602081101562000aad57600080fd5b81019080805164010000000081111562000ac657600080fd5b8281019050602081018481111562000add57600080fd5b815185600182028301116401000000008211171562000afb57600080fd5b50509291905050508273ffffffffffffffffffffffffffffffffffffffff1663b315c597886040518263ffffffff167c010000000000000000000000000000000000000000000000000000000002815260040180828152602001915050602060405180830381600087803b15801562000b7357600080fd5b505af115801562000b88573d6000803e3d6000fd5b505050506040513d602081101562000b9f57600080fd5b8101908080519060200190929190505050935093509350509250925092565b6000808290508073ffffffffffffffffffffffffffffffffffffffff1663b13564886040518163ffffffff167c0100000000000000000000000000000000000000000000000000000000028152600401602060405180830381600087803b15801562000c2957600080fd5b505af115801562000c3e573d6000803e3d6000fd5b505050506040513d602081101562000c5557600080fd5b8101908080519060200190929190505050915050919050565b6000808390508073ffffffffffffffffffffffffffffffffffffffff16631163fd2d846040518263ffffffff167c0100000000000000000000000000000000000000000000000000000000028152600401808260001916600019168152602001915050602060405180830381600087803b15801562000cec57600080fd5b505af115801562000d01573d6000803e3d6000fd5b505050506040513d602081101562000d1857600080fd5b810190808051906020019092919050505091505092915050565b60008290508073ffffffffffffffffffffffffffffffffffffffff166339c79e0c836040518263ffffffff167c0100000000000000000000000000000000000000000000000000000000028152600401808260001916600019168152602001915050600060405180830381600087803b15801562000daf57600080fd5b505af115801562000dc4573d6000803e3d6000fd5b505050507fe8384be3d0f1a407dc85f07aa5a8df41aa1ff17d8f9f1b672c76c1ece8e1a4008373__Type__________________________________63ef0b2368856040518263ffffffff167c010000000000000000000000000000000000000000000000000000000002815260040180826000191660001916815260200191505060006040518083038186803b15801562000e5e57600080fd5b505af415801562000e73573d6000803e3d6000fd5b505050506040513d6000823e3d601f19601f82011682018060405250602081101562000e9e57600080fd5b81019080805164010000000081111562000eb757600080fd5b8281019050602081018481111562000ece57600080fd5b815185600182028301116401000000008211171562000eec57600080fd5b5050929190505050604051808373ffffffffffffffffffffffffffffffffffffffff1673ffffffffffffffffffffffffffffffffffffffff16815260200180602001828103825283818151815260200191508051906020019080838360005b8381101562000f6857808201518184015260208101905062000f4b565b50505050905090810190601f16801562000f965780820380516001836020036101000a031916815260200191505b50935050505060405180910390a1505050565b6000806000808481548110151562000fbd57fe5b9060005260206000200160009054906101000a900473ffffffffffffffffffffffffffffffffffffffff16905060018173ffffffffffffffffffffffffffffffffffffffff16634b4fd03b6040518163ffffffff167c0100000000000000000000000000000000000000000000000000000000028152600401602060405180830381600087803b1580156200105157600080fd5b505af115801562001066573d6000803e3d6000fd5b505050506040513d60208110156200107d57600080fd5b81019080805190602001909291905050501415620010dc57600084815481101515620010a557fe5b9060005260206000200160009054906101000a900473ffffffffffffffffffffffffffffffffffffffff16600192509250620011e9565b8073ffffffffffffffffffffffffffffffffffffffff166369d0968b866040518263ffffffff167c0100000000000000000000000000000000000000000000000000000000028152600401808260001916600019168152602001915050602060405180830381600087803b1580156200115457600080fd5b505af115801562001169573d6000803e3d6000fd5b505050506040513d60208110156200118057600080fd5b810190808051906020019092919050505015620011de57600084815481101515620011a757fe5b9060005260206000200160009054906101000a900473ffffffffffffffffffffffffffffffffffffffff16600192509250620011e9565b600080819150925092505b509250929050565b6000818154811015156200120157fe5b906000526020600020016000915054906101000a900473ffffffffffffffffffffffffffffffffffffffff1681565b6000808290508073ffffffffffffffffffffffffffffffffffffffff166378f305c66040518163ffffffff167c0100000000000000000000000000000000000000000000000000000000028152600401602060405180830381600087803b1580156200129b57600080fd5b505af1158015620012b0573d6000803e3d6000fd5b505050506040513d6020811015620012c757600080fd5b8101908080519060200190929190505050915050919050565b60008888888888888888620012f462001e45565b808960001916600019168152602001806020018815151515815260200180602001806020018715151515815260200186815260200185815260200184810384528b818151815260200191508051906020019080838360005b83811015620013695780820151818401526020810190506200134c565b50505050905090810190601f168015620013975780820380516001836020036101000a031916815260200191505b50848103835289818151815260200191508051906020019060200280838360005b83811015620013d5578082015181840152602081019050620013b8565b50505050905001848103825288818151815260200191508051906020019060200280838360005b8381101562001419578082015181840152602081019050620013fc565b505050509050019b505050505050505050505050604051809103906000f0801580156200144a573d6000803e3d6000fd5b50905060008190806001815401808255809150509060018203906000526020600020016000909192909190916101000a81548173ffffffffffffffffffffffffffffffffffffffff021916908373ffffffffffffffffffffffffffffffffffffffff160217905550507f01a0d7ad6ef14907dcecdacb77f07dd33e4a6262ab878d600da4b89b2ce9bd1a8173__Type__________________________________63ef0b23688c6040518263ffffffff167c010000000000000000000000000000000000000000000000000000000002815260040180826000191660001916815260200191505060006040518083038186803b1580156200154957600080fd5b505af41580156200155e573d6000803e3d6000fd5b505050506040513d6000823e3d601f19601f8201168201806040525060208110156200158957600080fd5b810190808051640100000000811115620015a257600080fd5b82810190506020810184811115620015b957600080fd5b8151856001820283011164010000000082111715620015d757600080fd5b5050929190505050604051808373ffffffffffffffffffffffffffffffffffffffff1673ffffffffffffffffffffffffffffffffffffffff16815260200180602001828103825283818151815260200191508051906020019080838360005b838110156200165357808201518184015260208101905062001636565b50505050905090810190601f168015620016815780820380516001836020036101000a031916815260200191505b50935050505060405180910390a1505050505050505050565b6000808290508073ffffffffffffffffffffffffffffffffffffffff16634b4fd03b6040518163ffffffff167c0100000000000000000000000000000000000000000000000000000000028152600401602060405180830381600087803b1580156200170557600080fd5b505af11580156200171a573d6000803e3d6000fd5b505050506040513d60208110156200173157600080fd5b8101908080519060200190929190505050915050919050565b6000808290508073ffffffffffffffffffffffffffffffffffffffff16636813aaf06040518163ffffffff167c0100000000000000000000000000000000000000000000000000000000028152600401602060405180830381600087803b158015620017b557600080fd5b505af1158015620017ca573d6000803e3d6000fd5b505050506040513d6020811015620017e157600080fd5b8101908080519060200190929190505050915050919050565b606060008390508073ffffffffffffffffffffffffffffffffffffffff166357eadb04846040518263ffffffff167c0100000000000000000000000000000000000000000000000000000000028152600401808260001916600019168152602001915050600060405180830381600087803b1580156200187957600080fd5b505af11580156200188e573d6000803e3d6000fd5b505050506040513d6000823e3d601f19601f820116820180604052506020811015620018b957600080fd5b810190808051640100000000811115620018d257600080fd5b82810190506020810184811115620018e957600080fd5b81518560018202830111640100000000821117156200190757600080fd5b505092919050505091505092915050565b60008080549050905090565b60008390508073ffffffffffffffffffffffffffffffffffffffff16639ef1204c84846040518363ffffffff167c010000000000000000000000000000000000000000000000000000000002815260040180836000191660001916815260200182815260200192505050600060405180830381600087803b158015620019a957600080fd5b505af1158015620019be573d6000803e3d6000fd5b505050507f06640b67015c37470a2bc2e00a76d594f6794fae0d12b9e206bc1bf369fe067684604051808273ffffffffffffffffffffffffffffffffffffffff1673ffffffffffffffffffffffffffffffffffffffff16815260200191505060405180910390a150505050565b606060008290508073ffffffffffffffffffffffffffffffffffffffff1663ff3c1a8f6040518163ffffffff167c0100000000000000000000000000000000000000000000000000000000028152600401600060405180830381600087803b15801562001a9757600080fd5b505af115801562001aac573d6000803e3d6000fd5b505050506040513d6000823e3d601f19601f82011682018060405250602081101562001ad757600080fd5b81019080805164010000000081111562001af057600080fd5b8281019050602081018481111562001b0757600080fd5b815185600182028301116401000000008211171562001b2557600080fd5b5050929190505050915050919050565b6000808290508073ffffffffffffffffffffffffffffffffffffffff1663864444ae6040518163ffffffff167c0100000000000000000000000000000000000000000000000000000000028152600401602060405180830381600087803b15801562001ba057600080fd5b505af115801562001bb5573d6000803e3d6000fd5b505050506040513d602081101562001bcc57600080fd5b8101908080519060200190929190505050915050919050565b606060008290508073ffffffffffffffffffffffffffffffffffffffff1663893d20e86040518163ffffffff167c0100000000000000000000000000000000000000000000000000000000028152600401600060405180830381600087803b15801562001c5157600080fd5b505af115801562001c66573d6000803e3d6000fd5b505050506040513d6000823e3d601f19601f82011682018060405250602081101562001c9157600080fd5b81019080805164010000000081111562001caa57600080fd5b8281019050602081018481111562001cc157600080fd5b815185600182028301116401000000008211171562001cdf57600080fd5b5050929190505050915050919050565b6000806000808481548110151562001d0357fe5b9060005260206000200160009054906101000a900473ffffffffffffffffffffffffffffffffffffffff1690508073ffffffffffffffffffffffffffffffffffffffff1663eeac39d8866040518263ffffffff167c0100000000000000000000000000000000000000000000000000000000028152600401808260001916600019168152602001915050602060405180830381600087803b15801562001da857600080fd5b505af115801562001dbd573d6000803e3d6000fd5b505050506040513d602081101562001dd457600080fd5b81019080805190602001909291905050501562001e325760008481548110151562001dfb57fe5b9060005260206000200160009054906101000a900473ffffffffffffffffffffffffffffffffffffffff1660019250925062001e3d565b600080819150925092505b509250929050565b6040516114f38062001e5783390190560060806040523480156200001157600080fd5b50604051620014f3380380620014f3833981018060405281019080805190602001909291908051820192919060200180519060200190929190805182019291906020018051820192919060200180519060200190929190805190602001909291908051906020019092919050505060016000808a600019166000191681526020019081526020016000208190555087600181600019169055508660029080519060200190620000c29291906200054e565b5081600381905550821515620000da57806004819055505b620000f48562000175640100000000026401000000009004565b85151562000141576000600760006101000a81548160ff021916908360018111156200011c57fe5b02179055506200013b8462000328640100000000026401000000009004565b62000167565b6001600760006101000a81548160ff021916908360018111156200016157fe5b02179055505b505050505050505062000684565b60008151600581905550600090505b600554811015620003245760606040519081016040528082815260200173__Type__________________________________63ef0b23688585815181101515620001ca57fe5b906020019060200201516040518263ffffffff167c010000000000000000000000000000000000000000000000000000000002815260040180826000191660001916815260200191505060006040518083038186803b1580156200022d57600080fd5b505af415801562000242573d6000803e3d6000fd5b505050506040513d6000823e3d601f19601f8201168201806040525060208110156200026d57600080fd5b8101908080516401000000008111156200028657600080fd5b828101905060208101848111156200029d57600080fd5b8151856001820283011164010000000082111715620002bb57600080fd5b5050929190505050815260200160008152506008600083815260200190815260200160002060008201518160000155602082015181600101908051906020019062000308929190620005d5565b5060408201518160020155905050808060010191505062000184565b5050565b60008151600681905550600090505b6006548110156200054a5760018101600a600084848151811015156200035957fe5b90602001906020020151600019166000191681526020019081526020016000208190555060606040519081016040528082815260200173__Type__________________________________63ef0b23688585815181101515620003b857fe5b906020019060200201516040518263ffffffff167c010000000000000000000000000000000000000000000000000000000002815260040180826000191660001916815260200191505060006040518083038186803b1580156200041b57600080fd5b505af415801562000430573d6000803e3d6000fd5b505050506040513d6000823e3d601f19601f8201168201806040525060208110156200045b57600080fd5b8101908080516401000000008111156200047457600080fd5b828101905060208101848111156200048b57600080fd5b8151856001820283011164010000000082111715620004a957600080fd5b5050929190505050815260200160001515815250600960008484815181101515620004d057fe5b906020019060200201516000191660001916815260200190815260200160002060008201518160000155602082015181600101908051906020019062000518929190620005d5565b5060408201518160020160006101000a81548160ff021916908315150217905550905050808060010191505062000337565b5050565b828054600181600116156101000203166002900490600052602060002090601f016020900481019282601f106200059157805160ff1916838001178555620005c2565b82800160010185558215620005c2579182015b82811115620005c1578251825591602001919060010190620005a4565b5b509050620005d191906200065c565b5090565b828054600181600116156101000203166002900490600052602060002090601f016020900481019282601f106200061857805160ff191683800117855562000649565b8280016001018555821562000649579182015b82811115620006485782518255916020019190600101906200062b565b5b5090506200065891906200065c565b5090565b6200068191905b808211156200067d57600081600090555060010162000663565b5090565b90565b610e5f80620006946000396000f3006080604052600436106100e6576000357c0100000000000000000000000000000000000000000000000000000000900463ffffffff1680631163fd2d146100eb57806339c79e0c146101345780634b4fd03b1461016557806357eadb04146101905780636813aaf01461023a57806369d0968b1461026557806378f305c6146102ae578063864444ae146102d9578063893d20e8146103045780639ef1204c14610394578063b1356488146103cf578063b315c597146103fa578063e13804a71461043b578063eb4d69d5146104e1578063eeac39d814610526578063ff3c1a8f1461056f575b600080fd5b3480156100f757600080fd5b5061011a60048036038101908080356000191690602001909291905050506105ff565b604051808215151515815260200191505060405180910390f35b34801561014057600080fd5b506101636004803603810190808035600019169060200190929190505050610634565b005b34801561017157600080fd5b5061017a610679565b6040518082815260200191505060405180910390f35b34801561019c57600080fd5b506101bf600480360381019080803560001916906020019092919050505061069b565b6040518080602001828103825283818151815260200191508051906020019080838360005b838110156101ff5780820151818401526020810190506101e4565b50505050905090810190601f16801561022c5780820380516001836020036101000a031916815260200191505b509250505060405180910390f35b34801561024657600080fd5b5061024f61076e565b6040518082815260200191505060405180910390f35b34801561027157600080fd5b506102946004803603810190808035600019169060200190929190505050610774565b604051808215151515815260200191505060405180910390f35b3480156102ba57600080fd5b506102c361079c565b6040518082815260200191505060405180910390f35b3480156102e557600080fd5b506102ee6107a6565b6040518082815260200191505060405180910390f35b34801561031057600080fd5b506103196107ac565b6040518080602001828103825283818151815260200191508051906020019080838360005b8381101561035957808201518184015260208101905061033e565b50505050905090810190601f1680156103865780820380516001836020036101000a031916815260200191505b509250505060405180910390f35b3480156103a057600080fd5b506103cd6004803603810190808035600019169060200190929190803590602001909291905050506108b9565b005b3480156103db57600080fd5b506103e4610bcb565b6040518082815260200191505060405180910390f35b34801561040657600080fd5b5061042560048036038101908080359060200190929190505050610bd5565b6040518082815260200191505060405180910390f35b34801561044757600080fd5b5061046660048036038101908080359060200190929190505050610bf5565b6040518080602001828103825283818151815260200191508051906020019080838360005b838110156104a657808201518184015260208101905061048b565b50505050905090810190601f1680156104d35780820380516001836020036101000a031916815260200191505b509250505060405180910390f35b3480156104ed57600080fd5b506105106004803603810190808035600019169060200190929190505050610cad565b6040518082815260200191505060405180910390f35b34801561053257600080fd5b506105556004803603810190808035600019169060200190929190505050610cc5565b604051808215151515815260200191505060405180910390f35b34801561057b57600080fd5b50610584610cec565b6040518080602001828103825283818151815260200191508051906020019080838360005b838110156105c45780820151818401526020810190506105a9565b50505050905090810190601f1680156105f15780820380516001836020036101000a031916815260200191505b509250505060405180910390f35b600060096000836000191660001916815260200190815260200160002060020160009054906101000a900460ff169050919050565b60008060008360001916600019168152602001908152602001600020541415151561065e57600080fd5b600060045414151561066f57600080fd5b4260048190555050565b6000600760009054906101000a900460ff16600181111561069657fe5b905090565b606060086000600b600085600019166000191681526020019081526020016000205481526020019081526020016000206001018054600181600116156101000203166002900480601f0160208091040260200160405190810160405280929190818152602001828054600181600116156101000203166002900480156107625780601f1061073757610100808354040283529160200191610762565b820191906000526020600020905b81548152906001019060200180831161074557829003601f168201915b50505050509050919050565b60065481565b600080600a600084600019166000191681526020019081526020016000205414159050919050565b6000600354905090565b60055481565b606073__Type__________________________________63ef0b23686001546040518263ffffffff167c010000000000000000000000000000000000000000000000000000000002815260040180826000191660001916815260200191505060006040518083038186803b15801561082357600080fd5b505af4158015610837573d6000803e3d6000fd5b505050506040513d6000823e3d601f19601f82011682018060405250602081101561086157600080fd5b81019080805164010000000081111561087957600080fd5b8281019050602081018481111561088f57600080fd5b81518560018202830111640100000000821117156108ac57600080fd5b5050929190505050905090565b600060018111156108c657fe5b600760009054906101000a900460ff1660018111156108e157fe5b1415610917576000600a60008460001916600019168152602001908152602001600020541415151561091257600080fd5b610ad8565b6000600a60008460001916600019168152602001908152602001600020541415610ad757606060405190810160405280600654815260200173__Type__________________________________63ef0b2368856040518263ffffffff167c010000000000000000000000000000000000000000000000000000000002815260040180826000191660001916815260200191505060006040518083038186803b1580156109c257600080fd5b505af41580156109d6573d6000803e3d6000fd5b505050506040513d6000823e3d601f19601f820116820180604052506020811015610a0057600080fd5b810190808051640100000000811115610a1857600080fd5b82810190506020810184811115610a2e57600080fd5b8151856001820283011164010000000082111715610a4b57600080fd5b5050929190505050815260200160001515815250600960008460001916600019168152602001908152602001600020600082015181600001556020820151816001019080519060200190610aa0929190610d8e565b5060408201518160020160006101000a81548160ff0219169083151502179055509050506006600081548092919060010191905055505b5b6000600454141515610af55760045442101515610af457600080fd5b5b60096000836000191660001916815260200190815260200160002060020160009054906101000a900460ff16151515610b2d57600080fd5b60008110158015610b3f575060055481105b1515610b4a57600080fd5b600160096000846000191660001916815260200190815260200160002060020160006101000a81548160ff02191690831515021790555080600b600084600019166000191681526020019081526020016000208190555060086000828152602001908152602001600020600201600081548092919060010191905055505050565b6000600454905090565b600060086000838152602001908152602001600020600201549050919050565b6060600860008381526020019081526020016000206001018054600181600116156101000203166002900480601f016020809104026020016040519081016040528092919081815260200182805460018160011615610100020316600290048015610ca15780601f10610c7657610100808354040283529160200191610ca1565b820191906000526020600020905b815481529060010190602001808311610c8457829003601f168201915b50505050509050919050565b60006020528060005260406000206000915090505481565b60008060008084600019166000191681526020019081526020016000205414159050919050565b606060028054600181600116156101000203166002900480601f016020809104026020016040519081016040528092919081815260200182805460018160011615610100020316600290048015610d845780601f10610d5957610100808354040283529160200191610d84565b820191906000526020600020905b815481529060010190602001808311610d6757829003601f168201915b5050505050905090565b828054600181600116156101000203166002900490600052602060002090601f016020900481019282601f10610dcf57805160ff1916838001178555610dfd565b82800160010185558215610dfd579182015b82811115610dfc578251825591602001919060010190610de1565b5b509050610e0a9190610e0e565b5090565b610e3091905b80821115610e2c576000816000905550600101610e14565b5090565b905600a165627a7a7230582089ae8e0b539fb84ce4c4d6779be95b26653be462fd76a0a2077a8e19d3d901750029a165627a7a723058204600aeeea7109793ba45a3f021f5b36cf842c95676c9335edc4c869eda68805f0029",
  "source": "pragma solidity ^0.4.24;\n\nimport \"./Election.sol\";\nimport './Type.sol';\n\ncontract ElectionFactory {\n  address[] public elections;\n\n  constructor () public {\n  }\n\n  event electionCreated(address addr, string owner);\n  event closedElection(address addr, string owner);\n  event votedEvent(address addr);\n\n  function createElection (\n    bytes32 owner, bytes title, bool _public,\n    bytes32[] candidates, bytes32[] voters,\n    bool manual, uint start, uint end\n  ) public {\n    address addr = new Election(owner, title, _public, candidates, voters, manual, start, end);\n    elections.push(addr);\n\n    emit electionCreated(addr, Type.bytes32ToStr(owner));\n  }\n\n  function getSize() public view returns (uint) {\n    return elections.length;\n  }\n\n  function getTitle(address addr) public view returns (string) {\n    Election e = Election(addr);\n\n    return string(e.getTitle());\n  }\n  function getOwner(address addr) public view returns (string) {\n    Election e = Election(addr);\n\n    return string(e.getOwner());\n  }\n  function getCandidateSize(address addr) public view returns (uint) {\n    Election e = Election(addr);\n\n    return e.candSize();\n  }\n  function getVoterSize(address addr) public view returns (uint) {\n    Election e = Election(addr);\n\n    return e.votrSize();\n  }\n  function getVoterElectionAddress(bytes32 _email, uint i) public view returns (address, bool) {\n    Election e = Election(elections[i]);\n\n    if (e.getMode() == 1) {\n      return (elections[i], true);\n    }\n\n    if (e.isVoter(_email)) {\n      return (elections[i], true);\n    }\n    return (0, false);\n  }\n  function getOwnerElectionAddress(bytes32 _email, uint i) public view returns (address, bool) {\n    Election e = Election(elections[i]);\n\n    if (e.isOwner(_email)) {\n      return (elections[i], true);\n    }\n    return (0, false);\n  }\n  function isVoted(address addr, bytes32 _email) public view returns (bool) {\n    Election e = Election(addr);\n\n    return e.isVoted(_email);\n  }\n  function getVotedTo(address addr, bytes32 _email) public view returns (string) {\n    Election e = Election(addr);\n\n    return e.getVotedTo(_email);\n  }\n\n  function getCandidate(address addr, uint i) public view returns (uint, string, uint) {\n    Election e = Election(addr);\n\n    return (i, e.getCandidateName(i), e.getCandidateVoteCount(i));\n  }\n\n  function vote(address addr, bytes32 _email, uint _candidateId) public {\n    Election e = Election(addr);\n\n    e.vote(_email, _candidateId);\n\n    emit votedEvent(addr);\n  }\n\n  function close(address addr, bytes32 _email) public {\n    Election e = Election(addr);\n\n    e.close(_email);\n\n    emit closedElection(addr, Type.bytes32ToStr(_email));\n  }\n  function getStartDate(address addr) public view returns (uint) {\n    Election e = Election(addr);\n\n    return e.getStartDate();\n  }\n  function getEndDate(address addr) public view returns (uint) {\n    Election e = Election(addr);\n\n    return e.getEndDate();\n  }\n  function getMode(address addr) public view returns (uint) {\n    Election e = Election(addr);\n\n    return e.getMode();\n  }\n}\n",
  "sourcePath": "/Users/kangyi/Projects/react_bc_vote/contracts/ElectionFactory.sol",
  "compiler": {
    "name": "solc",
    "version": "0.4.24+commit.e67f0147.Emscripten.clang"
  },
  "schemaVersion": "2.0.1",
  "updatedAt": "2018-11-02T04:53:11.158Z"
}