{
  "contractName": "ElectionFactory",
  "abi": [
    {
      "constant": true,
      "inputs": [
        {
          "name": "",
          "type": "uint256"
        }
      ],
      "name": "elections",
      "outputs": [
        {
          "name": "",
          "type": "address"
        }
      ],
      "payable": false,
      "stateMutability": "view",
      "type": "function"
    },
    {
      "inputs": [],
      "payable": false,
      "stateMutability": "nonpayable",
      "type": "constructor"
    },
    {
      "anonymous": false,
      "inputs": [
        {
          "indexed": false,
          "name": "addr",
          "type": "address"
        },
        {
          "indexed": false,
          "name": "owner",
          "type": "string"
        }
      ],
      "name": "electionCreated",
      "type": "event"
    },
    {
      "anonymous": false,
      "inputs": [
        {
          "indexed": false,
          "name": "addr",
          "type": "address"
        },
        {
          "indexed": false,
          "name": "owner",
          "type": "string"
        }
      ],
      "name": "closedElection",
      "type": "event"
    },
    {
      "anonymous": false,
      "inputs": [
        {
          "indexed": false,
          "name": "addr",
          "type": "address"
        }
      ],
      "name": "votedEvent",
      "type": "event"
    },
    {
      "constant": true,
      "inputs": [
        {
          "name": "_cImg",
          "type": "string"
        }
      ],
      "name": "getImgs",
      "outputs": [
        {
          "name": "",
          "type": "string[]"
        }
      ],
      "payable": false,
      "stateMutability": "pure",
      "type": "function"
    },
    {
      "constant": false,
      "inputs": [
        {
          "name": "_content",
          "type": "bytes32[3]"
        },
        {
          "name": "_imgURL",
          "type": "bytes"
        },
        {
          "name": "_setup",
          "type": "bool[2]"
        },
        {
          "name": "_candidates",
          "type": "bytes32[]"
        },
        {
          "name": "_cImg",
          "type": "string"
        },
        {
          "name": "_candidatesDescription",
          "type": "bytes32[]"
        },
        {
          "name": "voters",
          "type": "bytes32[]"
        },
        {
          "name": "_start_end",
          "type": "uint256[2]"
        }
      ],
      "name": "createElection",
      "outputs": [],
      "payable": false,
      "stateMutability": "nonpayable",
      "type": "function"
    },
    {
      "constant": true,
      "inputs": [],
      "name": "getSize",
      "outputs": [
        {
          "name": "",
          "type": "uint256"
        }
      ],
      "payable": false,
      "stateMutability": "view",
      "type": "function"
    },
    {
      "constant": true,
      "inputs": [
        {
          "name": "addr",
          "type": "address"
        }
      ],
      "name": "getTitle",
      "outputs": [
        {
          "name": "",
          "type": "string"
        }
      ],
      "payable": false,
      "stateMutability": "view",
      "type": "function"
    },
    {
      "constant": true,
      "inputs": [
        {
          "name": "addr",
          "type": "address"
        }
      ],
      "name": "getContent",
      "outputs": [
        {
          "name": "",
          "type": "string"
        },
        {
          "name": "",
          "type": "string"
        },
        {
          "name": "",
          "type": "string"
        }
      ],
      "payable": false,
      "stateMutability": "view",
      "type": "function"
    },
    {
      "constant": true,
      "inputs": [
        {
          "name": "addr",
          "type": "address"
        }
      ],
      "name": "getOwner",
      "outputs": [
        {
          "name": "",
          "type": "string"
        }
      ],
      "payable": false,
      "stateMutability": "view",
      "type": "function"
    },
    {
      "constant": true,
      "inputs": [
        {
          "name": "addr",
          "type": "address"
        }
      ],
      "name": "getCandidateSize",
      "outputs": [
        {
          "name": "",
          "type": "uint256"
        }
      ],
      "payable": false,
      "stateMutability": "view",
      "type": "function"
    },
    {
      "constant": true,
      "inputs": [
        {
          "name": "addr",
          "type": "address"
        }
      ],
      "name": "getVoterSize",
      "outputs": [
        {
          "name": "",
          "type": "uint256"
        }
      ],
      "payable": false,
      "stateMutability": "view",
      "type": "function"
    },
    {
      "constant": true,
      "inputs": [
        {
          "name": "_email",
          "type": "bytes32"
        },
        {
          "name": "i",
          "type": "uint256"
        }
      ],
      "name": "getVoterElectionAddress",
      "outputs": [
        {
          "name": "",
          "type": "address"
        },
        {
          "name": "",
          "type": "bool"
        }
      ],
      "payable": false,
      "stateMutability": "view",
      "type": "function"
    },
    {
      "constant": true,
      "inputs": [
        {
          "name": "_email",
          "type": "bytes32"
        },
        {
          "name": "i",
          "type": "uint256"
        }
      ],
      "name": "getOwnerElectionAddress",
      "outputs": [
        {
          "name": "",
          "type": "address"
        },
        {
          "name": "",
          "type": "bool"
        }
      ],
      "payable": false,
      "stateMutability": "view",
      "type": "function"
    },
    {
      "constant": true,
      "inputs": [
        {
          "name": "addr",
          "type": "address"
        },
        {
          "name": "_email",
          "type": "bytes32"
        }
      ],
      "name": "isVoted",
      "outputs": [
        {
          "name": "",
          "type": "bool"
        }
      ],
      "payable": false,
      "stateMutability": "view",
      "type": "function"
    },
    {
      "constant": true,
      "inputs": [
        {
          "name": "addr",
          "type": "address"
        },
        {
          "name": "_email",
          "type": "bytes32"
        }
      ],
      "name": "getVotedTo",
      "outputs": [
        {
          "name": "",
          "type": "string"
        }
      ],
      "payable": false,
      "stateMutability": "view",
      "type": "function"
    },
    {
      "constant": true,
      "inputs": [
        {
          "name": "addr",
          "type": "address"
        },
        {
          "name": "i",
          "type": "uint256"
        }
      ],
      "name": "getCandidate",
      "outputs": [
        {
          "name": "",
          "type": "uint256"
        },
        {
          "name": "",
          "type": "string"
        },
        {
          "name": "",
          "type": "string"
        },
        {
          "name": "",
          "type": "string"
        },
        {
          "name": "",
          "type": "uint256"
        }
      ],
      "payable": false,
      "stateMutability": "view",
      "type": "function"
    },
    {
      "constant": false,
      "inputs": [
        {
          "name": "addr",
          "type": "address"
        },
        {
          "name": "_email",
          "type": "bytes32"
        },
        {
          "name": "_candidateId",
          "type": "uint256"
        }
      ],
      "name": "vote",
      "outputs": [],
      "payable": false,
      "stateMutability": "nonpayable",
      "type": "function"
    },
    {
      "constant": false,
      "inputs": [
        {
          "name": "addr",
          "type": "address"
        },
        {
          "name": "_email",
          "type": "bytes32"
        }
      ],
      "name": "close",
      "outputs": [],
      "payable": false,
      "stateMutability": "nonpayable",
      "type": "function"
    },
    {
      "constant": true,
      "inputs": [
        {
          "name": "addr",
          "type": "address"
        }
      ],
      "name": "getStartDate",
      "outputs": [
        {
          "name": "",
          "type": "uint256"
        }
      ],
      "payable": false,
      "stateMutability": "view",
      "type": "function"
    },
    {
      "constant": true,
      "inputs": [
        {
          "name": "addr",
          "type": "address"
        }
      ],
      "name": "getEndDate",
      "outputs": [
        {
          "name": "",
          "type": "uint256"
        }
      ],
      "payable": false,
      "stateMutability": "view",
      "type": "function"
    },
    {
      "constant": true,
      "inputs": [
        {
          "name": "addr",
          "type": "address"
        }
      ],
      "name": "getMode",
      "outputs": [
        {
          "name": "",
          "type": "uint256"
        }
      ],
      "payable": false,
      "stateMutability": "view",
      "type": "function"
    }
  ],
  "bytecode": "0x608060405234801561001057600080fd5b50614ed3806100206000396000f3006080604052600436106200011b576000357c0100000000000000000000000000000000000000000000000000000000900463ffffffff168063194ee2391462000120578063240035e214620001685780632d70ad5c14620001ac578063339c63bd14620001f05780633b34e2cd146200023457806353e30d2914620002625780635e6fef0114620002a75780636b272c9014620002eb578063923af057146200032f5780639fc86239146200035d578063a7a199ee14620003a1578063b30ab34914620003e5578063d5372e60146200042b578063de8fa431146200046f578063ec4408d6146200049f578063f51d7d5f14620004cd578063f636e5a21462000511578063fa5441611462000555578063fad2e3511462000599575b600080fd5b3480156200012d57600080fd5b506200014c6004803603620001469190810190620021c4565b620005de565b6040516200015f959493929190620029e9565b60405180910390f35b3480156200017557600080fd5b506200019460048036036200018e919081019062002101565b620008c4565b604051620001a39190620029cc565b60405180910390f35b348015620001b957600080fd5b50620001d86004803603620001d291908101906200212d565b62000972565b604051620001e79190620028d2565b60405180910390f35b348015620001fd57600080fd5b506200021c6004803603620002169190810190620023b5565b62000a2e565b6040516200022b9190620028ae565b60405180910390f35b3480156200024157600080fd5b506200026060048036036200025a91908101906200212d565b62000b4b565b005b3480156200026f57600080fd5b506200028e600480360362000288919081019062002374565b62000cc8565b6040516200029e92919062002799565b60405180910390f35b348015620002b457600080fd5b50620002d36004803603620002cd91908101906200243f565b62000f06565b604051620002e291906200277c565b60405180910390f35b348015620002f857600080fd5b5062000317600480360362000311919081019062002101565b62000f45565b604051620003269190620029cc565b60405180910390f35b3480156200033c57600080fd5b506200035b600480360362000355919081019062002205565b62000ff3565b005b3480156200036a57600080fd5b5062000389600480360362000383919081019062002101565b620011b1565b604051620003989190620029cc565b60405180910390f35b348015620003ae57600080fd5b50620003cd6004803603620003c7919081019062002101565b6200125f565b604051620003dc9190620029cc565b60405180910390f35b348015620003f257600080fd5b506200041160048036036200040b919081019062002101565b6200130d565b60405162000422939291906200297a565b60405180910390f35b3480156200043857600080fd5b506200045760048036036200045191908101906200212d565b62001514565b60405162000466919062002956565b60405180910390f35b3480156200047c57600080fd5b5062000487620015d6565b604051620004969190620029cc565b60405180910390f35b348015620004ac57600080fd5b50620004cb6004803603620004c591908101906200216e565b620015e2565b005b348015620004da57600080fd5b50620004f96004803603620004f3919081019062002101565b620016b3565b60405162000508919062002956565b60405180910390f35b3480156200051e57600080fd5b506200053d600480360362000537919081019062002101565b62001767565b6040516200054c9190620029cc565b60405180910390f35b3480156200056257600080fd5b506200058160048036036200057b919081019062002101565b62001815565b60405162000590919062002956565b60405180910390f35b348015620005a657600080fd5b50620005c56004803603620005bf919081019062002374565b620018c9565b604051620005d592919062002799565b60405180910390f35b60006060806060600080879050868173ffffffffffffffffffffffffffffffffffffffff1663e13804a7896040518263ffffffff167c0100000000000000000000000000000000000000000000000000000000028152600401620006439190620029cc565b600060405180830381600087803b1580156200065e57600080fd5b505af115801562000673573d6000803e3d6000fd5b505050506040513d6000823e3d601f19601f820116820180604052506200069e9190810190620023fa565b8273ffffffffffffffffffffffffffffffffffffffff16630838e71b8a6040518263ffffffff167c0100000000000000000000000000000000000000000000000000000000028152600401620006f59190620029cc565b600060405180830381600087803b1580156200071057600080fd5b505af115801562000725573d6000803e3d6000fd5b505050506040513d6000823e3d601f19601f82011682018060405250620007509190810190620023fa565b8373ffffffffffffffffffffffffffffffffffffffff1663efdfe6f88b6040518263ffffffff167c0100000000000000000000000000000000000000000000000000000000028152600401620007a79190620029cc565b600060405180830381600087803b158015620007c257600080fd5b505af1158015620007d7573d6000803e3d6000fd5b505050506040513d6000823e3d601f19601f82011682018060405250620008029190810190620023fa565b8473ffffffffffffffffffffffffffffffffffffffff1663b315c5978c6040518263ffffffff167c0100000000000000000000000000000000000000000000000000000000028152600401620008599190620029cc565b602060405180830381600087803b1580156200087457600080fd5b505af115801562000889573d6000803e3d6000fd5b505050506040513d601f19601f82011682018060405250620008af91908101906200246b565b95509550955095509550509295509295909350565b6000808290508073ffffffffffffffffffffffffffffffffffffffff1663b13564886040518163ffffffff167c0100000000000000000000000000000000000000000000000000000000028152600401602060405180830381600087803b1580156200092f57600080fd5b505af115801562000944573d6000803e3d6000fd5b505050506040513d601f19601f820116820180604052506200096a91908101906200246b565b915050919050565b6000808390508073ffffffffffffffffffffffffffffffffffffffff16631163fd2d846040518263ffffffff167c0100000000000000000000000000000000000000000000000000000000028152600401620009cf9190620028ef565b602060405180830381600087803b158015620009ea57600080fd5b505af1158015620009ff573d6000803e3d6000fd5b505050506040513d601f19601f8201168201806040525062000a25919081019062002348565b91505092915050565b606062000a3a62001d29565b62000a4462001d29565b6060600062000a538662001a17565b935062000a956040805190810160405280600181526020017f7c0000000000000000000000000000000000000000000000000000000000000081525062001a17565b9250600162000aae848662001a4790919063ffffffff16565b0160405190808252806020026020018201604052801562000ae457816020015b606081526020019060019003908162000ace5790505b509150600090505b815181101562000b3f5762000b1562000b0f848662001ac490919063ffffffff16565b62001ae2565b828281518110151562000b2457fe5b90602001906020020181905250808060010191505062000aec565b81945050505050919050565b60008290508073ffffffffffffffffffffffffffffffffffffffff166339c79e0c836040518263ffffffff167c010000000000000000000000000000000000000000000000000000000002815260040162000ba79190620028ef565b600060405180830381600087803b15801562000bc257600080fd5b505af115801562000bd7573d6000803e3d6000fd5b505050507fe8384be3d0f1a407dc85f07aa5a8df41aa1ff17d8f9f1b672c76c1ece8e1a4008373__Library_______________________________63ef0b2368856040518263ffffffff167c010000000000000000000000000000000000000000000000000000000002815260040162000c5291906200290c565b60006040518083038186803b15801562000c6b57600080fd5b505af415801562000c80573d6000803e3d6000fd5b505050506040513d6000823e3d601f19601f8201168201806040525062000cab9190810190620023fa565b60405162000cbb929190620027c6565b60405180910390a1505050565b6000806000808481548110151562000cdc57fe5b9060005260206000200160009054906101000a900473ffffffffffffffffffffffffffffffffffffffff16905060018173ffffffffffffffffffffffffffffffffffffffff16634b4fd03b6040518163ffffffff167c0100000000000000000000000000000000000000000000000000000000028152600401602060405180830381600087803b15801562000d7057600080fd5b505af115801562000d85573d6000803e3d6000fd5b505050506040513d601f19601f8201168201806040525062000dab91908101906200246b565b141562000df95760008481548110151562000dc257fe5b9060005260206000200160009054906101000a900473ffffffffffffffffffffffffffffffffffffffff1660019250925062000efe565b8073ffffffffffffffffffffffffffffffffffffffff166369d0968b866040518263ffffffff167c010000000000000000000000000000000000000000000000000000000002815260040162000e509190620028ef565b602060405180830381600087803b15801562000e6b57600080fd5b505af115801562000e80573d6000803e3d6000fd5b505050506040513d601f19601f8201168201806040525062000ea6919081019062002348565b1562000ef35760008481548110151562000ebc57fe5b9060005260206000200160009054906101000a900473ffffffffffffffffffffffffffffffffffffffff1660019250925062000efe565b600080819150925092505b509250929050565b60008181548110151562000f1657fe5b906000526020600020016000915054906101000a900473ffffffffffffffffffffffffffffffffffffffff1681565b6000808290508073ffffffffffffffffffffffffffffffffffffffff166378f305c66040518163ffffffff167c0100000000000000000000000000000000000000000000000000000000028152600401602060405180830381600087803b15801562000fb057600080fd5b505af115801562000fc5573d6000803e3d6000fd5b505050506040513d601f19601f8201168201806040525062000feb91908101906200246b565b915050919050565b600088888888620010048962000a2e565b8888886200101162001d43565b62001024989796959493929190620027fa565b604051809103906000f08015801562001041573d6000803e3d6000fd5b50905060008190806001815401808255809150509060018203906000526020600020016000909192909190916101000a81548173ffffffffffffffffffffffffffffffffffffffff021916908373ffffffffffffffffffffffffffffffffffffffff160217905550507f01a0d7ad6ef14907dcecdacb77f07dd33e4a6262ab878d600da4b89b2ce9bd1a8173__Library_______________________________63ef0b23688c6000600381101515620010f657fe5b60200201516040518263ffffffff167c01000000000000000000000000000000000000000000000000000000000281526004016200113591906200290c565b60006040518083038186803b1580156200114e57600080fd5b505af415801562001163573d6000803e3d6000fd5b505050506040513d6000823e3d601f19601f820116820180604052506200118e9190810190620023fa565b6040516200119e929190620027c6565b60405180910390a1505050505050505050565b6000808290508073ffffffffffffffffffffffffffffffffffffffff16634b4fd03b6040518163ffffffff167c0100000000000000000000000000000000000000000000000000000000028152600401602060405180830381600087803b1580156200121c57600080fd5b505af115801562001231573d6000803e3d6000fd5b505050506040513d601f19601f820116820180604052506200125791908101906200246b565b915050919050565b6000808290508073ffffffffffffffffffffffffffffffffffffffff16636813aaf06040518163ffffffff167c0100000000000000000000000000000000000000000000000000000000028152600401602060405180830381600087803b158015620012ca57600080fd5b505af1158015620012df573d6000803e3d6000fd5b505050506040513d601f19601f820116820180604052506200130591908101906200246b565b915050919050565b606080606060008490508073ffffffffffffffffffffffffffffffffffffffff1663ff3c1a8f6040518163ffffffff167c0100000000000000000000000000000000000000000000000000000000028152600401600060405180830381600087803b1580156200137c57600080fd5b505af115801562001391573d6000803e3d6000fd5b505050506040513d6000823e3d601f19601f82011682018060405250620013bc9190810190620023fa565b8173ffffffffffffffffffffffffffffffffffffffff1663939eab2e6040518163ffffffff167c0100000000000000000000000000000000000000000000000000000000028152600401600060405180830381600087803b1580156200142157600080fd5b505af115801562001436573d6000803e3d6000fd5b505050506040513d6000823e3d601f19601f82011682018060405250620014619190810190620023fa565b8273ffffffffffffffffffffffffffffffffffffffff16631a0925416040518163ffffffff167c0100000000000000000000000000000000000000000000000000000000028152600401600060405180830381600087803b158015620014c657600080fd5b505af1158015620014db573d6000803e3d6000fd5b505050506040513d6000823e3d601f19601f82011682018060405250620015069190810190620023fa565b935093509350509193909250565b606060008390508073ffffffffffffffffffffffffffffffffffffffff166357eadb04846040518263ffffffff167c0100000000000000000000000000000000000000000000000000000000028152600401620015729190620028ef565b600060405180830381600087803b1580156200158d57600080fd5b505af1158015620015a2573d6000803e3d6000fd5b505050506040513d6000823e3d601f19601f82011682018060405250620015cd9190810190620023fa565b91505092915050565b60008080549050905090565b60008390508073ffffffffffffffffffffffffffffffffffffffff16639ef1204c84846040518363ffffffff167c01000000000000000000000000000000000000000000000000000000000281526004016200164092919062002929565b600060405180830381600087803b1580156200165b57600080fd5b505af115801562001670573d6000803e3d6000fd5b505050507f06640b67015c37470a2bc2e00a76d594f6794fae0d12b9e206bc1bf369fe067684604051620016a591906200277c565b60405180910390a150505050565b606060008290508073ffffffffffffffffffffffffffffffffffffffff1663ff3c1a8f6040518163ffffffff167c0100000000000000000000000000000000000000000000000000000000028152600401600060405180830381600087803b1580156200171f57600080fd5b505af115801562001734573d6000803e3d6000fd5b505050506040513d6000823e3d601f19601f820116820180604052506200175f9190810190620023fa565b915050919050565b6000808290508073ffffffffffffffffffffffffffffffffffffffff1663864444ae6040518163ffffffff167c0100000000000000000000000000000000000000000000000000000000028152600401602060405180830381600087803b158015620017d257600080fd5b505af1158015620017e7573d6000803e3d6000fd5b505050506040513d601f19601f820116820180604052506200180d91908101906200246b565b915050919050565b606060008290508073ffffffffffffffffffffffffffffffffffffffff1663893d20e86040518163ffffffff167c0100000000000000000000000000000000000000000000000000000000028152600401600060405180830381600087803b1580156200188157600080fd5b505af115801562001896573d6000803e3d6000fd5b505050506040513d6000823e3d601f19601f82011682018060405250620018c19190810190620023fa565b915050919050565b60008060008084815481101515620018dd57fe5b9060005260206000200160009054906101000a900473ffffffffffffffffffffffffffffffffffffffff1690508073ffffffffffffffffffffffffffffffffffffffff1663eeac39d8866040518263ffffffff167c0100000000000000000000000000000000000000000000000000000000028152600401620019619190620028ef565b602060405180830381600087803b1580156200197c57600080fd5b505af115801562001991573d6000803e3d6000fd5b505050506040513d601f19601f82011682018060405250620019b7919081019062002348565b1562001a0457600084815481101515620019cd57fe5b9060005260206000200160009054906101000a900473ffffffffffffffffffffffffffffffffffffffff1660019250925062001a0f565b600080819150925092505b509250929050565b62001a2162001d29565b600060208301905060408051908101604052808451815260200182815250915050919050565b600080826000015162001a6d856000015186602001518660000151876020015162001b47565b0190505b83600001518460200151018111151562001abd578180600101925050826000015162001ab485602001518303866000015103838660000151876020015162001b47565b01905062001a71565b5092915050565b62001ace62001d29565b62001adb83838362001c38565b5092915050565b606080600083600001516040519080825280601f01601f19166020018201604052801562001b1f5781602001602082028038833980820191505090505b50915060208201905062001b3d818560200151866000015162001cdc565b8192505050919050565b60008060008060008060008060008b97508c8b11151562001c225760208b11151562001bd85760018b60200360080260020a03196001029550858a511694508a8d8d010393508588511692505b8460001916836000191614151562001bcf57838810151562001bbb578c8c01985062001c28565b878060010198505085885116925062001b94565b87985062001c28565b8a8a209150600096505b8a8d038711151562001c21578a8820905080600019168260001916141562001c0d5787985062001c28565b600188019750868060010197505062001be2565b5b8c8c0198505b5050505050505050949350505050565b62001c4262001d29565b600062001c62856000015186602001518660000151876020015162001b47565b9050846020015183602001818152505084602001518103836000018181525050846000015185602001510181141562001ca657600085600001818152505062001cd1565b8360000151836000015101856000018181510391508181525050836000015181018560200181815250505b829150509392505050565b60005b60208210151562001d06578251845260208401935060208301925060208203915062001cdf565b6001826020036101000a0390508019835116818551168181178652505050505050565b604080519081016040528060008152602001600081525090565b60405161217d8062002d1d83390190565b600062001d62823562002c86565b905092915050565b600082601f830112151562001d7e57600080fd5b600262001d9562001d8f8262002a89565b62002a5b565b9150818385602084028201111562001dac57600080fd5b60005b8381101562001de0578162001dc5888262001f79565b84526020840193506020830192505060018101905062001daf565b5050505092915050565b600082601f830112151562001dfe57600080fd5b600362001e1562001e0f8262002aac565b62002a5b565b9150818385602084028201111562001e2c57600080fd5b60005b8381101562001e60578162001e45888262001fa5565b84526020840193506020830192505060018101905062001e2f565b5050505092915050565b600082601f830112151562001e7e57600080fd5b813562001e9562001e8f8262002acf565b62002a5b565b9150818183526020840193506020810190508385602084028201111562001ebb57600080fd5b60005b8381101562001eef578162001ed4888262001fa5565b84526020840193506020830192505060018101905062001ebe565b5050505092915050565b600082601f830112151562001f0d57600080fd5b600262001f2462001f1e8262002af8565b62002a5b565b9150818385602084028201111562001f3b57600080fd5b60005b8381101562001f6f578162001f548882620020d5565b84526020840193506020830192505060018101905062001f3e565b5050505092915050565b600062001f87823562002ca6565b905092915050565b600062001f9d825162002ca6565b905092915050565b600062001fb3823562002cb2565b905092915050565b600082601f830112151562001fcf57600080fd5b813562001fe662001fe08262002b1b565b62002a5b565b915080825260208301602083018583830111156200200357600080fd5b6200201083828462002cc6565b50505092915050565b600082601f83011215156200202d57600080fd5b8135620020446200203e8262002b48565b62002a5b565b915080825260208301602083018583830111156200206157600080fd5b6200206e83828462002cc6565b50505092915050565b600082601f83011215156200208b57600080fd5b8151620020a26200209c8262002b48565b62002a5b565b91508082526020830160208301858383011115620020bf57600080fd5b620020cc83828462002cd5565b50505092915050565b6000620020e3823562002cbc565b905092915050565b6000620020f9825162002cbc565b905092915050565b6000602082840312156200211457600080fd5b6000620021248482850162001d54565b91505092915050565b600080604083850312156200214157600080fd5b6000620021518582860162001d54565b9250506020620021648582860162001fa5565b9150509250929050565b6000806000606084860312156200218457600080fd5b6000620021948682870162001d54565b9350506020620021a78682870162001fa5565b9250506040620021ba86828701620020d5565b9150509250925092565b60008060408385031215620021d857600080fd5b6000620021e88582860162001d54565b9250506020620021fb85828601620020d5565b9150509250929050565b600080600080600080600080610180898b0312156200222357600080fd5b6000620022338b828c0162001dea565b985050606089013567ffffffffffffffff8111156200225157600080fd5b6200225f8b828c0162001fbb565b9750506080620022728b828c0162001d6a565b96505060c089013567ffffffffffffffff8111156200229057600080fd5b6200229e8b828c0162001e6a565b95505060e089013567ffffffffffffffff811115620022bc57600080fd5b620022ca8b828c0162002019565b94505061010089013567ffffffffffffffff811115620022e957600080fd5b620022f78b828c0162001e6a565b93505061012089013567ffffffffffffffff8111156200231657600080fd5b620023248b828c0162001e6a565b925050610140620023388b828c0162001ef9565b9150509295985092959890939650565b6000602082840312156200235b57600080fd5b60006200236b8482850162001f8f565b91505092915050565b600080604083850312156200238857600080fd5b6000620023988582860162001fa5565b9250506020620023ab85828601620020d5565b9150509250929050565b600060208284031215620023c857600080fd5b600082013567ffffffffffffffff811115620023e357600080fd5b620023f18482850162002019565b91505092915050565b6000602082840312156200240d57600080fd5b600082015167ffffffffffffffff8111156200242857600080fd5b620024368482850162002077565b91505092915050565b6000602082840312156200245257600080fd5b60006200246284828501620020d5565b91505092915050565b6000602082840312156200247e57600080fd5b60006200248e84828501620020eb565b91505092915050565b620024a28162002c46565b82525050565b620024b38162002bad565b620024be8262002b75565b60005b82811015620024f657620024d785835162002684565b620024e28262002c05565b9150602085019450600181019050620024c1565b5050505050565b620025088162002bb8565b620025138262002b7f565b60005b828110156200254b576200252c85835162002695565b620025378262002c12565b915060208501945060018101905062002516565b5050505050565b60006200255f8262002bc3565b808452602084019350620025738362002b89565b60005b82811015620025ab576200258c86835162002695565b620025978262002c1f565b915060208601955060018101905062002576565b50849250505092915050565b6000620025c48262002bce565b80845260208401935083602082028501620025df8562002b96565b60005b848110156200261e578383038852620025fd8383516200272f565b92506200260a8262002c2c565b9150602088019750600181019050620025e2565b508196508694505050505092915050565b6200263a8162002bd9565b620026458262002ba3565b60005b828110156200267d576200265e8583516200276b565b620026698262002c39565b915060208501945060018101905062002648565b5050505050565b6200268f8162002c66565b82525050565b620026a08162002c72565b82525050565b620026b18162002c72565b82525050565b6000620026c48262002be4565b808452620026da81602086016020860162002cd5565b620026e58162002d0b565b602085010191505092915050565b6000620027008262002bfa565b8084526200271681602086016020860162002cd5565b620027218162002d0b565b602085010191505092915050565b60006200273c8262002bef565b8084526200275281602086016020860162002cd5565b6200275d8162002d0b565b602085010191505092915050565b620027768162002c7c565b82525050565b600060208201905062002793600083018462002497565b92915050565b6000604082019050620027b0600083018562002497565b620027bf602083018462002684565b9392505050565b6000604082019050620027dd600083018562002497565b8181036020830152620027f18184620026f3565b90509392505050565b60006101808201905062002812600083018b620024fd565b818103606083015262002826818a620026b7565b9050620028376080830189620024a8565b81810360c08301526200284b818862002552565b905081810360e0830152620028618187620025b7565b905081810361010083015262002878818662002552565b90508181036101208301526200288f818562002552565b9050620028a16101408301846200262f565b9998505050505050505050565b60006020820190508181036000830152620028ca8184620025b7565b905092915050565b6000602082019050620028e9600083018462002684565b92915050565b600060208201905062002906600083018462002695565b92915050565b6000602082019050620029236000830184620026a6565b92915050565b600060408201905062002940600083018562002695565b6200294f60208301846200276b565b9392505050565b60006020820190508181036000830152620029728184620026f3565b905092915050565b60006060820190508181036000830152620029968186620026f3565b90508181036020830152620029ac8185620026f3565b90508181036040830152620029c28184620026f3565b9050949350505050565b6000602082019050620029e360008301846200276b565b92915050565b600060a08201905062002a0060008301886200276b565b818103602083015262002a148187620026f3565b9050818103604083015262002a2a8186620026f3565b9050818103606083015262002a408185620026f3565b905062002a5160808301846200276b565b9695505050505050565b6000604051905081810181811067ffffffffffffffff8211171562002a7f57600080fd5b8060405250919050565b600067ffffffffffffffff82111562002aa157600080fd5b602082029050919050565b600067ffffffffffffffff82111562002ac457600080fd5b602082029050919050565b600067ffffffffffffffff82111562002ae757600080fd5b602082029050602081019050919050565b600067ffffffffffffffff82111562002b1057600080fd5b602082029050919050565b600067ffffffffffffffff82111562002b3357600080fd5b601f19601f8301169050602081019050919050565b600067ffffffffffffffff82111562002b6057600080fd5b601f19601f8301169050602081019050919050565b6000819050919050565b6000819050919050565b6000602082019050919050565b6000602082019050919050565b6000819050919050565b600060029050919050565b600060039050919050565b600081519050919050565b600081519050919050565b600060029050919050565b600081519050919050565b600081519050919050565b600081519050919050565b6000602082019050919050565b6000602082019050919050565b6000602082019050919050565b6000602082019050919050565b6000602082019050919050565b600073ffffffffffffffffffffffffffffffffffffffff82169050919050565b60008115159050919050565b6000819050919050565b6000819050919050565b600073ffffffffffffffffffffffffffffffffffffffff82169050919050565b60008115159050919050565b6000819050919050565b6000819050919050565b82818337600083830152505050565b60005b8381101562002cf557808201518184015260208101905062002cd8565b8381111562002d05576000848401525b50505050565b6000601f19601f8301169050919050560060806040523480156200001157600080fd5b506040516200217d3803806200217d833981018060405262000037919081019062000b4f565b60016000808a60006003811015156200004c57fe5b602002015160001916600019168152602001908152602001600020819055508760006003811015156200007b57fe5b6020020151600181600019169055508760016003811015156200009a57fe5b6020020151600281600019169055508660039080519060200190620000c19291906200062f565b50876002600381101515620000d257fe5b602002015160048160001916905550806000600281101515620000f157fe5b60200201516005819055508560006002811015156200010c57fe5b6020020151151562000134578060016002811015156200012857fe5b60200201516006819055505b62000150858585620001e5640100000000026401000000009004565b8560016002811015156200016057fe5b60200201511515620001b1576000600960006101000a81548160ff021916908360018111156200018c57fe5b0217905550620001ab8262000465640100000000026401000000009004565b620001d7565b6001600960006101000a81548160ff02191690836001811115620001d157fe5b02179055505b505050505050505062000ed5565b60008351600781905550600090505b6007548110156200045f5760a06040519081016040528082815260200173__Library_______________________________63ef0b236887858151811015156200023a57fe5b906020019060200201516040518263ffffffff167c01000000000000000000000000000000000000000000000000000000000281526004016200027e919062000ce8565b60006040518083038186803b1580156200029757600080fd5b505af4158015620002ac573d6000803e3d6000fd5b505050506040513d6000823e3d601f19601f82011682018060405250620002d7919081019062000c92565b81526020018483815181101515620002eb57fe5b90602001906020020151815260200173__Library_______________________________63ef0b236885858151811015156200032357fe5b906020019060200201516040518263ffffffff167c010000000000000000000000000000000000000000000000000000000002815260040162000367919062000ce8565b60006040518083038186803b1580156200038057600080fd5b505af415801562000395573d6000803e3d6000fd5b505050506040513d6000823e3d601f19601f82011682018060405250620003c0919081019062000c92565b81526020016000815250600a600083815260200190815260200160002060008201518160000155602082015181600101908051906020019062000405929190620006b6565b50604082015181600201908051906020019062000424929190620006b6565b50606082015181600301908051906020019062000443929190620006b6565b50608082015181600401559050508080600101915050620001f4565b50505050565b60008151600881905550600090505b6008548110156200062b5760018101600c600084848151811015156200049657fe5b90602001906020020151600019166000191681526020019081526020016000208190555060606040519081016040528082815260200173__Library_______________________________63ef0b23688585815181101515620004f557fe5b906020019060200201516040518263ffffffff167c010000000000000000000000000000000000000000000000000000000002815260040162000539919062000ce8565b60006040518083038186803b1580156200055257600080fd5b505af415801562000567573d6000803e3d6000fd5b505050506040513d6000823e3d601f19601f8201168201806040525062000592919081019062000c92565b815260200160001515815250600b60008484815181101515620005b157fe5b9060200190602002015160001916600019168152602001908152602001600020600082015181600001556020820151816001019080519060200190620005f9929190620006b6565b5060408201518160020160006101000a81548160ff021916908315150217905550905050808060010191505062000474565b5050565b828054600181600116156101000203166002900490600052602060002090601f016020900481019282601f106200067257805160ff1916838001178555620006a3565b82800160010185558215620006a3579182015b82811115620006a257825182559160200191906001019062000685565b5b509050620006b291906200073d565b5090565b828054600181600116156101000203166002900490600052602060002090601f016020900481019282601f10620006f957805160ff19168380011785556200072a565b828001600101855582156200072a579182015b82811115620007295782518255916020019190600101906200070c565b5b5090506200073991906200073d565b5090565b6200076291905b808211156200075e57600081600090555060010162000744565b5090565b90565b600082601f83011215156200077957600080fd5b6002620007906200078a8262000d33565b62000d05565b91508183856020840282011115620007a757600080fd5b60005b83811015620007db5781620007c08882620009f3565b845260208401935060208301925050600181019050620007aa565b5050505092915050565b600082601f8301121515620007f957600080fd5b6003620008106200080a8262000d56565b62000d05565b915081838560208402820111156200082757600080fd5b60005b838110156200085b578162000840888262000a09565b8452602084019350602083019250506001810190506200082a565b5050505092915050565b600082601f83011215156200087957600080fd5b8151620008906200088a8262000d79565b62000d05565b91508181835260208401935060208101905083856020840282011115620008b657600080fd5b60005b83811015620008ea5781620008cf888262000a09565b845260208401935060208301925050600181019050620008b9565b5050505092915050565b600082601f83011215156200090857600080fd5b81516200091f620009198262000da2565b62000d05565b9150818183526020840193506020810190508360005b838110156200096957815186016200094e888262000a7d565b84526020840193506020830192505060018101905062000935565b5050505092915050565b600082601f83011215156200098757600080fd5b60026200099e620009988262000dcb565b62000d05565b91508183856020840282011115620009b557600080fd5b60005b83811015620009e95781620009ce888262000b39565b845260208401935060208301925050600181019050620009b8565b5050505092915050565b600062000a01825162000e7f565b905092915050565b600062000a17825162000e8b565b905092915050565b600082601f830112151562000a3357600080fd5b815162000a4a62000a448262000dee565b62000d05565b9150808252602083016020830185838301111562000a6757600080fd5b62000a7483828462000e9f565b50505092915050565b600082601f830112151562000a9157600080fd5b815162000aa862000aa28262000e1b565b62000d05565b9150808252602083016020830185838301111562000ac557600080fd5b62000ad283828462000e9f565b50505092915050565b600082601f830112151562000aef57600080fd5b815162000b0662000b008262000e48565b62000d05565b9150808252602083016020830185838301111562000b2357600080fd5b62000b3083828462000e9f565b50505092915050565b600062000b47825162000e95565b905092915050565b600080600080600080600080610180898b03121562000b6d57600080fd5b600062000b7d8b828c01620007e5565b985050606089015167ffffffffffffffff81111562000b9b57600080fd5b62000ba98b828c0162000a1f565b975050608062000bbc8b828c0162000765565b96505060c089015167ffffffffffffffff81111562000bda57600080fd5b62000be88b828c0162000865565b95505060e089015167ffffffffffffffff81111562000c0657600080fd5b62000c148b828c01620008f4565b94505061010089015167ffffffffffffffff81111562000c3357600080fd5b62000c418b828c0162000865565b93505061012089015167ffffffffffffffff81111562000c6057600080fd5b62000c6e8b828c0162000865565b92505061014062000c828b828c0162000973565b9150509295985092959890939650565b60006020828403121562000ca557600080fd5b600082015167ffffffffffffffff81111562000cc057600080fd5b62000cce8482850162000adb565b91505092915050565b62000ce28162000e75565b82525050565b600060208201905062000cff600083018462000cd7565b92915050565b6000604051905081810181811067ffffffffffffffff8211171562000d2957600080fd5b8060405250919050565b600067ffffffffffffffff82111562000d4b57600080fd5b602082029050919050565b600067ffffffffffffffff82111562000d6e57600080fd5b602082029050919050565b600067ffffffffffffffff82111562000d9157600080fd5b602082029050602081019050919050565b600067ffffffffffffffff82111562000dba57600080fd5b602082029050602081019050919050565b600067ffffffffffffffff82111562000de357600080fd5b602082029050919050565b600067ffffffffffffffff82111562000e0657600080fd5b601f19601f8301169050602081019050919050565b600067ffffffffffffffff82111562000e3357600080fd5b601f19601f8301169050602081019050919050565b600067ffffffffffffffff82111562000e6057600080fd5b601f19601f8301169050602081019050919050565b6000819050919050565b60008115159050919050565b6000819050919050565b6000819050919050565b60005b8381101562000ebf57808201518184015260208101905062000ea2565b8381111562000ecf576000848401525b50505050565b6112988062000ee56000396000f300608060405260043610610112576000357c0100000000000000000000000000000000000000000000000000000000900463ffffffff1680630838e71b146101175780631163fd2d146101545780631a0925411461019157806339c79e0c146101bc5780634b4fd03b146101e557806357eadb04146102105780636813aaf01461024d57806369d0968b1461027857806378f305c6146102b5578063864444ae146102e0578063893d20e81461030b578063939eab2e146103365780639ef1204c14610361578063b13564881461038a578063b315c597146103b5578063e13804a7146103f2578063eb4d69d51461042f578063eeac39d81461046c578063efdfe6f8146104a9578063ff3c1a8f146104e6575b600080fd5b34801561012357600080fd5b5061013e60048036036101399190810190611083565b610511565b60405161014b9190611145565b60405180910390f35b34801561016057600080fd5b5061017b60048036036101769190810190610fdd565b6105c9565b604051610188919061110f565b60405180910390f35b34801561019d57600080fd5b506101a66105fe565b6040516101b39190611145565b60405180910390f35b3480156101c857600080fd5b506101e360048036036101de9190810190610fdd565b6106af565b005b3480156101f157600080fd5b506101fa6106f4565b6040516102079190611167565b60405180910390f35b34801561021c57600080fd5b5061023760048036036102329190810190610fdd565b610716565b6040516102449190611145565b60405180910390f35b34801561025957600080fd5b506102626107e9565b60405161026f9190611167565b60405180910390f35b34801561028457600080fd5b5061029f600480360361029a9190810190610fdd565b6107ef565b6040516102ac919061110f565b60405180910390f35b3480156102c157600080fd5b506102ca610817565b6040516102d79190611167565b60405180910390f35b3480156102ec57600080fd5b506102f5610821565b6040516103029190611167565b60405180910390f35b34801561031757600080fd5b50610320610827565b60405161032d9190611145565b60405180910390f35b34801561034257600080fd5b5061034b6108d8565b6040516103589190611145565b60405180910390f35b34801561036d57600080fd5b5061038860048036036103839190810190611006565b61097a565b005b34801561039657600080fd5b5061039f610c30565b6040516103ac9190611167565b60405180910390f35b3480156103c157600080fd5b506103dc60048036036103d79190810190611083565b610c3a565b6040516103e99190611167565b60405180910390f35b3480156103fe57600080fd5b5061041960048036036104149190810190611083565b610c5a565b6040516104269190611145565b60405180910390f35b34801561043b57600080fd5b5061045660048036036104519190810190610fdd565b610d12565b6040516104639190611167565b60405180910390f35b34801561047857600080fd5b50610493600480360361048e9190810190610fdd565b610d2a565b6040516104a0919061110f565b60405180910390f35b3480156104b557600080fd5b506104d060048036036104cb9190810190611083565b610d51565b6040516104dd9190611145565b60405180910390f35b3480156104f257600080fd5b506104fb610e09565b6040516105089190611145565b60405180910390f35b6060600a60008381526020019081526020016000206002018054600181600116156101000203166002900480601f0160208091040260200160405190810160405280929190818152602001828054600181600116156101000203166002900480156105bd5780601f10610592576101008083540402835291602001916105bd565b820191906000526020600020905b8154815290600101906020018083116105a057829003601f168201915b50505050509050919050565b6000600b6000836000191660001916815260200190815260200160002060020160009054906101000a900460ff169050919050565b606073__Library_______________________________63ef0b23686004546040518263ffffffff167c0100000000000000000000000000000000000000000000000000000000028152600401610655919061112a565b60006040518083038186803b15801561066d57600080fd5b505af4158015610681573d6000803e3d6000fd5b505050506040513d6000823e3d601f19601f820116820180604052506106aa9190810190611042565b905090565b6000806000836000191660001916815260200190815260200160002054141515156106d957600080fd5b60006006541415156106ea57600080fd5b4260068190555050565b6000600960009054906101000a900460ff16600181111561071157fe5b905090565b6060600a6000600d600085600019166000191681526020019081526020016000205481526020019081526020016000206001018054600181600116156101000203166002900480601f0160208091040260200160405190810160405280929190818152602001828054600181600116156101000203166002900480156107dd5780601f106107b2576101008083540402835291602001916107dd565b820191906000526020600020905b8154815290600101906020018083116107c057829003601f168201915b50505050509050919050565b60085481565b600080600c600084600019166000191681526020019081526020016000205414159050919050565b6000600554905090565b60075481565b606073__Library_______________________________63ef0b23686001546040518263ffffffff167c010000000000000000000000000000000000000000000000000000000002815260040161087e919061112a565b60006040518083038186803b15801561089657600080fd5b505af41580156108aa573d6000803e3d6000fd5b505050506040513d6000823e3d601f19601f820116820180604052506108d39190810190611042565b905090565b606060038054600181600116156101000203166002900480601f0160208091040260200160405190810160405280929190818152602001828054600181600116156101000203166002900480156109705780601f1061094557610100808354040283529160200191610970565b820191906000526020600020905b81548152906001019060200180831161095357829003601f168201915b5050505050905090565b6000600181111561098757fe5b600960009054906101000a900460ff1660018111156109a257fe5b14156109d8576000600c6000846000191660001916815260200190815260200160002054141515156109d357600080fd5b610b3d565b6000600c60008460001916600019168152602001908152602001600020541415610b3c57606060405190810160405280600854815260200173__Library_______________________________63ef0b2368856040518263ffffffff167c0100000000000000000000000000000000000000000000000000000000028152600401610a63919061112a565b60006040518083038186803b158015610a7b57600080fd5b505af4158015610a8f573d6000803e3d6000fd5b505050506040513d6000823e3d601f19601f82011682018060405250610ab89190810190611042565b815260200160001515815250600b60008460001916600019168152602001908152602001600020600082015181600001556020820151816001019080519060200190610b05929190610eba565b5060408201518160020160006101000a81548160ff0219169083151502179055509050506008600081548092919060010191905055505b5b6000600654141515610b5a5760065442101515610b5957600080fd5b5b600b6000836000191660001916815260200190815260200160002060020160009054906101000a900460ff16151515610b9257600080fd5b60008110158015610ba4575060075481105b1515610baf57600080fd5b6001600b6000846000191660001916815260200190815260200160002060020160006101000a81548160ff02191690831515021790555080600d6000846000191660001916815260200190815260200160002081905550600a6000828152602001908152602001600020600401600081548092919060010191905055505050565b6000600654905090565b6000600a6000838152602001908152602001600020600401549050919050565b6060600a60008381526020019081526020016000206001018054600181600116156101000203166002900480601f016020809104026020016040519081016040528092919081815260200182805460018160011615610100020316600290048015610d065780601f10610cdb57610100808354040283529160200191610d06565b820191906000526020600020905b815481529060010190602001808311610ce957829003601f168201915b50505050509050919050565b60006020528060005260406000206000915090505481565b60008060008084600019166000191681526020019081526020016000205414159050919050565b6060600a60008381526020019081526020016000206003018054600181600116156101000203166002900480601f016020809104026020016040519081016040528092919081815260200182805460018160011615610100020316600290048015610dfd5780601f10610dd257610100808354040283529160200191610dfd565b820191906000526020600020905b815481529060010190602001808311610de057829003601f168201915b50505050509050919050565b606073__Library_______________________________63ef0b23686002546040518263ffffffff167c0100000000000000000000000000000000000000000000000000000000028152600401610e60919061112a565b60006040518083038186803b158015610e7857600080fd5b505af4158015610e8c573d6000803e3d6000fd5b505050506040513d6000823e3d601f19601f82011682018060405250610eb59190810190611042565b905090565b828054600181600116156101000203166002900490600052602060002090601f016020900481019282601f10610efb57805160ff1916838001178555610f29565b82800160010185558215610f29579182015b82811115610f28578251825591602001919060010190610f0d565b5b509050610f369190610f3a565b5090565b610f5c91905b80821115610f58576000816000905550600101610f40565b5090565b90565b6000610f6b8235611206565b905092915050565b600082601f8301121515610f8657600080fd5b8151610f99610f94826111af565b611182565b91508082526020830160208301858383011115610fb557600080fd5b610fc083828461121a565b50505092915050565b6000610fd58235611210565b905092915050565b600060208284031215610fef57600080fd5b6000610ffd84828501610f5f565b91505092915050565b6000806040838503121561101957600080fd5b600061102785828601610f5f565b925050602061103885828601610fc9565b9150509250929050565b60006020828403121561105457600080fd5b600082015167ffffffffffffffff81111561106e57600080fd5b61107a84828501610f73565b91505092915050565b60006020828403121561109557600080fd5b60006110a384828501610fc9565b91505092915050565b6110b5816111e6565b82525050565b6110c4816111f2565b82525050565b60006110d5826111db565b8084526110e981602086016020860161121a565b6110f28161124d565b602085010191505092915050565b611109816111fc565b82525050565b600060208201905061112460008301846110ac565b92915050565b600060208201905061113f60008301846110bb565b92915050565b6000602082019050818103600083015261115f81846110ca565b905092915050565b600060208201905061117c6000830184611100565b92915050565b6000604051905081810181811067ffffffffffffffff821117156111a557600080fd5b8060405250919050565b600067ffffffffffffffff8211156111c657600080fd5b601f19601f8301169050602081019050919050565b600081519050919050565b60008115159050919050565b6000819050919050565b6000819050919050565b6000819050919050565b6000819050919050565b60005b8381101561123857808201518184015260208101905061121d565b83811115611247576000848401525b50505050565b6000601f19601f83011690509190505600a265627a7a7230582035e30ad5682f63d7ea953b1562382cd9d9653a1753973c586351837d7d98a0376c6578706572696d656e74616cf50037a265627a7a72305820814885f084edf87595328174f4948d56bb5e0720f29fe86974a1dcd0b008bd5d6c6578706572696d656e74616cf50037",
  "source": "pragma solidity ^0.4.24;\npragma experimental ABIEncoderV2;\n\nimport \"./Election.sol\";\nimport './Library.sol';\nimport './strings.sol';\n\ncontract ElectionFactory {\n  using strings for *;\n\n  address[] public elections;\n\n  constructor () public {\n  }\n\n  event electionCreated(address addr, string owner);\n  event closedElection(address addr, string owner);\n  event votedEvent(address addr);\n\n  function getImgs(string _cImg) public pure returns (string[]) {\n    strings.slice memory s = _cImg.toSlice();\n    strings.slice memory delim = \"|\".toSlice();\n    string[] memory parts = new string[](s.count(delim) + 1);\n    for (uint i = 0; i < parts.length; i++) {\n      parts[i] = s.split(delim).toString();\n    }\n    return parts;\n  }\n\n  function createElection (\n    bytes32[3] _content, bytes _imgURL, bool[2] _setup,\n    bytes32[] _candidates,\n    string _cImg,\n    bytes32[] _candidatesDescription,\n    bytes32[] voters, uint[2] _start_end\n  ) public {\n    address addr = new Election(\n      _content, _imgURL, _setup,\n      _candidates, getImgs(_cImg), _candidatesDescription,\n      voters, _start_end);\n    elections.push(addr);\n\n    emit electionCreated(addr, Library.bytes32ToStr(_content[0]));\n  }\n\n  function getSize() public view returns (uint) {\n    return elections.length;\n  }\n\n  function getTitle(address addr) public view returns (string) {\n    Election e = Election(addr);\n\n    return e.getTitle();\n  }\n  function getContent(address addr) public view returns (string, string, string) {\n    Election e = Election(addr);\n\n    return (e.getTitle(), e.getImgURL(), e.getDescription());\n  }\n  function getOwner(address addr) public view returns (string) {\n    Election e = Election(addr);\n\n    return e.getOwner();\n  }\n  function getCandidateSize(address addr) public view returns (uint) {\n    Election e = Election(addr);\n\n    return e.candSize();\n  }\n  function getVoterSize(address addr) public view returns (uint) {\n    Election e = Election(addr);\n\n    return e.votrSize();\n  }\n  function getVoterElectionAddress(bytes32 _email, uint i) public view returns (address, bool) {\n    Election e = Election(elections[i]);\n\n    if (e.getMode() == 1) {\n      return (elections[i], true);\n    }\n\n    if (e.isVoter(_email)) {\n      return (elections[i], true);\n    }\n    return (0, false);\n  }\n  function getOwnerElectionAddress(bytes32 _email, uint i) public view returns (address, bool) {\n    Election e = Election(elections[i]);\n\n    if (e.isOwner(_email)) {\n      return (elections[i], true);\n    }\n    return (0, false);\n  }\n  function isVoted(address addr, bytes32 _email) public view returns (bool) {\n    Election e = Election(addr);\n\n    return e.isVoted(_email);\n  }\n  function getVotedTo(address addr, bytes32 _email) public view returns (string) {\n    Election e = Election(addr);\n\n    return e.getVotedTo(_email);\n  }\n\n  function getCandidate(address addr, uint i) public view returns (uint, string, string, string, uint) {\n    Election e = Election(addr);\n\n    return (i, e.getCandidateName(i), e.getCandidateImgURL(i), e.getCandidateDescription(i), e.getCandidateVoteCount(i));\n  }\n\n  function vote(address addr, bytes32 _email, uint _candidateId) public {\n    Election e = Election(addr);\n\n    e.vote(_email, _candidateId);\n\n    emit votedEvent(addr);\n  }\n\n  function close(address addr, bytes32 _email) public {\n    Election e = Election(addr);\n\n    e.close(_email);\n\n    emit closedElection(addr, Library.bytes32ToStr(_email));\n  }\n  function getStartDate(address addr) public view returns (uint) {\n    Election e = Election(addr);\n\n    return e.getStartDate();\n  }\n  function getEndDate(address addr) public view returns (uint) {\n    Election e = Election(addr);\n\n    return e.getEndDate();\n  }\n  function getMode(address addr) public view returns (uint) {\n    Election e = Election(addr);\n\n    return e.getMode();\n  }\n}\n",
  "sourcePath": "/Users/kangyi/Projects/react_bc_vote/contracts/ElectionFactory.sol",
  "compiler": {
    "name": "solc",
    "version": "0.4.24+commit.e67f0147.Emscripten.clang"
  },
  "schemaVersion": "2.0.1",
  "updatedAt": "2018-11-05T19:13:11.223Z"
}