{
  "contractName": "ElectionFactory",
  "abi": [
    {
      "constant": true,
      "inputs": [
        {
          "name": "",
          "type": "uint256"
        }
      ],
      "name": "elections",
      "outputs": [
        {
          "name": "",
          "type": "address"
        }
      ],
      "payable": false,
      "stateMutability": "view",
      "type": "function"
    },
    {
      "inputs": [],
      "payable": false,
      "stateMutability": "nonpayable",
      "type": "constructor"
    },
    {
      "anonymous": false,
      "inputs": [],
      "name": "electionCreated",
      "type": "event"
    },
    {
      "anonymous": false,
      "inputs": [],
      "name": "startedElection",
      "type": "event"
    },
    {
      "anonymous": false,
      "inputs": [],
      "name": "closedElection",
      "type": "event"
    },
    {
      "anonymous": false,
      "inputs": [],
      "name": "votedEvent",
      "type": "event"
    },
    {
      "constant": false,
      "inputs": [
        {
          "name": "owner",
          "type": "bytes32"
        },
        {
          "name": "title",
          "type": "bytes"
        },
        {
          "name": "_public",
          "type": "bool"
        },
        {
          "name": "candidates",
          "type": "bytes32[]"
        },
        {
          "name": "voters",
          "type": "bytes32[]"
        },
        {
          "name": "manual",
          "type": "bool"
        },
        {
          "name": "startNow",
          "type": "bool"
        },
        {
          "name": "start",
          "type": "uint256"
        },
        {
          "name": "end",
          "type": "uint256"
        }
      ],
      "name": "createElection",
      "outputs": [],
      "payable": false,
      "stateMutability": "nonpayable",
      "type": "function"
    },
    {
      "constant": true,
      "inputs": [],
      "name": "getSize",
      "outputs": [
        {
          "name": "",
          "type": "uint256"
        }
      ],
      "payable": false,
      "stateMutability": "view",
      "type": "function"
    },
    {
      "constant": true,
      "inputs": [
        {
          "name": "addr",
          "type": "address"
        }
      ],
      "name": "getTitle",
      "outputs": [
        {
          "name": "",
          "type": "string"
        }
      ],
      "payable": false,
      "stateMutability": "view",
      "type": "function"
    },
    {
      "constant": true,
      "inputs": [
        {
          "name": "addr",
          "type": "address"
        }
      ],
      "name": "getOwner",
      "outputs": [
        {
          "name": "",
          "type": "string"
        }
      ],
      "payable": false,
      "stateMutability": "view",
      "type": "function"
    },
    {
      "constant": true,
      "inputs": [
        {
          "name": "addr",
          "type": "address"
        }
      ],
      "name": "getCandidateSize",
      "outputs": [
        {
          "name": "",
          "type": "uint256"
        }
      ],
      "payable": false,
      "stateMutability": "view",
      "type": "function"
    },
    {
      "constant": true,
      "inputs": [
        {
          "name": "_email",
          "type": "bytes32"
        },
        {
          "name": "i",
          "type": "uint256"
        }
      ],
      "name": "getVoterElectionAddress",
      "outputs": [
        {
          "name": "",
          "type": "address"
        },
        {
          "name": "",
          "type": "bool"
        }
      ],
      "payable": false,
      "stateMutability": "view",
      "type": "function"
    },
    {
      "constant": true,
      "inputs": [
        {
          "name": "_email",
          "type": "bytes32"
        },
        {
          "name": "i",
          "type": "uint256"
        }
      ],
      "name": "getOwnerElectionAddress",
      "outputs": [
        {
          "name": "",
          "type": "address"
        },
        {
          "name": "",
          "type": "bool"
        }
      ],
      "payable": false,
      "stateMutability": "view",
      "type": "function"
    },
    {
      "constant": true,
      "inputs": [
        {
          "name": "addr",
          "type": "address"
        },
        {
          "name": "_email",
          "type": "bytes32"
        }
      ],
      "name": "isVoted",
      "outputs": [
        {
          "name": "",
          "type": "bool"
        }
      ],
      "payable": false,
      "stateMutability": "view",
      "type": "function"
    },
    {
      "constant": true,
      "inputs": [
        {
          "name": "addr",
          "type": "address"
        },
        {
          "name": "_email",
          "type": "bytes32"
        }
      ],
      "name": "getVotedTo",
      "outputs": [
        {
          "name": "",
          "type": "string"
        }
      ],
      "payable": false,
      "stateMutability": "view",
      "type": "function"
    },
    {
      "constant": true,
      "inputs": [
        {
          "name": "addr",
          "type": "address"
        },
        {
          "name": "i",
          "type": "uint256"
        }
      ],
      "name": "getCandidate",
      "outputs": [
        {
          "name": "",
          "type": "uint256"
        },
        {
          "name": "",
          "type": "string"
        },
        {
          "name": "",
          "type": "uint256"
        }
      ],
      "payable": false,
      "stateMutability": "view",
      "type": "function"
    },
    {
      "constant": false,
      "inputs": [
        {
          "name": "addr",
          "type": "address"
        },
        {
          "name": "_email",
          "type": "bytes32"
        },
        {
          "name": "_candidateId",
          "type": "uint256"
        }
      ],
      "name": "vote",
      "outputs": [],
      "payable": false,
      "stateMutability": "nonpayable",
      "type": "function"
    },
    {
      "constant": false,
      "inputs": [
        {
          "name": "addr",
          "type": "address"
        },
        {
          "name": "_email",
          "type": "bytes32"
        }
      ],
      "name": "close",
      "outputs": [],
      "payable": false,
      "stateMutability": "nonpayable",
      "type": "function"
    },
    {
      "constant": false,
      "inputs": [
        {
          "name": "addr",
          "type": "address"
        },
        {
          "name": "_email",
          "type": "bytes32"
        }
      ],
      "name": "start",
      "outputs": [],
      "payable": false,
      "stateMutability": "nonpayable",
      "type": "function"
    },
    {
      "constant": true,
      "inputs": [
        {
          "name": "addr",
          "type": "address"
        }
      ],
      "name": "getStartDate",
      "outputs": [
        {
          "name": "",
          "type": "uint256"
        }
      ],
      "payable": false,
      "stateMutability": "view",
      "type": "function"
    },
    {
      "constant": true,
      "inputs": [
        {
          "name": "addr",
          "type": "address"
        }
      ],
      "name": "getEndDate",
      "outputs": [
        {
          "name": "",
          "type": "uint256"
        }
      ],
      "payable": false,
      "stateMutability": "view",
      "type": "function"
    },
    {
      "constant": true,
      "inputs": [
        {
          "name": "addr",
          "type": "address"
        }
      ],
      "name": "getStatus",
      "outputs": [
        {
          "name": "",
          "type": "uint256"
        }
      ],
      "payable": false,
      "stateMutability": "view",
      "type": "function"
    },
    {
      "constant": true,
      "inputs": [
        {
          "name": "addr",
          "type": "address"
        }
      ],
      "name": "getMode",
      "outputs": [
        {
          "name": "",
          "type": "uint256"
        }
      ],
      "payable": false,
      "stateMutability": "view",
      "type": "function"
    },
    {
      "constant": true,
      "inputs": [
        {
          "name": "addr",
          "type": "address"
        }
      ],
      "name": "isManual",
      "outputs": [
        {
          "name": "",
          "type": "bool"
        }
      ],
      "payable": false,
      "stateMutability": "view",
      "type": "function"
    },
    {
      "constant": true,
      "inputs": [],
      "name": "getCurrentDateTime",
      "outputs": [
        {
          "name": "",
          "type": "uint256"
        }
      ],
      "payable": false,
      "stateMutability": "view",
      "type": "function"
    }
  ],
  "bytecode": "0x608060405234801561001057600080fd5b506136c3806100206000396000f30060806040526004361062000127576000357c0100000000000000000000000000000000000000000000000000000000900463ffffffff1680630f5d559d146200012c578063194ee239146200018a578063240035e214620002645780632d70ad5c14620002be57806330ccebb5146200032a5780633b34e2cd146200038457806353e30d2914620003d85780635e6fef0114620004615780636b272c9014620004d1578063985d3726146200052b5780639fc862391462000663578063a88f066314620006bd578063d5372e601462000711578063db09bded14620007e1578063de8fa431146200080f578063ec4408d6146200083d578063f51d7d5f146200089b578063f636e5a2146200095d578063fa54416114620009b7578063fad2e3511462000a79575b600080fd5b3480156200013957600080fd5b5062000170600480360381019080803573ffffffffffffffffffffffffffffffffffffffff16906020019092919050505062000b02565b604051808215151515815260200191505060405180910390f35b3480156200019757600080fd5b50620001d8600480360381019080803573ffffffffffffffffffffffffffffffffffffffff1690602001909291908035906020019092919050505062000bb2565b6040518084815260200180602001838152602001828103825284818151815260200191508051906020019080838360005b838110156200022657808201518184015260208101905062000209565b50505050905090810190601f168015620002545780820380516001836020036101000a031916815260200191505b5094505050505060405180910390f35b3480156200027157600080fd5b50620002a8600480360381019080803573ffffffffffffffffffffffffffffffffffffffff16906020019092919050505062000d7e565b6040518082815260200191505060405180910390f35b348015620002cb57600080fd5b5062000310600480360381019080803573ffffffffffffffffffffffffffffffffffffffff169060200190929190803560001916906020019092919050505062000e2e565b604051808215151515815260200191505060405180910390f35b3480156200033757600080fd5b506200036e600480360381019080803573ffffffffffffffffffffffffffffffffffffffff16906020019092919050505062000ef2565b6040518082815260200191505060405180910390f35b3480156200039157600080fd5b50620003d6600480360381019080803573ffffffffffffffffffffffffffffffffffffffff169060200190929190803560001916906020019092919050505062000fa2565b005b348015620003e557600080fd5b506200041460048036038101908080356000191690602001909291908035906020019092919050505062001069565b604051808373ffffffffffffffffffffffffffffffffffffffff1673ffffffffffffffffffffffffffffffffffffffff168152602001821515151581526020019250505060405180910390f35b3480156200046e57600080fd5b506200048f6004803603810190808035906020019092919050505062001415565b604051808273ffffffffffffffffffffffffffffffffffffffff1673ffffffffffffffffffffffffffffffffffffffff16815260200191505060405180910390f35b348015620004de57600080fd5b5062000515600480360381019080803573ffffffffffffffffffffffffffffffffffffffff16906020019092919050505062001454565b6040518082815260200191505060405180910390f35b3480156200053857600080fd5b50620006616004803603810190808035600019169060200190929190803590602001908201803590602001908080601f01602080910402602001604051908101604052809392919081815260200183838082843782019150505050505091929192908035151590602001909291908035906020019082018035906020019080806020026020016040519081016040528093929190818152602001838360200280828437820191505050505050919291929080359060200190820180359060200190808060200260200160405190810160405280939291908181526020018383602002808284378201915050505050509192919290803515159060200190929190803515159060200190929190803590602001909291908035906020019092919050505062001504565b005b3480156200067057600080fd5b50620006a7600480360381019080803573ffffffffffffffffffffffffffffffffffffffff1690602001909291905050506200171b565b6040518082815260200191505060405180910390f35b348015620006ca57600080fd5b506200070f600480360381019080803573ffffffffffffffffffffffffffffffffffffffff1690602001909291908035600019169060200190929190505050620017cb565b005b3480156200071e57600080fd5b5062000763600480360381019080803573ffffffffffffffffffffffffffffffffffffffff169060200190929190803560001916906020019092919050505062001892565b6040518080602001828103825283818151815260200191508051906020019080838360005b83811015620007a557808201518184015260208101905062000788565b50505050905090810190601f168015620007d35780820380516001836020036101000a031916815260200191505b509250505060405180910390f35b348015620007ee57600080fd5b50620007f9620019b0565b6040518082815260200191505060405180910390f35b3480156200081c57600080fd5b5062000827620019b8565b6040518082815260200191505060405180910390f35b3480156200084a57600080fd5b5062000899600480360381019080803573ffffffffffffffffffffffffffffffffffffffff169060200190929190803560001916906020019092919080359060200190929190505050620019c4565b005b348015620008a857600080fd5b50620008df600480360381019080803573ffffffffffffffffffffffffffffffffffffffff16906020019092919050505062001a94565b6040518080602001828103825283818151815260200191508051906020019080838360005b838110156200092157808201518184015260208101905062000904565b50505050905090810190601f1680156200094f5780820380516001836020036101000a031916815260200191505b509250505060405180910390f35b3480156200096a57600080fd5b50620009a1600480360381019080803573ffffffffffffffffffffffffffffffffffffffff16906020019092919050505062001b9e565b6040518082815260200191505060405180910390f35b348015620009c457600080fd5b50620009fb600480360381019080803573ffffffffffffffffffffffffffffffffffffffff16906020019092919050505062001c4e565b6040518080602001828103825283818151815260200191508051906020019080838360005b8381101562000a3d57808201518184015260208101905062000a20565b50505050905090810190601f16801562000a6b5780820380516001836020036101000a031916815260200191505b509250505060405180910390f35b34801562000a8657600080fd5b5062000ab560048036038101908080356000191690602001909291908035906020019092919050505062001d58565b604051808373ffffffffffffffffffffffffffffffffffffffff1673ffffffffffffffffffffffffffffffffffffffff168152602001821515151581526020019250505060405180910390f35b6000808290508073ffffffffffffffffffffffffffffffffffffffff1663f2e83ddf6040518163ffffffff167c0100000000000000000000000000000000000000000000000000000000028152600401602060405180830381600087803b15801562000b6d57600080fd5b505af115801562000b82573d6000803e3d6000fd5b505050506040513d602081101562000b9957600080fd5b8101908080519060200190929190505050915050919050565b60006060600080859050848173ffffffffffffffffffffffffffffffffffffffff1663e13804a7876040518263ffffffff167c010000000000000000000000000000000000000000000000000000000002815260040180828152602001915050600060405180830381600087803b15801562000c2d57600080fd5b505af115801562000c42573d6000803e3d6000fd5b505050506040513d6000823e3d601f19601f82011682018060405250602081101562000c6d57600080fd5b81019080805164010000000081111562000c8657600080fd5b8281019050602081018481111562000c9d57600080fd5b815185600182028301116401000000008211171562000cbb57600080fd5b50509291905050508273ffffffffffffffffffffffffffffffffffffffff1663b315c597886040518263ffffffff167c010000000000000000000000000000000000000000000000000000000002815260040180828152602001915050602060405180830381600087803b15801562000d3357600080fd5b505af115801562000d48573d6000803e3d6000fd5b505050506040513d602081101562000d5f57600080fd5b8101908080519060200190929190505050935093509350509250925092565b6000808290508073ffffffffffffffffffffffffffffffffffffffff1663b13564886040518163ffffffff167c0100000000000000000000000000000000000000000000000000000000028152600401602060405180830381600087803b15801562000de957600080fd5b505af115801562000dfe573d6000803e3d6000fd5b505050506040513d602081101562000e1557600080fd5b8101908080519060200190929190505050915050919050565b6000808390508073ffffffffffffffffffffffffffffffffffffffff16631163fd2d846040518263ffffffff167c0100000000000000000000000000000000000000000000000000000000028152600401808260001916600019168152602001915050602060405180830381600087803b15801562000eac57600080fd5b505af115801562000ec1573d6000803e3d6000fd5b505050506040513d602081101562000ed857600080fd5b810190808051906020019092919050505091505092915050565b6000808290508073ffffffffffffffffffffffffffffffffffffffff16634e69d5606040518163ffffffff167c0100000000000000000000000000000000000000000000000000000000028152600401602060405180830381600087803b15801562000f5d57600080fd5b505af115801562000f72573d6000803e3d6000fd5b505050506040513d602081101562000f8957600080fd5b8101908080519060200190929190505050915050919050565b60008290508073ffffffffffffffffffffffffffffffffffffffff166339c79e0c836040518263ffffffff167c0100000000000000000000000000000000000000000000000000000000028152600401808260001916600019168152602001915050600060405180830381600087803b1580156200101f57600080fd5b505af115801562001034573d6000803e3d6000fd5b505050507f9ed5ac0e8aed9f888c26b4cb5567dd046693eed7c5c23508cdc59f76145cd39960405160405180910390a1505050565b600080600080848154811015156200107d57fe5b9060005260206000200160009054906101000a900473ffffffffffffffffffffffffffffffffffffffff16905060018173ffffffffffffffffffffffffffffffffffffffff16634b4fd03b6040518163ffffffff167c0100000000000000000000000000000000000000000000000000000000028152600401602060405180830381600087803b1580156200111157600080fd5b505af115801562001126573d6000803e3d6000fd5b505050506040513d60208110156200113d57600080fd5b810190808051906020019092919050505014156200119c576000848154811015156200116557fe5b9060005260206000200160009054906101000a900473ffffffffffffffffffffffffffffffffffffffff166001925092506200140d565b8073ffffffffffffffffffffffffffffffffffffffff166369d0968b866040518263ffffffff167c0100000000000000000000000000000000000000000000000000000000028152600401808260001916600019168152602001915050602060405180830381600087803b1580156200121457600080fd5b505af115801562001229573d6000803e3d6000fd5b505050506040513d60208110156200124057600080fd5b81019080805190602001909291905050501562001402578073ffffffffffffffffffffffffffffffffffffffff1663f2e83ddf6040518163ffffffff167c0100000000000000000000000000000000000000000000000000000000028152600401602060405180830381600087803b158015620012bc57600080fd5b505af1158015620012d1573d6000803e3d6000fd5b505050506040513d6020811015620012e857600080fd5b810190808051906020019092919050505015620013bb5760028173ffffffffffffffffffffffffffffffffffffffff16634e69d5606040518163ffffffff167c0100000000000000000000000000000000000000000000000000000000028152600401602060405180830381600087803b1580156200136657600080fd5b505af11580156200137b573d6000803e3d6000fd5b505050506040513d60208110156200139257600080fd5b81019080805190602001909291905050501415620013ba57600080819150925092506200140d565b5b600084815481101515620013cb57fe5b9060005260206000200160009054906101000a900473ffffffffffffffffffffffffffffffffffffffff166001925092506200140d565b600080819150925092505b509250929050565b6000818154811015156200142557fe5b906000526020600020016000915054906101000a900473ffffffffffffffffffffffffffffffffffffffff1681565b6000808290508073ffffffffffffffffffffffffffffffffffffffff166378f305c66040518163ffffffff167c0100000000000000000000000000000000000000000000000000000000028152600401602060405180830381600087803b158015620014bf57600080fd5b505af1158015620014d4573d6000803e3d6000fd5b505050506040513d6020811015620014eb57600080fd5b8101908080519060200190929190505050915050919050565b60008989898989898989896200151962001eae565b808a6000191660001916815260200180602001891515151581526020018060200180602001881515151581526020018715151515815260200186815260200185815260200184810384528c818151815260200191508051906020019080838360005b83811015620015985780820151818401526020810190506200157b565b50505050905090810190601f168015620015c65780820380516001836020036101000a031916815260200191505b5084810383528a818151815260200191508051906020019060200280838360005b8381101562001604578082015181840152602081019050620015e7565b50505050905001848103825289818151815260200191508051906020019060200280838360005b83811015620016485780820151818401526020810190506200162b565b505050509050019c50505050505050505050505050604051809103906000f0801580156200167a573d6000803e3d6000fd5b50905060008190806001815401808255809150509060018203906000526020600020016000909192909190916101000a81548173ffffffffffffffffffffffffffffffffffffffff021916908373ffffffffffffffffffffffffffffffffffffffff160217905550507fd903ee4bc1593347aaa1a6d1a188eb7e2c085affe5cb7b9f26213fd0b2ed4f9360405160405180910390a150505050505050505050565b6000808290508073ffffffffffffffffffffffffffffffffffffffff16634b4fd03b6040518163ffffffff167c0100000000000000000000000000000000000000000000000000000000028152600401602060405180830381600087803b1580156200178657600080fd5b505af11580156200179b573d6000803e3d6000fd5b505050506040513d6020811015620017b257600080fd5b8101908080519060200190929190505050915050919050565b60008290508073ffffffffffffffffffffffffffffffffffffffff1663015a18ed836040518263ffffffff167c0100000000000000000000000000000000000000000000000000000000028152600401808260001916600019168152602001915050600060405180830381600087803b1580156200184857600080fd5b505af11580156200185d573d6000803e3d6000fd5b505050507f039aa1f1d7ad1c36f3e110d92feae8bf06e345bba6a3455e78b6ebced5d67dce60405160405180910390a1505050565b606060008390508073ffffffffffffffffffffffffffffffffffffffff166357eadb04846040518263ffffffff167c0100000000000000000000000000000000000000000000000000000000028152600401808260001916600019168152602001915050600060405180830381600087803b1580156200191157600080fd5b505af115801562001926573d6000803e3d6000fd5b505050506040513d6000823e3d601f19601f8201168201806040525060208110156200195157600080fd5b8101908080516401000000008111156200196a57600080fd5b828101905060208101848111156200198157600080fd5b81518560018202830111640100000000821117156200199f57600080fd5b505092919050505091505092915050565b600042905090565b60008080549050905090565b60008390508073ffffffffffffffffffffffffffffffffffffffff16639ef1204c84846040518363ffffffff167c010000000000000000000000000000000000000000000000000000000002815260040180836000191660001916815260200182815260200192505050600060405180830381600087803b15801562001a4957600080fd5b505af115801562001a5e573d6000803e3d6000fd5b505050507f5b8aad23fe8c713f16b78d5e4e5b8938224c4810fe5c33f7f4d855d1ebe19c3060405160405180910390a150505050565b606060008290508073ffffffffffffffffffffffffffffffffffffffff1663ff3c1a8f6040518163ffffffff167c0100000000000000000000000000000000000000000000000000000000028152600401600060405180830381600087803b15801562001b0057600080fd5b505af115801562001b15573d6000803e3d6000fd5b505050506040513d6000823e3d601f19601f82011682018060405250602081101562001b4057600080fd5b81019080805164010000000081111562001b5957600080fd5b8281019050602081018481111562001b7057600080fd5b815185600182028301116401000000008211171562001b8e57600080fd5b5050929190505050915050919050565b6000808290508073ffffffffffffffffffffffffffffffffffffffff1663864444ae6040518163ffffffff167c0100000000000000000000000000000000000000000000000000000000028152600401602060405180830381600087803b15801562001c0957600080fd5b505af115801562001c1e573d6000803e3d6000fd5b505050506040513d602081101562001c3557600080fd5b8101908080519060200190929190505050915050919050565b606060008290508073ffffffffffffffffffffffffffffffffffffffff1663893d20e86040518163ffffffff167c0100000000000000000000000000000000000000000000000000000000028152600401600060405180830381600087803b15801562001cba57600080fd5b505af115801562001ccf573d6000803e3d6000fd5b505050506040513d6000823e3d601f19601f82011682018060405250602081101562001cfa57600080fd5b81019080805164010000000081111562001d1357600080fd5b8281019050602081018481111562001d2a57600080fd5b815185600182028301116401000000008211171562001d4857600080fd5b5050929190505050915050919050565b6000806000808481548110151562001d6c57fe5b9060005260206000200160009054906101000a900473ffffffffffffffffffffffffffffffffffffffff1690508073ffffffffffffffffffffffffffffffffffffffff1663eeac39d8866040518263ffffffff167c0100000000000000000000000000000000000000000000000000000000028152600401808260001916600019168152602001915050602060405180830381600087803b15801562001e1157600080fd5b505af115801562001e26573d6000803e3d6000fd5b505050506040513d602081101562001e3d57600080fd5b81019080805190602001909291905050501562001e9b5760008481548110151562001e6457fe5b9060005260206000200160009054906101000a900473ffffffffffffffffffffffffffffffffffffffff1660019250925062001ea6565b600080819150925092505b509250929050565b6040516117d88062001ec083390190560060806040523480156200001157600080fd5b50604051620017d8380380620017d883398101806040528101908080519060200190929190805182019291906020018051906020019092919080518201929190602001805182019291906020018051906020019092919080519060200190929190805190602001909291908051906020019092919050505060016000808b600019166000191681526020019081526020016000208190555088600181600019169055508760029080519060200190620000cc929190620005f2565b5083600360006101000a81548160ff021916908315150217905550600360009054906101000a900460ff1615156200010d5781600481905550806005819055505b620001278662000219640100000000026401000000009004565b86151562000174576000600860016101000a81548160ff021916908360018111156200014f57fe5b02179055506200016e85620003cc640100000000026401000000009004565b6200019a565b6001600860016101000a81548160ff021916908360018111156200019457fe5b02179055505b6002600860006101000a81548160ff02191690836002811115620001ba57fe5b021790555082156200020a57600360009054906101000a900460ff161562000202576000600860006101000a81548160ff02191690836002811115620001fc57fe5b02179055505b426004819055505b50505050505050505062000728565b60008151600681905550600090505b600654811015620003c85760606040519081016040528082815260200173__Type__________________________________63ef0b236885858151811015156200026e57fe5b906020019060200201516040518263ffffffff167c010000000000000000000000000000000000000000000000000000000002815260040180826000191660001916815260200191505060006040518083038186803b158015620002d157600080fd5b505af4158015620002e6573d6000803e3d6000fd5b505050506040513d6000823e3d601f19601f8201168201806040525060208110156200031157600080fd5b8101908080516401000000008111156200032a57600080fd5b828101905060208101848111156200034157600080fd5b81518560018202830111640100000000821117156200035f57600080fd5b50509291905050508152602001600081525060096000838152602001908152602001600020600082015181600001556020820151816001019080519060200190620003ac92919062000679565b5060408201518160020155905050808060010191505062000228565b5050565b60008151600781905550600090505b600754811015620005ee5760018101600b60008484815181101515620003fd57fe5b90602001906020020151600019166000191681526020019081526020016000208190555060606040519081016040528082815260200173__Type__________________________________63ef0b236885858151811015156200045c57fe5b906020019060200201516040518263ffffffff167c010000000000000000000000000000000000000000000000000000000002815260040180826000191660001916815260200191505060006040518083038186803b158015620004bf57600080fd5b505af4158015620004d4573d6000803e3d6000fd5b505050506040513d6000823e3d601f19601f820116820180604052506020811015620004ff57600080fd5b8101908080516401000000008111156200051857600080fd5b828101905060208101848111156200052f57600080fd5b81518560018202830111640100000000821117156200054d57600080fd5b5050929190505050815260200160001515815250600a600084848151811015156200057457fe5b9060200190602002015160001916600019168152602001908152602001600020600082015181600001556020820151816001019080519060200190620005bc92919062000679565b5060408201518160020160006101000a81548160ff0219169083151502179055509050508080600101915050620003db565b5050565b828054600181600116156101000203166002900490600052602060002090601f016020900481019282601f106200063557805160ff191683800117855562000666565b8280016001018555821562000666579182015b828111156200066557825182559160200191906001019062000648565b5b50905062000675919062000700565b5090565b828054600181600116156101000203166002900490600052602060002090601f016020900481019282601f10620006bc57805160ff1916838001178555620006ed565b82800160010185558215620006ed579182015b82811115620006ec578251825591602001919060010190620006cf565b5b509050620006fc919062000700565b5090565b6200072591905b808211156200072157600081600090555060010162000707565b5090565b90565b6110a080620007386000396000f300608060405260043610610107576000357c0100000000000000000000000000000000000000000000000000000000900463ffffffff168063015a18ed1461010c5780631163fd2d1461013d57806339c79e0c146101865780634b4fd03b146101b75780634e69d560146101e257806357eadb041461020d5780636813aaf0146102b757806369d0968b146102e257806378f305c61461032b578063864444ae14610356578063893d20e8146103815780639ef1204c14610411578063b13564881461044c578063b315c59714610477578063e13804a7146104b8578063eb4d69d51461055e578063eeac39d8146105a3578063f2e83ddf146105ec578063ff3c1a8f1461061b575b600080fd5b34801561011857600080fd5b5061013b60048036038101908080356000191690602001909291905050506106ab565b005b34801561014957600080fd5b5061016c600480360381019080803560001916906020019092919050505061074c565b604051808215151515815260200191505060405180910390f35b34801561019257600080fd5b506101b56004803603810190808035600019169060200190929190505050610781565b005b3480156101c357600080fd5b506101cc610823565b6040518082815260200191505060405180910390f35b3480156101ee57600080fd5b506101f7610845565b6040518082815260200191505060405180910390f35b34801561021957600080fd5b5061023c6004803603810190808035600019169060200190929190505050610882565b6040518080602001828103825283818151815260200191508051906020019080838360005b8381101561027c578082015181840152602081019050610261565b50505050905090810190601f1680156102a95780820380516001836020036101000a031916815260200191505b509250505060405180910390f35b3480156102c357600080fd5b506102cc610955565b6040518082815260200191505060405180910390f35b3480156102ee57600080fd5b50610311600480360381019080803560001916906020019092919050505061095b565b604051808215151515815260200191505060405180910390f35b34801561033757600080fd5b50610340610983565b6040518082815260200191505060405180910390f35b34801561036257600080fd5b5061036b61098d565b6040518082815260200191505060405180910390f35b34801561038d57600080fd5b50610396610993565b6040518080602001828103825283818151815260200191508051906020019080838360005b838110156103d65780820151818401526020810190506103bb565b50505050905090810190601f1680156104035780820380516001836020036101000a031916815260200191505b509250505060405180910390f35b34801561041d57600080fd5b5061044a600480360381019080803560001916906020019092919080359060200190929190505050610aa0565b005b34801561045857600080fd5b50610461610df5565b6040518082815260200191505060405180910390f35b34801561048357600080fd5b506104a260048036038101908080359060200190929190505050610dff565b6040518082815260200191505060405180910390f35b3480156104c457600080fd5b506104e360048036038101908080359060200190929190505050610e1f565b6040518080602001828103825283818151815260200191508051906020019080838360005b83811015610523578082015181840152602081019050610508565b50505050905090810190601f1680156105505780820380516001836020036101000a031916815260200191505b509250505060405180910390f35b34801561056a57600080fd5b5061058d6004803603810190808035600019169060200190929190505050610ed7565b6040518082815260200191505060405180910390f35b3480156105af57600080fd5b506105d26004803603810190808035600019169060200190929190505050610eef565b604051808215151515815260200191505060405180910390f35b3480156105f857600080fd5b50610601610f16565b604051808215151515815260200191505060405180910390f35b34801561062757600080fd5b50610630610f2d565b6040518080602001828103825283818151815260200191508051906020019080838360005b83811015610670578082015181840152602081019050610655565b50505050905090810190601f16801561069d5780820380516001836020036101000a031916815260200191505b509250505060405180910390f35b6000806000836000191660001916815260200190815260200160002054141515156106d557600080fd5b600360009054906101000a900460ff1615610742576002808111156106f657fe5b600860009054906101000a900460ff16600281111561071157fe5b14151561071d57600080fd5b6000600860006101000a81548160ff0219169083600281111561073c57fe5b02179055505b4260048190555050565b6000600a6000836000191660001916815260200190815260200160002060020160009054906101000a900460ff169050919050565b6000806000836000191660001916815260200190815260200160002054141515156107ab57600080fd5b600360009054906101000a900460ff161561081957600060028111156107cd57fe5b600860009054906101000a900460ff1660028111156107e857fe5b1415156107f457600080fd5b6001600860006101000a81548160ff0219169083600281111561081357fe5b02179055505b4260058190555050565b6000600860019054906101000a900460ff16600181111561084057fe5b905090565b6000600360009054906101000a900460ff16151561086257600080fd5b600860009054906101000a900460ff16600281111561087d57fe5b905090565b606060096000600c600085600019166000191681526020019081526020016000205481526020019081526020016000206001018054600181600116156101000203166002900480601f0160208091040260200160405190810160405280929190818152602001828054600181600116156101000203166002900480156109495780601f1061091e57610100808354040283529160200191610949565b820191906000526020600020905b81548152906001019060200180831161092c57829003601f168201915b50505050509050919050565b60075481565b600080600b600084600019166000191681526020019081526020016000205414159050919050565b6000600454905090565b60065481565b606073__Type__________________________________63ef0b23686001546040518263ffffffff167c010000000000000000000000000000000000000000000000000000000002815260040180826000191660001916815260200191505060006040518083038186803b158015610a0a57600080fd5b505af4158015610a1e573d6000803e3d6000fd5b505050506040513d6000823e3d601f19601f820116820180604052506020811015610a4857600080fd5b810190808051640100000000811115610a6057600080fd5b82810190506020810184811115610a7657600080fd5b8151856001820283011164010000000082111715610a9357600080fd5b5050929190505050905090565b60006001811115610aad57fe5b600860019054906101000a900460ff166001811115610ac857fe5b1415610afe576000600b600084600019166000191681526020019081526020016000205414151515610af957600080fd5b610cbf565b6000600b60008460001916600019168152602001908152602001600020541415610cbe57606060405190810160405280600754815260200173__Type__________________________________63ef0b2368856040518263ffffffff167c010000000000000000000000000000000000000000000000000000000002815260040180826000191660001916815260200191505060006040518083038186803b158015610ba957600080fd5b505af4158015610bbd573d6000803e3d6000fd5b505050506040513d6000823e3d601f19601f820116820180604052506020811015610be757600080fd5b810190808051640100000000811115610bff57600080fd5b82810190506020810184811115610c1557600080fd5b8151856001820283011164010000000082111715610c3257600080fd5b5050929190505050815260200160001515815250600a60008460001916600019168152602001908152602001600020600082015181600001556020820151816001019080519060200190610c87929190610fcf565b5060408201518160020160006101000a81548160ff0219169083151502179055509050506007600081548092919060010191905055505b5b600360009054906101000a900460ff161515610cea5760055442101515610ce557600080fd5b610d1f565b60006002811115610cf757fe5b600860009054906101000a900460ff166002811115610d1257fe5b141515610d1e57600080fd5b5b600a6000836000191660001916815260200190815260200160002060020160009054906101000a900460ff16151515610d5757600080fd5b60008110158015610d69575060065481105b1515610d7457600080fd5b6001600a6000846000191660001916815260200190815260200160002060020160006101000a81548160ff02191690831515021790555080600c600084600019166000191681526020019081526020016000208190555060096000828152602001908152602001600020600201600081548092919060010191905055505050565b6000600554905090565b600060096000838152602001908152602001600020600201549050919050565b6060600960008381526020019081526020016000206001018054600181600116156101000203166002900480601f016020809104026020016040519081016040528092919081815260200182805460018160011615610100020316600290048015610ecb5780601f10610ea057610100808354040283529160200191610ecb565b820191906000526020600020905b815481529060010190602001808311610eae57829003601f168201915b50505050509050919050565b60006020528060005260406000206000915090505481565b60008060008084600019166000191681526020019081526020016000205414159050919050565b6000600360009054906101000a900460ff16905090565b606060028054600181600116156101000203166002900480601f016020809104026020016040519081016040528092919081815260200182805460018160011615610100020316600290048015610fc55780601f10610f9a57610100808354040283529160200191610fc5565b820191906000526020600020905b815481529060010190602001808311610fa857829003601f168201915b5050505050905090565b828054600181600116156101000203166002900490600052602060002090601f016020900481019282601f1061101057805160ff191683800117855561103e565b8280016001018555821561103e579182015b8281111561103d578251825591602001919060010190611022565b5b50905061104b919061104f565b5090565b61107191905b8082111561106d576000816000905550600101611055565b5090565b905600a165627a7a72305820d7e75756f93ddc7ca78fb19211b719e39ef8a450e7be0316eff34d085a88bfaf0029a165627a7a723058204db297793ef300492d4aa0110e0bcd0f183bf53db52a7665b926e2c39f5fcad80029",
  "source": "pragma solidity ^0.4.24;\n\nimport \"./Election.sol\";\n\ncontract ElectionFactory {\n  address[] public elections;\n\n  constructor () public {\n  }\n\n  event electionCreated();\n  event startedElection();\n  event closedElection();\n  event votedEvent();\n\n  function createElection (\n    bytes32 owner, bytes title, bool _public,\n    bytes32[] candidates, bytes32[] voters,\n    bool manual, bool startNow,\n    uint start, uint end\n  ) public {\n    address addr = new Election(owner, title, _public, candidates, voters, manual, startNow, start, end);\n    elections.push(addr);\n\n    emit electionCreated();\n  }\n\n  function getSize() public view returns (uint) {\n    return elections.length;\n  }\n\n  function getTitle(address addr) public view returns (string) {\n    Election e = Election(addr);\n\n    return string(e.getTitle());\n  }\n  function getOwner(address addr) public view returns (string) {\n    Election e = Election(addr);\n\n    return string(e.getOwner());\n  }\n  function getCandidateSize(address addr) public view returns (uint) {\n    Election e = Election(addr);\n\n    return e.candSize();\n  }\n  function getVoterElectionAddress(bytes32 _email, uint i) public view returns (address, bool) {\n    Election e = Election(elections[i]);\n\n    if (e.getMode() == 1) {\n      return (elections[i], true);\n    }\n\n    if (e.isVoter(_email)) {\n      if (e.isManual()) {\n        if (e.getStatus() == 2) {\n          return (0, false);\n        }\n      }\n      return (elections[i], true);\n    }\n    return (0, false);\n  }\n  function getOwnerElectionAddress(bytes32 _email, uint i) public view returns (address, bool) {\n    Election e = Election(elections[i]);\n\n    if (e.isOwner(_email)) {\n      return (elections[i], true);\n    }\n    return (0, false);\n  }\n  function isVoted(address addr, bytes32 _email) public view returns (bool) {\n    Election e = Election(addr);\n\n    return e.isVoted(_email);\n  }\n  function getVotedTo(address addr, bytes32 _email) public view returns (string) {\n    Election e = Election(addr);\n\n    return e.getVotedTo(_email);\n  }\n\n  function getCandidate(address addr, uint i) public view returns (uint, string, uint) {\n    Election e = Election(addr);\n\n    return (i, e.getCandidateName(i), e.getCandidateVoteCount(i));\n  }\n\n  function vote(address addr, bytes32 _email, uint _candidateId) public {\n    Election e = Election(addr);\n\n    e.vote(_email, _candidateId);\n\n    emit votedEvent();\n  }\n\n  function close(address addr, bytes32 _email) public {\n    Election e = Election(addr);\n\n    e.close(_email);\n\n    emit closedElection();\n  }\n  function start(address addr, bytes32 _email) public {\n    Election e = Election(addr);\n\n    e.start(_email);\n\n    emit startedElection();\n  }\n  function getStartDate(address addr) public view returns (uint) {\n    Election e = Election(addr);\n\n    return e.getStartDate();\n  }\n  function getEndDate(address addr) public view returns (uint) {\n    Election e = Election(addr);\n\n    return e.getEndDate();\n  }\n  function getStatus(address addr) public view returns (uint) {\n    Election e = Election(addr);\n\n    return e.getStatus();\n  }\n  function getMode(address addr) public view returns (uint) {\n    Election e = Election(addr);\n\n    return e.getMode();\n  }\n  function isManual(address addr) public view returns (bool) {\n    Election e = Election(addr);\n\n    return e.isManual();\n  }\n  function getCurrentDateTime() public view returns (uint) {\n    return now;\n  }\n}\n\n",
  "sourcePath": "/Users/kangyi/Projects/react_bc_vote/contracts/ElectionFactory.sol",
  "compiler": {
    "name": "solc",
    "version": "0.4.24+commit.e67f0147.Emscripten.clang"
  },
  "schemaVersion": "2.0.1",
  "updatedAt": "2018-10-26T16:01:34.886Z"
}