{
  "contractName": "Election",
  "abi": [
    {
      "constant": true,
      "inputs": [],
      "name": "votrSize",
      "outputs": [
        {
          "name": "",
          "type": "uint256"
        }
      ],
      "payable": false,
      "stateMutability": "view",
      "type": "function"
    },
    {
      "constant": true,
      "inputs": [],
      "name": "candSize",
      "outputs": [
        {
          "name": "",
          "type": "uint256"
        }
      ],
      "payable": false,
      "stateMutability": "view",
      "type": "function"
    },
    {
      "constant": true,
      "inputs": [
        {
          "name": "",
          "type": "bytes32"
        }
      ],
      "name": "ownerId",
      "outputs": [
        {
          "name": "",
          "type": "uint256"
        }
      ],
      "payable": false,
      "stateMutability": "view",
      "type": "function"
    },
    {
      "inputs": [
        {
          "name": "_content",
          "type": "bytes32[3]"
        },
        {
          "name": "_imgURL",
          "type": "bytes"
        },
        {
          "name": "_setup",
          "type": "bool[2]"
        },
        {
          "name": "_candidates",
          "type": "bytes32[]"
        },
        {
          "name": "_cImg",
          "type": "string[]"
        },
        {
          "name": "_candidatesDescription",
          "type": "bytes32[]"
        },
        {
          "name": "_voters",
          "type": "bytes32[]"
        },
        {
          "name": "_start_end",
          "type": "uint256[2]"
        }
      ],
      "payable": false,
      "stateMutability": "nonpayable",
      "type": "constructor"
    },
    {
      "constant": true,
      "inputs": [
        {
          "name": "_email",
          "type": "bytes32"
        }
      ],
      "name": "isVoter",
      "outputs": [
        {
          "name": "",
          "type": "bool"
        }
      ],
      "payable": false,
      "stateMutability": "view",
      "type": "function"
    },
    {
      "constant": true,
      "inputs": [
        {
          "name": "_email",
          "type": "bytes32"
        }
      ],
      "name": "isOwner",
      "outputs": [
        {
          "name": "",
          "type": "bool"
        }
      ],
      "payable": false,
      "stateMutability": "view",
      "type": "function"
    },
    {
      "constant": true,
      "inputs": [
        {
          "name": "_email",
          "type": "bytes32"
        }
      ],
      "name": "isVoted",
      "outputs": [
        {
          "name": "",
          "type": "bool"
        }
      ],
      "payable": false,
      "stateMutability": "view",
      "type": "function"
    },
    {
      "constant": true,
      "inputs": [
        {
          "name": "_email",
          "type": "bytes32"
        }
      ],
      "name": "getVotedTo",
      "outputs": [
        {
          "name": "",
          "type": "string"
        }
      ],
      "payable": false,
      "stateMutability": "view",
      "type": "function"
    },
    {
      "constant": true,
      "inputs": [
        {
          "name": "i",
          "type": "uint256"
        }
      ],
      "name": "getVoterEmail",
      "outputs": [
        {
          "name": "",
          "type": "string"
        }
      ],
      "payable": false,
      "stateMutability": "view",
      "type": "function"
    },
    {
      "constant": false,
      "inputs": [
        {
          "name": "_email",
          "type": "bytes32"
        },
        {
          "name": "_candidateId",
          "type": "uint256"
        }
      ],
      "name": "vote",
      "outputs": [],
      "payable": false,
      "stateMutability": "nonpayable",
      "type": "function"
    },
    {
      "constant": true,
      "inputs": [],
      "name": "getTitle",
      "outputs": [
        {
          "name": "",
          "type": "string"
        }
      ],
      "payable": false,
      "stateMutability": "view",
      "type": "function"
    },
    {
      "constant": true,
      "inputs": [],
      "name": "getImgURL",
      "outputs": [
        {
          "name": "",
          "type": "string"
        }
      ],
      "payable": false,
      "stateMutability": "view",
      "type": "function"
    },
    {
      "constant": true,
      "inputs": [],
      "name": "getDescription",
      "outputs": [
        {
          "name": "",
          "type": "string"
        }
      ],
      "payable": false,
      "stateMutability": "view",
      "type": "function"
    },
    {
      "constant": true,
      "inputs": [],
      "name": "getOwner",
      "outputs": [
        {
          "name": "",
          "type": "string"
        }
      ],
      "payable": false,
      "stateMutability": "view",
      "type": "function"
    },
    {
      "constant": true,
      "inputs": [
        {
          "name": "i",
          "type": "uint256"
        }
      ],
      "name": "getCandidateName",
      "outputs": [
        {
          "name": "",
          "type": "string"
        }
      ],
      "payable": false,
      "stateMutability": "view",
      "type": "function"
    },
    {
      "constant": true,
      "inputs": [
        {
          "name": "i",
          "type": "uint256"
        }
      ],
      "name": "getCandidateImgURL",
      "outputs": [
        {
          "name": "",
          "type": "string"
        }
      ],
      "payable": false,
      "stateMutability": "view",
      "type": "function"
    },
    {
      "constant": true,
      "inputs": [
        {
          "name": "i",
          "type": "uint256"
        }
      ],
      "name": "getCandidateDescription",
      "outputs": [
        {
          "name": "",
          "type": "string"
        }
      ],
      "payable": false,
      "stateMutability": "view",
      "type": "function"
    },
    {
      "constant": true,
      "inputs": [
        {
          "name": "i",
          "type": "uint256"
        }
      ],
      "name": "getCandidateVoteCount",
      "outputs": [
        {
          "name": "",
          "type": "uint256"
        }
      ],
      "payable": false,
      "stateMutability": "view",
      "type": "function"
    },
    {
      "constant": false,
      "inputs": [
        {
          "name": "_email",
          "type": "bytes32"
        }
      ],
      "name": "close",
      "outputs": [],
      "payable": false,
      "stateMutability": "nonpayable",
      "type": "function"
    },
    {
      "constant": true,
      "inputs": [],
      "name": "getStartDate",
      "outputs": [
        {
          "name": "",
          "type": "uint256"
        }
      ],
      "payable": false,
      "stateMutability": "view",
      "type": "function"
    },
    {
      "constant": true,
      "inputs": [],
      "name": "getEndDate",
      "outputs": [
        {
          "name": "",
          "type": "uint256"
        }
      ],
      "payable": false,
      "stateMutability": "view",
      "type": "function"
    },
    {
      "constant": true,
      "inputs": [],
      "name": "getMode",
      "outputs": [
        {
          "name": "",
          "type": "uint256"
        }
      ],
      "payable": false,
      "stateMutability": "view",
      "type": "function"
    }
  ],
  "bytecode": "0x60806040523480156200001157600080fd5b50604051620022fd380380620022fd833981018060405262000037919081019062000b83565b60016000808a60006003811015156200004c57fe5b602002015160001916600019168152602001908152602001600020819055508760006003811015156200007b57fe5b6020020151600181600019169055508760016003811015156200009a57fe5b6020020151600281600019169055508660039080519060200190620000c192919062000663565b50876002600381101515620000d257fe5b602002015160048160001916905550806000600281101515620000f157fe5b60200201516005819055508560006002811015156200010c57fe5b6020020151151562000134578060016002811015156200012857fe5b60200201516006819055505b62000150858585620001e5640100000000026401000000009004565b8560016002811015156200016057fe5b60200201511515620001b1576000600960006101000a81548160ff021916908360018111156200018c57fe5b0217905550620001ab8262000465640100000000026401000000009004565b620001d7565b6001600960006101000a81548160ff02191690836001811115620001d157fe5b02179055505b505050505050505062000f09565b60008351600781905550600090505b6007548110156200045f5760a06040519081016040528082815260200173__Library_______________________________63ef0b236887858151811015156200023a57fe5b906020019060200201516040518263ffffffff167c01000000000000000000000000000000000000000000000000000000000281526004016200027e919062000d1c565b60006040518083038186803b1580156200029757600080fd5b505af4158015620002ac573d6000803e3d6000fd5b505050506040513d6000823e3d601f19601f82011682018060405250620002d7919081019062000cc6565b81526020018483815181101515620002eb57fe5b90602001906020020151815260200173__Library_______________________________63ef0b236885858151811015156200032357fe5b906020019060200201516040518263ffffffff167c010000000000000000000000000000000000000000000000000000000002815260040162000367919062000d1c565b60006040518083038186803b1580156200038057600080fd5b505af415801562000395573d6000803e3d6000fd5b505050506040513d6000823e3d601f19601f82011682018060405250620003c0919081019062000cc6565b81526020016000815250600a600083815260200190815260200160002060008201518160000155602082015181600101908051906020019062000405929190620006ea565b50604082015181600201908051906020019062000424929190620006ea565b50606082015181600301908051906020019062000443929190620006ea565b50608082015181600401559050508080600101915050620001f4565b50505050565b60008151600881905550600090505b6008548110156200065f5760018101600c600084848151811015156200049657fe5b9060200190602002015160001916600019168152602001908152602001600020819055508181815181101515620004c957fe5b90602001906020020151600d6000838152602001908152602001600020816000191690555060606040519081016040528082815260200173__Library_______________________________63ef0b236885858151811015156200052957fe5b906020019060200201516040518263ffffffff167c01000000000000000000000000000000000000000000000000000000000281526004016200056d919062000d1c565b60006040518083038186803b1580156200058657600080fd5b505af41580156200059b573d6000803e3d6000fd5b505050506040513d6000823e3d601f19601f82011682018060405250620005c6919081019062000cc6565b815260200160001515815250600b60008484815181101515620005e557fe5b90602001906020020151600019166000191681526020019081526020016000206000820151816000015560208201518160010190805190602001906200062d929190620006ea565b5060408201518160020160006101000a81548160ff021916908315150217905550905050808060010191505062000474565b5050565b828054600181600116156101000203166002900490600052602060002090601f016020900481019282601f10620006a657805160ff1916838001178555620006d7565b82800160010185558215620006d7579182015b82811115620006d6578251825591602001919060010190620006b9565b5b509050620006e6919062000771565b5090565b828054600181600116156101000203166002900490600052602060002090601f016020900481019282601f106200072d57805160ff19168380011785556200075e565b828001600101855582156200075e579182015b828111156200075d57825182559160200191906001019062000740565b5b5090506200076d919062000771565b5090565b6200079691905b808211156200079257600081600090555060010162000778565b5090565b90565b600082601f8301121515620007ad57600080fd5b6002620007c4620007be8262000d67565b62000d39565b91508183856020840282011115620007db57600080fd5b60005b838110156200080f5781620007f4888262000a27565b845260208401935060208301925050600181019050620007de565b5050505092915050565b600082601f83011215156200082d57600080fd5b6003620008446200083e8262000d8a565b62000d39565b915081838560208402820111156200085b57600080fd5b60005b838110156200088f578162000874888262000a3d565b8452602084019350602083019250506001810190506200085e565b5050505092915050565b600082601f8301121515620008ad57600080fd5b8151620008c4620008be8262000dad565b62000d39565b91508181835260208401935060208101905083856020840282011115620008ea57600080fd5b60005b838110156200091e578162000903888262000a3d565b845260208401935060208301925050600181019050620008ed565b5050505092915050565b600082601f83011215156200093c57600080fd5b8151620009536200094d8262000dd6565b62000d39565b9150818183526020840193506020810190508360005b838110156200099d578151860162000982888262000ab1565b84526020840193506020830192505060018101905062000969565b5050505092915050565b600082601f8301121515620009bb57600080fd5b6002620009d2620009cc8262000dff565b62000d39565b91508183856020840282011115620009e957600080fd5b60005b8381101562000a1d578162000a02888262000b6d565b845260208401935060208301925050600181019050620009ec565b5050505092915050565b600062000a35825162000eb3565b905092915050565b600062000a4b825162000ebf565b905092915050565b600082601f830112151562000a6757600080fd5b815162000a7e62000a788262000e22565b62000d39565b9150808252602083016020830185838301111562000a9b57600080fd5b62000aa883828462000ed3565b50505092915050565b600082601f830112151562000ac557600080fd5b815162000adc62000ad68262000e4f565b62000d39565b9150808252602083016020830185838301111562000af957600080fd5b62000b0683828462000ed3565b50505092915050565b600082601f830112151562000b2357600080fd5b815162000b3a62000b348262000e7c565b62000d39565b9150808252602083016020830185838301111562000b5757600080fd5b62000b6483828462000ed3565b50505092915050565b600062000b7b825162000ec9565b905092915050565b600080600080600080600080610180898b03121562000ba157600080fd5b600062000bb18b828c0162000819565b985050606089015167ffffffffffffffff81111562000bcf57600080fd5b62000bdd8b828c0162000a53565b975050608062000bf08b828c0162000799565b96505060c089015167ffffffffffffffff81111562000c0e57600080fd5b62000c1c8b828c0162000899565b95505060e089015167ffffffffffffffff81111562000c3a57600080fd5b62000c488b828c0162000928565b94505061010089015167ffffffffffffffff81111562000c6757600080fd5b62000c758b828c0162000899565b93505061012089015167ffffffffffffffff81111562000c9457600080fd5b62000ca28b828c0162000899565b92505061014062000cb68b828c01620009a7565b9150509295985092959890939650565b60006020828403121562000cd957600080fd5b600082015167ffffffffffffffff81111562000cf457600080fd5b62000d028482850162000b0f565b91505092915050565b62000d168162000ea9565b82525050565b600060208201905062000d33600083018462000d0b565b92915050565b6000604051905081810181811067ffffffffffffffff8211171562000d5d57600080fd5b8060405250919050565b600067ffffffffffffffff82111562000d7f57600080fd5b602082029050919050565b600067ffffffffffffffff82111562000da257600080fd5b602082029050919050565b600067ffffffffffffffff82111562000dc557600080fd5b602082029050602081019050919050565b600067ffffffffffffffff82111562000dee57600080fd5b602082029050602081019050919050565b600067ffffffffffffffff82111562000e1757600080fd5b602082029050919050565b600067ffffffffffffffff82111562000e3a57600080fd5b601f19601f8301169050602081019050919050565b600067ffffffffffffffff82111562000e6757600080fd5b601f19601f8301169050602081019050919050565b600067ffffffffffffffff82111562000e9457600080fd5b601f19601f8301169050602081019050919050565b6000819050919050565b60008115159050919050565b6000819050919050565b6000819050919050565b60005b8381101562000ef357808201518184015260208101905062000ed6565b8381111562000f03576000848401525b50505050565b6113e48062000f196000396000f30060806040526004361061011d576000357c0100000000000000000000000000000000000000000000000000000000900463ffffffff1680630838e71b146101225780631163fd2d1461015f5780631a0925411461019c5780632abe5f11146101c757806339c79e0c146102045780634b4fd03b1461022d57806357eadb04146102585780636813aaf01461029557806369d0968b146102c057806378f305c6146102fd578063864444ae14610328578063893d20e814610353578063939eab2e1461037e5780639ef1204c146103a9578063b1356488146103d2578063b315c597146103fd578063e13804a71461043a578063eb4d69d514610477578063eeac39d8146104b4578063efdfe6f8146104f1578063ff3c1a8f1461052e575b600080fd5b34801561012e57600080fd5b50610149600480360361014491908101906111cf565b610559565b6040516101569190611291565b60405180910390f35b34801561016b57600080fd5b5061018660048036036101819190810190611129565b610611565b604051610193919061125b565b60405180910390f35b3480156101a857600080fd5b506101b1610646565b6040516101be9190611291565b60405180910390f35b3480156101d357600080fd5b506101ee60048036036101e991908101906111cf565b6106f7565b6040516101fb9190611291565b60405180910390f35b34801561021057600080fd5b5061022b60048036036102269190810190611129565b6107bb565b005b34801561023957600080fd5b50610242610800565b60405161024f91906112b3565b60405180910390f35b34801561026457600080fd5b5061027f600480360361027a9190810190611129565b610822565b60405161028c9190611291565b60405180910390f35b3480156102a157600080fd5b506102aa6108f5565b6040516102b791906112b3565b60405180910390f35b3480156102cc57600080fd5b506102e760048036036102e29190810190611129565b6108fb565b6040516102f4919061125b565b60405180910390f35b34801561030957600080fd5b50610312610923565b60405161031f91906112b3565b60405180910390f35b34801561033457600080fd5b5061033d61092d565b60405161034a91906112b3565b60405180910390f35b34801561035f57600080fd5b50610368610933565b6040516103759190611291565b60405180910390f35b34801561038a57600080fd5b506103936109e4565b6040516103a09190611291565b60405180910390f35b3480156103b557600080fd5b506103d060048036036103cb9190810190611152565b610a86565b005b3480156103de57600080fd5b506103e7610d7c565b6040516103f491906112b3565b60405180910390f35b34801561040957600080fd5b50610424600480360361041f91908101906111cf565b610d86565b60405161043191906112b3565b60405180910390f35b34801561044657600080fd5b50610461600480360361045c91908101906111cf565b610da6565b60405161046e9190611291565b60405180910390f35b34801561048357600080fd5b5061049e60048036036104999190810190611129565b610e5e565b6040516104ab91906112b3565b60405180910390f35b3480156104c057600080fd5b506104db60048036036104d69190810190611129565b610e76565b6040516104e8919061125b565b60405180910390f35b3480156104fd57600080fd5b50610518600480360361051391908101906111cf565b610e9d565b6040516105259190611291565b60405180910390f35b34801561053a57600080fd5b50610543610f55565b6040516105509190611291565b60405180910390f35b6060600a60008381526020019081526020016000206002018054600181600116156101000203166002900480601f0160208091040260200160405190810160405280929190818152602001828054600181600116156101000203166002900480156106055780601f106105da57610100808354040283529160200191610605565b820191906000526020600020905b8154815290600101906020018083116105e857829003601f168201915b50505050509050919050565b6000600b6000836000191660001916815260200190815260200160002060020160009054906101000a900460ff169050919050565b606073__Library_______________________________63ef0b23686004546040518263ffffffff167c010000000000000000000000000000000000000000000000000000000002815260040161069d9190611276565b60006040518083038186803b1580156106b557600080fd5b505af41580156106c9573d6000803e3d6000fd5b505050506040513d6000823e3d601f19601f820116820180604052506106f2919081019061118e565b905090565b606073__Library_______________________________63ef0b2368600d6000858152602001908152602001600020546040518263ffffffff167c010000000000000000000000000000000000000000000000000000000002815260040161075f9190611276565b60006040518083038186803b15801561077757600080fd5b505af415801561078b573d6000803e3d6000fd5b505050506040513d6000823e3d601f19601f820116820180604052506107b4919081019061118e565b9050919050565b6000806000836000191660001916815260200190815260200160002054141515156107e557600080fd5b60006006541415156107f657600080fd5b4260068190555050565b6000600960009054906101000a900460ff16600181111561081d57fe5b905090565b6060600a6000600e600085600019166000191681526020019081526020016000205481526020019081526020016000206001018054600181600116156101000203166002900480601f0160208091040260200160405190810160405280929190818152602001828054600181600116156101000203166002900480156108e95780601f106108be576101008083540402835291602001916108e9565b820191906000526020600020905b8154815290600101906020018083116108cc57829003601f168201915b50505050509050919050565b60085481565b600080600c600084600019166000191681526020019081526020016000205414159050919050565b6000600554905090565b60075481565b606073__Library_______________________________63ef0b23686001546040518263ffffffff167c010000000000000000000000000000000000000000000000000000000002815260040161098a9190611276565b60006040518083038186803b1580156109a257600080fd5b505af41580156109b6573d6000803e3d6000fd5b505050506040513d6000823e3d601f19601f820116820180604052506109df919081019061118e565b905090565b606060038054600181600116156101000203166002900480601f016020809104026020016040519081016040528092919081815260200182805460018160011615610100020316600290048015610a7c5780601f10610a5157610100808354040283529160200191610a7c565b820191906000526020600020905b815481529060010190602001808311610a5f57829003601f168201915b5050505050905090565b60006001811115610a9357fe5b600960009054906101000a900460ff166001811115610aae57fe5b1415610ae4576000600c600084600019166000191681526020019081526020016000205414151515610adf57600080fd5b610c89565b6000600c60008460001916600019168152602001908152602001600020541415610c8857600854600c600084600019166000191681526020019081526020016000208190555081600d600060085481526020019081526020016000208160001916905550606060405190810160405280600854815260200173__Library_______________________________63ef0b2368856040518263ffffffff167c0100000000000000000000000000000000000000000000000000000000028152600401610baf9190611276565b60006040518083038186803b158015610bc757600080fd5b505af4158015610bdb573d6000803e3d6000fd5b505050506040513d6000823e3d601f19601f82011682018060405250610c04919081019061118e565b815260200160001515815250600b60008460001916600019168152602001908152602001600020600082015181600001556020820151816001019080519060200190610c51929190611006565b5060408201518160020160006101000a81548160ff0219169083151502179055509050506008600081548092919060010191905055505b5b6000600654141515610ca65760065442101515610ca557600080fd5b5b600b6000836000191660001916815260200190815260200160002060020160009054906101000a900460ff16151515610cde57600080fd5b60008110158015610cf0575060075481105b1515610cfb57600080fd5b6001600b6000846000191660001916815260200190815260200160002060020160006101000a81548160ff02191690831515021790555080600e6000846000191660001916815260200190815260200160002081905550600a6000828152602001908152602001600020600401600081548092919060010191905055505050565b6000600654905090565b6000600a6000838152602001908152602001600020600401549050919050565b6060600a60008381526020019081526020016000206001018054600181600116156101000203166002900480601f016020809104026020016040519081016040528092919081815260200182805460018160011615610100020316600290048015610e525780601f10610e2757610100808354040283529160200191610e52565b820191906000526020600020905b815481529060010190602001808311610e3557829003601f168201915b50505050509050919050565b60006020528060005260406000206000915090505481565b60008060008084600019166000191681526020019081526020016000205414159050919050565b6060600a60008381526020019081526020016000206003018054600181600116156101000203166002900480601f016020809104026020016040519081016040528092919081815260200182805460018160011615610100020316600290048015610f495780601f10610f1e57610100808354040283529160200191610f49565b820191906000526020600020905b815481529060010190602001808311610f2c57829003601f168201915b50505050509050919050565b606073__Library_______________________________63ef0b23686002546040518263ffffffff167c0100000000000000000000000000000000000000000000000000000000028152600401610fac9190611276565b60006040518083038186803b158015610fc457600080fd5b505af4158015610fd8573d6000803e3d6000fd5b505050506040513d6000823e3d601f19601f82011682018060405250611001919081019061118e565b905090565b828054600181600116156101000203166002900490600052602060002090601f016020900481019282601f1061104757805160ff1916838001178555611075565b82800160010185558215611075579182015b82811115611074578251825591602001919060010190611059565b5b5090506110829190611086565b5090565b6110a891905b808211156110a457600081600090555060010161108c565b5090565b90565b60006110b78235611352565b905092915050565b600082601f83011215156110d257600080fd5b81516110e56110e0826112fb565b6112ce565b9150808252602083016020830185838301111561110157600080fd5b61110c838284611366565b50505092915050565b6000611121823561135c565b905092915050565b60006020828403121561113b57600080fd5b6000611149848285016110ab565b91505092915050565b6000806040838503121561116557600080fd5b6000611173858286016110ab565b925050602061118485828601611115565b9150509250929050565b6000602082840312156111a057600080fd5b600082015167ffffffffffffffff8111156111ba57600080fd5b6111c6848285016110bf565b91505092915050565b6000602082840312156111e157600080fd5b60006111ef84828501611115565b91505092915050565b61120181611332565b82525050565b6112108161133e565b82525050565b600061122182611327565b808452611235816020860160208601611366565b61123e81611399565b602085010191505092915050565b61125581611348565b82525050565b600060208201905061127060008301846111f8565b92915050565b600060208201905061128b6000830184611207565b92915050565b600060208201905081810360008301526112ab8184611216565b905092915050565b60006020820190506112c8600083018461124c565b92915050565b6000604051905081810181811067ffffffffffffffff821117156112f157600080fd5b8060405250919050565b600067ffffffffffffffff82111561131257600080fd5b601f19601f8301169050602081019050919050565b600081519050919050565b60008115159050919050565b6000819050919050565b6000819050919050565b6000819050919050565b6000819050919050565b60005b83811015611384578082015181840152602081019050611369565b83811115611393576000848401525b50505050565b6000601f19601f83011690509190505600a265627a7a723058209947570b63af000b013b868e57f516f13a80f41c77c58e5a350b6097c61033736c6578706572696d656e74616cf50037",
  "source": "pragma solidity ^0.4.24;\npragma experimental ABIEncoderV2;\n\nimport './Library.sol';\n\ncontract Election {\n  mapping(bytes32 => uint) public ownerId;\n  bytes32 private owner;\n  bytes32 private title;\n  bytes private imgURL;\n  bytes32 private description;\n  uint private startDate;\n  uint private endDate;\n  uint public candSize;\n  uint public votrSize;\n  Mode private mode;\n\n  enum Mode { Private, Public }\n\n  mapping(uint => Candidate) private candidates;\n  mapping(bytes32 => Voter) private voters;\n  mapping(bytes32 => uint) private voterId;\n  mapping(uint => bytes32) private voterEmails;\n  mapping(bytes32 => uint) private votedTo;\n  mapping(bytes32 => uint) private pubVoterId;\n\n  struct Candidate {\n    uint id;\n    string name;\n    string imgURL;\n    string description;\n    uint voteCount;\n  }\n\n  struct Voter {\n    uint id;\n    string email;\n    bool voted;\n  }\n\n  // Constructor that used to create Election object.\n  constructor (\n    bytes32[3] _content, bytes _imgURL, bool[2] _setup,\n    bytes32[] _candidates,\n    string[] _cImg,\n    bytes32[] _candidatesDescription,\n    bytes32[] _voters, uint[2] _start_end\n  ) public {\n    ownerId[_content[0]] = 1;   // Mark the organizer's email with 1, used for verification\n    owner = _content[0];        // Set the organizer's email\n    title = _content[1];        // Set the poll's title\n    imgURL = _imgURL;           // Set the poll's image URL\n    description = _content[2];  // Set the poll's description\n    startDate = _start_end[0];  // Set the poll's start date\n    // End date mode: Custom\n    if (!_setup[0]) {\n      endDate = _start_end[1];  // Set the poll's end date\n    }\n    // Add candidates\n    addCandidates(_candidates, _cImg, _candidatesDescription);\n\n    // Vote mode: Private\n    if (!_setup[1]) {\n      mode = Mode.Private;      // Set private mode\n      addVoters(_voters);       // Add voters\n    } else {\n      // Vote mode: Public\n      mode = Mode.Public;       // Set public mode\n    }\n  }\n\n  // Add candidates\n  function addCandidates(bytes32[] _names,\n                         string[] _img,\n                         bytes32[] _description) private {\n    candSize = _names.length; // Set the candidate's size from the array of candidates' length\n\n    // To store the candidates into the array of candidates.\n    for (uint i = 0; i < candSize; i++) {\n      // Assign the created Candidate object.\n      candidates[i] = Candidate(\n        i,\n        Library.bytes32ToStr(_names[i]),\n        _img[i],\n        Library.bytes32ToStr(_description[i]),\n        0);\n    }\n  }\n\n  // Add voters\n  function addVoters(bytes32[] _emails) private {\n    votrSize = _emails.length; // Set the coter's size from the array of voters' length\n\n    // To store the voters into the array of voters.\n    for (uint i = 0; i < votrSize; i++) {\n      voterId[_emails[i]] = i + 1;\n      voterEmails[i] = _emails[i];\n      voters[_emails[i]] = Voter(i, Library.bytes32ToStr(_emails[i]), false);\n    }\n  }\n\n  function isVoter(bytes32 _email) public view returns (bool) {\n    return (voterId[_email] != 0);\n  }\n  function isOwner(bytes32 _email) public view returns (bool) {\n    return (ownerId[_email] != 0);\n  }\n  function isVoted(bytes32 _email) public view returns (bool) {\n    return (voters[_email].voted);\n  }\n  function getVotedTo(bytes32 _email) public view returns (string) {\n    return (candidates[votedTo[_email]].name);\n  }\n  function getVoterEmail(uint i) public view returns (string) {\n    return Library.bytes32ToStr(voterEmails[i]);\n  }\n  /*\n   * The logic for the vote process.\n   * _email: voter's email.\n   * _candidateId: candidate's ID.\n   */\n  function vote (bytes32 _email, uint _candidateId) public {\n    // Vote mode: Private\n    if (mode == Mode.Private) {\n      // require the user's email is invited\n      require(voterId[_email] != 0);\n    } else {\n      // Vote mode: Public\n      // If the user's email is not registered\n      if (voterId[_email] == 0) {\n        // To store the voter's ID, set the key with the voter's email.\n        voterId[_email] = votrSize;\n        // To store the voter's email, indexing with the latest voter's size.\n        voterEmails[votrSize] = _email;\n        // Assign the created voter object to the array of voters\n        voters[_email] = Voter(votrSize, Library.bytes32ToStr(_email), false);\n        // Increment voter's size\n        votrSize++;\n      }\n    }\n\n    // End date mode: Custom\n    if (endDate != 0) {\n      // require the current date is not more than or equal to the end date\n      require(now < endDate);\n    }\n\n    // require that they haven't voted before\n    require(!voters[_email].voted);\n\n    // require a valid candidate\n    require(_candidateId >= 0 && _candidateId < candSize);\n\n    // record the voter has voted\n    voters[_email].voted = true;\n\n    // update the voter vote to\n    votedTo[_email] = _candidateId;\n\n    // update candidate vote Count\n    candidates[_candidateId].voteCount ++;\n  }\n\n  function getTitle() public view returns (string) {\n    return Library.bytes32ToStr(title);\n  }\n  function getImgURL() public view returns (string) {\n    return string(imgURL);\n  }\n  function getDescription() public view returns (string) {\n    return Library.bytes32ToStr(description);\n  }\n  function getOwner() public view returns (string) {\n    return Library.bytes32ToStr(owner);\n  }\n  // Candidate\n  function getCandidateName(uint i) public view returns (string) {\n    return candidates[i].name;\n  }\n  function getCandidateImgURL(uint i) public view returns (string) {\n    return string(candidates[i].imgURL);\n  }\n  function getCandidateDescription(uint i) public view returns (string) {\n    return candidates[i].description;\n  }\n  function getCandidateVoteCount(uint i) public view returns (uint) {\n    return candidates[i].voteCount;\n  }\n  function close(bytes32 _email) public {\n    // require the owner is matched the organizer's email\n    require(ownerId[_email] != 0);\n\n    // require the end mode is 'Manually'\n    require(endDate == 0);\n\n    // update the end date to the current date\n    endDate = now;\n  }\n\n  function getStartDate() public view returns (uint) {\n    return startDate;\n  }\n  function getEndDate() public view returns (uint) {\n    return endDate;\n  }\n  function getMode() public view returns (uint) {\n    return uint(mode);\n  }\n}\n",
  "sourcePath": "/Users/kangyi/Projects/react_bc_vote/contracts/Election.sol",
  "compiler": {
    "name": "solc",
    "version": "0.4.24+commit.e67f0147.Emscripten.clang"
  },
  "schemaVersion": "2.0.1",
  "updatedAt": "2019-01-12T07:03:53.280Z"
}