{
  "contractName": "ElectionFactory",
  "abi": [
    {
      "constant": true,
      "inputs": [
        {
          "name": "",
          "type": "uint256"
        }
      ],
      "name": "elections",
      "outputs": [
        {
          "name": "",
          "type": "address"
        }
      ],
      "payable": false,
      "stateMutability": "view",
      "type": "function"
    },
    {
      "inputs": [],
      "payable": false,
      "stateMutability": "nonpayable",
      "type": "constructor"
    },
    {
      "anonymous": false,
      "inputs": [],
      "name": "electionCreated",
      "type": "event"
    },
    {
      "anonymous": false,
      "inputs": [],
      "name": "startedElection",
      "type": "event"
    },
    {
      "anonymous": false,
      "inputs": [],
      "name": "closedElection",
      "type": "event"
    },
    {
      "anonymous": false,
      "inputs": [],
      "name": "votedEvent",
      "type": "event"
    },
    {
      "constant": false,
      "inputs": [
        {
          "name": "owner",
          "type": "bytes32"
        },
        {
          "name": "title",
          "type": "bytes"
        },
        {
          "name": "candidates",
          "type": "bytes32[]"
        },
        {
          "name": "voters",
          "type": "bytes32[]"
        },
        {
          "name": "manual",
          "type": "bool"
        },
        {
          "name": "startNow",
          "type": "bool"
        },
        {
          "name": "start",
          "type": "uint256"
        },
        {
          "name": "end",
          "type": "uint256"
        }
      ],
      "name": "createElection",
      "outputs": [],
      "payable": false,
      "stateMutability": "nonpayable",
      "type": "function"
    },
    {
      "constant": true,
      "inputs": [],
      "name": "getSize",
      "outputs": [
        {
          "name": "",
          "type": "uint256"
        }
      ],
      "payable": false,
      "stateMutability": "view",
      "type": "function"
    },
    {
      "constant": true,
      "inputs": [
        {
          "name": "addr",
          "type": "address"
        }
      ],
      "name": "getTitle",
      "outputs": [
        {
          "name": "",
          "type": "string"
        }
      ],
      "payable": false,
      "stateMutability": "view",
      "type": "function"
    },
    {
      "constant": true,
      "inputs": [
        {
          "name": "addr",
          "type": "address"
        }
      ],
      "name": "getOwner",
      "outputs": [
        {
          "name": "",
          "type": "string"
        }
      ],
      "payable": false,
      "stateMutability": "view",
      "type": "function"
    },
    {
      "constant": true,
      "inputs": [
        {
          "name": "addr",
          "type": "address"
        }
      ],
      "name": "getCandidateSize",
      "outputs": [
        {
          "name": "",
          "type": "uint256"
        }
      ],
      "payable": false,
      "stateMutability": "view",
      "type": "function"
    },
    {
      "constant": true,
      "inputs": [
        {
          "name": "_email",
          "type": "bytes32"
        },
        {
          "name": "i",
          "type": "uint256"
        }
      ],
      "name": "getVoterElectionAddress",
      "outputs": [
        {
          "name": "",
          "type": "address"
        },
        {
          "name": "",
          "type": "bool"
        }
      ],
      "payable": false,
      "stateMutability": "view",
      "type": "function"
    },
    {
      "constant": true,
      "inputs": [
        {
          "name": "_email",
          "type": "bytes32"
        },
        {
          "name": "i",
          "type": "uint256"
        }
      ],
      "name": "getOwnerElectionAddress",
      "outputs": [
        {
          "name": "",
          "type": "address"
        },
        {
          "name": "",
          "type": "bool"
        }
      ],
      "payable": false,
      "stateMutability": "view",
      "type": "function"
    },
    {
      "constant": true,
      "inputs": [
        {
          "name": "addr",
          "type": "address"
        },
        {
          "name": "_email",
          "type": "bytes32"
        }
      ],
      "name": "isVoted",
      "outputs": [
        {
          "name": "",
          "type": "bool"
        }
      ],
      "payable": false,
      "stateMutability": "view",
      "type": "function"
    },
    {
      "constant": true,
      "inputs": [
        {
          "name": "addr",
          "type": "address"
        },
        {
          "name": "_email",
          "type": "bytes32"
        }
      ],
      "name": "getVotedTo",
      "outputs": [
        {
          "name": "",
          "type": "string"
        }
      ],
      "payable": false,
      "stateMutability": "view",
      "type": "function"
    },
    {
      "constant": true,
      "inputs": [
        {
          "name": "addr",
          "type": "address"
        },
        {
          "name": "i",
          "type": "uint256"
        }
      ],
      "name": "getCandidate",
      "outputs": [
        {
          "name": "",
          "type": "uint256"
        },
        {
          "name": "",
          "type": "string"
        },
        {
          "name": "",
          "type": "uint256"
        }
      ],
      "payable": false,
      "stateMutability": "view",
      "type": "function"
    },
    {
      "constant": false,
      "inputs": [
        {
          "name": "addr",
          "type": "address"
        },
        {
          "name": "_email",
          "type": "bytes32"
        },
        {
          "name": "_candidateId",
          "type": "uint256"
        }
      ],
      "name": "vote",
      "outputs": [],
      "payable": false,
      "stateMutability": "nonpayable",
      "type": "function"
    },
    {
      "constant": false,
      "inputs": [
        {
          "name": "addr",
          "type": "address"
        },
        {
          "name": "_email",
          "type": "bytes32"
        }
      ],
      "name": "close",
      "outputs": [],
      "payable": false,
      "stateMutability": "nonpayable",
      "type": "function"
    },
    {
      "constant": false,
      "inputs": [
        {
          "name": "addr",
          "type": "address"
        },
        {
          "name": "_email",
          "type": "bytes32"
        }
      ],
      "name": "start",
      "outputs": [],
      "payable": false,
      "stateMutability": "nonpayable",
      "type": "function"
    },
    {
      "constant": true,
      "inputs": [
        {
          "name": "addr",
          "type": "address"
        }
      ],
      "name": "getStartDate",
      "outputs": [
        {
          "name": "",
          "type": "uint256"
        }
      ],
      "payable": false,
      "stateMutability": "view",
      "type": "function"
    },
    {
      "constant": true,
      "inputs": [
        {
          "name": "addr",
          "type": "address"
        }
      ],
      "name": "getEndDate",
      "outputs": [
        {
          "name": "",
          "type": "uint256"
        }
      ],
      "payable": false,
      "stateMutability": "view",
      "type": "function"
    },
    {
      "constant": true,
      "inputs": [
        {
          "name": "addr",
          "type": "address"
        }
      ],
      "name": "getStatus",
      "outputs": [
        {
          "name": "",
          "type": "uint256"
        }
      ],
      "payable": false,
      "stateMutability": "view",
      "type": "function"
    },
    {
      "constant": true,
      "inputs": [
        {
          "name": "addr",
          "type": "address"
        }
      ],
      "name": "isManual",
      "outputs": [
        {
          "name": "",
          "type": "bool"
        }
      ],
      "payable": false,
      "stateMutability": "view",
      "type": "function"
    }
  ],
  "bytecode": "0x608060405234801561001057600080fd5b5061310b806100206000396000f3006080604052600436106200010f576000357c0100000000000000000000000000000000000000000000000000000000900463ffffffff1680630f5d559d1462000114578063194ee2391462000172578063240035e2146200024c5780632d70ad5c14620002a657806330ccebb514620003125780633b34e2cd146200036c57806353e30d2914620003c05780635e6fef0114620004495780636b272c9014620004b9578063a88f06631462000513578063d5372e601462000567578063de8fa4311462000637578063df397ede1462000665578063ec4408d61462000791578063f51d7d5f14620007ef578063f636e5a214620008b1578063fa544161146200090b578063fad2e35114620009cd575b600080fd5b3480156200012157600080fd5b5062000158600480360381019080803573ffffffffffffffffffffffffffffffffffffffff16906020019092919050505062000a56565b604051808215151515815260200191505060405180910390f35b3480156200017f57600080fd5b50620001c0600480360381019080803573ffffffffffffffffffffffffffffffffffffffff1690602001909291908035906020019092919050505062000b06565b6040518084815260200180602001838152602001828103825284818151815260200191508051906020019080838360005b838110156200020e578082015181840152602081019050620001f1565b50505050905090810190601f1680156200023c5780820380516001836020036101000a031916815260200191505b5094505050505060405180910390f35b3480156200025957600080fd5b5062000290600480360381019080803573ffffffffffffffffffffffffffffffffffffffff16906020019092919050505062000cd2565b6040518082815260200191505060405180910390f35b348015620002b357600080fd5b50620002f8600480360381019080803573ffffffffffffffffffffffffffffffffffffffff169060200190929190803560001916906020019092919050505062000d82565b604051808215151515815260200191505060405180910390f35b3480156200031f57600080fd5b5062000356600480360381019080803573ffffffffffffffffffffffffffffffffffffffff16906020019092919050505062000e46565b6040518082815260200191505060405180910390f35b3480156200037957600080fd5b50620003be600480360381019080803573ffffffffffffffffffffffffffffffffffffffff169060200190929190803560001916906020019092919050505062000ef6565b005b348015620003cd57600080fd5b50620003fc60048036038101908080356000191690602001909291908035906020019092919050505062000fbd565b604051808373ffffffffffffffffffffffffffffffffffffffff1673ffffffffffffffffffffffffffffffffffffffff168152602001821515151581526020019250505060405180910390f35b3480156200045657600080fd5b50620004776004803603810190808035906020019092919050505062001277565b604051808273ffffffffffffffffffffffffffffffffffffffff1673ffffffffffffffffffffffffffffffffffffffff16815260200191505060405180910390f35b348015620004c657600080fd5b50620004fd600480360381019080803573ffffffffffffffffffffffffffffffffffffffff169060200190929190505050620012b6565b6040518082815260200191505060405180910390f35b3480156200052057600080fd5b5062000565600480360381019080803573ffffffffffffffffffffffffffffffffffffffff169060200190929190803560001916906020019092919050505062001366565b005b3480156200057457600080fd5b50620005b9600480360381019080803573ffffffffffffffffffffffffffffffffffffffff16906020019092919080356000191690602001909291905050506200142d565b6040518080602001828103825283818151815260200191508051906020019080838360005b83811015620005fb578082015181840152602081019050620005de565b50505050905090810190601f168015620006295780820380516001836020036101000a031916815260200191505b509250505060405180910390f35b3480156200064457600080fd5b506200064f6200154b565b6040518082815260200191505060405180910390f35b3480156200067257600080fd5b506200078f6004803603810190808035600019169060200190929190803590602001908201803590602001908080601f01602080910402602001604051908101604052809392919081815260200183838082843782019150505050505091929192908035906020019082018035906020019080806020026020016040519081016040528093929190818152602001838360200280828437820191505050505050919291929080359060200190820180359060200190808060200260200160405190810160405280939291908181526020018383602002808284378201915050505050509192919290803515159060200190929190803515159060200190929190803590602001909291908035906020019092919050505062001557565b005b3480156200079e57600080fd5b50620007ed600480360381019080803573ffffffffffffffffffffffffffffffffffffffff16906020019092919080356000191690602001909291908035906020019092919050505062001761565b005b348015620007fc57600080fd5b5062000833600480360381019080803573ffffffffffffffffffffffffffffffffffffffff16906020019092919050505062001831565b6040518080602001828103825283818151815260200191508051906020019080838360005b838110156200087557808201518184015260208101905062000858565b50505050905090810190601f168015620008a35780820380516001836020036101000a031916815260200191505b509250505060405180910390f35b348015620008be57600080fd5b50620008f5600480360381019080803573ffffffffffffffffffffffffffffffffffffffff1690602001909291905050506200193b565b6040518082815260200191505060405180910390f35b3480156200091857600080fd5b506200094f600480360381019080803573ffffffffffffffffffffffffffffffffffffffff169060200190929190505050620019eb565b6040518080602001828103825283818151815260200191508051906020019080838360005b838110156200099157808201518184015260208101905062000974565b50505050905090810190601f168015620009bf5780820380516001836020036101000a031916815260200191505b509250505060405180910390f35b348015620009da57600080fd5b5062000a0960048036038101908080356000191690602001909291908035906020019092919050505062001af5565b604051808373ffffffffffffffffffffffffffffffffffffffff1673ffffffffffffffffffffffffffffffffffffffff168152602001821515151581526020019250505060405180910390f35b6000808290508073ffffffffffffffffffffffffffffffffffffffff1663f2e83ddf6040518163ffffffff167c0100000000000000000000000000000000000000000000000000000000028152600401602060405180830381600087803b15801562000ac157600080fd5b505af115801562000ad6573d6000803e3d6000fd5b505050506040513d602081101562000aed57600080fd5b8101908080519060200190929190505050915050919050565b60006060600080859050848173ffffffffffffffffffffffffffffffffffffffff1663e13804a7876040518263ffffffff167c010000000000000000000000000000000000000000000000000000000002815260040180828152602001915050600060405180830381600087803b15801562000b8157600080fd5b505af115801562000b96573d6000803e3d6000fd5b505050506040513d6000823e3d601f19601f82011682018060405250602081101562000bc157600080fd5b81019080805164010000000081111562000bda57600080fd5b8281019050602081018481111562000bf157600080fd5b815185600182028301116401000000008211171562000c0f57600080fd5b50509291905050508273ffffffffffffffffffffffffffffffffffffffff1663b315c597886040518263ffffffff167c010000000000000000000000000000000000000000000000000000000002815260040180828152602001915050602060405180830381600087803b15801562000c8757600080fd5b505af115801562000c9c573d6000803e3d6000fd5b505050506040513d602081101562000cb357600080fd5b8101908080519060200190929190505050935093509350509250925092565b6000808290508073ffffffffffffffffffffffffffffffffffffffff1663b13564886040518163ffffffff167c0100000000000000000000000000000000000000000000000000000000028152600401602060405180830381600087803b15801562000d3d57600080fd5b505af115801562000d52573d6000803e3d6000fd5b505050506040513d602081101562000d6957600080fd5b8101908080519060200190929190505050915050919050565b6000808390508073ffffffffffffffffffffffffffffffffffffffff16631163fd2d846040518263ffffffff167c0100000000000000000000000000000000000000000000000000000000028152600401808260001916600019168152602001915050602060405180830381600087803b15801562000e0057600080fd5b505af115801562000e15573d6000803e3d6000fd5b505050506040513d602081101562000e2c57600080fd5b810190808051906020019092919050505091505092915050565b6000808290508073ffffffffffffffffffffffffffffffffffffffff16634e69d5606040518163ffffffff167c0100000000000000000000000000000000000000000000000000000000028152600401602060405180830381600087803b15801562000eb157600080fd5b505af115801562000ec6573d6000803e3d6000fd5b505050506040513d602081101562000edd57600080fd5b8101908080519060200190929190505050915050919050565b60008290508073ffffffffffffffffffffffffffffffffffffffff166339c79e0c836040518263ffffffff167c0100000000000000000000000000000000000000000000000000000000028152600401808260001916600019168152602001915050600060405180830381600087803b15801562000f7357600080fd5b505af115801562000f88573d6000803e3d6000fd5b505050507f9ed5ac0e8aed9f888c26b4cb5567dd046693eed7c5c23508cdc59f76145cd39960405160405180910390a1505050565b6000806000808481548110151562000fd157fe5b9060005260206000200160009054906101000a900473ffffffffffffffffffffffffffffffffffffffff1690508073ffffffffffffffffffffffffffffffffffffffff166369d0968b866040518263ffffffff167c0100000000000000000000000000000000000000000000000000000000028152600401808260001916600019168152602001915050602060405180830381600087803b1580156200107657600080fd5b505af11580156200108b573d6000803e3d6000fd5b505050506040513d6020811015620010a257600080fd5b81019080805190602001909291905050501562001264578073ffffffffffffffffffffffffffffffffffffffff1663f2e83ddf6040518163ffffffff167c0100000000000000000000000000000000000000000000000000000000028152600401602060405180830381600087803b1580156200111e57600080fd5b505af115801562001133573d6000803e3d6000fd5b505050506040513d60208110156200114a57600080fd5b8101908080519060200190929190505050156200121d5760028173ffffffffffffffffffffffffffffffffffffffff16634e69d5606040518163ffffffff167c0100000000000000000000000000000000000000000000000000000000028152600401602060405180830381600087803b158015620011c857600080fd5b505af1158015620011dd573d6000803e3d6000fd5b505050506040513d6020811015620011f457600080fd5b810190808051906020019092919050505014156200121c57600080819150925092506200126f565b5b6000848154811015156200122d57fe5b9060005260206000200160009054906101000a900473ffffffffffffffffffffffffffffffffffffffff166001925092506200126f565b600080819150925092505b509250929050565b6000818154811015156200128757fe5b906000526020600020016000915054906101000a900473ffffffffffffffffffffffffffffffffffffffff1681565b6000808290508073ffffffffffffffffffffffffffffffffffffffff166378f305c66040518163ffffffff167c0100000000000000000000000000000000000000000000000000000000028152600401602060405180830381600087803b1580156200132157600080fd5b505af115801562001336573d6000803e3d6000fd5b505050506040513d60208110156200134d57600080fd5b8101908080519060200190929190505050915050919050565b60008290508073ffffffffffffffffffffffffffffffffffffffff1663015a18ed836040518263ffffffff167c0100000000000000000000000000000000000000000000000000000000028152600401808260001916600019168152602001915050600060405180830381600087803b158015620013e357600080fd5b505af1158015620013f8573d6000803e3d6000fd5b505050507f039aa1f1d7ad1c36f3e110d92feae8bf06e345bba6a3455e78b6ebced5d67dce60405160405180910390a1505050565b606060008390508073ffffffffffffffffffffffffffffffffffffffff166357eadb04846040518263ffffffff167c0100000000000000000000000000000000000000000000000000000000028152600401808260001916600019168152602001915050600060405180830381600087803b158015620014ac57600080fd5b505af1158015620014c1573d6000803e3d6000fd5b505050506040513d6000823e3d601f19601f820116820180604052506020811015620014ec57600080fd5b8101908080516401000000008111156200150557600080fd5b828101905060208101848111156200151c57600080fd5b81518560018202830111640100000000821117156200153a57600080fd5b505092919050505091505092915050565b60008080549050905090565b600088888888888888886200156b62001c4b565b808960001916600019168152602001806020018060200180602001881515151581526020018715151515815260200186815260200185815260200184810384528b818151815260200191508051906020019080838360005b83811015620015e0578082015181840152602081019050620015c3565b50505050905090810190601f1680156200160e5780820380516001836020036101000a031916815260200191505b5084810383528a818151815260200191508051906020019060200280838360005b838110156200164c5780820151818401526020810190506200162f565b50505050905001848103825289818151815260200191508051906020019060200280838360005b838110156200169057808201518184015260208101905062001673565b505050509050019b505050505050505050505050604051809103906000f080158015620016c1573d6000803e3d6000fd5b50905060008190806001815401808255809150509060018203906000526020600020016000909192909190916101000a81548173ffffffffffffffffffffffffffffffffffffffff021916908373ffffffffffffffffffffffffffffffffffffffff160217905550507fd903ee4bc1593347aaa1a6d1a188eb7e2c085affe5cb7b9f26213fd0b2ed4f9360405160405180910390a1505050505050505050565b60008390508073ffffffffffffffffffffffffffffffffffffffff16639ef1204c84846040518363ffffffff167c010000000000000000000000000000000000000000000000000000000002815260040180836000191660001916815260200182815260200192505050600060405180830381600087803b158015620017e657600080fd5b505af1158015620017fb573d6000803e3d6000fd5b505050507f5b8aad23fe8c713f16b78d5e4e5b8938224c4810fe5c33f7f4d855d1ebe19c3060405160405180910390a150505050565b606060008290508073ffffffffffffffffffffffffffffffffffffffff1663ff3c1a8f6040518163ffffffff167c0100000000000000000000000000000000000000000000000000000000028152600401600060405180830381600087803b1580156200189d57600080fd5b505af1158015620018b2573d6000803e3d6000fd5b505050506040513d6000823e3d601f19601f820116820180604052506020811015620018dd57600080fd5b810190808051640100000000811115620018f657600080fd5b828101905060208101848111156200190d57600080fd5b81518560018202830111640100000000821117156200192b57600080fd5b5050929190505050915050919050565b6000808290508073ffffffffffffffffffffffffffffffffffffffff1663864444ae6040518163ffffffff167c0100000000000000000000000000000000000000000000000000000000028152600401602060405180830381600087803b158015620019a657600080fd5b505af1158015620019bb573d6000803e3d6000fd5b505050506040513d6020811015620019d257600080fd5b8101908080519060200190929190505050915050919050565b606060008290508073ffffffffffffffffffffffffffffffffffffffff1663893d20e86040518163ffffffff167c0100000000000000000000000000000000000000000000000000000000028152600401600060405180830381600087803b15801562001a5757600080fd5b505af115801562001a6c573d6000803e3d6000fd5b505050506040513d6000823e3d601f19601f82011682018060405250602081101562001a9757600080fd5b81019080805164010000000081111562001ab057600080fd5b8281019050602081018481111562001ac757600080fd5b815185600182028301116401000000008211171562001ae557600080fd5b5050929190505050915050919050565b6000806000808481548110151562001b0957fe5b9060005260206000200160009054906101000a900473ffffffffffffffffffffffffffffffffffffffff1690508073ffffffffffffffffffffffffffffffffffffffff1663eeac39d8866040518263ffffffff167c0100000000000000000000000000000000000000000000000000000000028152600401808260001916600019168152602001915050602060405180830381600087803b15801562001bae57600080fd5b505af115801562001bc3573d6000803e3d6000fd5b505050506040513d602081101562001bda57600080fd5b81019080805190602001909291905050501562001c385760008481548110151562001c0157fe5b9060005260206000200160009054906101000a900473ffffffffffffffffffffffffffffffffffffffff1660019250925062001c43565b600080819150925092505b509250929050565b6040516114838062001c5d83390190560060806040523480156200001157600080fd5b506040516200148338038062001483833981018060405281019080805190602001909291908051820192919060200180518201929190602001805182019291906020018051906020019092919080519060200190929190805190602001909291908051906020019092919050505060016000808a600019166000191681526020019081526020016000208190555087600181600019169055508660029080519060200190620000c29291906200058e565b5083600360006101000a81548160ff021916908315150217905550600360009054906101000a900460ff161515620001035781600481905550806005819055505b6200011d86620001b5640100000000026401000000009004565b620001378562000368640100000000026401000000009004565b6002600860006101000a81548160ff021916908360028111156200015757fe5b02179055508215620001a757600360009054906101000a900460ff16156200019f576000600860006101000a81548160ff021916908360028111156200019957fe5b02179055505b426004819055505b5050505050505050620006c4565b60008151600681905550600090505b600654811015620003645760606040519081016040528082815260200173__Type__________________________________63ef0b236885858151811015156200020a57fe5b906020019060200201516040518263ffffffff167c010000000000000000000000000000000000000000000000000000000002815260040180826000191660001916815260200191505060006040518083038186803b1580156200026d57600080fd5b505af415801562000282573d6000803e3d6000fd5b505050506040513d6000823e3d601f19601f820116820180604052506020811015620002ad57600080fd5b810190808051640100000000811115620002c657600080fd5b82810190506020810184811115620002dd57600080fd5b8151856001820283011164010000000082111715620002fb57600080fd5b505092919050505081526020016000815250600960008381526020019081526020016000206000820151816000015560208201518160010190805190602001906200034892919062000615565b50604082015181600201559050508080600101915050620001c4565b5050565b60008151600781905550600090505b6007548110156200058a5760018101600b600084848151811015156200039957fe5b90602001906020020151600019166000191681526020019081526020016000208190555060606040519081016040528082815260200173__Type__________________________________63ef0b23688585815181101515620003f857fe5b906020019060200201516040518263ffffffff167c010000000000000000000000000000000000000000000000000000000002815260040180826000191660001916815260200191505060006040518083038186803b1580156200045b57600080fd5b505af415801562000470573d6000803e3d6000fd5b505050506040513d6000823e3d601f19601f8201168201806040525060208110156200049b57600080fd5b810190808051640100000000811115620004b457600080fd5b82810190506020810184811115620004cb57600080fd5b8151856001820283011164010000000082111715620004e957600080fd5b5050929190505050815260200160001515815250600a600084848151811015156200051057fe5b90602001906020020151600019166000191681526020019081526020016000206000820151816000015560208201518160010190805190602001906200055892919062000615565b5060408201518160020160006101000a81548160ff021916908315150217905550905050808060010191505062000377565b5050565b828054600181600116156101000203166002900490600052602060002090601f016020900481019282601f10620005d157805160ff191683800117855562000602565b8280016001018555821562000602579182015b8281111562000601578251825591602001919060010190620005e4565b5b5090506200061191906200069c565b5090565b828054600181600116156101000203166002900490600052602060002090601f016020900481019282601f106200065857805160ff191683800117855562000689565b8280016001018555821562000689579182015b82811115620006885782518255916020019190600101906200066b565b5b5090506200069891906200069c565b5090565b620006c191905b80821115620006bd576000816000905550600101620006a3565b5090565b90565b610daf80620006d46000396000f3006080604052600436106100fc576000357c0100000000000000000000000000000000000000000000000000000000900463ffffffff168063015a18ed146101015780631163fd2d1461013257806339c79e0c1461017b5780634e69d560146101ac57806357eadb04146101d75780636813aaf01461028157806369d0968b146102ac57806378f305c6146102f5578063864444ae14610320578063893d20e81461034b5780639ef1204c146103db578063b135648814610416578063b315c59714610441578063e13804a714610482578063eb4d69d514610528578063eeac39d81461056d578063f2e83ddf146105b6578063ff3c1a8f146105e5575b600080fd5b34801561010d57600080fd5b506101306004803603810190808035600019169060200190929190505050610675565b005b34801561013e57600080fd5b506101616004803603810190808035600019169060200190929190505050610716565b604051808215151515815260200191505060405180910390f35b34801561018757600080fd5b506101aa600480360381019080803560001916906020019092919050505061074b565b005b3480156101b857600080fd5b506101c16107ed565b6040518082815260200191505060405180910390f35b3480156101e357600080fd5b50610206600480360381019080803560001916906020019092919050505061082a565b6040518080602001828103825283818151815260200191508051906020019080838360005b8381101561024657808201518184015260208101905061022b565b50505050905090810190601f1680156102735780820380516001836020036101000a031916815260200191505b509250505060405180910390f35b34801561028d57600080fd5b506102966108fd565b6040518082815260200191505060405180910390f35b3480156102b857600080fd5b506102db6004803603810190808035600019169060200190929190505050610903565b604051808215151515815260200191505060405180910390f35b34801561030157600080fd5b5061030a61092b565b6040518082815260200191505060405180910390f35b34801561032c57600080fd5b50610335610935565b6040518082815260200191505060405180910390f35b34801561035757600080fd5b5061036061093b565b6040518080602001828103825283818151815260200191508051906020019080838360005b838110156103a0578082015181840152602081019050610385565b50505050905090810190601f1680156103cd5780820380516001836020036101000a031916815260200191505b509250505060405180910390f35b3480156103e757600080fd5b50610414600480360381019080803560001916906020019092919080359060200190929190505050610a48565b005b34801561042257600080fd5b5061042b610ba9565b6040518082815260200191505060405180910390f35b34801561044d57600080fd5b5061046c60048036038101908080359060200190929190505050610bb3565b6040518082815260200191505060405180910390f35b34801561048e57600080fd5b506104ad60048036038101908080359060200190929190505050610bd3565b6040518080602001828103825283818151815260200191508051906020019080838360005b838110156104ed5780820151818401526020810190506104d2565b50505050905090810190601f16801561051a5780820380516001836020036101000a031916815260200191505b509250505060405180910390f35b34801561053457600080fd5b506105576004803603810190808035600019169060200190929190505050610c8b565b6040518082815260200191505060405180910390f35b34801561057957600080fd5b5061059c6004803603810190808035600019169060200190929190505050610ca3565b604051808215151515815260200191505060405180910390f35b3480156105c257600080fd5b506105cb610cca565b604051808215151515815260200191505060405180910390f35b3480156105f157600080fd5b506105fa610ce1565b6040518080602001828103825283818151815260200191508051906020019080838360005b8381101561063a57808201518184015260208101905061061f565b50505050905090810190601f1680156106675780820380516001836020036101000a031916815260200191505b509250505060405180910390f35b60008060008360001916600019168152602001908152602001600020541415151561069f57600080fd5b600360009054906101000a900460ff161561070c576002808111156106c057fe5b600860009054906101000a900460ff1660028111156106db57fe5b1415156106e757600080fd5b6000600860006101000a81548160ff0219169083600281111561070657fe5b02179055505b4260048190555050565b6000600a6000836000191660001916815260200190815260200160002060020160009054906101000a900460ff169050919050565b60008060008360001916600019168152602001908152602001600020541415151561077557600080fd5b600360009054906101000a900460ff16156107e3576000600281111561079757fe5b600860009054906101000a900460ff1660028111156107b257fe5b1415156107be57600080fd5b6001600860006101000a81548160ff021916908360028111156107dd57fe5b02179055505b4260058190555050565b6000600360009054906101000a900460ff16151561080a57600080fd5b600860009054906101000a900460ff16600281111561082557fe5b905090565b606060096000600c600085600019166000191681526020019081526020016000205481526020019081526020016000206001018054600181600116156101000203166002900480601f0160208091040260200160405190810160405280929190818152602001828054600181600116156101000203166002900480156108f15780601f106108c6576101008083540402835291602001916108f1565b820191906000526020600020905b8154815290600101906020018083116108d457829003601f168201915b50505050509050919050565b60075481565b600080600b600084600019166000191681526020019081526020016000205414159050919050565b6000600454905090565b60065481565b606073__Type__________________________________63ef0b23686001546040518263ffffffff167c010000000000000000000000000000000000000000000000000000000002815260040180826000191660001916815260200191505060006040518083038186803b1580156109b257600080fd5b505af41580156109c6573d6000803e3d6000fd5b505050506040513d6000823e3d601f19601f8201168201806040525060208110156109f057600080fd5b810190808051640100000000811115610a0857600080fd5b82810190506020810184811115610a1e57600080fd5b8151856001820283011164010000000082111715610a3b57600080fd5b5050929190505050905090565b6000600b600084600019166000191681526020019081526020016000205414151515610a7357600080fd5b600360009054906101000a900460ff161515610a9e5760055442101515610a9957600080fd5b610ad3565b60006002811115610aab57fe5b600860009054906101000a900460ff166002811115610ac657fe5b141515610ad257600080fd5b5b600a6000836000191660001916815260200190815260200160002060020160009054906101000a900460ff16151515610b0b57600080fd5b60008110158015610b1d575060065481105b1515610b2857600080fd5b6001600a6000846000191660001916815260200190815260200160002060020160006101000a81548160ff02191690831515021790555080600c600084600019166000191681526020019081526020016000208190555060096000828152602001908152602001600020600201600081548092919060010191905055505050565b6000600554905090565b600060096000838152602001908152602001600020600201549050919050565b6060600960008381526020019081526020016000206001018054600181600116156101000203166002900480601f016020809104026020016040519081016040528092919081815260200182805460018160011615610100020316600290048015610c7f5780601f10610c5457610100808354040283529160200191610c7f565b820191906000526020600020905b815481529060010190602001808311610c6257829003601f168201915b50505050509050919050565b60006020528060005260406000206000915090505481565b60008060008084600019166000191681526020019081526020016000205414159050919050565b6000600360009054906101000a900460ff16905090565b606060028054600181600116156101000203166002900480601f016020809104026020016040519081016040528092919081815260200182805460018160011615610100020316600290048015610d795780601f10610d4e57610100808354040283529160200191610d79565b820191906000526020600020905b815481529060010190602001808311610d5c57829003601f168201915b50505050509050905600a165627a7a723058207447af52fb867787e62f0a980174c8d0ea7402e94de934b1734b108313d124090029a165627a7a723058208e8e41dcdaf6482db1104454b5b13eaac37bf476486bddbb40c6f338aa4c50d70029",
  "source": "pragma solidity ^0.4.24;\n\nimport \"./Election.sol\";\n\ncontract ElectionFactory {\n  address[] public elections;\n\n  constructor () public {\n  }\n\n  event electionCreated();\n  event startedElection();\n  event closedElection();\n  event votedEvent();\n\n  function createElection (\n    bytes32 owner, bytes title,\n    bytes32[] candidates, bytes32[] voters,\n    bool manual, bool startNow,\n    uint start, uint end\n  ) public {\n    address addr = new Election(owner, title, candidates, voters, manual, startNow, start, end);\n    elections.push(addr);\n\n    emit electionCreated();\n  }\n\n  function getSize() public view returns (uint) {\n    return elections.length;\n  }\n\n  function getTitle(address addr) public view returns (string) {\n    Election e = Election(addr);\n\n    return string(e.getTitle());\n  }\n  function getOwner(address addr) public view returns (string) {\n    Election e = Election(addr);\n\n    return string(e.getOwner());\n  }\n  function getCandidateSize(address addr) public view returns (uint) {\n    Election e = Election(addr);\n\n    return e.candSize();\n  }\n  function getVoterElectionAddress(bytes32 _email, uint i) public view returns (address, bool) {\n    Election e = Election(elections[i]);\n\n    if (e.isVoter(_email)) {\n      if (e.isManual()) {\n        if (e.getStatus() == 2) {\n          return (0, false);\n        }\n      }\n      return (elections[i], true);\n    }\n    return (0, false);\n  }\n  function getOwnerElectionAddress(bytes32 _email, uint i) public view returns (address, bool) {\n    Election e = Election(elections[i]);\n\n    if (e.isOwner(_email)) {\n      return (elections[i], true);\n    }\n    return (0, false);\n  }\n  function isVoted(address addr, bytes32 _email) public view returns (bool) {\n    Election e = Election(addr);\n\n    return e.isVoted(_email);\n  }\n  function getVotedTo(address addr, bytes32 _email) public view returns (string) {\n    Election e = Election(addr);\n\n    return e.getVotedTo(_email);\n  }\n\n  function getCandidate(address addr, uint i) public view returns (uint, string, uint) {\n    Election e = Election(addr);\n\n    return (i, e.getCandidateName(i), e.getCandidateVoteCount(i));\n  }\n\n  function vote(address addr, bytes32 _email, uint _candidateId) public {\n    Election e = Election(addr);\n\n    e.vote(_email, _candidateId);\n\n    emit votedEvent();\n  }\n\n  function close(address addr, bytes32 _email) public {\n    Election e = Election(addr);\n\n    e.close(_email);\n\n    emit closedElection();\n  }\n  function start(address addr, bytes32 _email) public {\n    Election e = Election(addr);\n\n    e.start(_email);\n\n    emit startedElection();\n  }\n  function getStartDate(address addr) public view returns (uint) {\n    Election e = Election(addr);\n\n    return e.getStartDate();\n  }\n  function getEndDate(address addr) public view returns (uint) {\n    Election e = Election(addr);\n\n    return e.getEndDate();\n  }\n  function getStatus(address addr) public view returns (uint) {\n    Election e = Election(addr);\n\n    return e.getStatus();\n  }\n  function isManual(address addr) public view returns (bool) {\n    Election e = Election(addr);\n\n    return e.isManual();\n  }\n}\n\n",
  "sourcePath": "/Users/kangyi/Projects/react_bc_vote/contracts/ElectionFactory.sol",
  "compiler": {
    "name": "solc",
    "version": "0.4.24+commit.e67f0147.Emscripten.clang"
  },
  "schemaVersion": "2.0.1",
  "updatedAt": "2018-10-22T14:13:38.988Z"
}