{
  "contractName": "ElectionFactory",
  "abi": [
    {
      "constant": true,
      "inputs": [
        {
          "name": "",
          "type": "uint256"
        }
      ],
      "name": "elections",
      "outputs": [
        {
          "name": "",
          "type": "address"
        }
      ],
      "payable": false,
      "stateMutability": "view",
      "type": "function"
    },
    {
      "inputs": [],
      "payable": false,
      "stateMutability": "nonpayable",
      "type": "constructor"
    },
    {
      "anonymous": false,
      "inputs": [
        {
          "indexed": false,
          "name": "addr",
          "type": "address"
        },
        {
          "indexed": false,
          "name": "owner",
          "type": "string"
        }
      ],
      "name": "electionCreated",
      "type": "event"
    },
    {
      "anonymous": false,
      "inputs": [
        {
          "indexed": false,
          "name": "addr",
          "type": "address"
        },
        {
          "indexed": false,
          "name": "owner",
          "type": "string"
        }
      ],
      "name": "closedElection",
      "type": "event"
    },
    {
      "anonymous": false,
      "inputs": [
        {
          "indexed": false,
          "name": "addr",
          "type": "address"
        }
      ],
      "name": "votedEvent",
      "type": "event"
    },
    {
      "constant": true,
      "inputs": [
        {
          "name": "_cImg",
          "type": "string"
        }
      ],
      "name": "getImgs",
      "outputs": [
        {
          "name": "",
          "type": "string[]"
        }
      ],
      "payable": false,
      "stateMutability": "pure",
      "type": "function"
    },
    {
      "constant": false,
      "inputs": [
        {
          "name": "_content",
          "type": "bytes32[3]"
        },
        {
          "name": "_imgURL",
          "type": "bytes"
        },
        {
          "name": "_setup",
          "type": "bool[2]"
        },
        {
          "name": "_candidates",
          "type": "bytes32[]"
        },
        {
          "name": "_cImg",
          "type": "string"
        },
        {
          "name": "_candidatesDescription",
          "type": "bytes32[]"
        },
        {
          "name": "voters",
          "type": "bytes32[]"
        },
        {
          "name": "_start_end",
          "type": "uint256[2]"
        }
      ],
      "name": "createElection",
      "outputs": [],
      "payable": false,
      "stateMutability": "nonpayable",
      "type": "function"
    },
    {
      "constant": true,
      "inputs": [],
      "name": "getSize",
      "outputs": [
        {
          "name": "",
          "type": "uint256"
        }
      ],
      "payable": false,
      "stateMutability": "view",
      "type": "function"
    },
    {
      "constant": true,
      "inputs": [
        {
          "name": "addr",
          "type": "address"
        }
      ],
      "name": "getTitle",
      "outputs": [
        {
          "name": "",
          "type": "string"
        }
      ],
      "payable": false,
      "stateMutability": "view",
      "type": "function"
    },
    {
      "constant": true,
      "inputs": [
        {
          "name": "addr",
          "type": "address"
        }
      ],
      "name": "getContent",
      "outputs": [
        {
          "name": "",
          "type": "string"
        },
        {
          "name": "",
          "type": "string"
        },
        {
          "name": "",
          "type": "string"
        }
      ],
      "payable": false,
      "stateMutability": "view",
      "type": "function"
    },
    {
      "constant": true,
      "inputs": [
        {
          "name": "addr",
          "type": "address"
        }
      ],
      "name": "getOwner",
      "outputs": [
        {
          "name": "",
          "type": "string"
        }
      ],
      "payable": false,
      "stateMutability": "view",
      "type": "function"
    },
    {
      "constant": true,
      "inputs": [
        {
          "name": "addr",
          "type": "address"
        }
      ],
      "name": "getCandidateSize",
      "outputs": [
        {
          "name": "",
          "type": "uint256"
        }
      ],
      "payable": false,
      "stateMutability": "view",
      "type": "function"
    },
    {
      "constant": true,
      "inputs": [
        {
          "name": "addr",
          "type": "address"
        }
      ],
      "name": "getVoterSize",
      "outputs": [
        {
          "name": "",
          "type": "uint256"
        }
      ],
      "payable": false,
      "stateMutability": "view",
      "type": "function"
    },
    {
      "constant": true,
      "inputs": [
        {
          "name": "addr",
          "type": "address"
        },
        {
          "name": "i",
          "type": "uint256"
        }
      ],
      "name": "getVoterEmail",
      "outputs": [
        {
          "name": "",
          "type": "string"
        }
      ],
      "payable": false,
      "stateMutability": "view",
      "type": "function"
    },
    {
      "constant": true,
      "inputs": [
        {
          "name": "_email",
          "type": "bytes32"
        },
        {
          "name": "i",
          "type": "uint256"
        }
      ],
      "name": "getVoterElectionAddress",
      "outputs": [
        {
          "name": "",
          "type": "address"
        },
        {
          "name": "",
          "type": "bool"
        }
      ],
      "payable": false,
      "stateMutability": "view",
      "type": "function"
    },
    {
      "constant": true,
      "inputs": [
        {
          "name": "addr",
          "type": "address"
        },
        {
          "name": "_email",
          "type": "bytes32"
        }
      ],
      "name": "isVoter",
      "outputs": [
        {
          "name": "",
          "type": "bool"
        }
      ],
      "payable": false,
      "stateMutability": "view",
      "type": "function"
    },
    {
      "constant": true,
      "inputs": [
        {
          "name": "_email",
          "type": "bytes32"
        },
        {
          "name": "i",
          "type": "uint256"
        }
      ],
      "name": "getOwnerElectionAddress",
      "outputs": [
        {
          "name": "",
          "type": "address"
        },
        {
          "name": "",
          "type": "bool"
        }
      ],
      "payable": false,
      "stateMutability": "view",
      "type": "function"
    },
    {
      "constant": true,
      "inputs": [
        {
          "name": "addr",
          "type": "address"
        },
        {
          "name": "_email",
          "type": "bytes32"
        }
      ],
      "name": "isVoted",
      "outputs": [
        {
          "name": "",
          "type": "bool"
        }
      ],
      "payable": false,
      "stateMutability": "view",
      "type": "function"
    },
    {
      "constant": true,
      "inputs": [
        {
          "name": "addr",
          "type": "address"
        },
        {
          "name": "_email",
          "type": "bytes32"
        }
      ],
      "name": "getVotedTo",
      "outputs": [
        {
          "name": "",
          "type": "string"
        }
      ],
      "payable": false,
      "stateMutability": "view",
      "type": "function"
    },
    {
      "constant": true,
      "inputs": [
        {
          "name": "addr",
          "type": "address"
        },
        {
          "name": "i",
          "type": "uint256"
        }
      ],
      "name": "getCandidate",
      "outputs": [
        {
          "name": "",
          "type": "uint256"
        },
        {
          "name": "",
          "type": "string"
        },
        {
          "name": "",
          "type": "string"
        },
        {
          "name": "",
          "type": "string"
        },
        {
          "name": "",
          "type": "uint256"
        }
      ],
      "payable": false,
      "stateMutability": "view",
      "type": "function"
    },
    {
      "constant": false,
      "inputs": [
        {
          "name": "addr",
          "type": "address"
        },
        {
          "name": "_email",
          "type": "bytes32"
        },
        {
          "name": "_candidateId",
          "type": "uint256"
        }
      ],
      "name": "vote",
      "outputs": [],
      "payable": false,
      "stateMutability": "nonpayable",
      "type": "function"
    },
    {
      "constant": false,
      "inputs": [
        {
          "name": "addr",
          "type": "address"
        },
        {
          "name": "_email",
          "type": "bytes32"
        }
      ],
      "name": "close",
      "outputs": [],
      "payable": false,
      "stateMutability": "nonpayable",
      "type": "function"
    },
    {
      "constant": true,
      "inputs": [
        {
          "name": "addr",
          "type": "address"
        }
      ],
      "name": "getStartDate",
      "outputs": [
        {
          "name": "",
          "type": "uint256"
        }
      ],
      "payable": false,
      "stateMutability": "view",
      "type": "function"
    },
    {
      "constant": true,
      "inputs": [
        {
          "name": "addr",
          "type": "address"
        }
      ],
      "name": "getEndDate",
      "outputs": [
        {
          "name": "",
          "type": "uint256"
        }
      ],
      "payable": false,
      "stateMutability": "view",
      "type": "function"
    },
    {
      "constant": true,
      "inputs": [
        {
          "name": "addr",
          "type": "address"
        }
      ],
      "name": "getMode",
      "outputs": [
        {
          "name": "",
          "type": "uint256"
        }
      ],
      "payable": false,
      "stateMutability": "view",
      "type": "function"
    }
  ],
  "bytecode": "0x608060405234801561001057600080fd5b50615337806100206000396000f30060806040526004361062000133576000357c0100000000000000000000000000000000000000000000000000000000900463ffffffff168063194ee2391462000138578063240035e214620001805780632d70ad5c14620001c457806331c37f3f1462000208578063339c63bd146200024c5780633b34e2cd146200029057806353e30d2914620002be5780635e6fef011462000303578063666af76214620003475780636b272c90146200038b578063923af05714620003cf5780639fc8623914620003fd578063a7a199ee1462000441578063b30ab3491462000485578063d5372e6014620004cb578063de8fa431146200050f578063ec4408d6146200053f578063f51d7d5f146200056d578063f636e5a214620005b1578063fa54416114620005f5578063fad2e3511462000639575b600080fd5b3480156200014557600080fd5b506200016460048036036200015e9190810190620024a8565b6200067e565b6040516200017795949392919062002ccd565b60405180910390f35b3480156200018d57600080fd5b50620001ac6004803603620001a69190810190620023e5565b62000964565b604051620001bb919062002cb0565b60405180910390f35b348015620001d157600080fd5b50620001f06004803603620001ea919081019062002411565b62000a12565b604051620001ff919062002bb6565b60405180910390f35b3480156200021557600080fd5b506200023460048036036200022e9190810190620024a8565b62000ace565b60405162000243919062002c3a565b60405180910390f35b3480156200025957600080fd5b5062000278600480360362000272919081019062002699565b62000b90565b60405162000287919062002b92565b60405180910390f35b3480156200029d57600080fd5b50620002bc6004803603620002b6919081019062002411565b62000cad565b005b348015620002cb57600080fd5b50620002ea6004803603620002e4919081019062002658565b62000e2a565b604051620002fa92919062002a7d565b60405180910390f35b3480156200031057600080fd5b506200032f600480360362000329919081019062002723565b62001068565b6040516200033e919062002a60565b60405180910390f35b3480156200035457600080fd5b506200037360048036036200036d919081019062002411565b620010a7565b60405162000382919062002bb6565b60405180910390f35b3480156200039857600080fd5b50620003b76004803603620003b19190810190620023e5565b62001229565b604051620003c6919062002cb0565b60405180910390f35b348015620003dc57600080fd5b50620003fb6004803603620003f59190810190620024e9565b620012d7565b005b3480156200040a57600080fd5b50620004296004803603620004239190810190620023e5565b62001495565b60405162000438919062002cb0565b60405180910390f35b3480156200044e57600080fd5b506200046d6004803603620004679190810190620023e5565b62001543565b6040516200047c919062002cb0565b60405180910390f35b3480156200049257600080fd5b50620004b16004803603620004ab9190810190620023e5565b620015f1565b604051620004c29392919062002c5e565b60405180910390f35b348015620004d857600080fd5b50620004f76004803603620004f1919081019062002411565b620017f8565b60405162000506919062002c3a565b60405180910390f35b3480156200051c57600080fd5b5062000527620018ba565b60405162000536919062002cb0565b60405180910390f35b3480156200054c57600080fd5b506200056b600480360362000565919081019062002452565b620018c6565b005b3480156200057a57600080fd5b50620005996004803603620005939190810190620023e5565b62001997565b604051620005a8919062002c3a565b60405180910390f35b348015620005be57600080fd5b50620005dd6004803603620005d79190810190620023e5565b62001a4b565b604051620005ec919062002cb0565b60405180910390f35b3480156200060257600080fd5b506200062160048036036200061b9190810190620023e5565b62001af9565b60405162000630919062002c3a565b60405180910390f35b3480156200064657600080fd5b506200066560048036036200065f919081019062002658565b62001bad565b6040516200067592919062002a7d565b60405180910390f35b60006060806060600080879050868173ffffffffffffffffffffffffffffffffffffffff1663e13804a7896040518263ffffffff167c0100000000000000000000000000000000000000000000000000000000028152600401620006e3919062002cb0565b600060405180830381600087803b158015620006fe57600080fd5b505af115801562000713573d6000803e3d6000fd5b505050506040513d6000823e3d601f19601f820116820180604052506200073e9190810190620026de565b8273ffffffffffffffffffffffffffffffffffffffff16630838e71b8a6040518263ffffffff167c010000000000000000000000000000000000000000000000000000000002815260040162000795919062002cb0565b600060405180830381600087803b158015620007b057600080fd5b505af1158015620007c5573d6000803e3d6000fd5b505050506040513d6000823e3d601f19601f82011682018060405250620007f09190810190620026de565b8373ffffffffffffffffffffffffffffffffffffffff1663efdfe6f88b6040518263ffffffff167c010000000000000000000000000000000000000000000000000000000002815260040162000847919062002cb0565b600060405180830381600087803b1580156200086257600080fd5b505af115801562000877573d6000803e3d6000fd5b505050506040513d6000823e3d601f19601f82011682018060405250620008a29190810190620026de565b8473ffffffffffffffffffffffffffffffffffffffff1663b315c5978c6040518263ffffffff167c0100000000000000000000000000000000000000000000000000000000028152600401620008f9919062002cb0565b602060405180830381600087803b1580156200091457600080fd5b505af115801562000929573d6000803e3d6000fd5b505050506040513d601f19601f820116820180604052506200094f91908101906200274f565b95509550955095509550509295509295909350565b6000808290508073ffffffffffffffffffffffffffffffffffffffff1663b13564886040518163ffffffff167c0100000000000000000000000000000000000000000000000000000000028152600401602060405180830381600087803b158015620009cf57600080fd5b505af1158015620009e4573d6000803e3d6000fd5b505050506040513d601f19601f8201168201806040525062000a0a91908101906200274f565b915050919050565b6000808390508073ffffffffffffffffffffffffffffffffffffffff16631163fd2d846040518263ffffffff167c010000000000000000000000000000000000000000000000000000000002815260040162000a6f919062002bd3565b602060405180830381600087803b15801562000a8a57600080fd5b505af115801562000a9f573d6000803e3d6000fd5b505050506040513d601f19601f8201168201806040525062000ac591908101906200262c565b91505092915050565b606060008390508073ffffffffffffffffffffffffffffffffffffffff16632abe5f11846040518263ffffffff167c010000000000000000000000000000000000000000000000000000000002815260040162000b2c919062002cb0565b600060405180830381600087803b15801562000b4757600080fd5b505af115801562000b5c573d6000803e3d6000fd5b505050506040513d6000823e3d601f19601f8201168201806040525062000b879190810190620026de565b91505092915050565b606062000b9c6200200d565b62000ba66200200d565b6060600062000bb58662001cfb565b935062000bf76040805190810160405280600181526020017f7c0000000000000000000000000000000000000000000000000000000000000081525062001cfb565b9250600162000c10848662001d2b90919063ffffffff16565b0160405190808252806020026020018201604052801562000c4657816020015b606081526020019060019003908162000c305790505b509150600090505b815181101562000ca15762000c7762000c71848662001da890919063ffffffff16565b62001dc6565b828281518110151562000c8657fe5b90602001906020020181905250808060010191505062000c4e565b81945050505050919050565b60008290508073ffffffffffffffffffffffffffffffffffffffff166339c79e0c836040518263ffffffff167c010000000000000000000000000000000000000000000000000000000002815260040162000d09919062002bd3565b600060405180830381600087803b15801562000d2457600080fd5b505af115801562000d39573d6000803e3d6000fd5b505050507fe8384be3d0f1a407dc85f07aa5a8df41aa1ff17d8f9f1b672c76c1ece8e1a4008373__Library_______________________________63ef0b2368856040518263ffffffff167c010000000000000000000000000000000000000000000000000000000002815260040162000db4919062002bf0565b60006040518083038186803b15801562000dcd57600080fd5b505af415801562000de2573d6000803e3d6000fd5b505050506040513d6000823e3d601f19601f8201168201806040525062000e0d9190810190620026de565b60405162000e1d92919062002aaa565b60405180910390a1505050565b6000806000808481548110151562000e3e57fe5b9060005260206000200160009054906101000a900473ffffffffffffffffffffffffffffffffffffffff16905060018173ffffffffffffffffffffffffffffffffffffffff16634b4fd03b6040518163ffffffff167c0100000000000000000000000000000000000000000000000000000000028152600401602060405180830381600087803b15801562000ed257600080fd5b505af115801562000ee7573d6000803e3d6000fd5b505050506040513d601f19601f8201168201806040525062000f0d91908101906200274f565b141562000f5b5760008481548110151562000f2457fe5b9060005260206000200160009054906101000a900473ffffffffffffffffffffffffffffffffffffffff1660019250925062001060565b8073ffffffffffffffffffffffffffffffffffffffff166369d0968b866040518263ffffffff167c010000000000000000000000000000000000000000000000000000000002815260040162000fb2919062002bd3565b602060405180830381600087803b15801562000fcd57600080fd5b505af115801562000fe2573d6000803e3d6000fd5b505050506040513d601f19601f820116820180604052506200100891908101906200262c565b1562001055576000848154811015156200101e57fe5b9060005260206000200160009054906101000a900473ffffffffffffffffffffffffffffffffffffffff1660019250925062001060565b600080819150925092505b509250929050565b6000818154811015156200107857fe5b906000526020600020016000915054906101000a900473ffffffffffffffffffffffffffffffffffffffff1681565b60008083905060018173ffffffffffffffffffffffffffffffffffffffff16634b4fd03b6040518163ffffffff167c0100000000000000000000000000000000000000000000000000000000028152600401602060405180830381600087803b1580156200111457600080fd5b505af115801562001129573d6000803e3d6000fd5b505050506040513d601f19601f820116820180604052506200114f91908101906200274f565b141562001160576001915062001222565b8073ffffffffffffffffffffffffffffffffffffffff166369d0968b846040518263ffffffff167c0100000000000000000000000000000000000000000000000000000000028152600401620011b7919062002bd3565b602060405180830381600087803b158015620011d257600080fd5b505af1158015620011e7573d6000803e3d6000fd5b505050506040513d601f19601f820116820180604052506200120d91908101906200262c565b156200121d576001915062001222565b600091505b5092915050565b6000808290508073ffffffffffffffffffffffffffffffffffffffff166378f305c66040518163ffffffff167c0100000000000000000000000000000000000000000000000000000000028152600401602060405180830381600087803b1580156200129457600080fd5b505af1158015620012a9573d6000803e3d6000fd5b505050506040513d601f19601f82011682018060405250620012cf91908101906200274f565b915050919050565b600088888888620012e88962000b90565b888888620012f562002027565b6200130898979695949392919062002ade565b604051809103906000f08015801562001325573d6000803e3d6000fd5b50905060008190806001815401808255809150509060018203906000526020600020016000909192909190916101000a81548173ffffffffffffffffffffffffffffffffffffffff021916908373ffffffffffffffffffffffffffffffffffffffff160217905550507f01a0d7ad6ef14907dcecdacb77f07dd33e4a6262ab878d600da4b89b2ce9bd1a8173__Library_______________________________63ef0b23688c6000600381101515620013da57fe5b60200201516040518263ffffffff167c010000000000000000000000000000000000000000000000000000000002815260040162001419919062002bf0565b60006040518083038186803b1580156200143257600080fd5b505af415801562001447573d6000803e3d6000fd5b505050506040513d6000823e3d601f19601f82011682018060405250620014729190810190620026de565b6040516200148292919062002aaa565b60405180910390a1505050505050505050565b6000808290508073ffffffffffffffffffffffffffffffffffffffff16634b4fd03b6040518163ffffffff167c0100000000000000000000000000000000000000000000000000000000028152600401602060405180830381600087803b1580156200150057600080fd5b505af115801562001515573d6000803e3d6000fd5b505050506040513d601f19601f820116820180604052506200153b91908101906200274f565b915050919050565b6000808290508073ffffffffffffffffffffffffffffffffffffffff16636813aaf06040518163ffffffff167c0100000000000000000000000000000000000000000000000000000000028152600401602060405180830381600087803b158015620015ae57600080fd5b505af1158015620015c3573d6000803e3d6000fd5b505050506040513d601f19601f82011682018060405250620015e991908101906200274f565b915050919050565b606080606060008490508073ffffffffffffffffffffffffffffffffffffffff1663ff3c1a8f6040518163ffffffff167c0100000000000000000000000000000000000000000000000000000000028152600401600060405180830381600087803b1580156200166057600080fd5b505af115801562001675573d6000803e3d6000fd5b505050506040513d6000823e3d601f19601f82011682018060405250620016a09190810190620026de565b8173ffffffffffffffffffffffffffffffffffffffff1663939eab2e6040518163ffffffff167c0100000000000000000000000000000000000000000000000000000000028152600401600060405180830381600087803b1580156200170557600080fd5b505af11580156200171a573d6000803e3d6000fd5b505050506040513d6000823e3d601f19601f82011682018060405250620017459190810190620026de565b8273ffffffffffffffffffffffffffffffffffffffff16631a0925416040518163ffffffff167c0100000000000000000000000000000000000000000000000000000000028152600401600060405180830381600087803b158015620017aa57600080fd5b505af1158015620017bf573d6000803e3d6000fd5b505050506040513d6000823e3d601f19601f82011682018060405250620017ea9190810190620026de565b935093509350509193909250565b606060008390508073ffffffffffffffffffffffffffffffffffffffff166357eadb04846040518263ffffffff167c010000000000000000000000000000000000000000000000000000000002815260040162001856919062002bd3565b600060405180830381600087803b1580156200187157600080fd5b505af115801562001886573d6000803e3d6000fd5b505050506040513d6000823e3d601f19601f82011682018060405250620018b19190810190620026de565b91505092915050565b60008080549050905090565b60008390508073ffffffffffffffffffffffffffffffffffffffff16639ef1204c84846040518363ffffffff167c01000000000000000000000000000000000000000000000000000000000281526004016200192492919062002c0d565b600060405180830381600087803b1580156200193f57600080fd5b505af115801562001954573d6000803e3d6000fd5b505050507f06640b67015c37470a2bc2e00a76d594f6794fae0d12b9e206bc1bf369fe06768460405162001989919062002a60565b60405180910390a150505050565b606060008290508073ffffffffffffffffffffffffffffffffffffffff1663ff3c1a8f6040518163ffffffff167c0100000000000000000000000000000000000000000000000000000000028152600401600060405180830381600087803b15801562001a0357600080fd5b505af115801562001a18573d6000803e3d6000fd5b505050506040513d6000823e3d601f19601f8201168201806040525062001a439190810190620026de565b915050919050565b6000808290508073ffffffffffffffffffffffffffffffffffffffff1663864444ae6040518163ffffffff167c0100000000000000000000000000000000000000000000000000000000028152600401602060405180830381600087803b15801562001ab657600080fd5b505af115801562001acb573d6000803e3d6000fd5b505050506040513d601f19601f8201168201806040525062001af191908101906200274f565b915050919050565b606060008290508073ffffffffffffffffffffffffffffffffffffffff1663893d20e86040518163ffffffff167c0100000000000000000000000000000000000000000000000000000000028152600401600060405180830381600087803b15801562001b6557600080fd5b505af115801562001b7a573d6000803e3d6000fd5b505050506040513d6000823e3d601f19601f8201168201806040525062001ba59190810190620026de565b915050919050565b6000806000808481548110151562001bc157fe5b9060005260206000200160009054906101000a900473ffffffffffffffffffffffffffffffffffffffff1690508073ffffffffffffffffffffffffffffffffffffffff1663eeac39d8866040518263ffffffff167c010000000000000000000000000000000000000000000000000000000002815260040162001c45919062002bd3565b602060405180830381600087803b15801562001c6057600080fd5b505af115801562001c75573d6000803e3d6000fd5b505050506040513d601f19601f8201168201806040525062001c9b91908101906200262c565b1562001ce85760008481548110151562001cb157fe5b9060005260206000200160009054906101000a900473ffffffffffffffffffffffffffffffffffffffff1660019250925062001cf3565b600080819150925092505b509250929050565b62001d056200200d565b600060208301905060408051908101604052808451815260200182815250915050919050565b600080826000015162001d51856000015186602001518660000151876020015162001e2b565b0190505b83600001518460200151018111151562001da1578180600101925050826000015162001d9885602001518303866000015103838660000151876020015162001e2b565b01905062001d55565b5092915050565b62001db26200200d565b62001dbf83838362001f1c565b5092915050565b606080600083600001516040519080825280601f01601f19166020018201604052801562001e035781602001602082028038833980820191505090505b50915060208201905062001e21818560200151866000015162001fc0565b8192505050919050565b60008060008060008060008060008b97508c8b11151562001f065760208b11151562001ebc5760018b60200360080260020a03196001029550858a511694508a8d8d010393508588511692505b8460001916836000191614151562001eb357838810151562001e9f578c8c01985062001f0c565b878060010198505085885116925062001e78565b87985062001f0c565b8a8a209150600096505b8a8d038711151562001f05578a8820905080600019168260001916141562001ef15787985062001f0c565b600188019750868060010197505062001ec6565b5b8c8c0198505b5050505050505050949350505050565b62001f266200200d565b600062001f46856000015186602001518660000151876020015162001e2b565b9050846020015183602001818152505084602001518103836000018181525050846000015185602001510181141562001f8a57600085600001818152505062001fb5565b8360000151836000015101856000018181510391508181525050836000015181018560200181815250505b829150509392505050565b60005b60208210151562001fea578251845260208401935060208301925060208203915062001fc3565b6001826020036101000a0390508019835116818551168181178652505050505050565b604080519081016040528060008152602001600081525090565b6040516122fd806200300183390190565b600062002046823562002f6a565b905092915050565b600082601f83011215156200206257600080fd5b600262002079620020738262002d6d565b62002d3f565b915081838560208402820111156200209057600080fd5b60005b83811015620020c45781620020a988826200225d565b84526020840193506020830192505060018101905062002093565b5050505092915050565b600082601f8301121515620020e257600080fd5b6003620020f9620020f38262002d90565b62002d3f565b915081838560208402820111156200211057600080fd5b60005b8381101562002144578162002129888262002289565b84526020840193506020830192505060018101905062002113565b5050505092915050565b600082601f83011215156200216257600080fd5b813562002179620021738262002db3565b62002d3f565b915081818352602084019350602081019050838560208402820111156200219f57600080fd5b60005b83811015620021d35781620021b8888262002289565b845260208401935060208301925050600181019050620021a2565b5050505092915050565b600082601f8301121515620021f157600080fd5b600262002208620022028262002ddc565b62002d3f565b915081838560208402820111156200221f57600080fd5b60005b83811015620022535781620022388882620023b9565b84526020840193506020830192505060018101905062002222565b5050505092915050565b60006200226b823562002f8a565b905092915050565b600062002281825162002f8a565b905092915050565b600062002297823562002f96565b905092915050565b600082601f8301121515620022b357600080fd5b8135620022ca620022c48262002dff565b62002d3f565b91508082526020830160208301858383011115620022e757600080fd5b620022f483828462002faa565b50505092915050565b600082601f83011215156200231157600080fd5b813562002328620023228262002e2c565b62002d3f565b915080825260208301602083018583830111156200234557600080fd5b6200235283828462002faa565b50505092915050565b600082601f83011215156200236f57600080fd5b815162002386620023808262002e2c565b62002d3f565b91508082526020830160208301858383011115620023a357600080fd5b620023b083828462002fb9565b50505092915050565b6000620023c7823562002fa0565b905092915050565b6000620023dd825162002fa0565b905092915050565b600060208284031215620023f857600080fd5b6000620024088482850162002038565b91505092915050565b600080604083850312156200242557600080fd5b6000620024358582860162002038565b9250506020620024488582860162002289565b9150509250929050565b6000806000606084860312156200246857600080fd5b6000620024788682870162002038565b93505060206200248b8682870162002289565b92505060406200249e86828701620023b9565b9150509250925092565b60008060408385031215620024bc57600080fd5b6000620024cc8582860162002038565b9250506020620024df85828601620023b9565b9150509250929050565b600080600080600080600080610180898b0312156200250757600080fd5b6000620025178b828c01620020ce565b985050606089013567ffffffffffffffff8111156200253557600080fd5b620025438b828c016200229f565b9750506080620025568b828c016200204e565b96505060c089013567ffffffffffffffff8111156200257457600080fd5b620025828b828c016200214e565b95505060e089013567ffffffffffffffff811115620025a057600080fd5b620025ae8b828c01620022fd565b94505061010089013567ffffffffffffffff811115620025cd57600080fd5b620025db8b828c016200214e565b93505061012089013567ffffffffffffffff811115620025fa57600080fd5b620026088b828c016200214e565b9250506101406200261c8b828c01620021dd565b9150509295985092959890939650565b6000602082840312156200263f57600080fd5b60006200264f8482850162002273565b91505092915050565b600080604083850312156200266c57600080fd5b60006200267c8582860162002289565b92505060206200268f85828601620023b9565b9150509250929050565b600060208284031215620026ac57600080fd5b600082013567ffffffffffffffff811115620026c757600080fd5b620026d584828501620022fd565b91505092915050565b600060208284031215620026f157600080fd5b600082015167ffffffffffffffff8111156200270c57600080fd5b6200271a848285016200235b565b91505092915050565b6000602082840312156200273657600080fd5b60006200274684828501620023b9565b91505092915050565b6000602082840312156200276257600080fd5b60006200277284828501620023cf565b91505092915050565b620027868162002f2a565b82525050565b620027978162002e91565b620027a28262002e59565b60005b82811015620027da57620027bb85835162002968565b620027c68262002ee9565b9150602085019450600181019050620027a5565b5050505050565b620027ec8162002e9c565b620027f78262002e63565b60005b828110156200282f576200281085835162002979565b6200281b8262002ef6565b9150602085019450600181019050620027fa565b5050505050565b6000620028438262002ea7565b808452602084019350620028578362002e6d565b60005b828110156200288f576200287086835162002979565b6200287b8262002f03565b91506020860195506001810190506200285a565b50849250505092915050565b6000620028a88262002eb2565b80845260208401935083602082028501620028c38562002e7a565b60005b8481101562002902578383038852620028e183835162002a13565b9250620028ee8262002f10565b9150602088019750600181019050620028c6565b508196508694505050505092915050565b6200291e8162002ebd565b620029298262002e87565b60005b8281101562002961576200294285835162002a4f565b6200294d8262002f1d565b91506020850194506001810190506200292c565b5050505050565b620029738162002f4a565b82525050565b620029848162002f56565b82525050565b620029958162002f56565b82525050565b6000620029a88262002ec8565b808452620029be81602086016020860162002fb9565b620029c98162002fef565b602085010191505092915050565b6000620029e48262002ede565b808452620029fa81602086016020860162002fb9565b62002a058162002fef565b602085010191505092915050565b600062002a208262002ed3565b80845262002a3681602086016020860162002fb9565b62002a418162002fef565b602085010191505092915050565b62002a5a8162002f60565b82525050565b600060208201905062002a7760008301846200277b565b92915050565b600060408201905062002a9460008301856200277b565b62002aa3602083018462002968565b9392505050565b600060408201905062002ac160008301856200277b565b818103602083015262002ad58184620029d7565b90509392505050565b60006101808201905062002af6600083018b620027e1565b818103606083015262002b0a818a6200299b565b905062002b1b60808301896200278c565b81810360c083015262002b2f818862002836565b905081810360e083015262002b4581876200289b565b905081810361010083015262002b5c818662002836565b905081810361012083015262002b73818562002836565b905062002b8561014083018462002913565b9998505050505050505050565b6000602082019050818103600083015262002bae81846200289b565b905092915050565b600060208201905062002bcd600083018462002968565b92915050565b600060208201905062002bea600083018462002979565b92915050565b600060208201905062002c0760008301846200298a565b92915050565b600060408201905062002c24600083018562002979565b62002c33602083018462002a4f565b9392505050565b6000602082019050818103600083015262002c568184620029d7565b905092915050565b6000606082019050818103600083015262002c7a8186620029d7565b9050818103602083015262002c908185620029d7565b9050818103604083015262002ca68184620029d7565b9050949350505050565b600060208201905062002cc7600083018462002a4f565b92915050565b600060a08201905062002ce4600083018862002a4f565b818103602083015262002cf88187620029d7565b9050818103604083015262002d0e8186620029d7565b9050818103606083015262002d248185620029d7565b905062002d35608083018462002a4f565b9695505050505050565b6000604051905081810181811067ffffffffffffffff8211171562002d6357600080fd5b8060405250919050565b600067ffffffffffffffff82111562002d8557600080fd5b602082029050919050565b600067ffffffffffffffff82111562002da857600080fd5b602082029050919050565b600067ffffffffffffffff82111562002dcb57600080fd5b602082029050602081019050919050565b600067ffffffffffffffff82111562002df457600080fd5b602082029050919050565b600067ffffffffffffffff82111562002e1757600080fd5b601f19601f8301169050602081019050919050565b600067ffffffffffffffff82111562002e4457600080fd5b601f19601f8301169050602081019050919050565b6000819050919050565b6000819050919050565b6000602082019050919050565b6000602082019050919050565b6000819050919050565b600060029050919050565b600060039050919050565b600081519050919050565b600081519050919050565b600060029050919050565b600081519050919050565b600081519050919050565b600081519050919050565b6000602082019050919050565b6000602082019050919050565b6000602082019050919050565b6000602082019050919050565b6000602082019050919050565b600073ffffffffffffffffffffffffffffffffffffffff82169050919050565b60008115159050919050565b6000819050919050565b6000819050919050565b600073ffffffffffffffffffffffffffffffffffffffff82169050919050565b60008115159050919050565b6000819050919050565b6000819050919050565b82818337600083830152505050565b60005b8381101562002fd957808201518184015260208101905062002fbc565b8381111562002fe9576000848401525b50505050565b6000601f19601f8301169050919050560060806040523480156200001157600080fd5b50604051620022fd380380620022fd833981018060405262000037919081019062000b83565b60016000808a60006003811015156200004c57fe5b602002015160001916600019168152602001908152602001600020819055508760006003811015156200007b57fe5b6020020151600181600019169055508760016003811015156200009a57fe5b6020020151600281600019169055508660039080519060200190620000c192919062000663565b50876002600381101515620000d257fe5b602002015160048160001916905550806000600281101515620000f157fe5b60200201516005819055508560006002811015156200010c57fe5b6020020151151562000134578060016002811015156200012857fe5b60200201516006819055505b62000150858585620001e5640100000000026401000000009004565b8560016002811015156200016057fe5b60200201511515620001b1576000600960006101000a81548160ff021916908360018111156200018c57fe5b0217905550620001ab8262000465640100000000026401000000009004565b620001d7565b6001600960006101000a81548160ff02191690836001811115620001d157fe5b02179055505b505050505050505062000f09565b60008351600781905550600090505b6007548110156200045f5760a06040519081016040528082815260200173__Library_______________________________63ef0b236887858151811015156200023a57fe5b906020019060200201516040518263ffffffff167c01000000000000000000000000000000000000000000000000000000000281526004016200027e919062000d1c565b60006040518083038186803b1580156200029757600080fd5b505af4158015620002ac573d6000803e3d6000fd5b505050506040513d6000823e3d601f19601f82011682018060405250620002d7919081019062000cc6565b81526020018483815181101515620002eb57fe5b90602001906020020151815260200173__Library_______________________________63ef0b236885858151811015156200032357fe5b906020019060200201516040518263ffffffff167c010000000000000000000000000000000000000000000000000000000002815260040162000367919062000d1c565b60006040518083038186803b1580156200038057600080fd5b505af415801562000395573d6000803e3d6000fd5b505050506040513d6000823e3d601f19601f82011682018060405250620003c0919081019062000cc6565b81526020016000815250600a600083815260200190815260200160002060008201518160000155602082015181600101908051906020019062000405929190620006ea565b50604082015181600201908051906020019062000424929190620006ea565b50606082015181600301908051906020019062000443929190620006ea565b50608082015181600401559050508080600101915050620001f4565b50505050565b60008151600881905550600090505b6008548110156200065f5760018101600c600084848151811015156200049657fe5b9060200190602002015160001916600019168152602001908152602001600020819055508181815181101515620004c957fe5b90602001906020020151600d6000838152602001908152602001600020816000191690555060606040519081016040528082815260200173__Library_______________________________63ef0b236885858151811015156200052957fe5b906020019060200201516040518263ffffffff167c01000000000000000000000000000000000000000000000000000000000281526004016200056d919062000d1c565b60006040518083038186803b1580156200058657600080fd5b505af41580156200059b573d6000803e3d6000fd5b505050506040513d6000823e3d601f19601f82011682018060405250620005c6919081019062000cc6565b815260200160001515815250600b60008484815181101515620005e557fe5b90602001906020020151600019166000191681526020019081526020016000206000820151816000015560208201518160010190805190602001906200062d929190620006ea565b5060408201518160020160006101000a81548160ff021916908315150217905550905050808060010191505062000474565b5050565b828054600181600116156101000203166002900490600052602060002090601f016020900481019282601f10620006a657805160ff1916838001178555620006d7565b82800160010185558215620006d7579182015b82811115620006d6578251825591602001919060010190620006b9565b5b509050620006e6919062000771565b5090565b828054600181600116156101000203166002900490600052602060002090601f016020900481019282601f106200072d57805160ff19168380011785556200075e565b828001600101855582156200075e579182015b828111156200075d57825182559160200191906001019062000740565b5b5090506200076d919062000771565b5090565b6200079691905b808211156200079257600081600090555060010162000778565b5090565b90565b600082601f8301121515620007ad57600080fd5b6002620007c4620007be8262000d67565b62000d39565b91508183856020840282011115620007db57600080fd5b60005b838110156200080f5781620007f4888262000a27565b845260208401935060208301925050600181019050620007de565b5050505092915050565b600082601f83011215156200082d57600080fd5b6003620008446200083e8262000d8a565b62000d39565b915081838560208402820111156200085b57600080fd5b60005b838110156200088f578162000874888262000a3d565b8452602084019350602083019250506001810190506200085e565b5050505092915050565b600082601f8301121515620008ad57600080fd5b8151620008c4620008be8262000dad565b62000d39565b91508181835260208401935060208101905083856020840282011115620008ea57600080fd5b60005b838110156200091e578162000903888262000a3d565b845260208401935060208301925050600181019050620008ed565b5050505092915050565b600082601f83011215156200093c57600080fd5b8151620009536200094d8262000dd6565b62000d39565b9150818183526020840193506020810190508360005b838110156200099d578151860162000982888262000ab1565b84526020840193506020830192505060018101905062000969565b5050505092915050565b600082601f8301121515620009bb57600080fd5b6002620009d2620009cc8262000dff565b62000d39565b91508183856020840282011115620009e957600080fd5b60005b8381101562000a1d578162000a02888262000b6d565b845260208401935060208301925050600181019050620009ec565b5050505092915050565b600062000a35825162000eb3565b905092915050565b600062000a4b825162000ebf565b905092915050565b600082601f830112151562000a6757600080fd5b815162000a7e62000a788262000e22565b62000d39565b9150808252602083016020830185838301111562000a9b57600080fd5b62000aa883828462000ed3565b50505092915050565b600082601f830112151562000ac557600080fd5b815162000adc62000ad68262000e4f565b62000d39565b9150808252602083016020830185838301111562000af957600080fd5b62000b0683828462000ed3565b50505092915050565b600082601f830112151562000b2357600080fd5b815162000b3a62000b348262000e7c565b62000d39565b9150808252602083016020830185838301111562000b5757600080fd5b62000b6483828462000ed3565b50505092915050565b600062000b7b825162000ec9565b905092915050565b600080600080600080600080610180898b03121562000ba157600080fd5b600062000bb18b828c0162000819565b985050606089015167ffffffffffffffff81111562000bcf57600080fd5b62000bdd8b828c0162000a53565b975050608062000bf08b828c0162000799565b96505060c089015167ffffffffffffffff81111562000c0e57600080fd5b62000c1c8b828c0162000899565b95505060e089015167ffffffffffffffff81111562000c3a57600080fd5b62000c488b828c0162000928565b94505061010089015167ffffffffffffffff81111562000c6757600080fd5b62000c758b828c0162000899565b93505061012089015167ffffffffffffffff81111562000c9457600080fd5b62000ca28b828c0162000899565b92505061014062000cb68b828c01620009a7565b9150509295985092959890939650565b60006020828403121562000cd957600080fd5b600082015167ffffffffffffffff81111562000cf457600080fd5b62000d028482850162000b0f565b91505092915050565b62000d168162000ea9565b82525050565b600060208201905062000d33600083018462000d0b565b92915050565b6000604051905081810181811067ffffffffffffffff8211171562000d5d57600080fd5b8060405250919050565b600067ffffffffffffffff82111562000d7f57600080fd5b602082029050919050565b600067ffffffffffffffff82111562000da257600080fd5b602082029050919050565b600067ffffffffffffffff82111562000dc557600080fd5b602082029050602081019050919050565b600067ffffffffffffffff82111562000dee57600080fd5b602082029050602081019050919050565b600067ffffffffffffffff82111562000e1757600080fd5b602082029050919050565b600067ffffffffffffffff82111562000e3a57600080fd5b601f19601f8301169050602081019050919050565b600067ffffffffffffffff82111562000e6757600080fd5b601f19601f8301169050602081019050919050565b600067ffffffffffffffff82111562000e9457600080fd5b601f19601f8301169050602081019050919050565b6000819050919050565b60008115159050919050565b6000819050919050565b6000819050919050565b60005b8381101562000ef357808201518184015260208101905062000ed6565b8381111562000f03576000848401525b50505050565b6113e48062000f196000396000f30060806040526004361061011d576000357c0100000000000000000000000000000000000000000000000000000000900463ffffffff1680630838e71b146101225780631163fd2d1461015f5780631a0925411461019c5780632abe5f11146101c757806339c79e0c146102045780634b4fd03b1461022d57806357eadb04146102585780636813aaf01461029557806369d0968b146102c057806378f305c6146102fd578063864444ae14610328578063893d20e814610353578063939eab2e1461037e5780639ef1204c146103a9578063b1356488146103d2578063b315c597146103fd578063e13804a71461043a578063eb4d69d514610477578063eeac39d8146104b4578063efdfe6f8146104f1578063ff3c1a8f1461052e575b600080fd5b34801561012e57600080fd5b50610149600480360361014491908101906111cf565b610559565b6040516101569190611291565b60405180910390f35b34801561016b57600080fd5b5061018660048036036101819190810190611129565b610611565b604051610193919061125b565b60405180910390f35b3480156101a857600080fd5b506101b1610646565b6040516101be9190611291565b60405180910390f35b3480156101d357600080fd5b506101ee60048036036101e991908101906111cf565b6106f7565b6040516101fb9190611291565b60405180910390f35b34801561021057600080fd5b5061022b60048036036102269190810190611129565b6107bb565b005b34801561023957600080fd5b50610242610800565b60405161024f91906112b3565b60405180910390f35b34801561026457600080fd5b5061027f600480360361027a9190810190611129565b610822565b60405161028c9190611291565b60405180910390f35b3480156102a157600080fd5b506102aa6108f5565b6040516102b791906112b3565b60405180910390f35b3480156102cc57600080fd5b506102e760048036036102e29190810190611129565b6108fb565b6040516102f4919061125b565b60405180910390f35b34801561030957600080fd5b50610312610923565b60405161031f91906112b3565b60405180910390f35b34801561033457600080fd5b5061033d61092d565b60405161034a91906112b3565b60405180910390f35b34801561035f57600080fd5b50610368610933565b6040516103759190611291565b60405180910390f35b34801561038a57600080fd5b506103936109e4565b6040516103a09190611291565b60405180910390f35b3480156103b557600080fd5b506103d060048036036103cb9190810190611152565b610a86565b005b3480156103de57600080fd5b506103e7610d7c565b6040516103f491906112b3565b60405180910390f35b34801561040957600080fd5b50610424600480360361041f91908101906111cf565b610d86565b60405161043191906112b3565b60405180910390f35b34801561044657600080fd5b50610461600480360361045c91908101906111cf565b610da6565b60405161046e9190611291565b60405180910390f35b34801561048357600080fd5b5061049e60048036036104999190810190611129565b610e5e565b6040516104ab91906112b3565b60405180910390f35b3480156104c057600080fd5b506104db60048036036104d69190810190611129565b610e76565b6040516104e8919061125b565b60405180910390f35b3480156104fd57600080fd5b50610518600480360361051391908101906111cf565b610e9d565b6040516105259190611291565b60405180910390f35b34801561053a57600080fd5b50610543610f55565b6040516105509190611291565b60405180910390f35b6060600a60008381526020019081526020016000206002018054600181600116156101000203166002900480601f0160208091040260200160405190810160405280929190818152602001828054600181600116156101000203166002900480156106055780601f106105da57610100808354040283529160200191610605565b820191906000526020600020905b8154815290600101906020018083116105e857829003601f168201915b50505050509050919050565b6000600b6000836000191660001916815260200190815260200160002060020160009054906101000a900460ff169050919050565b606073__Library_______________________________63ef0b23686004546040518263ffffffff167c010000000000000000000000000000000000000000000000000000000002815260040161069d9190611276565b60006040518083038186803b1580156106b557600080fd5b505af41580156106c9573d6000803e3d6000fd5b505050506040513d6000823e3d601f19601f820116820180604052506106f2919081019061118e565b905090565b606073__Library_______________________________63ef0b2368600d6000858152602001908152602001600020546040518263ffffffff167c010000000000000000000000000000000000000000000000000000000002815260040161075f9190611276565b60006040518083038186803b15801561077757600080fd5b505af415801561078b573d6000803e3d6000fd5b505050506040513d6000823e3d601f19601f820116820180604052506107b4919081019061118e565b9050919050565b6000806000836000191660001916815260200190815260200160002054141515156107e557600080fd5b60006006541415156107f657600080fd5b4260068190555050565b6000600960009054906101000a900460ff16600181111561081d57fe5b905090565b6060600a6000600e600085600019166000191681526020019081526020016000205481526020019081526020016000206001018054600181600116156101000203166002900480601f0160208091040260200160405190810160405280929190818152602001828054600181600116156101000203166002900480156108e95780601f106108be576101008083540402835291602001916108e9565b820191906000526020600020905b8154815290600101906020018083116108cc57829003601f168201915b50505050509050919050565b60085481565b600080600c600084600019166000191681526020019081526020016000205414159050919050565b6000600554905090565b60075481565b606073__Library_______________________________63ef0b23686001546040518263ffffffff167c010000000000000000000000000000000000000000000000000000000002815260040161098a9190611276565b60006040518083038186803b1580156109a257600080fd5b505af41580156109b6573d6000803e3d6000fd5b505050506040513d6000823e3d601f19601f820116820180604052506109df919081019061118e565b905090565b606060038054600181600116156101000203166002900480601f016020809104026020016040519081016040528092919081815260200182805460018160011615610100020316600290048015610a7c5780601f10610a5157610100808354040283529160200191610a7c565b820191906000526020600020905b815481529060010190602001808311610a5f57829003601f168201915b5050505050905090565b60006001811115610a9357fe5b600960009054906101000a900460ff166001811115610aae57fe5b1415610ae4576000600c600084600019166000191681526020019081526020016000205414151515610adf57600080fd5b610c89565b6000600c60008460001916600019168152602001908152602001600020541415610c8857600854600c600084600019166000191681526020019081526020016000208190555081600d600060085481526020019081526020016000208160001916905550606060405190810160405280600854815260200173__Library_______________________________63ef0b2368856040518263ffffffff167c0100000000000000000000000000000000000000000000000000000000028152600401610baf9190611276565b60006040518083038186803b158015610bc757600080fd5b505af4158015610bdb573d6000803e3d6000fd5b505050506040513d6000823e3d601f19601f82011682018060405250610c04919081019061118e565b815260200160001515815250600b60008460001916600019168152602001908152602001600020600082015181600001556020820151816001019080519060200190610c51929190611006565b5060408201518160020160006101000a81548160ff0219169083151502179055509050506008600081548092919060010191905055505b5b6000600654141515610ca65760065442101515610ca557600080fd5b5b600b6000836000191660001916815260200190815260200160002060020160009054906101000a900460ff16151515610cde57600080fd5b60008110158015610cf0575060075481105b1515610cfb57600080fd5b6001600b6000846000191660001916815260200190815260200160002060020160006101000a81548160ff02191690831515021790555080600e6000846000191660001916815260200190815260200160002081905550600a6000828152602001908152602001600020600401600081548092919060010191905055505050565b6000600654905090565b6000600a6000838152602001908152602001600020600401549050919050565b6060600a60008381526020019081526020016000206001018054600181600116156101000203166002900480601f016020809104026020016040519081016040528092919081815260200182805460018160011615610100020316600290048015610e525780601f10610e2757610100808354040283529160200191610e52565b820191906000526020600020905b815481529060010190602001808311610e3557829003601f168201915b50505050509050919050565b60006020528060005260406000206000915090505481565b60008060008084600019166000191681526020019081526020016000205414159050919050565b6060600a60008381526020019081526020016000206003018054600181600116156101000203166002900480601f016020809104026020016040519081016040528092919081815260200182805460018160011615610100020316600290048015610f495780601f10610f1e57610100808354040283529160200191610f49565b820191906000526020600020905b815481529060010190602001808311610f2c57829003601f168201915b50505050509050919050565b606073__Library_______________________________63ef0b23686002546040518263ffffffff167c0100000000000000000000000000000000000000000000000000000000028152600401610fac9190611276565b60006040518083038186803b158015610fc457600080fd5b505af4158015610fd8573d6000803e3d6000fd5b505050506040513d6000823e3d601f19601f82011682018060405250611001919081019061118e565b905090565b828054600181600116156101000203166002900490600052602060002090601f016020900481019282601f1061104757805160ff1916838001178555611075565b82800160010185558215611075579182015b82811115611074578251825591602001919060010190611059565b5b5090506110829190611086565b5090565b6110a891905b808211156110a457600081600090555060010161108c565b5090565b90565b60006110b78235611352565b905092915050565b600082601f83011215156110d257600080fd5b81516110e56110e0826112fb565b6112ce565b9150808252602083016020830185838301111561110157600080fd5b61110c838284611366565b50505092915050565b6000611121823561135c565b905092915050565b60006020828403121561113b57600080fd5b6000611149848285016110ab565b91505092915050565b6000806040838503121561116557600080fd5b6000611173858286016110ab565b925050602061118485828601611115565b9150509250929050565b6000602082840312156111a057600080fd5b600082015167ffffffffffffffff8111156111ba57600080fd5b6111c6848285016110bf565b91505092915050565b6000602082840312156111e157600080fd5b60006111ef84828501611115565b91505092915050565b61120181611332565b82525050565b6112108161133e565b82525050565b600061122182611327565b808452611235816020860160208601611366565b61123e81611399565b602085010191505092915050565b61125581611348565b82525050565b600060208201905061127060008301846111f8565b92915050565b600060208201905061128b6000830184611207565b92915050565b600060208201905081810360008301526112ab8184611216565b905092915050565b60006020820190506112c8600083018461124c565b92915050565b6000604051905081810181811067ffffffffffffffff821117156112f157600080fd5b8060405250919050565b600067ffffffffffffffff82111561131257600080fd5b601f19601f8301169050602081019050919050565b600081519050919050565b60008115159050919050565b6000819050919050565b6000819050919050565b6000819050919050565b6000819050919050565b60005b83811015611384578082015181840152602081019050611369565b83811115611393576000848401525b50505050565b6000601f19601f83011690509190505600a265627a7a723058207d3168c3acd58e43e9a8487f656427beec70c6099810559bd490c1d331e041c66c6578706572696d656e74616cf50037a265627a7a72305820f24231c35ce310ffc34e572d987de5a99411121ef2b0db4e8202488e99e193816c6578706572696d656e74616cf50037",
  "source": "pragma solidity ^0.4.24;\npragma experimental ABIEncoderV2;\n\nimport \"./Election.sol\";\nimport './Library.sol';\nimport './strings.sol';\n\ncontract ElectionFactory {\n  using strings for *;\n\n  address[] public elections;\n\n  constructor () public {\n  }\n\n  event electionCreated(address addr, string owner);\n  event closedElection(address addr, string owner);\n  event votedEvent(address addr);\n\n  function getImgs(string _cImg) public pure returns (string[]) {\n    strings.slice memory s = _cImg.toSlice();\n    strings.slice memory delim = \"|\".toSlice();\n    string[] memory parts = new string[](s.count(delim) + 1);\n    for (uint i = 0; i < parts.length; i++) {\n      parts[i] = s.split(delim).toString();\n    }\n    return parts;\n  }\n\n  function createElection (\n    bytes32[3] _content, bytes _imgURL, bool[2] _setup,\n    bytes32[] _candidates,\n    string _cImg,\n    bytes32[] _candidatesDescription,\n    bytes32[] voters, uint[2] _start_end\n  ) public {\n    address addr = new Election(\n      _content, _imgURL, _setup,\n      _candidates, getImgs(_cImg), _candidatesDescription,\n      voters, _start_end);\n    elections.push(addr);\n\n    emit electionCreated(addr, Library.bytes32ToStr(_content[0]));\n  }\n\n  function getSize() public view returns (uint) {\n    return elections.length;\n  }\n\n  function getTitle(address addr) public view returns (string) {\n    Election e = Election(addr);\n\n    return e.getTitle();\n  }\n  function getContent(address addr) public view returns (string, string, string) {\n    Election e = Election(addr);\n\n    return (e.getTitle(), e.getImgURL(), e.getDescription());\n  }\n  function getOwner(address addr) public view returns (string) {\n    Election e = Election(addr);\n\n    return e.getOwner();\n  }\n  function getCandidateSize(address addr) public view returns (uint) {\n    Election e = Election(addr);\n\n    return e.candSize();\n  }\n  function getVoterSize(address addr) public view returns (uint) {\n    Election e = Election(addr);\n\n    return e.votrSize();\n  }\n  function getVoterEmail(address addr, uint i) public view returns (string) {\n    Election e = Election(addr);\n\n    return e.getVoterEmail(i);\n  }\n  function getVoterElectionAddress(bytes32 _email, uint i) public view returns (address, bool) {\n    Election e = Election(elections[i]);\n\n    if (e.getMode() == 1) {\n      return (elections[i], true);\n    }\n\n    if (e.isVoter(_email)) {\n      return (elections[i], true);\n    }\n    return (0, false);\n  }\n  function isVoter(address addr, bytes32 _email) public view returns (bool) {\n    Election e = Election(addr);\n\n    if (e.getMode() == 1) {\n      return true;\n    }\n\n    if (e.isVoter(_email)) {\n      return true;\n    }\n\n    return false;\n  }\n  function getOwnerElectionAddress(bytes32 _email, uint i) public view returns (address, bool) {\n    Election e = Election(elections[i]);\n\n    if (e.isOwner(_email)) {\n      return (elections[i], true);\n    }\n    return (0, false);\n  }\n  function isVoted(address addr, bytes32 _email) public view returns (bool) {\n    Election e = Election(addr);\n\n    return e.isVoted(_email);\n  }\n  function getVotedTo(address addr, bytes32 _email) public view returns (string) {\n    Election e = Election(addr);\n\n    return e.getVotedTo(_email);\n  }\n\n  function getCandidate(address addr, uint i) public view returns (uint, string, string, string, uint) {\n    Election e = Election(addr);\n\n    return (i, e.getCandidateName(i), e.getCandidateImgURL(i), e.getCandidateDescription(i), e.getCandidateVoteCount(i));\n  }\n\n  function vote(address addr, bytes32 _email, uint _candidateId) public {\n    Election e = Election(addr);\n\n    e.vote(_email, _candidateId);\n\n    emit votedEvent(addr);\n  }\n\n  function close(address addr, bytes32 _email) public {\n    Election e = Election(addr);\n\n    e.close(_email);\n\n    emit closedElection(addr, Library.bytes32ToStr(_email));\n  }\n  function getStartDate(address addr) public view returns (uint) {\n    Election e = Election(addr);\n\n    return e.getStartDate();\n  }\n  function getEndDate(address addr) public view returns (uint) {\n    Election e = Election(addr);\n\n    return e.getEndDate();\n  }\n  function getMode(address addr) public view returns (uint) {\n    Election e = Election(addr);\n\n    return e.getMode();\n  }\n}\n",
  "sourcePath": "/Users/kangyi/Projects/react_bc_vote/contracts/ElectionFactory.sol",
  "compiler": {
    "name": "solc",
    "version": "0.4.24+commit.e67f0147.Emscripten.clang"
  },
  "schemaVersion": "2.0.1",
  "updatedAt": "2018-11-14T11:26:51.405Z"
}