{
  "contractName": "Election",
  "abi": [
    {
      "constant": true,
      "inputs": [],
      "name": "votrSize",
      "outputs": [
        {
          "name": "",
          "type": "uint256"
        }
      ],
      "payable": false,
      "stateMutability": "view",
      "type": "function"
    },
    {
      "constant": true,
      "inputs": [],
      "name": "candSize",
      "outputs": [
        {
          "name": "",
          "type": "uint256"
        }
      ],
      "payable": false,
      "stateMutability": "view",
      "type": "function"
    },
    {
      "constant": true,
      "inputs": [
        {
          "name": "",
          "type": "bytes32"
        }
      ],
      "name": "ownerId",
      "outputs": [
        {
          "name": "",
          "type": "uint256"
        }
      ],
      "payable": false,
      "stateMutability": "view",
      "type": "function"
    },
    {
      "inputs": [
        {
          "name": "_owner",
          "type": "bytes32"
        },
        {
          "name": "_title",
          "type": "bytes"
        },
        {
          "name": "_public",
          "type": "bool"
        },
        {
          "name": "_candidates",
          "type": "bytes32[]"
        },
        {
          "name": "_voters",
          "type": "bytes32[]"
        },
        {
          "name": "_manualStop",
          "type": "bool"
        },
        {
          "name": "_start",
          "type": "uint256"
        },
        {
          "name": "_end",
          "type": "uint256"
        }
      ],
      "payable": false,
      "stateMutability": "nonpayable",
      "type": "constructor"
    },
    {
      "constant": true,
      "inputs": [
        {
          "name": "_email",
          "type": "bytes32"
        }
      ],
      "name": "isVoter",
      "outputs": [
        {
          "name": "",
          "type": "bool"
        }
      ],
      "payable": false,
      "stateMutability": "view",
      "type": "function"
    },
    {
      "constant": true,
      "inputs": [
        {
          "name": "_email",
          "type": "bytes32"
        }
      ],
      "name": "isOwner",
      "outputs": [
        {
          "name": "",
          "type": "bool"
        }
      ],
      "payable": false,
      "stateMutability": "view",
      "type": "function"
    },
    {
      "constant": true,
      "inputs": [
        {
          "name": "_email",
          "type": "bytes32"
        }
      ],
      "name": "isVoted",
      "outputs": [
        {
          "name": "",
          "type": "bool"
        }
      ],
      "payable": false,
      "stateMutability": "view",
      "type": "function"
    },
    {
      "constant": true,
      "inputs": [
        {
          "name": "_email",
          "type": "bytes32"
        }
      ],
      "name": "getVotedTo",
      "outputs": [
        {
          "name": "",
          "type": "string"
        }
      ],
      "payable": false,
      "stateMutability": "view",
      "type": "function"
    },
    {
      "constant": false,
      "inputs": [
        {
          "name": "_email",
          "type": "bytes32"
        },
        {
          "name": "_candidateId",
          "type": "uint256"
        }
      ],
      "name": "vote",
      "outputs": [],
      "payable": false,
      "stateMutability": "nonpayable",
      "type": "function"
    },
    {
      "constant": true,
      "inputs": [],
      "name": "getTitle",
      "outputs": [
        {
          "name": "",
          "type": "string"
        }
      ],
      "payable": false,
      "stateMutability": "view",
      "type": "function"
    },
    {
      "constant": true,
      "inputs": [],
      "name": "getOwner",
      "outputs": [
        {
          "name": "",
          "type": "string"
        }
      ],
      "payable": false,
      "stateMutability": "view",
      "type": "function"
    },
    {
      "constant": true,
      "inputs": [
        {
          "name": "i",
          "type": "uint256"
        }
      ],
      "name": "getCandidateName",
      "outputs": [
        {
          "name": "",
          "type": "string"
        }
      ],
      "payable": false,
      "stateMutability": "view",
      "type": "function"
    },
    {
      "constant": true,
      "inputs": [
        {
          "name": "i",
          "type": "uint256"
        }
      ],
      "name": "getCandidateVoteCount",
      "outputs": [
        {
          "name": "",
          "type": "uint256"
        }
      ],
      "payable": false,
      "stateMutability": "view",
      "type": "function"
    },
    {
      "constant": false,
      "inputs": [
        {
          "name": "_email",
          "type": "bytes32"
        }
      ],
      "name": "close",
      "outputs": [],
      "payable": false,
      "stateMutability": "nonpayable",
      "type": "function"
    },
    {
      "constant": true,
      "inputs": [],
      "name": "getStartDate",
      "outputs": [
        {
          "name": "",
          "type": "uint256"
        }
      ],
      "payable": false,
      "stateMutability": "view",
      "type": "function"
    },
    {
      "constant": true,
      "inputs": [],
      "name": "getEndDate",
      "outputs": [
        {
          "name": "",
          "type": "uint256"
        }
      ],
      "payable": false,
      "stateMutability": "view",
      "type": "function"
    },
    {
      "constant": true,
      "inputs": [],
      "name": "getMode",
      "outputs": [
        {
          "name": "",
          "type": "uint256"
        }
      ],
      "payable": false,
      "stateMutability": "view",
      "type": "function"
    }
  ],
  "bytecode": "0x60806040523480156200001157600080fd5b50604051620014f3380380620014f3833981018060405281019080805190602001909291908051820192919060200180519060200190929190805182019291906020018051820192919060200180519060200190929190805190602001909291908051906020019092919050505060016000808a600019166000191681526020019081526020016000208190555087600181600019169055508660029080519060200190620000c29291906200054e565b5081600381905550821515620000da57806004819055505b620000f48562000175640100000000026401000000009004565b85151562000141576000600760006101000a81548160ff021916908360018111156200011c57fe5b02179055506200013b8462000328640100000000026401000000009004565b62000167565b6001600760006101000a81548160ff021916908360018111156200016157fe5b02179055505b505050505050505062000684565b60008151600581905550600090505b600554811015620003245760606040519081016040528082815260200173__Type__________________________________63ef0b23688585815181101515620001ca57fe5b906020019060200201516040518263ffffffff167c010000000000000000000000000000000000000000000000000000000002815260040180826000191660001916815260200191505060006040518083038186803b1580156200022d57600080fd5b505af415801562000242573d6000803e3d6000fd5b505050506040513d6000823e3d601f19601f8201168201806040525060208110156200026d57600080fd5b8101908080516401000000008111156200028657600080fd5b828101905060208101848111156200029d57600080fd5b8151856001820283011164010000000082111715620002bb57600080fd5b5050929190505050815260200160008152506008600083815260200190815260200160002060008201518160000155602082015181600101908051906020019062000308929190620005d5565b5060408201518160020155905050808060010191505062000184565b5050565b60008151600681905550600090505b6006548110156200054a5760018101600a600084848151811015156200035957fe5b90602001906020020151600019166000191681526020019081526020016000208190555060606040519081016040528082815260200173__Type__________________________________63ef0b23688585815181101515620003b857fe5b906020019060200201516040518263ffffffff167c010000000000000000000000000000000000000000000000000000000002815260040180826000191660001916815260200191505060006040518083038186803b1580156200041b57600080fd5b505af415801562000430573d6000803e3d6000fd5b505050506040513d6000823e3d601f19601f8201168201806040525060208110156200045b57600080fd5b8101908080516401000000008111156200047457600080fd5b828101905060208101848111156200048b57600080fd5b8151856001820283011164010000000082111715620004a957600080fd5b5050929190505050815260200160001515815250600960008484815181101515620004d057fe5b906020019060200201516000191660001916815260200190815260200160002060008201518160000155602082015181600101908051906020019062000518929190620005d5565b5060408201518160020160006101000a81548160ff021916908315150217905550905050808060010191505062000337565b5050565b828054600181600116156101000203166002900490600052602060002090601f016020900481019282601f106200059157805160ff1916838001178555620005c2565b82800160010185558215620005c2579182015b82811115620005c1578251825591602001919060010190620005a4565b5b509050620005d191906200065c565b5090565b828054600181600116156101000203166002900490600052602060002090601f016020900481019282601f106200061857805160ff191683800117855562000649565b8280016001018555821562000649579182015b82811115620006485782518255916020019190600101906200062b565b5b5090506200065891906200065c565b5090565b6200068191905b808211156200067d57600081600090555060010162000663565b5090565b90565b610e5f80620006946000396000f3006080604052600436106100e6576000357c0100000000000000000000000000000000000000000000000000000000900463ffffffff1680631163fd2d146100eb57806339c79e0c146101345780634b4fd03b1461016557806357eadb04146101905780636813aaf01461023a57806369d0968b1461026557806378f305c6146102ae578063864444ae146102d9578063893d20e8146103045780639ef1204c14610394578063b1356488146103cf578063b315c597146103fa578063e13804a71461043b578063eb4d69d5146104e1578063eeac39d814610526578063ff3c1a8f1461056f575b600080fd5b3480156100f757600080fd5b5061011a60048036038101908080356000191690602001909291905050506105ff565b604051808215151515815260200191505060405180910390f35b34801561014057600080fd5b506101636004803603810190808035600019169060200190929190505050610634565b005b34801561017157600080fd5b5061017a610679565b6040518082815260200191505060405180910390f35b34801561019c57600080fd5b506101bf600480360381019080803560001916906020019092919050505061069b565b6040518080602001828103825283818151815260200191508051906020019080838360005b838110156101ff5780820151818401526020810190506101e4565b50505050905090810190601f16801561022c5780820380516001836020036101000a031916815260200191505b509250505060405180910390f35b34801561024657600080fd5b5061024f61076e565b6040518082815260200191505060405180910390f35b34801561027157600080fd5b506102946004803603810190808035600019169060200190929190505050610774565b604051808215151515815260200191505060405180910390f35b3480156102ba57600080fd5b506102c361079c565b6040518082815260200191505060405180910390f35b3480156102e557600080fd5b506102ee6107a6565b6040518082815260200191505060405180910390f35b34801561031057600080fd5b506103196107ac565b6040518080602001828103825283818151815260200191508051906020019080838360005b8381101561035957808201518184015260208101905061033e565b50505050905090810190601f1680156103865780820380516001836020036101000a031916815260200191505b509250505060405180910390f35b3480156103a057600080fd5b506103cd6004803603810190808035600019169060200190929190803590602001909291905050506108b9565b005b3480156103db57600080fd5b506103e4610bcb565b6040518082815260200191505060405180910390f35b34801561040657600080fd5b5061042560048036038101908080359060200190929190505050610bd5565b6040518082815260200191505060405180910390f35b34801561044757600080fd5b5061046660048036038101908080359060200190929190505050610bf5565b6040518080602001828103825283818151815260200191508051906020019080838360005b838110156104a657808201518184015260208101905061048b565b50505050905090810190601f1680156104d35780820380516001836020036101000a031916815260200191505b509250505060405180910390f35b3480156104ed57600080fd5b506105106004803603810190808035600019169060200190929190505050610cad565b6040518082815260200191505060405180910390f35b34801561053257600080fd5b506105556004803603810190808035600019169060200190929190505050610cc5565b604051808215151515815260200191505060405180910390f35b34801561057b57600080fd5b50610584610cec565b6040518080602001828103825283818151815260200191508051906020019080838360005b838110156105c45780820151818401526020810190506105a9565b50505050905090810190601f1680156105f15780820380516001836020036101000a031916815260200191505b509250505060405180910390f35b600060096000836000191660001916815260200190815260200160002060020160009054906101000a900460ff169050919050565b60008060008360001916600019168152602001908152602001600020541415151561065e57600080fd5b600060045414151561066f57600080fd5b4260048190555050565b6000600760009054906101000a900460ff16600181111561069657fe5b905090565b606060086000600b600085600019166000191681526020019081526020016000205481526020019081526020016000206001018054600181600116156101000203166002900480601f0160208091040260200160405190810160405280929190818152602001828054600181600116156101000203166002900480156107625780601f1061073757610100808354040283529160200191610762565b820191906000526020600020905b81548152906001019060200180831161074557829003601f168201915b50505050509050919050565b60065481565b600080600a600084600019166000191681526020019081526020016000205414159050919050565b6000600354905090565b60055481565b606073__Type__________________________________63ef0b23686001546040518263ffffffff167c010000000000000000000000000000000000000000000000000000000002815260040180826000191660001916815260200191505060006040518083038186803b15801561082357600080fd5b505af4158015610837573d6000803e3d6000fd5b505050506040513d6000823e3d601f19601f82011682018060405250602081101561086157600080fd5b81019080805164010000000081111561087957600080fd5b8281019050602081018481111561088f57600080fd5b81518560018202830111640100000000821117156108ac57600080fd5b5050929190505050905090565b600060018111156108c657fe5b600760009054906101000a900460ff1660018111156108e157fe5b1415610917576000600a60008460001916600019168152602001908152602001600020541415151561091257600080fd5b610ad8565b6000600a60008460001916600019168152602001908152602001600020541415610ad757606060405190810160405280600654815260200173__Type__________________________________63ef0b2368856040518263ffffffff167c010000000000000000000000000000000000000000000000000000000002815260040180826000191660001916815260200191505060006040518083038186803b1580156109c257600080fd5b505af41580156109d6573d6000803e3d6000fd5b505050506040513d6000823e3d601f19601f820116820180604052506020811015610a0057600080fd5b810190808051640100000000811115610a1857600080fd5b82810190506020810184811115610a2e57600080fd5b8151856001820283011164010000000082111715610a4b57600080fd5b5050929190505050815260200160001515815250600960008460001916600019168152602001908152602001600020600082015181600001556020820151816001019080519060200190610aa0929190610d8e565b5060408201518160020160006101000a81548160ff0219169083151502179055509050506006600081548092919060010191905055505b5b6000600454141515610af55760045442101515610af457600080fd5b5b60096000836000191660001916815260200190815260200160002060020160009054906101000a900460ff16151515610b2d57600080fd5b60008110158015610b3f575060055481105b1515610b4a57600080fd5b600160096000846000191660001916815260200190815260200160002060020160006101000a81548160ff02191690831515021790555080600b600084600019166000191681526020019081526020016000208190555060086000828152602001908152602001600020600201600081548092919060010191905055505050565b6000600454905090565b600060086000838152602001908152602001600020600201549050919050565b6060600860008381526020019081526020016000206001018054600181600116156101000203166002900480601f016020809104026020016040519081016040528092919081815260200182805460018160011615610100020316600290048015610ca15780601f10610c7657610100808354040283529160200191610ca1565b820191906000526020600020905b815481529060010190602001808311610c8457829003601f168201915b50505050509050919050565b60006020528060005260406000206000915090505481565b60008060008084600019166000191681526020019081526020016000205414159050919050565b606060028054600181600116156101000203166002900480601f016020809104026020016040519081016040528092919081815260200182805460018160011615610100020316600290048015610d845780601f10610d5957610100808354040283529160200191610d84565b820191906000526020600020905b815481529060010190602001808311610d6757829003601f168201915b5050505050905090565b828054600181600116156101000203166002900490600052602060002090601f016020900481019282601f10610dcf57805160ff1916838001178555610dfd565b82800160010185558215610dfd579182015b82811115610dfc578251825591602001919060010190610de1565b5b509050610e0a9190610e0e565b5090565b610e3091905b80821115610e2c576000816000905550600101610e14565b5090565b905600a165627a7a7230582089ae8e0b539fb84ce4c4d6779be95b26653be462fd76a0a2077a8e19d3d901750029",
  "source": "pragma solidity ^0.4.24;\n\nimport \"./Type.sol\";\n\ncontract Election {\n  mapping(bytes32 => uint) public ownerId;\n  bytes32 private owner;\n  bytes private title;\n  uint private startDate;\n  uint private endDate;\n  uint public candSize;\n  uint public votrSize;\n  Mode private mode;\n\n  enum Mode { Private, Public }\n\n  mapping(uint => Candidate) private candidates;\n  mapping(bytes32 => Voter) private voters;\n  mapping(bytes32 => uint) private voterId;\n  mapping(bytes32 => uint) private votedTo;\n  mapping(bytes32 => uint) private pubVoterId;\n\n  struct Candidate {\n    uint id;\n    string name;\n    uint voteCount;\n  }\n\n  struct Voter {\n    uint id;\n    string email;\n    bool voted;\n  }\n\n  constructor (\n    bytes32 _owner, bytes _title, bool _public,\n    bytes32[] _candidates, bytes32[] _voters,\n    bool _manualStop, uint _start, uint _end\n  ) public {\n    ownerId[_owner] = 1;\n    owner = _owner;\n    title = _title;\n    startDate = _start;\n    if (!_manualStop) {\n      endDate = _end;\n    }\n    addCandidates(_candidates);\n\n    if (!_public) {\n      mode = Mode.Private;\n      addVoters(_voters);\n    } else {\n      mode = Mode.Public;\n    }\n\n  }\n\n  function addCandidates(bytes32[] _names) private {\n    candSize = _names.length;\n\n    for (uint i = 0; i < candSize; i++) {\n      candidates[i] = Candidate(i, Type.bytes32ToStr(_names[i]), 0);\n    }\n  }\n\n  function addVoters(bytes32[] _emails) private {\n    votrSize = _emails.length;\n\n    for (uint i = 0; i < votrSize; i++) {\n      voterId[_emails[i]] = i + 1;\n      voters[_emails[i]] = Voter(i, Type.bytes32ToStr(_emails[i]), false);\n    }\n  }\n  function isVoter(bytes32 _email) public view returns (bool) {\n    return (voterId[_email] != 0);\n  }\n  function isOwner(bytes32 _email) public view returns (bool) {\n    return (ownerId[_email] != 0);\n  }\n  function isVoted(bytes32 _email) public view returns (bool) {\n    return (voters[_email].voted);\n  }\n  function getVotedTo(bytes32 _email) public view returns (string) {\n    return (candidates[votedTo[_email]].name);\n  }\n\n  function vote (bytes32 _email, uint _candidateId) public {\n    if (mode == Mode.Private) {\n      require(voterId[_email] != 0);\n    } else {\n      if (voterId[_email] == 0) {\n        voters[_email] = Voter(votrSize, Type.bytes32ToStr(_email), false);\n        votrSize++;\n      }\n    }\n\n    if (endDate != 0) {\n      // Due date\n      require(now < endDate);\n    }\n\n    // require that they haven't voted before\n    require(!voters[_email].voted);\n\n    // require a valid candidate\n    require(_candidateId >= 0 && _candidateId < candSize);\n\n    // record the voter has voted\n    voters[_email].voted = true;\n\n    // update the voter vote to\n    votedTo[_email] = _candidateId;\n\n    // update candidate vote Count\n    candidates[_candidateId].voteCount ++;\n  }\n\n  function getTitle() public view returns (string) {\n    return string(title);\n  }\n  function getOwner() public view returns (string) {\n    return Type.bytes32ToStr(owner);\n  }\n  // Candidate\n  function getCandidateName(uint i) public view returns (string) {\n    return candidates[i].name;\n  }\n  function getCandidateVoteCount(uint i) public view returns (uint) {\n    return candidates[i].voteCount;\n  }\n  function close(bytes32 _email) public {\n    require(ownerId[_email] != 0);\n\n    // Is manual close\n    require(endDate == 0);\n\n    endDate = now;\n  }\n\n  function getStartDate() public view returns (uint) {\n    return startDate;\n  }\n  function getEndDate() public view returns (uint) {\n    return endDate;\n  }\n  function getMode() public view returns (uint) {\n    return uint(mode);\n  }\n}\n",
  "sourcePath": "/Users/kangyi/Projects/react_bc_vote/contracts/Election.sol",
  "compiler": {
    "name": "solc",
    "version": "0.4.24+commit.e67f0147.Emscripten.clang"
  },
  "schemaVersion": "2.0.1",
  "updatedAt": "2018-11-02T04:53:10.281Z"
}