{
  "contractName": "Election",
  "abi": [
    {
      "constant": true,
      "inputs": [],
      "name": "votrSize",
      "outputs": [
        {
          "name": "",
          "type": "uint256"
        }
      ],
      "payable": false,
      "stateMutability": "view",
      "type": "function"
    },
    {
      "constant": true,
      "inputs": [],
      "name": "candSize",
      "outputs": [
        {
          "name": "",
          "type": "uint256"
        }
      ],
      "payable": false,
      "stateMutability": "view",
      "type": "function"
    },
    {
      "constant": true,
      "inputs": [
        {
          "name": "",
          "type": "bytes32"
        }
      ],
      "name": "ownerId",
      "outputs": [
        {
          "name": "",
          "type": "uint256"
        }
      ],
      "payable": false,
      "stateMutability": "view",
      "type": "function"
    },
    {
      "inputs": [
        {
          "name": "_owner",
          "type": "bytes32"
        },
        {
          "name": "_title",
          "type": "bytes"
        },
        {
          "name": "_public",
          "type": "bool"
        },
        {
          "name": "_candidates",
          "type": "bytes32[]"
        },
        {
          "name": "_voters",
          "type": "bytes32[]"
        },
        {
          "name": "_manual",
          "type": "bool"
        },
        {
          "name": "_startNow",
          "type": "bool"
        },
        {
          "name": "_start",
          "type": "uint256"
        },
        {
          "name": "_end",
          "type": "uint256"
        }
      ],
      "payable": false,
      "stateMutability": "nonpayable",
      "type": "constructor"
    },
    {
      "constant": true,
      "inputs": [
        {
          "name": "_email",
          "type": "bytes32"
        }
      ],
      "name": "isVoter",
      "outputs": [
        {
          "name": "",
          "type": "bool"
        }
      ],
      "payable": false,
      "stateMutability": "view",
      "type": "function"
    },
    {
      "constant": true,
      "inputs": [
        {
          "name": "_email",
          "type": "bytes32"
        }
      ],
      "name": "isOwner",
      "outputs": [
        {
          "name": "",
          "type": "bool"
        }
      ],
      "payable": false,
      "stateMutability": "view",
      "type": "function"
    },
    {
      "constant": true,
      "inputs": [
        {
          "name": "_email",
          "type": "bytes32"
        }
      ],
      "name": "isVoted",
      "outputs": [
        {
          "name": "",
          "type": "bool"
        }
      ],
      "payable": false,
      "stateMutability": "view",
      "type": "function"
    },
    {
      "constant": true,
      "inputs": [
        {
          "name": "_email",
          "type": "bytes32"
        }
      ],
      "name": "getVotedTo",
      "outputs": [
        {
          "name": "",
          "type": "string"
        }
      ],
      "payable": false,
      "stateMutability": "view",
      "type": "function"
    },
    {
      "constant": false,
      "inputs": [
        {
          "name": "_email",
          "type": "bytes32"
        },
        {
          "name": "_candidateId",
          "type": "uint256"
        }
      ],
      "name": "vote",
      "outputs": [],
      "payable": false,
      "stateMutability": "nonpayable",
      "type": "function"
    },
    {
      "constant": true,
      "inputs": [],
      "name": "getTitle",
      "outputs": [
        {
          "name": "",
          "type": "string"
        }
      ],
      "payable": false,
      "stateMutability": "view",
      "type": "function"
    },
    {
      "constant": true,
      "inputs": [],
      "name": "getOwner",
      "outputs": [
        {
          "name": "",
          "type": "string"
        }
      ],
      "payable": false,
      "stateMutability": "view",
      "type": "function"
    },
    {
      "constant": true,
      "inputs": [
        {
          "name": "i",
          "type": "uint256"
        }
      ],
      "name": "getCandidateName",
      "outputs": [
        {
          "name": "",
          "type": "string"
        }
      ],
      "payable": false,
      "stateMutability": "view",
      "type": "function"
    },
    {
      "constant": true,
      "inputs": [
        {
          "name": "i",
          "type": "uint256"
        }
      ],
      "name": "getCandidateVoteCount",
      "outputs": [
        {
          "name": "",
          "type": "uint256"
        }
      ],
      "payable": false,
      "stateMutability": "view",
      "type": "function"
    },
    {
      "constant": false,
      "inputs": [
        {
          "name": "_email",
          "type": "bytes32"
        }
      ],
      "name": "close",
      "outputs": [],
      "payable": false,
      "stateMutability": "nonpayable",
      "type": "function"
    },
    {
      "constant": false,
      "inputs": [
        {
          "name": "_email",
          "type": "bytes32"
        }
      ],
      "name": "start",
      "outputs": [],
      "payable": false,
      "stateMutability": "nonpayable",
      "type": "function"
    },
    {
      "constant": true,
      "inputs": [],
      "name": "getStartDate",
      "outputs": [
        {
          "name": "",
          "type": "uint256"
        }
      ],
      "payable": false,
      "stateMutability": "view",
      "type": "function"
    },
    {
      "constant": true,
      "inputs": [],
      "name": "getEndDate",
      "outputs": [
        {
          "name": "",
          "type": "uint256"
        }
      ],
      "payable": false,
      "stateMutability": "view",
      "type": "function"
    },
    {
      "constant": true,
      "inputs": [],
      "name": "getStatus",
      "outputs": [
        {
          "name": "",
          "type": "uint256"
        }
      ],
      "payable": false,
      "stateMutability": "view",
      "type": "function"
    },
    {
      "constant": true,
      "inputs": [],
      "name": "isManual",
      "outputs": [
        {
          "name": "",
          "type": "bool"
        }
      ],
      "payable": false,
      "stateMutability": "view",
      "type": "function"
    },
    {
      "constant": true,
      "inputs": [],
      "name": "getMode",
      "outputs": [
        {
          "name": "",
          "type": "uint256"
        }
      ],
      "payable": false,
      "stateMutability": "view",
      "type": "function"
    }
  ],
  "bytecode": "0x60806040523480156200001157600080fd5b50604051620017d8380380620017d883398101806040528101908080519060200190929190805182019291906020018051906020019092919080518201929190602001805182019291906020018051906020019092919080519060200190929190805190602001909291908051906020019092919050505060016000808b600019166000191681526020019081526020016000208190555088600181600019169055508760029080519060200190620000cc929190620005f2565b5083600360006101000a81548160ff021916908315150217905550600360009054906101000a900460ff1615156200010d5781600481905550806005819055505b620001278662000219640100000000026401000000009004565b86151562000174576000600860016101000a81548160ff021916908360018111156200014f57fe5b02179055506200016e85620003cc640100000000026401000000009004565b6200019a565b6001600860016101000a81548160ff021916908360018111156200019457fe5b02179055505b6002600860006101000a81548160ff02191690836002811115620001ba57fe5b021790555082156200020a57600360009054906101000a900460ff161562000202576000600860006101000a81548160ff02191690836002811115620001fc57fe5b02179055505b426004819055505b50505050505050505062000728565b60008151600681905550600090505b600654811015620003c85760606040519081016040528082815260200173__Type__________________________________63ef0b236885858151811015156200026e57fe5b906020019060200201516040518263ffffffff167c010000000000000000000000000000000000000000000000000000000002815260040180826000191660001916815260200191505060006040518083038186803b158015620002d157600080fd5b505af4158015620002e6573d6000803e3d6000fd5b505050506040513d6000823e3d601f19601f8201168201806040525060208110156200031157600080fd5b8101908080516401000000008111156200032a57600080fd5b828101905060208101848111156200034157600080fd5b81518560018202830111640100000000821117156200035f57600080fd5b50509291905050508152602001600081525060096000838152602001908152602001600020600082015181600001556020820151816001019080519060200190620003ac92919062000679565b5060408201518160020155905050808060010191505062000228565b5050565b60008151600781905550600090505b600754811015620005ee5760018101600b60008484815181101515620003fd57fe5b90602001906020020151600019166000191681526020019081526020016000208190555060606040519081016040528082815260200173__Type__________________________________63ef0b236885858151811015156200045c57fe5b906020019060200201516040518263ffffffff167c010000000000000000000000000000000000000000000000000000000002815260040180826000191660001916815260200191505060006040518083038186803b158015620004bf57600080fd5b505af4158015620004d4573d6000803e3d6000fd5b505050506040513d6000823e3d601f19601f820116820180604052506020811015620004ff57600080fd5b8101908080516401000000008111156200051857600080fd5b828101905060208101848111156200052f57600080fd5b81518560018202830111640100000000821117156200054d57600080fd5b5050929190505050815260200160001515815250600a600084848151811015156200057457fe5b9060200190602002015160001916600019168152602001908152602001600020600082015181600001556020820151816001019080519060200190620005bc92919062000679565b5060408201518160020160006101000a81548160ff0219169083151502179055509050508080600101915050620003db565b5050565b828054600181600116156101000203166002900490600052602060002090601f016020900481019282601f106200063557805160ff191683800117855562000666565b8280016001018555821562000666579182015b828111156200066557825182559160200191906001019062000648565b5b50905062000675919062000700565b5090565b828054600181600116156101000203166002900490600052602060002090601f016020900481019282601f10620006bc57805160ff1916838001178555620006ed565b82800160010185558215620006ed579182015b82811115620006ec578251825591602001919060010190620006cf565b5b509050620006fc919062000700565b5090565b6200072591905b808211156200072157600081600090555060010162000707565b5090565b90565b6110a080620007386000396000f300608060405260043610610107576000357c0100000000000000000000000000000000000000000000000000000000900463ffffffff168063015a18ed1461010c5780631163fd2d1461013d57806339c79e0c146101865780634b4fd03b146101b75780634e69d560146101e257806357eadb041461020d5780636813aaf0146102b757806369d0968b146102e257806378f305c61461032b578063864444ae14610356578063893d20e8146103815780639ef1204c14610411578063b13564881461044c578063b315c59714610477578063e13804a7146104b8578063eb4d69d51461055e578063eeac39d8146105a3578063f2e83ddf146105ec578063ff3c1a8f1461061b575b600080fd5b34801561011857600080fd5b5061013b60048036038101908080356000191690602001909291905050506106ab565b005b34801561014957600080fd5b5061016c600480360381019080803560001916906020019092919050505061074c565b604051808215151515815260200191505060405180910390f35b34801561019257600080fd5b506101b56004803603810190808035600019169060200190929190505050610781565b005b3480156101c357600080fd5b506101cc610823565b6040518082815260200191505060405180910390f35b3480156101ee57600080fd5b506101f7610845565b6040518082815260200191505060405180910390f35b34801561021957600080fd5b5061023c6004803603810190808035600019169060200190929190505050610882565b6040518080602001828103825283818151815260200191508051906020019080838360005b8381101561027c578082015181840152602081019050610261565b50505050905090810190601f1680156102a95780820380516001836020036101000a031916815260200191505b509250505060405180910390f35b3480156102c357600080fd5b506102cc610955565b6040518082815260200191505060405180910390f35b3480156102ee57600080fd5b50610311600480360381019080803560001916906020019092919050505061095b565b604051808215151515815260200191505060405180910390f35b34801561033757600080fd5b50610340610983565b6040518082815260200191505060405180910390f35b34801561036257600080fd5b5061036b61098d565b6040518082815260200191505060405180910390f35b34801561038d57600080fd5b50610396610993565b6040518080602001828103825283818151815260200191508051906020019080838360005b838110156103d65780820151818401526020810190506103bb565b50505050905090810190601f1680156104035780820380516001836020036101000a031916815260200191505b509250505060405180910390f35b34801561041d57600080fd5b5061044a600480360381019080803560001916906020019092919080359060200190929190505050610aa0565b005b34801561045857600080fd5b50610461610df5565b6040518082815260200191505060405180910390f35b34801561048357600080fd5b506104a260048036038101908080359060200190929190505050610dff565b6040518082815260200191505060405180910390f35b3480156104c457600080fd5b506104e360048036038101908080359060200190929190505050610e1f565b6040518080602001828103825283818151815260200191508051906020019080838360005b83811015610523578082015181840152602081019050610508565b50505050905090810190601f1680156105505780820380516001836020036101000a031916815260200191505b509250505060405180910390f35b34801561056a57600080fd5b5061058d6004803603810190808035600019169060200190929190505050610ed7565b6040518082815260200191505060405180910390f35b3480156105af57600080fd5b506105d26004803603810190808035600019169060200190929190505050610eef565b604051808215151515815260200191505060405180910390f35b3480156105f857600080fd5b50610601610f16565b604051808215151515815260200191505060405180910390f35b34801561062757600080fd5b50610630610f2d565b6040518080602001828103825283818151815260200191508051906020019080838360005b83811015610670578082015181840152602081019050610655565b50505050905090810190601f16801561069d5780820380516001836020036101000a031916815260200191505b509250505060405180910390f35b6000806000836000191660001916815260200190815260200160002054141515156106d557600080fd5b600360009054906101000a900460ff1615610742576002808111156106f657fe5b600860009054906101000a900460ff16600281111561071157fe5b14151561071d57600080fd5b6000600860006101000a81548160ff0219169083600281111561073c57fe5b02179055505b4260048190555050565b6000600a6000836000191660001916815260200190815260200160002060020160009054906101000a900460ff169050919050565b6000806000836000191660001916815260200190815260200160002054141515156107ab57600080fd5b600360009054906101000a900460ff161561081957600060028111156107cd57fe5b600860009054906101000a900460ff1660028111156107e857fe5b1415156107f457600080fd5b6001600860006101000a81548160ff0219169083600281111561081357fe5b02179055505b4260058190555050565b6000600860019054906101000a900460ff16600181111561084057fe5b905090565b6000600360009054906101000a900460ff16151561086257600080fd5b600860009054906101000a900460ff16600281111561087d57fe5b905090565b606060096000600c600085600019166000191681526020019081526020016000205481526020019081526020016000206001018054600181600116156101000203166002900480601f0160208091040260200160405190810160405280929190818152602001828054600181600116156101000203166002900480156109495780601f1061091e57610100808354040283529160200191610949565b820191906000526020600020905b81548152906001019060200180831161092c57829003601f168201915b50505050509050919050565b60075481565b600080600b600084600019166000191681526020019081526020016000205414159050919050565b6000600454905090565b60065481565b606073__Type__________________________________63ef0b23686001546040518263ffffffff167c010000000000000000000000000000000000000000000000000000000002815260040180826000191660001916815260200191505060006040518083038186803b158015610a0a57600080fd5b505af4158015610a1e573d6000803e3d6000fd5b505050506040513d6000823e3d601f19601f820116820180604052506020811015610a4857600080fd5b810190808051640100000000811115610a6057600080fd5b82810190506020810184811115610a7657600080fd5b8151856001820283011164010000000082111715610a9357600080fd5b5050929190505050905090565b60006001811115610aad57fe5b600860019054906101000a900460ff166001811115610ac857fe5b1415610afe576000600b600084600019166000191681526020019081526020016000205414151515610af957600080fd5b610cbf565b6000600b60008460001916600019168152602001908152602001600020541415610cbe57606060405190810160405280600754815260200173__Type__________________________________63ef0b2368856040518263ffffffff167c010000000000000000000000000000000000000000000000000000000002815260040180826000191660001916815260200191505060006040518083038186803b158015610ba957600080fd5b505af4158015610bbd573d6000803e3d6000fd5b505050506040513d6000823e3d601f19601f820116820180604052506020811015610be757600080fd5b810190808051640100000000811115610bff57600080fd5b82810190506020810184811115610c1557600080fd5b8151856001820283011164010000000082111715610c3257600080fd5b5050929190505050815260200160001515815250600a60008460001916600019168152602001908152602001600020600082015181600001556020820151816001019080519060200190610c87929190610fcf565b5060408201518160020160006101000a81548160ff0219169083151502179055509050506007600081548092919060010191905055505b5b600360009054906101000a900460ff161515610cea5760055442101515610ce557600080fd5b610d1f565b60006002811115610cf757fe5b600860009054906101000a900460ff166002811115610d1257fe5b141515610d1e57600080fd5b5b600a6000836000191660001916815260200190815260200160002060020160009054906101000a900460ff16151515610d5757600080fd5b60008110158015610d69575060065481105b1515610d7457600080fd5b6001600a6000846000191660001916815260200190815260200160002060020160006101000a81548160ff02191690831515021790555080600c600084600019166000191681526020019081526020016000208190555060096000828152602001908152602001600020600201600081548092919060010191905055505050565b6000600554905090565b600060096000838152602001908152602001600020600201549050919050565b6060600960008381526020019081526020016000206001018054600181600116156101000203166002900480601f016020809104026020016040519081016040528092919081815260200182805460018160011615610100020316600290048015610ecb5780601f10610ea057610100808354040283529160200191610ecb565b820191906000526020600020905b815481529060010190602001808311610eae57829003601f168201915b50505050509050919050565b60006020528060005260406000206000915090505481565b60008060008084600019166000191681526020019081526020016000205414159050919050565b6000600360009054906101000a900460ff16905090565b606060028054600181600116156101000203166002900480601f016020809104026020016040519081016040528092919081815260200182805460018160011615610100020316600290048015610fc55780601f10610f9a57610100808354040283529160200191610fc5565b820191906000526020600020905b815481529060010190602001808311610fa857829003601f168201915b5050505050905090565b828054600181600116156101000203166002900490600052602060002090601f016020900481019282601f1061101057805160ff191683800117855561103e565b8280016001018555821561103e579182015b8281111561103d578251825591602001919060010190611022565b5b50905061104b919061104f565b5090565b61107191905b8082111561106d576000816000905550600101611055565b5090565b905600a165627a7a72305820d7e75756f93ddc7ca78fb19211b719e39ef8a450e7be0316eff34d085a88bfaf0029",
  "source": "pragma solidity ^0.4.24;\n\nimport \"./Type.sol\";\n\ncontract Election {\n  mapping(bytes32 => uint) public ownerId;\n  bytes32 private owner;\n  bytes private title;\n  bool private manual;\n  uint private startDate;\n  uint private endDate;\n  uint public candSize;\n  uint public votrSize;\n  Status private status;\n  Mode private mode;\n\n  enum Status { Start, Closed, Pending }\n  enum Mode { Private, Public }\n\n  mapping(uint => Candidate) private candidates;\n  mapping(bytes32 => Voter) private voters;\n  mapping(bytes32 => uint) private voterId;\n  mapping(bytes32 => uint) private votedTo;\n  mapping(bytes32 => uint) private pubVoterId;\n\n  struct Candidate {\n    uint id;\n    string name;\n    uint voteCount;\n  }\n\n  struct Voter {\n    uint id;\n    string email;\n    bool voted;\n  }\n\n  constructor (\n    bytes32 _owner, bytes _title, bool _public,\n    bytes32[] _candidates, bytes32[] _voters,\n    bool _manual, bool _startNow, uint _start, uint _end\n  ) public {\n    ownerId[_owner] = 1;\n    owner = _owner;\n    title = _title;\n    manual = _manual;\n    if (!manual) {\n      startDate = _start;\n      endDate = _end;\n    }\n    addCandidates(_candidates);\n\n    if (!_public) {\n      mode = Mode.Private;\n      addVoters(_voters);\n    } else {\n      mode = Mode.Public;\n    }\n\n    status = Status.Pending;\n    if (_startNow) {\n      if (manual) {\n        status = Status.Start;\n      }\n      startDate = now;\n    }\n  }\n\n  function addCandidates(bytes32[] _names) private {\n    candSize = _names.length;\n\n    for (uint i = 0; i < candSize; i++) {\n      candidates[i] = Candidate(i, Type.bytes32ToStr(_names[i]), 0);\n    }\n  }\n\n  function addVoters(bytes32[] _emails) private {\n    votrSize = _emails.length;\n\n    for (uint i = 0; i < votrSize; i++) {\n      voterId[_emails[i]] = i + 1;\n      voters[_emails[i]] = Voter(i, Type.bytes32ToStr(_emails[i]), false);\n    }\n  }\n  function isVoter(bytes32 _email) public view returns (bool) {\n    return (voterId[_email] != 0);\n  }\n  function isOwner(bytes32 _email) public view returns (bool) {\n    return (ownerId[_email] != 0);\n  }\n  function isVoted(bytes32 _email) public view returns (bool) {\n    return (voters[_email].voted);\n  }\n  function getVotedTo(bytes32 _email) public view returns (string) {\n    return (candidates[votedTo[_email]].name);\n  }\n\n  function vote (bytes32 _email, uint _candidateId) public {\n    if (mode == Mode.Private) {\n      require(voterId[_email] != 0);\n    } else {\n      if (voterId[_email] == 0) {\n        voters[_email] = Voter(votrSize, Type.bytes32ToStr(_email), false);\n        votrSize++;\n      }\n    }\n\n    if (!manual) {\n      // Due date\n      require(now < endDate);\n    } else {\n      // Event manually closed\n      require(status == Status.Start);\n    }\n\n    // require that they haven't voted before\n    require(!voters[_email].voted);\n\n    // require a valid candidate\n    require(_candidateId >= 0 && _candidateId < candSize);\n\n    // record the voter has voted\n    voters[_email].voted = true;\n\n    // update the voter vote to\n    votedTo[_email] = _candidateId;\n\n    // update candidate vote Count\n    candidates[_candidateId].voteCount ++;\n  }\n\n  function getTitle() public view returns (string) {\n    return string(title);\n  }\n  function getOwner() public view returns (string) {\n    return Type.bytes32ToStr(owner);\n  }\n  // Candidate\n  function getCandidateName(uint i) public view returns (string) {\n    return candidates[i].name;\n  }\n  function getCandidateVoteCount(uint i) public view returns (uint) {\n    return candidates[i].voteCount;\n  }\n  function close(bytes32 _email) public {\n    require(ownerId[_email] != 0);\n\n    // Is manual mode and not closed\n    if (manual) {\n      require(status == Status.Start);\n      status = Status.Closed;\n    }\n\n    endDate = now;\n  }\n\n  function start(bytes32 _email) public {\n    require(ownerId[_email] != 0);\n\n    if (manual) {\n      require(status == Status.Pending);\n      status = Status.Start;\n    }\n\n    startDate = now;\n  }\n  function getStartDate() public view returns (uint) {\n    return startDate;\n  }\n  function getEndDate() public view returns (uint) {\n    return endDate;\n  }\n\n  function getStatus() public view returns (uint) {\n    require (manual);\n    return uint(status);\n  }\n  function isManual() public view returns (bool) {\n    return manual;\n  }\n  function getMode() public view returns (uint) {\n    return uint(mode);\n  }\n}\n",
  "sourcePath": "/Users/kangyi/Projects/react_bc_vote/contracts/Election.sol",
  "compiler": {
    "name": "solc",
    "version": "0.4.24+commit.e67f0147.Emscripten.clang"
  },
  "schemaVersion": "2.0.1",
  "updatedAt": "2018-10-26T16:01:10.406Z"
}