{
  "contractName": "ElectionFactory",
  "abi": [
    {
      "constant": true,
      "inputs": [
        {
          "name": "",
          "type": "uint256"
        }
      ],
      "name": "elections",
      "outputs": [
        {
          "name": "",
          "type": "address"
        }
      ],
      "payable": false,
      "stateMutability": "view",
      "type": "function"
    },
    {
      "inputs": [],
      "payable": false,
      "stateMutability": "nonpayable",
      "type": "constructor"
    },
    {
      "anonymous": false,
      "inputs": [
        {
          "indexed": false,
          "name": "addr",
          "type": "address"
        },
        {
          "indexed": false,
          "name": "owner",
          "type": "string"
        }
      ],
      "name": "electionCreated",
      "type": "event"
    },
    {
      "anonymous": false,
      "inputs": [
        {
          "indexed": false,
          "name": "addr",
          "type": "address"
        },
        {
          "indexed": false,
          "name": "owner",
          "type": "string"
        }
      ],
      "name": "closedElection",
      "type": "event"
    },
    {
      "anonymous": false,
      "inputs": [
        {
          "indexed": false,
          "name": "addr",
          "type": "address"
        }
      ],
      "name": "votedEvent",
      "type": "event"
    },
    {
      "constant": true,
      "inputs": [
        {
          "name": "_cImg",
          "type": "string"
        }
      ],
      "name": "getImgs",
      "outputs": [
        {
          "name": "",
          "type": "string[]"
        }
      ],
      "payable": false,
      "stateMutability": "pure",
      "type": "function"
    },
    {
      "constant": false,
      "inputs": [
        {
          "name": "_content",
          "type": "bytes32[3]"
        },
        {
          "name": "_imgURL",
          "type": "bytes"
        },
        {
          "name": "_setup",
          "type": "bool[2]"
        },
        {
          "name": "_candidates",
          "type": "bytes32[]"
        },
        {
          "name": "_cImg",
          "type": "string"
        },
        {
          "name": "_candidatesDescription",
          "type": "bytes32[]"
        },
        {
          "name": "voters",
          "type": "bytes32[]"
        },
        {
          "name": "_start_end",
          "type": "uint256[2]"
        }
      ],
      "name": "createElection",
      "outputs": [],
      "payable": false,
      "stateMutability": "nonpayable",
      "type": "function"
    },
    {
      "constant": true,
      "inputs": [],
      "name": "getSize",
      "outputs": [
        {
          "name": "",
          "type": "uint256"
        }
      ],
      "payable": false,
      "stateMutability": "view",
      "type": "function"
    },
    {
      "constant": true,
      "inputs": [
        {
          "name": "addr",
          "type": "address"
        }
      ],
      "name": "getTitle",
      "outputs": [
        {
          "name": "",
          "type": "string"
        }
      ],
      "payable": false,
      "stateMutability": "view",
      "type": "function"
    },
    {
      "constant": true,
      "inputs": [
        {
          "name": "addr",
          "type": "address"
        }
      ],
      "name": "getContent",
      "outputs": [
        {
          "name": "",
          "type": "string"
        },
        {
          "name": "",
          "type": "string"
        },
        {
          "name": "",
          "type": "string"
        }
      ],
      "payable": false,
      "stateMutability": "view",
      "type": "function"
    },
    {
      "constant": true,
      "inputs": [
        {
          "name": "addr",
          "type": "address"
        }
      ],
      "name": "getOwner",
      "outputs": [
        {
          "name": "",
          "type": "string"
        }
      ],
      "payable": false,
      "stateMutability": "view",
      "type": "function"
    },
    {
      "constant": true,
      "inputs": [
        {
          "name": "addr",
          "type": "address"
        }
      ],
      "name": "getCandidateSize",
      "outputs": [
        {
          "name": "",
          "type": "uint256"
        }
      ],
      "payable": false,
      "stateMutability": "view",
      "type": "function"
    },
    {
      "constant": true,
      "inputs": [
        {
          "name": "addr",
          "type": "address"
        }
      ],
      "name": "getVoterSize",
      "outputs": [
        {
          "name": "",
          "type": "uint256"
        }
      ],
      "payable": false,
      "stateMutability": "view",
      "type": "function"
    },
    {
      "constant": true,
      "inputs": [
        {
          "name": "_email",
          "type": "bytes32"
        },
        {
          "name": "i",
          "type": "uint256"
        }
      ],
      "name": "getVoterElectionAddress",
      "outputs": [
        {
          "name": "",
          "type": "address"
        },
        {
          "name": "",
          "type": "bool"
        }
      ],
      "payable": false,
      "stateMutability": "view",
      "type": "function"
    },
    {
      "constant": true,
      "inputs": [
        {
          "name": "addr",
          "type": "address"
        },
        {
          "name": "_email",
          "type": "bytes32"
        }
      ],
      "name": "isVoter",
      "outputs": [
        {
          "name": "",
          "type": "bool"
        }
      ],
      "payable": false,
      "stateMutability": "view",
      "type": "function"
    },
    {
      "constant": true,
      "inputs": [
        {
          "name": "_email",
          "type": "bytes32"
        },
        {
          "name": "i",
          "type": "uint256"
        }
      ],
      "name": "getOwnerElectionAddress",
      "outputs": [
        {
          "name": "",
          "type": "address"
        },
        {
          "name": "",
          "type": "bool"
        }
      ],
      "payable": false,
      "stateMutability": "view",
      "type": "function"
    },
    {
      "constant": true,
      "inputs": [
        {
          "name": "addr",
          "type": "address"
        },
        {
          "name": "_email",
          "type": "bytes32"
        }
      ],
      "name": "isVoted",
      "outputs": [
        {
          "name": "",
          "type": "bool"
        }
      ],
      "payable": false,
      "stateMutability": "view",
      "type": "function"
    },
    {
      "constant": true,
      "inputs": [
        {
          "name": "addr",
          "type": "address"
        },
        {
          "name": "_email",
          "type": "bytes32"
        }
      ],
      "name": "getVotedTo",
      "outputs": [
        {
          "name": "",
          "type": "string"
        }
      ],
      "payable": false,
      "stateMutability": "view",
      "type": "function"
    },
    {
      "constant": true,
      "inputs": [
        {
          "name": "addr",
          "type": "address"
        },
        {
          "name": "i",
          "type": "uint256"
        }
      ],
      "name": "getCandidate",
      "outputs": [
        {
          "name": "",
          "type": "uint256"
        },
        {
          "name": "",
          "type": "string"
        },
        {
          "name": "",
          "type": "string"
        },
        {
          "name": "",
          "type": "string"
        },
        {
          "name": "",
          "type": "uint256"
        }
      ],
      "payable": false,
      "stateMutability": "view",
      "type": "function"
    },
    {
      "constant": false,
      "inputs": [
        {
          "name": "addr",
          "type": "address"
        },
        {
          "name": "_email",
          "type": "bytes32"
        },
        {
          "name": "_candidateId",
          "type": "uint256"
        }
      ],
      "name": "vote",
      "outputs": [],
      "payable": false,
      "stateMutability": "nonpayable",
      "type": "function"
    },
    {
      "constant": false,
      "inputs": [
        {
          "name": "addr",
          "type": "address"
        },
        {
          "name": "_email",
          "type": "bytes32"
        }
      ],
      "name": "close",
      "outputs": [],
      "payable": false,
      "stateMutability": "nonpayable",
      "type": "function"
    },
    {
      "constant": true,
      "inputs": [
        {
          "name": "addr",
          "type": "address"
        }
      ],
      "name": "getStartDate",
      "outputs": [
        {
          "name": "",
          "type": "uint256"
        }
      ],
      "payable": false,
      "stateMutability": "view",
      "type": "function"
    },
    {
      "constant": true,
      "inputs": [
        {
          "name": "addr",
          "type": "address"
        }
      ],
      "name": "getEndDate",
      "outputs": [
        {
          "name": "",
          "type": "uint256"
        }
      ],
      "payable": false,
      "stateMutability": "view",
      "type": "function"
    },
    {
      "constant": true,
      "inputs": [
        {
          "name": "addr",
          "type": "address"
        }
      ],
      "name": "getMode",
      "outputs": [
        {
          "name": "",
          "type": "uint256"
        }
      ],
      "payable": false,
      "stateMutability": "view",
      "type": "function"
    }
  ],
  "bytecode": "0x608060405234801561001057600080fd5b506150a5806100206000396000f30060806040526004361062000127576000357c0100000000000000000000000000000000000000000000000000000000900463ffffffff168063194ee239146200012c578063240035e214620001745780632d70ad5c14620001b8578063339c63bd14620001fc5780633b34e2cd146200024057806353e30d29146200026e5780635e6fef0114620002b3578063666af76214620002f75780636b272c90146200033b578063923af057146200037f5780639fc8623914620003ad578063a7a199ee14620003f1578063b30ab3491462000435578063d5372e60146200047b578063de8fa43114620004bf578063ec4408d614620004ef578063f51d7d5f146200051d578063f636e5a21462000561578063fa54416114620005a5578063fad2e35114620005e9575b600080fd5b3480156200013957600080fd5b5062000158600480360362000152919081019062002396565b6200062e565b6040516200016b95949392919062002bbb565b60405180910390f35b3480156200018157600080fd5b50620001a060048036036200019a9190810190620022d3565b62000914565b604051620001af919062002b9e565b60405180910390f35b348015620001c557600080fd5b50620001e46004803603620001de9190810190620022ff565b620009c2565b604051620001f3919062002aa4565b60405180910390f35b3480156200020957600080fd5b5062000228600480360362000222919081019062002587565b62000a7e565b60405162000237919062002a80565b60405180910390f35b3480156200024d57600080fd5b506200026c6004803603620002669190810190620022ff565b62000b9b565b005b3480156200027b57600080fd5b506200029a600480360362000294919081019062002546565b62000d18565b604051620002aa9291906200296b565b60405180910390f35b348015620002c057600080fd5b50620002df6004803603620002d9919081019062002611565b62000f56565b604051620002ee91906200294e565b60405180910390f35b3480156200030457600080fd5b506200032360048036036200031d9190810190620022ff565b62000f95565b60405162000332919062002aa4565b60405180910390f35b3480156200034857600080fd5b50620003676004803603620003619190810190620022d3565b62001117565b60405162000376919062002b9e565b60405180910390f35b3480156200038c57600080fd5b50620003ab6004803603620003a59190810190620023d7565b620011c5565b005b348015620003ba57600080fd5b50620003d96004803603620003d39190810190620022d3565b62001383565b604051620003e8919062002b9e565b60405180910390f35b348015620003fe57600080fd5b506200041d6004803603620004179190810190620022d3565b62001431565b6040516200042c919062002b9e565b60405180910390f35b3480156200044257600080fd5b506200046160048036036200045b9190810190620022d3565b620014df565b604051620004729392919062002b4c565b60405180910390f35b3480156200048857600080fd5b50620004a76004803603620004a19190810190620022ff565b620016e6565b604051620004b6919062002b28565b60405180910390f35b348015620004cc57600080fd5b50620004d7620017a8565b604051620004e6919062002b9e565b60405180910390f35b348015620004fc57600080fd5b506200051b600480360362000515919081019062002340565b620017b4565b005b3480156200052a57600080fd5b50620005496004803603620005439190810190620022d3565b62001885565b60405162000558919062002b28565b60405180910390f35b3480156200056e57600080fd5b506200058d6004803603620005879190810190620022d3565b62001939565b6040516200059c919062002b9e565b60405180910390f35b348015620005b257600080fd5b50620005d16004803603620005cb9190810190620022d3565b620019e7565b604051620005e0919062002b28565b60405180910390f35b348015620005f657600080fd5b506200061560048036036200060f919081019062002546565b62001a9b565b604051620006259291906200296b565b60405180910390f35b60006060806060600080879050868173ffffffffffffffffffffffffffffffffffffffff1663e13804a7896040518263ffffffff167c010000000000000000000000000000000000000000000000000000000002815260040162000693919062002b9e565b600060405180830381600087803b158015620006ae57600080fd5b505af1158015620006c3573d6000803e3d6000fd5b505050506040513d6000823e3d601f19601f82011682018060405250620006ee9190810190620025cc565b8273ffffffffffffffffffffffffffffffffffffffff16630838e71b8a6040518263ffffffff167c010000000000000000000000000000000000000000000000000000000002815260040162000745919062002b9e565b600060405180830381600087803b1580156200076057600080fd5b505af115801562000775573d6000803e3d6000fd5b505050506040513d6000823e3d601f19601f82011682018060405250620007a09190810190620025cc565b8373ffffffffffffffffffffffffffffffffffffffff1663efdfe6f88b6040518263ffffffff167c0100000000000000000000000000000000000000000000000000000000028152600401620007f7919062002b9e565b600060405180830381600087803b1580156200081257600080fd5b505af115801562000827573d6000803e3d6000fd5b505050506040513d6000823e3d601f19601f82011682018060405250620008529190810190620025cc565b8473ffffffffffffffffffffffffffffffffffffffff1663b315c5978c6040518263ffffffff167c0100000000000000000000000000000000000000000000000000000000028152600401620008a9919062002b9e565b602060405180830381600087803b158015620008c457600080fd5b505af1158015620008d9573d6000803e3d6000fd5b505050506040513d601f19601f82011682018060405250620008ff91908101906200263d565b95509550955095509550509295509295909350565b6000808290508073ffffffffffffffffffffffffffffffffffffffff1663b13564886040518163ffffffff167c0100000000000000000000000000000000000000000000000000000000028152600401602060405180830381600087803b1580156200097f57600080fd5b505af115801562000994573d6000803e3d6000fd5b505050506040513d601f19601f82011682018060405250620009ba91908101906200263d565b915050919050565b6000808390508073ffffffffffffffffffffffffffffffffffffffff16631163fd2d846040518263ffffffff167c010000000000000000000000000000000000000000000000000000000002815260040162000a1f919062002ac1565b602060405180830381600087803b15801562000a3a57600080fd5b505af115801562000a4f573d6000803e3d6000fd5b505050506040513d601f19601f8201168201806040525062000a7591908101906200251a565b91505092915050565b606062000a8a62001efb565b62000a9462001efb565b6060600062000aa38662001be9565b935062000ae56040805190810160405280600181526020017f7c0000000000000000000000000000000000000000000000000000000000000081525062001be9565b9250600162000afe848662001c1990919063ffffffff16565b0160405190808252806020026020018201604052801562000b3457816020015b606081526020019060019003908162000b1e5790505b509150600090505b815181101562000b8f5762000b6562000b5f848662001c9690919063ffffffff16565b62001cb4565b828281518110151562000b7457fe5b90602001906020020181905250808060010191505062000b3c565b81945050505050919050565b60008290508073ffffffffffffffffffffffffffffffffffffffff166339c79e0c836040518263ffffffff167c010000000000000000000000000000000000000000000000000000000002815260040162000bf7919062002ac1565b600060405180830381600087803b15801562000c1257600080fd5b505af115801562000c27573d6000803e3d6000fd5b505050507fe8384be3d0f1a407dc85f07aa5a8df41aa1ff17d8f9f1b672c76c1ece8e1a4008373__Library_______________________________63ef0b2368856040518263ffffffff167c010000000000000000000000000000000000000000000000000000000002815260040162000ca2919062002ade565b60006040518083038186803b15801562000cbb57600080fd5b505af415801562000cd0573d6000803e3d6000fd5b505050506040513d6000823e3d601f19601f8201168201806040525062000cfb9190810190620025cc565b60405162000d0b92919062002998565b60405180910390a1505050565b6000806000808481548110151562000d2c57fe5b9060005260206000200160009054906101000a900473ffffffffffffffffffffffffffffffffffffffff16905060018173ffffffffffffffffffffffffffffffffffffffff16634b4fd03b6040518163ffffffff167c0100000000000000000000000000000000000000000000000000000000028152600401602060405180830381600087803b15801562000dc057600080fd5b505af115801562000dd5573d6000803e3d6000fd5b505050506040513d601f19601f8201168201806040525062000dfb91908101906200263d565b141562000e495760008481548110151562000e1257fe5b9060005260206000200160009054906101000a900473ffffffffffffffffffffffffffffffffffffffff1660019250925062000f4e565b8073ffffffffffffffffffffffffffffffffffffffff166369d0968b866040518263ffffffff167c010000000000000000000000000000000000000000000000000000000002815260040162000ea0919062002ac1565b602060405180830381600087803b15801562000ebb57600080fd5b505af115801562000ed0573d6000803e3d6000fd5b505050506040513d601f19601f8201168201806040525062000ef691908101906200251a565b1562000f435760008481548110151562000f0c57fe5b9060005260206000200160009054906101000a900473ffffffffffffffffffffffffffffffffffffffff1660019250925062000f4e565b600080819150925092505b509250929050565b60008181548110151562000f6657fe5b906000526020600020016000915054906101000a900473ffffffffffffffffffffffffffffffffffffffff1681565b60008083905060018173ffffffffffffffffffffffffffffffffffffffff16634b4fd03b6040518163ffffffff167c0100000000000000000000000000000000000000000000000000000000028152600401602060405180830381600087803b1580156200100257600080fd5b505af115801562001017573d6000803e3d6000fd5b505050506040513d601f19601f820116820180604052506200103d91908101906200263d565b14156200104e576001915062001110565b8073ffffffffffffffffffffffffffffffffffffffff166369d0968b846040518263ffffffff167c0100000000000000000000000000000000000000000000000000000000028152600401620010a5919062002ac1565b602060405180830381600087803b158015620010c057600080fd5b505af1158015620010d5573d6000803e3d6000fd5b505050506040513d601f19601f82011682018060405250620010fb91908101906200251a565b156200110b576001915062001110565b600091505b5092915050565b6000808290508073ffffffffffffffffffffffffffffffffffffffff166378f305c66040518163ffffffff167c0100000000000000000000000000000000000000000000000000000000028152600401602060405180830381600087803b1580156200118257600080fd5b505af115801562001197573d6000803e3d6000fd5b505050506040513d601f19601f82011682018060405250620011bd91908101906200263d565b915050919050565b600088888888620011d68962000a7e565b888888620011e362001f15565b620011f6989796959493929190620029cc565b604051809103906000f08015801562001213573d6000803e3d6000fd5b50905060008190806001815401808255809150509060018203906000526020600020016000909192909190916101000a81548173ffffffffffffffffffffffffffffffffffffffff021916908373ffffffffffffffffffffffffffffffffffffffff160217905550507f01a0d7ad6ef14907dcecdacb77f07dd33e4a6262ab878d600da4b89b2ce9bd1a8173__Library_______________________________63ef0b23688c6000600381101515620012c857fe5b60200201516040518263ffffffff167c010000000000000000000000000000000000000000000000000000000002815260040162001307919062002ade565b60006040518083038186803b1580156200132057600080fd5b505af415801562001335573d6000803e3d6000fd5b505050506040513d6000823e3d601f19601f82011682018060405250620013609190810190620025cc565b6040516200137092919062002998565b60405180910390a1505050505050505050565b6000808290508073ffffffffffffffffffffffffffffffffffffffff16634b4fd03b6040518163ffffffff167c0100000000000000000000000000000000000000000000000000000000028152600401602060405180830381600087803b158015620013ee57600080fd5b505af115801562001403573d6000803e3d6000fd5b505050506040513d601f19601f820116820180604052506200142991908101906200263d565b915050919050565b6000808290508073ffffffffffffffffffffffffffffffffffffffff16636813aaf06040518163ffffffff167c0100000000000000000000000000000000000000000000000000000000028152600401602060405180830381600087803b1580156200149c57600080fd5b505af1158015620014b1573d6000803e3d6000fd5b505050506040513d601f19601f82011682018060405250620014d791908101906200263d565b915050919050565b606080606060008490508073ffffffffffffffffffffffffffffffffffffffff1663ff3c1a8f6040518163ffffffff167c0100000000000000000000000000000000000000000000000000000000028152600401600060405180830381600087803b1580156200154e57600080fd5b505af115801562001563573d6000803e3d6000fd5b505050506040513d6000823e3d601f19601f820116820180604052506200158e9190810190620025cc565b8173ffffffffffffffffffffffffffffffffffffffff1663939eab2e6040518163ffffffff167c0100000000000000000000000000000000000000000000000000000000028152600401600060405180830381600087803b158015620015f357600080fd5b505af115801562001608573d6000803e3d6000fd5b505050506040513d6000823e3d601f19601f82011682018060405250620016339190810190620025cc565b8273ffffffffffffffffffffffffffffffffffffffff16631a0925416040518163ffffffff167c0100000000000000000000000000000000000000000000000000000000028152600401600060405180830381600087803b1580156200169857600080fd5b505af1158015620016ad573d6000803e3d6000fd5b505050506040513d6000823e3d601f19601f82011682018060405250620016d89190810190620025cc565b935093509350509193909250565b606060008390508073ffffffffffffffffffffffffffffffffffffffff166357eadb04846040518263ffffffff167c010000000000000000000000000000000000000000000000000000000002815260040162001744919062002ac1565b600060405180830381600087803b1580156200175f57600080fd5b505af115801562001774573d6000803e3d6000fd5b505050506040513d6000823e3d601f19601f820116820180604052506200179f9190810190620025cc565b91505092915050565b60008080549050905090565b60008390508073ffffffffffffffffffffffffffffffffffffffff16639ef1204c84846040518363ffffffff167c01000000000000000000000000000000000000000000000000000000000281526004016200181292919062002afb565b600060405180830381600087803b1580156200182d57600080fd5b505af115801562001842573d6000803e3d6000fd5b505050507f06640b67015c37470a2bc2e00a76d594f6794fae0d12b9e206bc1bf369fe0676846040516200187791906200294e565b60405180910390a150505050565b606060008290508073ffffffffffffffffffffffffffffffffffffffff1663ff3c1a8f6040518163ffffffff167c0100000000000000000000000000000000000000000000000000000000028152600401600060405180830381600087803b158015620018f157600080fd5b505af115801562001906573d6000803e3d6000fd5b505050506040513d6000823e3d601f19601f82011682018060405250620019319190810190620025cc565b915050919050565b6000808290508073ffffffffffffffffffffffffffffffffffffffff1663864444ae6040518163ffffffff167c0100000000000000000000000000000000000000000000000000000000028152600401602060405180830381600087803b158015620019a457600080fd5b505af1158015620019b9573d6000803e3d6000fd5b505050506040513d601f19601f82011682018060405250620019df91908101906200263d565b915050919050565b606060008290508073ffffffffffffffffffffffffffffffffffffffff1663893d20e86040518163ffffffff167c0100000000000000000000000000000000000000000000000000000000028152600401600060405180830381600087803b15801562001a5357600080fd5b505af115801562001a68573d6000803e3d6000fd5b505050506040513d6000823e3d601f19601f8201168201806040525062001a939190810190620025cc565b915050919050565b6000806000808481548110151562001aaf57fe5b9060005260206000200160009054906101000a900473ffffffffffffffffffffffffffffffffffffffff1690508073ffffffffffffffffffffffffffffffffffffffff1663eeac39d8866040518263ffffffff167c010000000000000000000000000000000000000000000000000000000002815260040162001b33919062002ac1565b602060405180830381600087803b15801562001b4e57600080fd5b505af115801562001b63573d6000803e3d6000fd5b505050506040513d601f19601f8201168201806040525062001b8991908101906200251a565b1562001bd65760008481548110151562001b9f57fe5b9060005260206000200160009054906101000a900473ffffffffffffffffffffffffffffffffffffffff1660019250925062001be1565b600080819150925092505b509250929050565b62001bf362001efb565b600060208301905060408051908101604052808451815260200182815250915050919050565b600080826000015162001c3f856000015186602001518660000151876020015162001d19565b0190505b83600001518460200151018111151562001c8f578180600101925050826000015162001c8685602001518303866000015103838660000151876020015162001d19565b01905062001c43565b5092915050565b62001ca062001efb565b62001cad83838362001e0a565b5092915050565b606080600083600001516040519080825280601f01601f19166020018201604052801562001cf15781602001602082028038833980820191505090505b50915060208201905062001d0f818560200151866000015162001eae565b8192505050919050565b60008060008060008060008060008b97508c8b11151562001df45760208b11151562001daa5760018b60200360080260020a03196001029550858a511694508a8d8d010393508588511692505b8460001916836000191614151562001da157838810151562001d8d578c8c01985062001dfa565b878060010198505085885116925062001d66565b87985062001dfa565b8a8a209150600096505b8a8d038711151562001df3578a8820905080600019168260001916141562001ddf5787985062001dfa565b600188019750868060010197505062001db4565b5b8c8c0198505b5050505050505050949350505050565b62001e1462001efb565b600062001e34856000015186602001518660000151876020015162001d19565b9050846020015183602001818152505084602001518103836000018181525050846000015185602001510181141562001e7857600085600001818152505062001ea3565b8360000151836000015101856000018181510391508181525050836000015181018560200181815250505b829150509392505050565b60005b60208210151562001ed8578251845260208401935060208301925060208203915062001eb1565b6001826020036101000a0390508019835116818551168181178652505050505050565b604080519081016040528060008152602001600081525090565b60405161217d8062002eef83390190565b600062001f34823562002e58565b905092915050565b600082601f830112151562001f5057600080fd5b600262001f6762001f618262002c5b565b62002c2d565b9150818385602084028201111562001f7e57600080fd5b60005b8381101562001fb2578162001f9788826200214b565b84526020840193506020830192505060018101905062001f81565b5050505092915050565b600082601f830112151562001fd057600080fd5b600362001fe762001fe18262002c7e565b62002c2d565b9150818385602084028201111562001ffe57600080fd5b60005b8381101562002032578162002017888262002177565b84526020840193506020830192505060018101905062002001565b5050505092915050565b600082601f83011215156200205057600080fd5b813562002067620020618262002ca1565b62002c2d565b915081818352602084019350602081019050838560208402820111156200208d57600080fd5b60005b83811015620020c15781620020a6888262002177565b84526020840193506020830192505060018101905062002090565b5050505092915050565b600082601f8301121515620020df57600080fd5b6002620020f6620020f08262002cca565b62002c2d565b915081838560208402820111156200210d57600080fd5b60005b83811015620021415781620021268882620022a7565b84526020840193506020830192505060018101905062002110565b5050505092915050565b600062002159823562002e78565b905092915050565b60006200216f825162002e78565b905092915050565b600062002185823562002e84565b905092915050565b600082601f8301121515620021a157600080fd5b8135620021b8620021b28262002ced565b62002c2d565b91508082526020830160208301858383011115620021d557600080fd5b620021e283828462002e98565b50505092915050565b600082601f8301121515620021ff57600080fd5b813562002216620022108262002d1a565b62002c2d565b915080825260208301602083018583830111156200223357600080fd5b6200224083828462002e98565b50505092915050565b600082601f83011215156200225d57600080fd5b8151620022746200226e8262002d1a565b62002c2d565b915080825260208301602083018583830111156200229157600080fd5b6200229e83828462002ea7565b50505092915050565b6000620022b5823562002e8e565b905092915050565b6000620022cb825162002e8e565b905092915050565b600060208284031215620022e657600080fd5b6000620022f68482850162001f26565b91505092915050565b600080604083850312156200231357600080fd5b6000620023238582860162001f26565b9250506020620023368582860162002177565b9150509250929050565b6000806000606084860312156200235657600080fd5b6000620023668682870162001f26565b9350506020620023798682870162002177565b92505060406200238c86828701620022a7565b9150509250925092565b60008060408385031215620023aa57600080fd5b6000620023ba8582860162001f26565b9250506020620023cd85828601620022a7565b9150509250929050565b600080600080600080600080610180898b031215620023f557600080fd5b6000620024058b828c0162001fbc565b985050606089013567ffffffffffffffff8111156200242357600080fd5b620024318b828c016200218d565b9750506080620024448b828c0162001f3c565b96505060c089013567ffffffffffffffff8111156200246257600080fd5b620024708b828c016200203c565b95505060e089013567ffffffffffffffff8111156200248e57600080fd5b6200249c8b828c01620021eb565b94505061010089013567ffffffffffffffff811115620024bb57600080fd5b620024c98b828c016200203c565b93505061012089013567ffffffffffffffff811115620024e857600080fd5b620024f68b828c016200203c565b9250506101406200250a8b828c01620020cb565b9150509295985092959890939650565b6000602082840312156200252d57600080fd5b60006200253d8482850162002161565b91505092915050565b600080604083850312156200255a57600080fd5b60006200256a8582860162002177565b92505060206200257d85828601620022a7565b9150509250929050565b6000602082840312156200259a57600080fd5b600082013567ffffffffffffffff811115620025b557600080fd5b620025c384828501620021eb565b91505092915050565b600060208284031215620025df57600080fd5b600082015167ffffffffffffffff811115620025fa57600080fd5b620026088482850162002249565b91505092915050565b6000602082840312156200262457600080fd5b60006200263484828501620022a7565b91505092915050565b6000602082840312156200265057600080fd5b60006200266084828501620022bd565b91505092915050565b620026748162002e18565b82525050565b620026858162002d7f565b620026908262002d47565b60005b82811015620026c857620026a985835162002856565b620026b48262002dd7565b915060208501945060018101905062002693565b5050505050565b620026da8162002d8a565b620026e58262002d51565b60005b828110156200271d57620026fe85835162002867565b620027098262002de4565b9150602085019450600181019050620026e8565b5050505050565b6000620027318262002d95565b808452602084019350620027458362002d5b565b60005b828110156200277d576200275e86835162002867565b620027698262002df1565b915060208601955060018101905062002748565b50849250505092915050565b6000620027968262002da0565b80845260208401935083602082028501620027b18562002d68565b60005b84811015620027f0578383038852620027cf83835162002901565b9250620027dc8262002dfe565b9150602088019750600181019050620027b4565b508196508694505050505092915050565b6200280c8162002dab565b620028178262002d75565b60005b828110156200284f57620028308583516200293d565b6200283b8262002e0b565b91506020850194506001810190506200281a565b5050505050565b620028618162002e38565b82525050565b620028728162002e44565b82525050565b620028838162002e44565b82525050565b6000620028968262002db6565b808452620028ac81602086016020860162002ea7565b620028b78162002edd565b602085010191505092915050565b6000620028d28262002dcc565b808452620028e881602086016020860162002ea7565b620028f38162002edd565b602085010191505092915050565b60006200290e8262002dc1565b8084526200292481602086016020860162002ea7565b6200292f8162002edd565b602085010191505092915050565b620029488162002e4e565b82525050565b600060208201905062002965600083018462002669565b92915050565b600060408201905062002982600083018562002669565b62002991602083018462002856565b9392505050565b6000604082019050620029af600083018562002669565b8181036020830152620029c38184620028c5565b90509392505050565b600061018082019050620029e4600083018b620026cf565b8181036060830152620029f8818a62002889565b905062002a0960808301896200267a565b81810360c083015262002a1d818862002724565b905081810360e083015262002a33818762002789565b905081810361010083015262002a4a818662002724565b905081810361012083015262002a61818562002724565b905062002a7361014083018462002801565b9998505050505050505050565b6000602082019050818103600083015262002a9c818462002789565b905092915050565b600060208201905062002abb600083018462002856565b92915050565b600060208201905062002ad8600083018462002867565b92915050565b600060208201905062002af5600083018462002878565b92915050565b600060408201905062002b12600083018562002867565b62002b2160208301846200293d565b9392505050565b6000602082019050818103600083015262002b448184620028c5565b905092915050565b6000606082019050818103600083015262002b688186620028c5565b9050818103602083015262002b7e8185620028c5565b9050818103604083015262002b948184620028c5565b9050949350505050565b600060208201905062002bb560008301846200293d565b92915050565b600060a08201905062002bd260008301886200293d565b818103602083015262002be68187620028c5565b9050818103604083015262002bfc8186620028c5565b9050818103606083015262002c128185620028c5565b905062002c2360808301846200293d565b9695505050505050565b6000604051905081810181811067ffffffffffffffff8211171562002c5157600080fd5b8060405250919050565b600067ffffffffffffffff82111562002c7357600080fd5b602082029050919050565b600067ffffffffffffffff82111562002c9657600080fd5b602082029050919050565b600067ffffffffffffffff82111562002cb957600080fd5b602082029050602081019050919050565b600067ffffffffffffffff82111562002ce257600080fd5b602082029050919050565b600067ffffffffffffffff82111562002d0557600080fd5b601f19601f8301169050602081019050919050565b600067ffffffffffffffff82111562002d3257600080fd5b601f19601f8301169050602081019050919050565b6000819050919050565b6000819050919050565b6000602082019050919050565b6000602082019050919050565b6000819050919050565b600060029050919050565b600060039050919050565b600081519050919050565b600081519050919050565b600060029050919050565b600081519050919050565b600081519050919050565b600081519050919050565b6000602082019050919050565b6000602082019050919050565b6000602082019050919050565b6000602082019050919050565b6000602082019050919050565b600073ffffffffffffffffffffffffffffffffffffffff82169050919050565b60008115159050919050565b6000819050919050565b6000819050919050565b600073ffffffffffffffffffffffffffffffffffffffff82169050919050565b60008115159050919050565b6000819050919050565b6000819050919050565b82818337600083830152505050565b60005b8381101562002ec757808201518184015260208101905062002eaa565b8381111562002ed7576000848401525b50505050565b6000601f19601f8301169050919050560060806040523480156200001157600080fd5b506040516200217d3803806200217d833981018060405262000037919081019062000b4f565b60016000808a60006003811015156200004c57fe5b602002015160001916600019168152602001908152602001600020819055508760006003811015156200007b57fe5b6020020151600181600019169055508760016003811015156200009a57fe5b6020020151600281600019169055508660039080519060200190620000c19291906200062f565b50876002600381101515620000d257fe5b602002015160048160001916905550806000600281101515620000f157fe5b60200201516005819055508560006002811015156200010c57fe5b6020020151151562000134578060016002811015156200012857fe5b60200201516006819055505b62000150858585620001e5640100000000026401000000009004565b8560016002811015156200016057fe5b60200201511515620001b1576000600960006101000a81548160ff021916908360018111156200018c57fe5b0217905550620001ab8262000465640100000000026401000000009004565b620001d7565b6001600960006101000a81548160ff02191690836001811115620001d157fe5b02179055505b505050505050505062000ed5565b60008351600781905550600090505b6007548110156200045f5760a06040519081016040528082815260200173__Library_______________________________63ef0b236887858151811015156200023a57fe5b906020019060200201516040518263ffffffff167c01000000000000000000000000000000000000000000000000000000000281526004016200027e919062000ce8565b60006040518083038186803b1580156200029757600080fd5b505af4158015620002ac573d6000803e3d6000fd5b505050506040513d6000823e3d601f19601f82011682018060405250620002d7919081019062000c92565b81526020018483815181101515620002eb57fe5b90602001906020020151815260200173__Library_______________________________63ef0b236885858151811015156200032357fe5b906020019060200201516040518263ffffffff167c010000000000000000000000000000000000000000000000000000000002815260040162000367919062000ce8565b60006040518083038186803b1580156200038057600080fd5b505af415801562000395573d6000803e3d6000fd5b505050506040513d6000823e3d601f19601f82011682018060405250620003c0919081019062000c92565b81526020016000815250600a600083815260200190815260200160002060008201518160000155602082015181600101908051906020019062000405929190620006b6565b50604082015181600201908051906020019062000424929190620006b6565b50606082015181600301908051906020019062000443929190620006b6565b50608082015181600401559050508080600101915050620001f4565b50505050565b60008151600881905550600090505b6008548110156200062b5760018101600c600084848151811015156200049657fe5b90602001906020020151600019166000191681526020019081526020016000208190555060606040519081016040528082815260200173__Library_______________________________63ef0b23688585815181101515620004f557fe5b906020019060200201516040518263ffffffff167c010000000000000000000000000000000000000000000000000000000002815260040162000539919062000ce8565b60006040518083038186803b1580156200055257600080fd5b505af415801562000567573d6000803e3d6000fd5b505050506040513d6000823e3d601f19601f8201168201806040525062000592919081019062000c92565b815260200160001515815250600b60008484815181101515620005b157fe5b9060200190602002015160001916600019168152602001908152602001600020600082015181600001556020820151816001019080519060200190620005f9929190620006b6565b5060408201518160020160006101000a81548160ff021916908315150217905550905050808060010191505062000474565b5050565b828054600181600116156101000203166002900490600052602060002090601f016020900481019282601f106200067257805160ff1916838001178555620006a3565b82800160010185558215620006a3579182015b82811115620006a257825182559160200191906001019062000685565b5b509050620006b291906200073d565b5090565b828054600181600116156101000203166002900490600052602060002090601f016020900481019282601f10620006f957805160ff19168380011785556200072a565b828001600101855582156200072a579182015b82811115620007295782518255916020019190600101906200070c565b5b5090506200073991906200073d565b5090565b6200076291905b808211156200075e57600081600090555060010162000744565b5090565b90565b600082601f83011215156200077957600080fd5b6002620007906200078a8262000d33565b62000d05565b91508183856020840282011115620007a757600080fd5b60005b83811015620007db5781620007c08882620009f3565b845260208401935060208301925050600181019050620007aa565b5050505092915050565b600082601f8301121515620007f957600080fd5b6003620008106200080a8262000d56565b62000d05565b915081838560208402820111156200082757600080fd5b60005b838110156200085b578162000840888262000a09565b8452602084019350602083019250506001810190506200082a565b5050505092915050565b600082601f83011215156200087957600080fd5b8151620008906200088a8262000d79565b62000d05565b91508181835260208401935060208101905083856020840282011115620008b657600080fd5b60005b83811015620008ea5781620008cf888262000a09565b845260208401935060208301925050600181019050620008b9565b5050505092915050565b600082601f83011215156200090857600080fd5b81516200091f620009198262000da2565b62000d05565b9150818183526020840193506020810190508360005b838110156200096957815186016200094e888262000a7d565b84526020840193506020830192505060018101905062000935565b5050505092915050565b600082601f83011215156200098757600080fd5b60026200099e620009988262000dcb565b62000d05565b91508183856020840282011115620009b557600080fd5b60005b83811015620009e95781620009ce888262000b39565b845260208401935060208301925050600181019050620009b8565b5050505092915050565b600062000a01825162000e7f565b905092915050565b600062000a17825162000e8b565b905092915050565b600082601f830112151562000a3357600080fd5b815162000a4a62000a448262000dee565b62000d05565b9150808252602083016020830185838301111562000a6757600080fd5b62000a7483828462000e9f565b50505092915050565b600082601f830112151562000a9157600080fd5b815162000aa862000aa28262000e1b565b62000d05565b9150808252602083016020830185838301111562000ac557600080fd5b62000ad283828462000e9f565b50505092915050565b600082601f830112151562000aef57600080fd5b815162000b0662000b008262000e48565b62000d05565b9150808252602083016020830185838301111562000b2357600080fd5b62000b3083828462000e9f565b50505092915050565b600062000b47825162000e95565b905092915050565b600080600080600080600080610180898b03121562000b6d57600080fd5b600062000b7d8b828c01620007e5565b985050606089015167ffffffffffffffff81111562000b9b57600080fd5b62000ba98b828c0162000a1f565b975050608062000bbc8b828c0162000765565b96505060c089015167ffffffffffffffff81111562000bda57600080fd5b62000be88b828c0162000865565b95505060e089015167ffffffffffffffff81111562000c0657600080fd5b62000c148b828c01620008f4565b94505061010089015167ffffffffffffffff81111562000c3357600080fd5b62000c418b828c0162000865565b93505061012089015167ffffffffffffffff81111562000c6057600080fd5b62000c6e8b828c0162000865565b92505061014062000c828b828c0162000973565b9150509295985092959890939650565b60006020828403121562000ca557600080fd5b600082015167ffffffffffffffff81111562000cc057600080fd5b62000cce8482850162000adb565b91505092915050565b62000ce28162000e75565b82525050565b600060208201905062000cff600083018462000cd7565b92915050565b6000604051905081810181811067ffffffffffffffff8211171562000d2957600080fd5b8060405250919050565b600067ffffffffffffffff82111562000d4b57600080fd5b602082029050919050565b600067ffffffffffffffff82111562000d6e57600080fd5b602082029050919050565b600067ffffffffffffffff82111562000d9157600080fd5b602082029050602081019050919050565b600067ffffffffffffffff82111562000dba57600080fd5b602082029050602081019050919050565b600067ffffffffffffffff82111562000de357600080fd5b602082029050919050565b600067ffffffffffffffff82111562000e0657600080fd5b601f19601f8301169050602081019050919050565b600067ffffffffffffffff82111562000e3357600080fd5b601f19601f8301169050602081019050919050565b600067ffffffffffffffff82111562000e6057600080fd5b601f19601f8301169050602081019050919050565b6000819050919050565b60008115159050919050565b6000819050919050565b6000819050919050565b60005b8381101562000ebf57808201518184015260208101905062000ea2565b8381111562000ecf576000848401525b50505050565b6112988062000ee56000396000f300608060405260043610610112576000357c0100000000000000000000000000000000000000000000000000000000900463ffffffff1680630838e71b146101175780631163fd2d146101545780631a0925411461019157806339c79e0c146101bc5780634b4fd03b146101e557806357eadb04146102105780636813aaf01461024d57806369d0968b1461027857806378f305c6146102b5578063864444ae146102e0578063893d20e81461030b578063939eab2e146103365780639ef1204c14610361578063b13564881461038a578063b315c597146103b5578063e13804a7146103f2578063eb4d69d51461042f578063eeac39d81461046c578063efdfe6f8146104a9578063ff3c1a8f146104e6575b600080fd5b34801561012357600080fd5b5061013e60048036036101399190810190611083565b610511565b60405161014b9190611145565b60405180910390f35b34801561016057600080fd5b5061017b60048036036101769190810190610fdd565b6105c9565b604051610188919061110f565b60405180910390f35b34801561019d57600080fd5b506101a66105fe565b6040516101b39190611145565b60405180910390f35b3480156101c857600080fd5b506101e360048036036101de9190810190610fdd565b6106af565b005b3480156101f157600080fd5b506101fa6106f4565b6040516102079190611167565b60405180910390f35b34801561021c57600080fd5b5061023760048036036102329190810190610fdd565b610716565b6040516102449190611145565b60405180910390f35b34801561025957600080fd5b506102626107e9565b60405161026f9190611167565b60405180910390f35b34801561028457600080fd5b5061029f600480360361029a9190810190610fdd565b6107ef565b6040516102ac919061110f565b60405180910390f35b3480156102c157600080fd5b506102ca610817565b6040516102d79190611167565b60405180910390f35b3480156102ec57600080fd5b506102f5610821565b6040516103029190611167565b60405180910390f35b34801561031757600080fd5b50610320610827565b60405161032d9190611145565b60405180910390f35b34801561034257600080fd5b5061034b6108d8565b6040516103589190611145565b60405180910390f35b34801561036d57600080fd5b5061038860048036036103839190810190611006565b61097a565b005b34801561039657600080fd5b5061039f610c30565b6040516103ac9190611167565b60405180910390f35b3480156103c157600080fd5b506103dc60048036036103d79190810190611083565b610c3a565b6040516103e99190611167565b60405180910390f35b3480156103fe57600080fd5b5061041960048036036104149190810190611083565b610c5a565b6040516104269190611145565b60405180910390f35b34801561043b57600080fd5b5061045660048036036104519190810190610fdd565b610d12565b6040516104639190611167565b60405180910390f35b34801561047857600080fd5b50610493600480360361048e9190810190610fdd565b610d2a565b6040516104a0919061110f565b60405180910390f35b3480156104b557600080fd5b506104d060048036036104cb9190810190611083565b610d51565b6040516104dd9190611145565b60405180910390f35b3480156104f257600080fd5b506104fb610e09565b6040516105089190611145565b60405180910390f35b6060600a60008381526020019081526020016000206002018054600181600116156101000203166002900480601f0160208091040260200160405190810160405280929190818152602001828054600181600116156101000203166002900480156105bd5780601f10610592576101008083540402835291602001916105bd565b820191906000526020600020905b8154815290600101906020018083116105a057829003601f168201915b50505050509050919050565b6000600b6000836000191660001916815260200190815260200160002060020160009054906101000a900460ff169050919050565b606073__Library_______________________________63ef0b23686004546040518263ffffffff167c0100000000000000000000000000000000000000000000000000000000028152600401610655919061112a565b60006040518083038186803b15801561066d57600080fd5b505af4158015610681573d6000803e3d6000fd5b505050506040513d6000823e3d601f19601f820116820180604052506106aa9190810190611042565b905090565b6000806000836000191660001916815260200190815260200160002054141515156106d957600080fd5b60006006541415156106ea57600080fd5b4260068190555050565b6000600960009054906101000a900460ff16600181111561071157fe5b905090565b6060600a6000600d600085600019166000191681526020019081526020016000205481526020019081526020016000206001018054600181600116156101000203166002900480601f0160208091040260200160405190810160405280929190818152602001828054600181600116156101000203166002900480156107dd5780601f106107b2576101008083540402835291602001916107dd565b820191906000526020600020905b8154815290600101906020018083116107c057829003601f168201915b50505050509050919050565b60085481565b600080600c600084600019166000191681526020019081526020016000205414159050919050565b6000600554905090565b60075481565b606073__Library_______________________________63ef0b23686001546040518263ffffffff167c010000000000000000000000000000000000000000000000000000000002815260040161087e919061112a565b60006040518083038186803b15801561089657600080fd5b505af41580156108aa573d6000803e3d6000fd5b505050506040513d6000823e3d601f19601f820116820180604052506108d39190810190611042565b905090565b606060038054600181600116156101000203166002900480601f0160208091040260200160405190810160405280929190818152602001828054600181600116156101000203166002900480156109705780601f1061094557610100808354040283529160200191610970565b820191906000526020600020905b81548152906001019060200180831161095357829003601f168201915b5050505050905090565b6000600181111561098757fe5b600960009054906101000a900460ff1660018111156109a257fe5b14156109d8576000600c6000846000191660001916815260200190815260200160002054141515156109d357600080fd5b610b3d565b6000600c60008460001916600019168152602001908152602001600020541415610b3c57606060405190810160405280600854815260200173__Library_______________________________63ef0b2368856040518263ffffffff167c0100000000000000000000000000000000000000000000000000000000028152600401610a63919061112a565b60006040518083038186803b158015610a7b57600080fd5b505af4158015610a8f573d6000803e3d6000fd5b505050506040513d6000823e3d601f19601f82011682018060405250610ab89190810190611042565b815260200160001515815250600b60008460001916600019168152602001908152602001600020600082015181600001556020820151816001019080519060200190610b05929190610eba565b5060408201518160020160006101000a81548160ff0219169083151502179055509050506008600081548092919060010191905055505b5b6000600654141515610b5a5760065442101515610b5957600080fd5b5b600b6000836000191660001916815260200190815260200160002060020160009054906101000a900460ff16151515610b9257600080fd5b60008110158015610ba4575060075481105b1515610baf57600080fd5b6001600b6000846000191660001916815260200190815260200160002060020160006101000a81548160ff02191690831515021790555080600d6000846000191660001916815260200190815260200160002081905550600a6000828152602001908152602001600020600401600081548092919060010191905055505050565b6000600654905090565b6000600a6000838152602001908152602001600020600401549050919050565b6060600a60008381526020019081526020016000206001018054600181600116156101000203166002900480601f016020809104026020016040519081016040528092919081815260200182805460018160011615610100020316600290048015610d065780601f10610cdb57610100808354040283529160200191610d06565b820191906000526020600020905b815481529060010190602001808311610ce957829003601f168201915b50505050509050919050565b60006020528060005260406000206000915090505481565b60008060008084600019166000191681526020019081526020016000205414159050919050565b6060600a60008381526020019081526020016000206003018054600181600116156101000203166002900480601f016020809104026020016040519081016040528092919081815260200182805460018160011615610100020316600290048015610dfd5780601f10610dd257610100808354040283529160200191610dfd565b820191906000526020600020905b815481529060010190602001808311610de057829003601f168201915b50505050509050919050565b606073__Library_______________________________63ef0b23686002546040518263ffffffff167c0100000000000000000000000000000000000000000000000000000000028152600401610e60919061112a565b60006040518083038186803b158015610e7857600080fd5b505af4158015610e8c573d6000803e3d6000fd5b505050506040513d6000823e3d601f19601f82011682018060405250610eb59190810190611042565b905090565b828054600181600116156101000203166002900490600052602060002090601f016020900481019282601f10610efb57805160ff1916838001178555610f29565b82800160010185558215610f29579182015b82811115610f28578251825591602001919060010190610f0d565b5b509050610f369190610f3a565b5090565b610f5c91905b80821115610f58576000816000905550600101610f40565b5090565b90565b6000610f6b8235611206565b905092915050565b600082601f8301121515610f8657600080fd5b8151610f99610f94826111af565b611182565b91508082526020830160208301858383011115610fb557600080fd5b610fc083828461121a565b50505092915050565b6000610fd58235611210565b905092915050565b600060208284031215610fef57600080fd5b6000610ffd84828501610f5f565b91505092915050565b6000806040838503121561101957600080fd5b600061102785828601610f5f565b925050602061103885828601610fc9565b9150509250929050565b60006020828403121561105457600080fd5b600082015167ffffffffffffffff81111561106e57600080fd5b61107a84828501610f73565b91505092915050565b60006020828403121561109557600080fd5b60006110a384828501610fc9565b91505092915050565b6110b5816111e6565b82525050565b6110c4816111f2565b82525050565b60006110d5826111db565b8084526110e981602086016020860161121a565b6110f28161124d565b602085010191505092915050565b611109816111fc565b82525050565b600060208201905061112460008301846110ac565b92915050565b600060208201905061113f60008301846110bb565b92915050565b6000602082019050818103600083015261115f81846110ca565b905092915050565b600060208201905061117c6000830184611100565b92915050565b6000604051905081810181811067ffffffffffffffff821117156111a557600080fd5b8060405250919050565b600067ffffffffffffffff8211156111c657600080fd5b601f19601f8301169050602081019050919050565b600081519050919050565b60008115159050919050565b6000819050919050565b6000819050919050565b6000819050919050565b6000819050919050565b60005b8381101561123857808201518184015260208101905061121d565b83811115611247576000848401525b50505050565b6000601f19601f83011690509190505600a265627a7a7230582035e30ad5682f63d7ea953b1562382cd9d9653a1753973c586351837d7d98a0376c6578706572696d656e74616cf50037a265627a7a723058209952dcce55c9cb2bae605e75d47d2ea45032cc9974de8f41b1c5e0a12308c7ac6c6578706572696d656e74616cf50037",
  "source": "pragma solidity ^0.4.24;\npragma experimental ABIEncoderV2;\n\nimport \"./Election.sol\";\nimport './Library.sol';\nimport './strings.sol';\n\ncontract ElectionFactory {\n  using strings for *;\n\n  address[] public elections;\n\n  constructor () public {\n  }\n\n  event electionCreated(address addr, string owner);\n  event closedElection(address addr, string owner);\n  event votedEvent(address addr);\n\n  function getImgs(string _cImg) public pure returns (string[]) {\n    strings.slice memory s = _cImg.toSlice();\n    strings.slice memory delim = \"|\".toSlice();\n    string[] memory parts = new string[](s.count(delim) + 1);\n    for (uint i = 0; i < parts.length; i++) {\n      parts[i] = s.split(delim).toString();\n    }\n    return parts;\n  }\n\n  function createElection (\n    bytes32[3] _content, bytes _imgURL, bool[2] _setup,\n    bytes32[] _candidates,\n    string _cImg,\n    bytes32[] _candidatesDescription,\n    bytes32[] voters, uint[2] _start_end\n  ) public {\n    address addr = new Election(\n      _content, _imgURL, _setup,\n      _candidates, getImgs(_cImg), _candidatesDescription,\n      voters, _start_end);\n    elections.push(addr);\n\n    emit electionCreated(addr, Library.bytes32ToStr(_content[0]));\n  }\n\n  function getSize() public view returns (uint) {\n    return elections.length;\n  }\n\n  function getTitle(address addr) public view returns (string) {\n    Election e = Election(addr);\n\n    return e.getTitle();\n  }\n  function getContent(address addr) public view returns (string, string, string) {\n    Election e = Election(addr);\n\n    return (e.getTitle(), e.getImgURL(), e.getDescription());\n  }\n  function getOwner(address addr) public view returns (string) {\n    Election e = Election(addr);\n\n    return e.getOwner();\n  }\n  function getCandidateSize(address addr) public view returns (uint) {\n    Election e = Election(addr);\n\n    return e.candSize();\n  }\n  function getVoterSize(address addr) public view returns (uint) {\n    Election e = Election(addr);\n\n    return e.votrSize();\n  }\n  function getVoterElectionAddress(bytes32 _email, uint i) public view returns (address, bool) {\n    Election e = Election(elections[i]);\n\n    if (e.getMode() == 1) {\n      return (elections[i], true);\n    }\n\n    if (e.isVoter(_email)) {\n      return (elections[i], true);\n    }\n    return (0, false);\n  }\n  function isVoter(address addr, bytes32 _email) public view returns (bool) {\n    Election e = Election(addr);\n\n    if (e.getMode() == 1) {\n      return true;\n    }\n\n    if (e.isVoter(_email)) {\n      return true;\n    }\n\n    return false;\n  }\n  function getOwnerElectionAddress(bytes32 _email, uint i) public view returns (address, bool) {\n    Election e = Election(elections[i]);\n\n    if (e.isOwner(_email)) {\n      return (elections[i], true);\n    }\n    return (0, false);\n  }\n  function isVoted(address addr, bytes32 _email) public view returns (bool) {\n    Election e = Election(addr);\n\n    return e.isVoted(_email);\n  }\n  function getVotedTo(address addr, bytes32 _email) public view returns (string) {\n    Election e = Election(addr);\n\n    return e.getVotedTo(_email);\n  }\n\n  function getCandidate(address addr, uint i) public view returns (uint, string, string, string, uint) {\n    Election e = Election(addr);\n\n    return (i, e.getCandidateName(i), e.getCandidateImgURL(i), e.getCandidateDescription(i), e.getCandidateVoteCount(i));\n  }\n\n  function vote(address addr, bytes32 _email, uint _candidateId) public {\n    Election e = Election(addr);\n\n    e.vote(_email, _candidateId);\n\n    emit votedEvent(addr);\n  }\n\n  function close(address addr, bytes32 _email) public {\n    Election e = Election(addr);\n\n    e.close(_email);\n\n    emit closedElection(addr, Library.bytes32ToStr(_email));\n  }\n  function getStartDate(address addr) public view returns (uint) {\n    Election e = Election(addr);\n\n    return e.getStartDate();\n  }\n  function getEndDate(address addr) public view returns (uint) {\n    Election e = Election(addr);\n\n    return e.getEndDate();\n  }\n  function getMode(address addr) public view returns (uint) {\n    Election e = Election(addr);\n\n    return e.getMode();\n  }\n}\n",
  "sourcePath": "/Users/kangyi/Projects/react_bc_vote/contracts/ElectionFactory.sol",
  "compiler": {
    "name": "solc",
    "version": "0.4.24+commit.e67f0147.Emscripten.clang"
  },
  "schemaVersion": "2.0.1",
  "updatedAt": "2018-11-06T06:10:08.785Z"
}