{
  "contractName": "Election",
  "abi": [
    {
      "constant": true,
      "inputs": [],
      "name": "votrSize",
      "outputs": [
        {
          "name": "",
          "type": "uint256"
        }
      ],
      "payable": false,
      "stateMutability": "view",
      "type": "function"
    },
    {
      "constant": true,
      "inputs": [],
      "name": "candSize",
      "outputs": [
        {
          "name": "",
          "type": "uint256"
        }
      ],
      "payable": false,
      "stateMutability": "view",
      "type": "function"
    },
    {
      "constant": true,
      "inputs": [
        {
          "name": "",
          "type": "bytes32"
        }
      ],
      "name": "ownerId",
      "outputs": [
        {
          "name": "",
          "type": "uint256"
        }
      ],
      "payable": false,
      "stateMutability": "view",
      "type": "function"
    },
    {
      "inputs": [
        {
          "name": "_content",
          "type": "bytes32[3]"
        },
        {
          "name": "_imgURL",
          "type": "bytes"
        },
        {
          "name": "_setup",
          "type": "bool[2]"
        },
        {
          "name": "_candidates",
          "type": "bytes32[]"
        },
        {
          "name": "_cImg",
          "type": "string[]"
        },
        {
          "name": "_candidatesDescription",
          "type": "bytes32[]"
        },
        {
          "name": "_voters",
          "type": "bytes32[]"
        },
        {
          "name": "_start_end",
          "type": "uint256[2]"
        }
      ],
      "payable": false,
      "stateMutability": "nonpayable",
      "type": "constructor"
    },
    {
      "constant": true,
      "inputs": [
        {
          "name": "_email",
          "type": "bytes32"
        }
      ],
      "name": "isVoter",
      "outputs": [
        {
          "name": "",
          "type": "bool"
        }
      ],
      "payable": false,
      "stateMutability": "view",
      "type": "function"
    },
    {
      "constant": true,
      "inputs": [
        {
          "name": "_email",
          "type": "bytes32"
        }
      ],
      "name": "isOwner",
      "outputs": [
        {
          "name": "",
          "type": "bool"
        }
      ],
      "payable": false,
      "stateMutability": "view",
      "type": "function"
    },
    {
      "constant": true,
      "inputs": [
        {
          "name": "_email",
          "type": "bytes32"
        }
      ],
      "name": "isVoted",
      "outputs": [
        {
          "name": "",
          "type": "bool"
        }
      ],
      "payable": false,
      "stateMutability": "view",
      "type": "function"
    },
    {
      "constant": true,
      "inputs": [
        {
          "name": "_email",
          "type": "bytes32"
        }
      ],
      "name": "getVotedTo",
      "outputs": [
        {
          "name": "",
          "type": "string"
        }
      ],
      "payable": false,
      "stateMutability": "view",
      "type": "function"
    },
    {
      "constant": false,
      "inputs": [
        {
          "name": "_email",
          "type": "bytes32"
        },
        {
          "name": "_candidateId",
          "type": "uint256"
        }
      ],
      "name": "vote",
      "outputs": [],
      "payable": false,
      "stateMutability": "nonpayable",
      "type": "function"
    },
    {
      "constant": true,
      "inputs": [],
      "name": "getTitle",
      "outputs": [
        {
          "name": "",
          "type": "string"
        }
      ],
      "payable": false,
      "stateMutability": "view",
      "type": "function"
    },
    {
      "constant": true,
      "inputs": [],
      "name": "getImgURL",
      "outputs": [
        {
          "name": "",
          "type": "string"
        }
      ],
      "payable": false,
      "stateMutability": "view",
      "type": "function"
    },
    {
      "constant": true,
      "inputs": [],
      "name": "getDescription",
      "outputs": [
        {
          "name": "",
          "type": "string"
        }
      ],
      "payable": false,
      "stateMutability": "view",
      "type": "function"
    },
    {
      "constant": true,
      "inputs": [],
      "name": "getOwner",
      "outputs": [
        {
          "name": "",
          "type": "string"
        }
      ],
      "payable": false,
      "stateMutability": "view",
      "type": "function"
    },
    {
      "constant": true,
      "inputs": [
        {
          "name": "i",
          "type": "uint256"
        }
      ],
      "name": "getCandidateName",
      "outputs": [
        {
          "name": "",
          "type": "string"
        }
      ],
      "payable": false,
      "stateMutability": "view",
      "type": "function"
    },
    {
      "constant": true,
      "inputs": [
        {
          "name": "i",
          "type": "uint256"
        }
      ],
      "name": "getCandidateImgURL",
      "outputs": [
        {
          "name": "",
          "type": "string"
        }
      ],
      "payable": false,
      "stateMutability": "view",
      "type": "function"
    },
    {
      "constant": true,
      "inputs": [
        {
          "name": "i",
          "type": "uint256"
        }
      ],
      "name": "getCandidateDescription",
      "outputs": [
        {
          "name": "",
          "type": "string"
        }
      ],
      "payable": false,
      "stateMutability": "view",
      "type": "function"
    },
    {
      "constant": true,
      "inputs": [
        {
          "name": "i",
          "type": "uint256"
        }
      ],
      "name": "getCandidateVoteCount",
      "outputs": [
        {
          "name": "",
          "type": "uint256"
        }
      ],
      "payable": false,
      "stateMutability": "view",
      "type": "function"
    },
    {
      "constant": false,
      "inputs": [
        {
          "name": "_email",
          "type": "bytes32"
        }
      ],
      "name": "close",
      "outputs": [],
      "payable": false,
      "stateMutability": "nonpayable",
      "type": "function"
    },
    {
      "constant": true,
      "inputs": [],
      "name": "getStartDate",
      "outputs": [
        {
          "name": "",
          "type": "uint256"
        }
      ],
      "payable": false,
      "stateMutability": "view",
      "type": "function"
    },
    {
      "constant": true,
      "inputs": [],
      "name": "getEndDate",
      "outputs": [
        {
          "name": "",
          "type": "uint256"
        }
      ],
      "payable": false,
      "stateMutability": "view",
      "type": "function"
    },
    {
      "constant": true,
      "inputs": [],
      "name": "getMode",
      "outputs": [
        {
          "name": "",
          "type": "uint256"
        }
      ],
      "payable": false,
      "stateMutability": "view",
      "type": "function"
    }
  ],
  "bytecode": "0x60806040523480156200001157600080fd5b506040516200217d3803806200217d833981018060405262000037919081019062000b4f565b60016000808a60006003811015156200004c57fe5b602002015160001916600019168152602001908152602001600020819055508760006003811015156200007b57fe5b6020020151600181600019169055508760016003811015156200009a57fe5b6020020151600281600019169055508660039080519060200190620000c19291906200062f565b50876002600381101515620000d257fe5b602002015160048160001916905550806000600281101515620000f157fe5b60200201516005819055508560006002811015156200010c57fe5b6020020151151562000134578060016002811015156200012857fe5b60200201516006819055505b62000150858585620001e5640100000000026401000000009004565b8560016002811015156200016057fe5b60200201511515620001b1576000600960006101000a81548160ff021916908360018111156200018c57fe5b0217905550620001ab8262000465640100000000026401000000009004565b620001d7565b6001600960006101000a81548160ff02191690836001811115620001d157fe5b02179055505b505050505050505062000ed5565b60008351600781905550600090505b6007548110156200045f5760a06040519081016040528082815260200173__Library_______________________________63ef0b236887858151811015156200023a57fe5b906020019060200201516040518263ffffffff167c01000000000000000000000000000000000000000000000000000000000281526004016200027e919062000ce8565b60006040518083038186803b1580156200029757600080fd5b505af4158015620002ac573d6000803e3d6000fd5b505050506040513d6000823e3d601f19601f82011682018060405250620002d7919081019062000c92565b81526020018483815181101515620002eb57fe5b90602001906020020151815260200173__Library_______________________________63ef0b236885858151811015156200032357fe5b906020019060200201516040518263ffffffff167c010000000000000000000000000000000000000000000000000000000002815260040162000367919062000ce8565b60006040518083038186803b1580156200038057600080fd5b505af415801562000395573d6000803e3d6000fd5b505050506040513d6000823e3d601f19601f82011682018060405250620003c0919081019062000c92565b81526020016000815250600a600083815260200190815260200160002060008201518160000155602082015181600101908051906020019062000405929190620006b6565b50604082015181600201908051906020019062000424929190620006b6565b50606082015181600301908051906020019062000443929190620006b6565b50608082015181600401559050508080600101915050620001f4565b50505050565b60008151600881905550600090505b6008548110156200062b5760018101600c600084848151811015156200049657fe5b90602001906020020151600019166000191681526020019081526020016000208190555060606040519081016040528082815260200173__Library_______________________________63ef0b23688585815181101515620004f557fe5b906020019060200201516040518263ffffffff167c010000000000000000000000000000000000000000000000000000000002815260040162000539919062000ce8565b60006040518083038186803b1580156200055257600080fd5b505af415801562000567573d6000803e3d6000fd5b505050506040513d6000823e3d601f19601f8201168201806040525062000592919081019062000c92565b815260200160001515815250600b60008484815181101515620005b157fe5b9060200190602002015160001916600019168152602001908152602001600020600082015181600001556020820151816001019080519060200190620005f9929190620006b6565b5060408201518160020160006101000a81548160ff021916908315150217905550905050808060010191505062000474565b5050565b828054600181600116156101000203166002900490600052602060002090601f016020900481019282601f106200067257805160ff1916838001178555620006a3565b82800160010185558215620006a3579182015b82811115620006a257825182559160200191906001019062000685565b5b509050620006b291906200073d565b5090565b828054600181600116156101000203166002900490600052602060002090601f016020900481019282601f10620006f957805160ff19168380011785556200072a565b828001600101855582156200072a579182015b82811115620007295782518255916020019190600101906200070c565b5b5090506200073991906200073d565b5090565b6200076291905b808211156200075e57600081600090555060010162000744565b5090565b90565b600082601f83011215156200077957600080fd5b6002620007906200078a8262000d33565b62000d05565b91508183856020840282011115620007a757600080fd5b60005b83811015620007db5781620007c08882620009f3565b845260208401935060208301925050600181019050620007aa565b5050505092915050565b600082601f8301121515620007f957600080fd5b6003620008106200080a8262000d56565b62000d05565b915081838560208402820111156200082757600080fd5b60005b838110156200085b578162000840888262000a09565b8452602084019350602083019250506001810190506200082a565b5050505092915050565b600082601f83011215156200087957600080fd5b8151620008906200088a8262000d79565b62000d05565b91508181835260208401935060208101905083856020840282011115620008b657600080fd5b60005b83811015620008ea5781620008cf888262000a09565b845260208401935060208301925050600181019050620008b9565b5050505092915050565b600082601f83011215156200090857600080fd5b81516200091f620009198262000da2565b62000d05565b9150818183526020840193506020810190508360005b838110156200096957815186016200094e888262000a7d565b84526020840193506020830192505060018101905062000935565b5050505092915050565b600082601f83011215156200098757600080fd5b60026200099e620009988262000dcb565b62000d05565b91508183856020840282011115620009b557600080fd5b60005b83811015620009e95781620009ce888262000b39565b845260208401935060208301925050600181019050620009b8565b5050505092915050565b600062000a01825162000e7f565b905092915050565b600062000a17825162000e8b565b905092915050565b600082601f830112151562000a3357600080fd5b815162000a4a62000a448262000dee565b62000d05565b9150808252602083016020830185838301111562000a6757600080fd5b62000a7483828462000e9f565b50505092915050565b600082601f830112151562000a9157600080fd5b815162000aa862000aa28262000e1b565b62000d05565b9150808252602083016020830185838301111562000ac557600080fd5b62000ad283828462000e9f565b50505092915050565b600082601f830112151562000aef57600080fd5b815162000b0662000b008262000e48565b62000d05565b9150808252602083016020830185838301111562000b2357600080fd5b62000b3083828462000e9f565b50505092915050565b600062000b47825162000e95565b905092915050565b600080600080600080600080610180898b03121562000b6d57600080fd5b600062000b7d8b828c01620007e5565b985050606089015167ffffffffffffffff81111562000b9b57600080fd5b62000ba98b828c0162000a1f565b975050608062000bbc8b828c0162000765565b96505060c089015167ffffffffffffffff81111562000bda57600080fd5b62000be88b828c0162000865565b95505060e089015167ffffffffffffffff81111562000c0657600080fd5b62000c148b828c01620008f4565b94505061010089015167ffffffffffffffff81111562000c3357600080fd5b62000c418b828c0162000865565b93505061012089015167ffffffffffffffff81111562000c6057600080fd5b62000c6e8b828c0162000865565b92505061014062000c828b828c0162000973565b9150509295985092959890939650565b60006020828403121562000ca557600080fd5b600082015167ffffffffffffffff81111562000cc057600080fd5b62000cce8482850162000adb565b91505092915050565b62000ce28162000e75565b82525050565b600060208201905062000cff600083018462000cd7565b92915050565b6000604051905081810181811067ffffffffffffffff8211171562000d2957600080fd5b8060405250919050565b600067ffffffffffffffff82111562000d4b57600080fd5b602082029050919050565b600067ffffffffffffffff82111562000d6e57600080fd5b602082029050919050565b600067ffffffffffffffff82111562000d9157600080fd5b602082029050602081019050919050565b600067ffffffffffffffff82111562000dba57600080fd5b602082029050602081019050919050565b600067ffffffffffffffff82111562000de357600080fd5b602082029050919050565b600067ffffffffffffffff82111562000e0657600080fd5b601f19601f8301169050602081019050919050565b600067ffffffffffffffff82111562000e3357600080fd5b601f19601f8301169050602081019050919050565b600067ffffffffffffffff82111562000e6057600080fd5b601f19601f8301169050602081019050919050565b6000819050919050565b60008115159050919050565b6000819050919050565b6000819050919050565b60005b8381101562000ebf57808201518184015260208101905062000ea2565b8381111562000ecf576000848401525b50505050565b6112988062000ee56000396000f300608060405260043610610112576000357c0100000000000000000000000000000000000000000000000000000000900463ffffffff1680630838e71b146101175780631163fd2d146101545780631a0925411461019157806339c79e0c146101bc5780634b4fd03b146101e557806357eadb04146102105780636813aaf01461024d57806369d0968b1461027857806378f305c6146102b5578063864444ae146102e0578063893d20e81461030b578063939eab2e146103365780639ef1204c14610361578063b13564881461038a578063b315c597146103b5578063e13804a7146103f2578063eb4d69d51461042f578063eeac39d81461046c578063efdfe6f8146104a9578063ff3c1a8f146104e6575b600080fd5b34801561012357600080fd5b5061013e60048036036101399190810190611083565b610511565b60405161014b9190611145565b60405180910390f35b34801561016057600080fd5b5061017b60048036036101769190810190610fdd565b6105c9565b604051610188919061110f565b60405180910390f35b34801561019d57600080fd5b506101a66105fe565b6040516101b39190611145565b60405180910390f35b3480156101c857600080fd5b506101e360048036036101de9190810190610fdd565b6106af565b005b3480156101f157600080fd5b506101fa6106f4565b6040516102079190611167565b60405180910390f35b34801561021c57600080fd5b5061023760048036036102329190810190610fdd565b610716565b6040516102449190611145565b60405180910390f35b34801561025957600080fd5b506102626107e9565b60405161026f9190611167565b60405180910390f35b34801561028457600080fd5b5061029f600480360361029a9190810190610fdd565b6107ef565b6040516102ac919061110f565b60405180910390f35b3480156102c157600080fd5b506102ca610817565b6040516102d79190611167565b60405180910390f35b3480156102ec57600080fd5b506102f5610821565b6040516103029190611167565b60405180910390f35b34801561031757600080fd5b50610320610827565b60405161032d9190611145565b60405180910390f35b34801561034257600080fd5b5061034b6108d8565b6040516103589190611145565b60405180910390f35b34801561036d57600080fd5b5061038860048036036103839190810190611006565b61097a565b005b34801561039657600080fd5b5061039f610c30565b6040516103ac9190611167565b60405180910390f35b3480156103c157600080fd5b506103dc60048036036103d79190810190611083565b610c3a565b6040516103e99190611167565b60405180910390f35b3480156103fe57600080fd5b5061041960048036036104149190810190611083565b610c5a565b6040516104269190611145565b60405180910390f35b34801561043b57600080fd5b5061045660048036036104519190810190610fdd565b610d12565b6040516104639190611167565b60405180910390f35b34801561047857600080fd5b50610493600480360361048e9190810190610fdd565b610d2a565b6040516104a0919061110f565b60405180910390f35b3480156104b557600080fd5b506104d060048036036104cb9190810190611083565b610d51565b6040516104dd9190611145565b60405180910390f35b3480156104f257600080fd5b506104fb610e09565b6040516105089190611145565b60405180910390f35b6060600a60008381526020019081526020016000206002018054600181600116156101000203166002900480601f0160208091040260200160405190810160405280929190818152602001828054600181600116156101000203166002900480156105bd5780601f10610592576101008083540402835291602001916105bd565b820191906000526020600020905b8154815290600101906020018083116105a057829003601f168201915b50505050509050919050565b6000600b6000836000191660001916815260200190815260200160002060020160009054906101000a900460ff169050919050565b606073__Library_______________________________63ef0b23686004546040518263ffffffff167c0100000000000000000000000000000000000000000000000000000000028152600401610655919061112a565b60006040518083038186803b15801561066d57600080fd5b505af4158015610681573d6000803e3d6000fd5b505050506040513d6000823e3d601f19601f820116820180604052506106aa9190810190611042565b905090565b6000806000836000191660001916815260200190815260200160002054141515156106d957600080fd5b60006006541415156106ea57600080fd5b4260068190555050565b6000600960009054906101000a900460ff16600181111561071157fe5b905090565b6060600a6000600d600085600019166000191681526020019081526020016000205481526020019081526020016000206001018054600181600116156101000203166002900480601f0160208091040260200160405190810160405280929190818152602001828054600181600116156101000203166002900480156107dd5780601f106107b2576101008083540402835291602001916107dd565b820191906000526020600020905b8154815290600101906020018083116107c057829003601f168201915b50505050509050919050565b60085481565b600080600c600084600019166000191681526020019081526020016000205414159050919050565b6000600554905090565b60075481565b606073__Library_______________________________63ef0b23686001546040518263ffffffff167c010000000000000000000000000000000000000000000000000000000002815260040161087e919061112a565b60006040518083038186803b15801561089657600080fd5b505af41580156108aa573d6000803e3d6000fd5b505050506040513d6000823e3d601f19601f820116820180604052506108d39190810190611042565b905090565b606060038054600181600116156101000203166002900480601f0160208091040260200160405190810160405280929190818152602001828054600181600116156101000203166002900480156109705780601f1061094557610100808354040283529160200191610970565b820191906000526020600020905b81548152906001019060200180831161095357829003601f168201915b5050505050905090565b6000600181111561098757fe5b600960009054906101000a900460ff1660018111156109a257fe5b14156109d8576000600c6000846000191660001916815260200190815260200160002054141515156109d357600080fd5b610b3d565b6000600c60008460001916600019168152602001908152602001600020541415610b3c57606060405190810160405280600854815260200173__Library_______________________________63ef0b2368856040518263ffffffff167c0100000000000000000000000000000000000000000000000000000000028152600401610a63919061112a565b60006040518083038186803b158015610a7b57600080fd5b505af4158015610a8f573d6000803e3d6000fd5b505050506040513d6000823e3d601f19601f82011682018060405250610ab89190810190611042565b815260200160001515815250600b60008460001916600019168152602001908152602001600020600082015181600001556020820151816001019080519060200190610b05929190610eba565b5060408201518160020160006101000a81548160ff0219169083151502179055509050506008600081548092919060010191905055505b5b6000600654141515610b5a5760065442101515610b5957600080fd5b5b600b6000836000191660001916815260200190815260200160002060020160009054906101000a900460ff16151515610b9257600080fd5b60008110158015610ba4575060075481105b1515610baf57600080fd5b6001600b6000846000191660001916815260200190815260200160002060020160006101000a81548160ff02191690831515021790555080600d6000846000191660001916815260200190815260200160002081905550600a6000828152602001908152602001600020600401600081548092919060010191905055505050565b6000600654905090565b6000600a6000838152602001908152602001600020600401549050919050565b6060600a60008381526020019081526020016000206001018054600181600116156101000203166002900480601f016020809104026020016040519081016040528092919081815260200182805460018160011615610100020316600290048015610d065780601f10610cdb57610100808354040283529160200191610d06565b820191906000526020600020905b815481529060010190602001808311610ce957829003601f168201915b50505050509050919050565b60006020528060005260406000206000915090505481565b60008060008084600019166000191681526020019081526020016000205414159050919050565b6060600a60008381526020019081526020016000206003018054600181600116156101000203166002900480601f016020809104026020016040519081016040528092919081815260200182805460018160011615610100020316600290048015610dfd5780601f10610dd257610100808354040283529160200191610dfd565b820191906000526020600020905b815481529060010190602001808311610de057829003601f168201915b50505050509050919050565b606073__Library_______________________________63ef0b23686002546040518263ffffffff167c0100000000000000000000000000000000000000000000000000000000028152600401610e60919061112a565b60006040518083038186803b158015610e7857600080fd5b505af4158015610e8c573d6000803e3d6000fd5b505050506040513d6000823e3d601f19601f82011682018060405250610eb59190810190611042565b905090565b828054600181600116156101000203166002900490600052602060002090601f016020900481019282601f10610efb57805160ff1916838001178555610f29565b82800160010185558215610f29579182015b82811115610f28578251825591602001919060010190610f0d565b5b509050610f369190610f3a565b5090565b610f5c91905b80821115610f58576000816000905550600101610f40565b5090565b90565b6000610f6b8235611206565b905092915050565b600082601f8301121515610f8657600080fd5b8151610f99610f94826111af565b611182565b91508082526020830160208301858383011115610fb557600080fd5b610fc083828461121a565b50505092915050565b6000610fd58235611210565b905092915050565b600060208284031215610fef57600080fd5b6000610ffd84828501610f5f565b91505092915050565b6000806040838503121561101957600080fd5b600061102785828601610f5f565b925050602061103885828601610fc9565b9150509250929050565b60006020828403121561105457600080fd5b600082015167ffffffffffffffff81111561106e57600080fd5b61107a84828501610f73565b91505092915050565b60006020828403121561109557600080fd5b60006110a384828501610fc9565b91505092915050565b6110b5816111e6565b82525050565b6110c4816111f2565b82525050565b60006110d5826111db565b8084526110e981602086016020860161121a565b6110f28161124d565b602085010191505092915050565b611109816111fc565b82525050565b600060208201905061112460008301846110ac565b92915050565b600060208201905061113f60008301846110bb565b92915050565b6000602082019050818103600083015261115f81846110ca565b905092915050565b600060208201905061117c6000830184611100565b92915050565b6000604051905081810181811067ffffffffffffffff821117156111a557600080fd5b8060405250919050565b600067ffffffffffffffff8211156111c657600080fd5b601f19601f8301169050602081019050919050565b600081519050919050565b60008115159050919050565b6000819050919050565b6000819050919050565b6000819050919050565b6000819050919050565b60005b8381101561123857808201518184015260208101905061121d565b83811115611247576000848401525b50505050565b6000601f19601f83011690509190505600a265627a7a7230582035e30ad5682f63d7ea953b1562382cd9d9653a1753973c586351837d7d98a0376c6578706572696d656e74616cf50037",
  "source": "pragma solidity ^0.4.24;\npragma experimental ABIEncoderV2;\n\nimport './Library.sol';\n\ncontract Election {\n  mapping(bytes32 => uint) public ownerId;\n  bytes32 private owner;\n  bytes32 private title;\n  bytes private imgURL;\n  bytes32 private description;\n  uint private startDate;\n  uint private endDate;\n  uint public candSize;\n  uint public votrSize;\n  Mode private mode;\n\n  enum Mode { Private, Public }\n\n  mapping(uint => Candidate) private candidates;\n  mapping(bytes32 => Voter) private voters;\n  mapping(bytes32 => uint) private voterId;\n  mapping(bytes32 => uint) private votedTo;\n  mapping(bytes32 => uint) private pubVoterId;\n\n  struct Candidate {\n    uint id;\n    string name;\n    string imgURL;\n    string description;\n    uint voteCount;\n  }\n\n  struct Voter {\n    uint id;\n    string email;\n    bool voted;\n  }\n\n  constructor (\n    bytes32[3] _content, bytes _imgURL, bool[2] _setup,\n    bytes32[] _candidates,\n    string[] _cImg,\n    bytes32[] _candidatesDescription,\n    bytes32[] _voters, uint[2] _start_end\n  ) public {\n    ownerId[_content[0]] = 1;\n    owner = _content[0];\n    title = _content[1];\n    imgURL = _imgURL;\n    description = _content[2];\n    startDate = _start_end[0];\n    // Not closing manually\n    if (!_setup[0]) {\n      endDate = _start_end[1];\n    }\n    addCandidates(_candidates, _cImg, _candidatesDescription);\n\n    // Whether is 'Public' or 'Private' mode\n    if (!_setup[1]) {\n      mode = Mode.Private;\n      addVoters(_voters);\n    } else {\n      mode = Mode.Public;\n    }\n\n  }\n\n  function addCandidates(bytes32[] _names,\n                         string[] _img,\n                         bytes32[] _description) private {\n    candSize = _names.length;\n\n    for (uint i = 0; i < candSize; i++) {\n      candidates[i] = Candidate(\n        i,\n        Library.bytes32ToStr(_names[i]),\n        _img[i],\n        Library.bytes32ToStr(_description[i]),\n        0);\n    }\n  }\n\n  function addVoters(bytes32[] _emails) private {\n    votrSize = _emails.length;\n\n    for (uint i = 0; i < votrSize; i++) {\n      voterId[_emails[i]] = i + 1;\n      voters[_emails[i]] = Voter(i, Library.bytes32ToStr(_emails[i]), false);\n    }\n  }\n  function isVoter(bytes32 _email) public view returns (bool) {\n    return (voterId[_email] != 0);\n  }\n  function isOwner(bytes32 _email) public view returns (bool) {\n    return (ownerId[_email] != 0);\n  }\n  function isVoted(bytes32 _email) public view returns (bool) {\n    return (voters[_email].voted);\n  }\n  function getVotedTo(bytes32 _email) public view returns (string) {\n    return (candidates[votedTo[_email]].name);\n  }\n\n  function vote (bytes32 _email, uint _candidateId) public {\n    if (mode == Mode.Private) {\n      require(voterId[_email] != 0);\n    } else {\n      if (voterId[_email] == 0) {\n        voters[_email] = Voter(votrSize, Library.bytes32ToStr(_email), false);\n        votrSize++;\n      }\n    }\n\n    if (endDate != 0) {\n      // Due date\n      require(now < endDate);\n    }\n\n    // require that they haven't voted before\n    require(!voters[_email].voted);\n\n    // require a valid candidate\n    require(_candidateId >= 0 && _candidateId < candSize);\n\n    // record the voter has voted\n    voters[_email].voted = true;\n\n    // update the voter vote to\n    votedTo[_email] = _candidateId;\n\n    // update candidate vote Count\n    candidates[_candidateId].voteCount ++;\n  }\n\n  function getTitle() public view returns (string) {\n    return Library.bytes32ToStr(title);\n  }\n  function getImgURL() public view returns (string) {\n    return string(imgURL);\n  }\n  function getDescription() public view returns (string) {\n    return Library.bytes32ToStr(description);\n  }\n  function getOwner() public view returns (string) {\n    return Library.bytes32ToStr(owner);\n  }\n  // Candidate\n  function getCandidateName(uint i) public view returns (string) {\n    return candidates[i].name;\n  }\n  function getCandidateImgURL(uint i) public view returns (string) {\n    return string(candidates[i].imgURL);\n  }\n  function getCandidateDescription(uint i) public view returns (string) {\n    return candidates[i].description;\n  }\n  function getCandidateVoteCount(uint i) public view returns (uint) {\n    return candidates[i].voteCount;\n  }\n  function close(bytes32 _email) public {\n    require(ownerId[_email] != 0);\n\n    // Is manual close\n    require(endDate == 0);\n\n    endDate = now;\n  }\n\n  function getStartDate() public view returns (uint) {\n    return startDate;\n  }\n  function getEndDate() public view returns (uint) {\n    return endDate;\n  }\n  function getMode() public view returns (uint) {\n    return uint(mode);\n  }\n}\n",
  "sourcePath": "/Users/kangyi/Projects/react_bc_vote/contracts/Election.sol",
  "compiler": {
    "name": "solc",
    "version": "0.4.24+commit.e67f0147.Emscripten.clang"
  },
  "schemaVersion": "2.0.1",
  "updatedAt": "2018-11-06T06:10:07.687Z"
}