{
  "contractName": "Type",
  "abi": [
    {
      "constant": true,
      "inputs": [
        {
          "name": "x",
          "type": "bytes32"
        }
      ],
      "name": "bytes32ToStr",
      "outputs": [
        {
          "name": "",
          "type": "string"
        }
      ],
      "payable": false,
      "stateMutability": "pure",
      "type": "function"
    }
  ],
  "bytecode": "0x610322610030600b82828239805160001a6073146000811461002057610022565bfe5b5030600052607381538281f3007300000000000000000000000000000000000000003014608060405260043610610058576000357c0100000000000000000000000000000000000000000000000000000000900463ffffffff168063ef0b23681461005d575b600080fd5b61007f60048036038101908080356000191690602001909291905050506100fa565b6040518080602001828103825283818151815260200191508051906020019080838360005b838110156100bf5780820151818401526020810190506100a4565b50505050905090810190601f1680156100ec5780820380516001836020036101000a031916815260200191505b509250505060405180910390f35b6060806000806000606060206040519080825280601f01601f1916602001820160405280156101385781602001602082028038833980820191505090505b50945060009350600092505b6020831015610202578260080260020a876001900402600102915060007f010000000000000000000000000000000000000000000000000000000000000002827effffffffffffffffffffffffffffffffffffffffffffffffffffffffffffff19161415156101f5578185858151811015156101bc57fe5b9060200101907effffffffffffffffffffffffffffffffffffffffffffffffffffffffffffff1916908160001a90535083806001019450505b8280600101935050610144565b836040519080825280601f01601f1916602001820160405280156102355781602001602082028038833980820191505090505b509050600092505b838310156102e957848381518110151561025357fe5b9060200101517f010000000000000000000000000000000000000000000000000000000000000090047f01000000000000000000000000000000000000000000000000000000000000000281848151811015156102ac57fe5b9060200101907effffffffffffffffffffffffffffffffffffffffffffffffffffffffffffff1916908160001a905350828060010193505061023d565b80955050505050509190505600a165627a7a723058202d8c30bce7693a367cc9a7ee3f8e5e7918b1b5c560fa0c9e0acdac87d060e7660029",
  "source": "pragma solidity ^0.4.24;\n\nlibrary Type {\n  function bytes32ToStr(bytes32 x) public pure returns (string) {\n    bytes memory bytesString = new bytes(32);\n    uint charCount = 0;\n    for (uint j = 0; j < 32; j++) {\n      byte char = byte(bytes32(uint(x) * 2 ** (8 * j)));\n      if (char != 0) {\n        bytesString[charCount] = char;\n        charCount++;\n      }\n    }\n    bytes memory bytesStringTrimmed = new bytes(charCount);\n    for (j = 0; j < charCount; j++) {\n      bytesStringTrimmed[j] = bytesString[j];\n    }\n    return string(bytesStringTrimmed);\n  }\n}\n",
  "sourcePath": "/Users/kangyi/Projects/react_bc_vote/contracts/Type.sol",
  "compiler": {
    "name": "solc",
    "version": "0.4.24+commit.e67f0147.Emscripten.clang"
  },
  "schemaVersion": "2.0.1",
  "updatedAt": "2018-10-21T13:12:19.414Z"
}