{
  "contractName": "User",
  "abi": [
    {
      "constant": true,
      "inputs": [],
      "name": "usersCount",
      "outputs": [
        {
          "name": "",
          "type": "uint256"
        }
      ],
      "payable": false,
      "stateMutability": "view",
      "type": "function"
    },
    {
      "constant": true,
      "inputs": [
        {
          "name": "",
          "type": "bytes32"
        }
      ],
      "name": "users",
      "outputs": [
        {
          "name": "id",
          "type": "address"
        },
        {
          "name": "email",
          "type": "string"
        },
        {
          "name": "since",
          "type": "uint256"
        }
      ],
      "payable": false,
      "stateMutability": "view",
      "type": "function"
    },
    {
      "constant": true,
      "inputs": [
        {
          "name": "",
          "type": "bytes32"
        }
      ],
      "name": "emailId",
      "outputs": [
        {
          "name": "",
          "type": "uint256"
        }
      ],
      "payable": false,
      "stateMutability": "view",
      "type": "function"
    },
    {
      "inputs": [],
      "payable": false,
      "stateMutability": "nonpayable",
      "type": "constructor"
    },
    {
      "constant": true,
      "inputs": [
        {
          "name": "_email",
          "type": "bytes32"
        }
      ],
      "name": "verifyCredentials",
      "outputs": [
        {
          "name": "",
          "type": "bool"
        }
      ],
      "payable": false,
      "stateMutability": "view",
      "type": "function"
    },
    {
      "constant": false,
      "inputs": [
        {
          "name": "_email",
          "type": "bytes32"
        }
      ],
      "name": "loginUser",
      "outputs": [],
      "payable": false,
      "stateMutability": "nonpayable",
      "type": "function"
    }
  ],
  "bytecode": "0x608060405234801561001057600080fd5b5061066e806100206000396000f30060806040526004361061006d576000357c0100000000000000000000000000000000000000000000000000000000900463ffffffff1680636ba13a821461007257806371a0e9371461009d578063bf152903146100e6578063cea6ab9814610117578063f63fda4f146101fb575b600080fd5b34801561007e57600080fd5b50610087610240565b6040518082815260200191505060405180910390f35b3480156100a957600080fd5b506100cc6004803603810190808035600019169060200190929190505050610246565b604051808215151515815260200191505060405180910390f35b3480156100f257600080fd5b506101156004803603810190808035600019169060200190929190505050610284565b005b34801561012357600080fd5b5061014660048036038101908080356000191690602001909291905050506104a3565b604051808473ffffffffffffffffffffffffffffffffffffffff1673ffffffffffffffffffffffffffffffffffffffff16815260200180602001838152602001828103825284818151815260200191508051906020019080838360005b838110156101be5780820151818401526020810190506101a3565b50505050905090810190601f1680156101eb5780820380516001836020036101000a031916815260200191505b5094505050505060405180910390f35b34801561020757600080fd5b5061022a6004803603810190808035600019169060200190929190505050610585565b6040518082815260200191505060405180910390f35b60025481565b6000806001600084600019166000191681526020019081526020016000205490506000811415610279576000915061027e565b600191505b50919050565b6000600160008360001916600019168152602001908152602001600020541415156102ae57600080fd5b60026000815480929190600101919050555060018060008360001916600019168152602001908152602001600020819055506060604051908101604052803373ffffffffffffffffffffffffffffffffffffffff16815260200173__Type__________________________________63ef0b2368846040518263ffffffff167c010000000000000000000000000000000000000000000000000000000002815260040180826000191660001916815260200191505060006040518083038186803b15801561037b57600080fd5b505af415801561038f573d6000803e3d6000fd5b505050506040513d6000823e3d601f19601f8201168201806040525060208110156103b957600080fd5b8101908080516401000000008111156103d157600080fd5b828101905060208101848111156103e757600080fd5b815185600182028301116401000000008211171561040457600080fd5b5050929190505050815260200142815250600080836000191660001916815260200190815260200160002060008201518160000160006101000a81548173ffffffffffffffffffffffffffffffffffffffff021916908373ffffffffffffffffffffffffffffffffffffffff160217905550602082015181600101908051906020019061049292919061059d565b506040820151816002015590505050565b60006020528060005260406000206000915090508060000160009054906101000a900473ffffffffffffffffffffffffffffffffffffffff1690806001018054600181600116156101000203166002900480601f0160208091040260200160405190810160405280929190818152602001828054600181600116156101000203166002900480156105755780601f1061054a57610100808354040283529160200191610575565b820191906000526020600020905b81548152906001019060200180831161055857829003601f168201915b5050505050908060020154905083565b60016020528060005260406000206000915090505481565b828054600181600116156101000203166002900490600052602060002090601f016020900481019282601f106105de57805160ff191683800117855561060c565b8280016001018555821561060c579182015b8281111561060b5782518255916020019190600101906105f0565b5b509050610619919061061d565b5090565b61063f91905b8082111561063b576000816000905550600101610623565b5090565b905600a165627a7a7230582082cea39b88e878978860b8f79391a8830c0373460a06628035f5ee95b625c9a40029",
  "source": "pragma solidity ^0.4.24;\n\nimport \"./Type.sol\";\n\ncontract User {\n  mapping(bytes32 => Profile) public users;\n  mapping(bytes32 => uint) public emailId;\n  uint public usersCount;\n\n  struct Profile {\n    address id;\n    string email;\n    uint since;\n  }\n\n  constructor () public {}\n\n  function verifyCredentials(bytes32 _email) public view returns (bool) {\n    uint _emailId = emailId[_email];\n\n    if (_emailId == 0) {\n      return (false);\n    }\n\n    return (true);\n  }\n\n  function loginUser(bytes32 _email) public {\n    require(emailId[_email] == 0);\n    usersCount++;\n    emailId[_email] = 1;\n    users[_email] = Profile({\n      id: msg.sender,\n      email: Type.bytes32ToStr(_email),\n      since: now\n    });\n  }\n}\n",
  "sourcePath": "/Users/kangyi/Projects/react_bc_vote/contracts/User.sol",
  "compiler": {
    "name": "solc",
    "version": "0.4.24+commit.e67f0147.Emscripten.clang"
  },
  "schemaVersion": "2.0.1",
  "updatedAt": "2018-10-26T16:01:10.429Z"
}