{
  "contractName": "User",
  "abi": [
    {
      "constant": true,
      "inputs": [
        {
          "name": "",
          "type": "address"
        }
      ],
      "name": "userId",
      "outputs": [
        {
          "name": "",
          "type": "uint256"
        }
      ],
      "payable": false,
      "stateMutability": "view",
      "type": "function"
    },
    {
      "constant": true,
      "inputs": [],
      "name": "usersCount",
      "outputs": [
        {
          "name": "",
          "type": "uint256"
        }
      ],
      "payable": false,
      "stateMutability": "view",
      "type": "function"
    },
    {
      "constant": true,
      "inputs": [
        {
          "name": "",
          "type": "address"
        }
      ],
      "name": "users",
      "outputs": [
        {
          "name": "id",
          "type": "address"
        },
        {
          "name": "email",
          "type": "string"
        },
        {
          "name": "since",
          "type": "uint256"
        }
      ],
      "payable": false,
      "stateMutability": "view",
      "type": "function"
    },
    {
      "constant": true,
      "inputs": [
        {
          "name": "",
          "type": "bytes32"
        }
      ],
      "name": "emailId",
      "outputs": [
        {
          "name": "",
          "type": "uint256"
        }
      ],
      "payable": false,
      "stateMutability": "view",
      "type": "function"
    },
    {
      "inputs": [],
      "payable": false,
      "stateMutability": "nonpayable",
      "type": "constructor"
    },
    {
      "constant": true,
      "inputs": [
        {
          "name": "_email",
          "type": "bytes32"
        }
      ],
      "name": "verifyCredentials",
      "outputs": [
        {
          "name": "",
          "type": "bool"
        },
        {
          "name": "",
          "type": "bool"
        }
      ],
      "payable": false,
      "stateMutability": "view",
      "type": "function"
    },
    {
      "constant": false,
      "inputs": [
        {
          "name": "_email",
          "type": "bytes32"
        }
      ],
      "name": "loginUser",
      "outputs": [],
      "payable": false,
      "stateMutability": "nonpayable",
      "type": "function"
    }
  ],
  "bytecode": "0x608060405234801561001057600080fd5b506107eb806100206000396000f300608060405260043610610078576000357c0100000000000000000000000000000000000000000000000000000000900463ffffffff168063376fe1021461007d5780636ba13a82146100d457806371a0e937146100ff578063a87430ba14610153578063bf15290314610249578063f63fda4f1461027a575b600080fd5b34801561008957600080fd5b506100be600480360381019080803573ffffffffffffffffffffffffffffffffffffffff1690602001909291905050506102bf565b6040518082815260200191505060405180910390f35b3480156100e057600080fd5b506100e96102d7565b6040518082815260200191505060405180910390f35b34801561010b57600080fd5b5061012e60048036038101908080356000191690602001909291905050506102dd565b6040518083151515158152602001821515151581526020019250505060405180910390f35b34801561015f57600080fd5b50610194600480360381019080803573ffffffffffffffffffffffffffffffffffffffff169060200190929190505050610398565b604051808473ffffffffffffffffffffffffffffffffffffffff1673ffffffffffffffffffffffffffffffffffffffff16815260200180602001838152602001828103825284818151815260200191508051906020019080838360005b8381101561020c5780820151818401526020810190506101f1565b50505050905090810190601f1680156102395780820380516001836020036101000a031916815260200191505b5094505050505060405180910390f35b34801561025557600080fd5b50610278600480360381019080803560001916906020019092919050505061047a565b005b34801561028657600080fd5b506102a96004803603810190808035600019169060200190929190505050610702565b6040518082815260200191505060405180910390f35b60016020528060005260406000206000915090505481565b60035481565b600080600080600160003373ffffffffffffffffffffffffffffffffffffffff1673ffffffffffffffffffffffffffffffffffffffff168152602001908152602001600020549150600260008660001916600019168152602001908152602001600020549050600082141580156103545750600081145b156103655760008093509350610391565b60008214158015610377575060008114155b156103885760018093509350610391565b60016000935093505b5050915091565b60006020528060005260406000206000915090508060000160009054906101000a900473ffffffffffffffffffffffffffffffffffffffff1690806001018054600181600116156101000203166002900480601f01602080910402602001604051908101604052809291908181526020018280546001816001161561010002031660029004801561046a5780601f1061043f5761010080835404028352916020019161046a565b820191906000526020600020905b81548152906001019060200180831161044d57829003601f168201915b5050505050908060020154905083565b6000600260008360001916600019168152602001908152602001600020541415156104a457600080fd5b60036000815480929190600101919050555060018060003373ffffffffffffffffffffffffffffffffffffffff1673ffffffffffffffffffffffffffffffffffffffff168152602001908152602001600020819055506001600260008360001916600019168152602001908152602001600020819055506060604051908101604052803373ffffffffffffffffffffffffffffffffffffffff16815260200173__Type__________________________________63ef0b2368846040518263ffffffff167c010000000000000000000000000000000000000000000000000000000002815260040180826000191660001916815260200191505060006040518083038186803b1580156105b657600080fd5b505af41580156105ca573d6000803e3d6000fd5b505050506040513d6000823e3d601f19601f8201168201806040525060208110156105f457600080fd5b81019080805164010000000081111561060c57600080fd5b8281019050602081018481111561062257600080fd5b815185600182028301116401000000008211171561063f57600080fd5b50509291905050508152602001428152506000803373ffffffffffffffffffffffffffffffffffffffff1673ffffffffffffffffffffffffffffffffffffffff16815260200190815260200160002060008201518160000160006101000a81548173ffffffffffffffffffffffffffffffffffffffff021916908373ffffffffffffffffffffffffffffffffffffffff16021790555060208201518160010190805190602001906106f192919061071a565b506040820151816002015590505050565b60026020528060005260406000206000915090505481565b828054600181600116156101000203166002900490600052602060002090601f016020900481019282601f1061075b57805160ff1916838001178555610789565b82800160010185558215610789579182015b8281111561078857825182559160200191906001019061076d565b5b509050610796919061079a565b5090565b6107bc91905b808211156107b85760008160009055506001016107a0565b5090565b905600a165627a7a72305820e91b1d584d4cbfad077051a0f344a6d7590fcc43abee6fd84e6fbe4ac4d3ac3a0029",
  "source": "pragma solidity ^0.4.24;\n\nimport \"./Type.sol\";\n\ncontract User {\n  mapping(address => Profile) public users;\n  mapping(address => uint) public userId;\n  mapping(bytes32 => uint) public emailId;\n  uint public usersCount;\n\n  struct Profile {\n    address id;\n    string email;\n    uint since;\n  }\n\n  constructor () public {\n    // loginUser(\"C1\");\n  }\n\n  function verifyCredentials(bytes32 _email) public view returns (bool, bool) {\n    uint _userId = userId[msg.sender];\n    uint _emailId = emailId[_email];\n\n    if (_userId != 0 && _emailId == 0) {\n      return (false, false);\n    }\n\n    if (_userId != 0 && _emailId != 0) {\n      return (true, true);\n    }\n    return (true, false);\n  }\n\n  function loginUser(bytes32 _email) public {\n    require(emailId[_email] == 0);\n    usersCount++;\n    userId[msg.sender] = 1;\n    emailId[_email] = 1;\n    users[msg.sender] = Profile({\n      id: msg.sender,\n      email: Type.bytes32ToStr(_email),\n      since: now\n    });\n  }\n}\n",
  "sourcePath": "/Users/kangyi/Projects/react_bc_vote/contracts/User.sol",
  "compiler": {
    "name": "solc",
    "version": "0.4.24+commit.e67f0147.Emscripten.clang"
  },
  "schemaVersion": "2.0.1",
  "updatedAt": "2018-10-22T16:46:43.303Z"
}